:020000040800F2
:10000000000002203551010809030008150300080B
:100010001D030008250300082D0300080000000050
:100020000000000000000000000000003503000890
:1000300041030008000000004D03000859030008B8
:100040008151010881510108815101088151010844
:100050008151010881510108815101088151010834
:100060008151010881510108815101088151010824
:100070008151010881510108815101088151010814
:100080008151010881510108815101088151010804
:1000900081510108815101088151010881510108F4
:1000A00081510108815101088151010881510108E4
:1000B00081510108815101088151010881510108D4
:1000C00081510108815101088151010881510108C4
:1000D00081510108F53B0008815101088151010857
:1000E00081510108815101088151010881510108A4
:1000F0008151010881510108815101088151010894
:100100008151010881510108815101088151010883
:100110008151010881510108815101088151010873
:100120008151010881510108815101088151010863
:100130008151010881510108815101088151010853
:100140008151010881510108815101088151010843
:100150008151010881510108815101088151010833
:100160008151010881510108815101088151010823
:100170008151010881510108815101088151010813
:080180008151010881510108C1
:1001880010B5054C237833B9044B13B10448AFF3C9
:1001980000800123237010BDD075002000000000EE
:1001A8005C87010808B5064B1BB106480649AFF342
:1001B80000800648036813B1054B03B1984708BD92
:1001C800000000005C870108D4750020CC6F002077
:1001D80000000000154B002B08BF134B9D46A3F5EC
:1001E800803A00218B460F461348144A121A14F01D
:1001F8005FFE0F4B002B00D098470E4B002B00D012
:1002080098470020002104000D000D48002802D066
:100218000C4814F019FF14F023FE2000290000F008
:100228005BF814F00DFE00BF00000800000000009D
:100238000000000000000000D07500204876002073
:10024800515001085D50010880B483B000AF786058
:1002580000BF7B685A1E7A60002BFAD10C37BD4666
:100268005DF8047B704700BF80B500AF00BF012078
:100278000FF040FC0346002BF9D0024B9B68184650
:1002880080BD00BF0008065080B500AF03F008FD30
:10029800402001210FF0A2F901200FF0E7FB80BDFB
:1002A80080B584B000AF78600023FB600BE0FB688A
:1002B8009B007A6813441B680648194603F080FAC5
:1002C800FB680133FB60FB68FF2BF0DD1037BD4690
:1002D80080BD00BF6C83010880B500AFFFF7D4FF75
:1002E800054803F06DFA04F01BF803F009FD034814
:1002F80003F0BCF9FEE700BF708301087C830108A6
:1003080080B400AFBD465DF8047B704780B400AF91
:10031800FEE700BF80B400AFFEE700BF80B400AFC7
:10032800FEE700BF80B400AFFEE700BF80B400AFB7
:10033800BD465DF8047B704780B400AFBD465DF8EC
:10034800047B704780B400AFBD465DF8047B7047FE
:1003580080B400AFBD465DF8047B704780B500AF40
:10036800154B154AD2F8882042F47002C3F8882049
:10037800124B124A126842F001021A600F4B002217
:100388009A600E4A0D4B1B6823F0847323F4803364
:1003980013600A4B0A4A5A60084B084A126822F44A
:1003A80080221A60054B0022DA6000F087F8024BC1
:1003B8004FF000629A6080BD00ED00E00038024016
:1003C8001030002480B487B000AF00233B610023C5
:1003D8007B610223FB600023BB6002237B60324BFE
:1003E8009B6803F00C033B613B69042B07D0082B87
:1003F80009D0002B3FD12D4B2D4A1A603FE02B4BE3
:100408002C4A1A603BE0284B5B6803F480039B0D81
:10041800BB60254B5B6803F03F037B60BB68002B28
:100428000DD0244A7B68B2FBF3F21F4B596847F69C
:10043800C0730B409B0903FB02F37B610CE01C4A71
:100448007B68B2FBF3F2184B596847F6C0730B4050
:100458009B0903FB02F37B61134B5B6803F4403396
:100468001B0C01335B00FB607A69FB68B2FBF3F29B
:100478000E4B1A6003E00D4B0D4A1A6000BF0A4B81
:100488009B6803F0F0031B090B4AD35CDBB23B61AA
:10049800064B1A683B69DA40044B1A601C37BD46A4
:1004A8005DF8047B704700BF00380240040000205C
:1004B8000024F40000127A000800002080B483B001
:1004C80000AF00237B6000233B60354B344A126841
:1004D80042F480321A60324B1B6803F400333B60ED
:1004E8007B6801337B603B68002B03D17B68B3F5E5
:1004F800A06FF0D12A4B1B6803F40033002B02D005
:1005080001233B6001E000233B603B68012B42D1A3
:10051800234B234A126C42F080521A64214B214A21
:10052800126842F440421A601D4B1D4A92689A6054
:100538001B4B1B4A926842F400429A60184B184AB7
:10054800926842F4A0529A60154B174A5A60144BAD
:10055800134A126842F080721A6000BF104B1B6881
:1005680003F00073002BF9D0104B40F205721A60AB
:100578000B4B0B4A926822F003029A60084B084A18
:10058800926842F002029A6000BF054B9B6803F034
:100598000C03082BF9D10C37BD465DF8047B704776
:1005A800003802400070004019544007003C0240E7
:1005B80080B500AFFFF706FF014B1B68184680BDEA
:1005C8000400002080B582B000AF15F0D3F80346D0
:1005D8007B607B6843F000437B607B681846083784
:1005E800BD4680BD80B485B000AF78600023FB6055
:1005F8000CE0FB68C3F11F037A6822FA03F3012BAE
:1006080001D1FB6806E0FB680133FB60FB681F2B28
:10061800EFDD202318461437BD465DF8047B70478C
:1006280080B584B000AF78607B68BB60B968294B3F
:1006380083FB0123DA12CB17D21A13461B019B1A2C
:100648005B021344CA1A002A0DDBB968214B83FBED
:100658000123DA12CB17D21A13461B019B1A5B022D
:100668001344CA1A0FE0B9681A4B83FB0123DA1244
:10067800CB17D21A13461B019B1A5B021344CA1AE2
:1006880002F5F0520132FA6004E0FB6803F5F0531A
:100698000133FB60FB68002BF7DB04E0FB68A3F584
:1006A800F053013BFB60FA6841F601639A42F5DCBE
:1006B800FB68002B03DBFB68B3F5F05F05DD06483C
:1006C8003E21064A064B14F059FDFB6818461037C0
:1006D800BD4680BDCDFD414488830108AC83010837
:1006E8009083010890B587B000AF7860FFF76AFF84
:1006F80003463B6100237B6121E07B699B007A68AC
:10070800D41807F1100207F10C031046194600F03F
:10071800B9FA03469BB223807B699B0002337A684F
:10072800D41807F1100207F10C031046194600F01F
:10073800A9FA03469BB223807B6901337B617B69FD
:100748007F2BDADD1C37BD4690BD00BF90B587B062
:1007580000AF7860FFF736FF03463B6100237B61FB
:1007680021E07B699B007A68D41807F1100207F131
:100778000C031046194600F085FA03469BB2238005
:100788007B699B0002337A68D41807F1100207F1DD
:100798000C031046194600F075FA03469BB22380F5
:1007A8007B6901337B617B697F2BDADD1C37BD46B2
:1007B80090BD00BF80B58AB000AF786000233B626F
:1007C8000023FB61FFF7FEFE0346FB6000237B620C
:1007D8004EE0FF233B6107F10C0207F110031046BE
:1007E800194600F04FFA03467B833B69012B09D178
:1007F8003B6A5B007A6813447A8B1A803B6A013340
:100808003B620DE0FA691346DB079B1A5B0003F5B0
:10081800FF737A6813447A8B1A80FB690133FB6192
:1008280007F10C0207F110031046194600F02AFAE6
:1008380003467B833B69012B09D13B6A5B007A68DD
:1008480013447A8B1A803B6A01333B620DE0FA69E4
:100858001346DB079B1A5B0003F5FF737A681344A2
:100868007A8B1A80FB690133FB617B6A01337B62F7
:100878007B6A7F2BADDD28E0FFF7A4FE0346DBB2E1
:100888007B61FB69C3F580731A467B699A421CD960
:100898007B695B007A6813441B887B837B695B00F8
:1008A8007A681344FA69C2F58072520079680A447A
:1008B80012881A80FB69C3F580735B007A68134459
:1008C8007A8B1A80FB69013BFB61FB69002BD3DC47
:1008D8002837BD4680BD00BF90B585B000AF7860B1
:1008E800FFF770FE0346BB600023FB6019E0FB685E
:1008F800DB0004337A68D41807F10803184600F0BF
:1009080017F803462360FB68DB007A68D41807F100
:100918000803184600F00CF803462360FB6801330F
:10092800FB60FB687F2BE2DD1437BD4690BD00BF3E
:1009380080B58AB000AF78607B681B68DBB2FB606B
:100948007B681B681A0A7B681A60984AFB6813441C
:100958001B78BB61BB6903F01003BB60BB68002B4D
:100968002BD17B681B68012B04D1FFF72BFE0246B5
:100978007B681A60BB6903F00F03BB617B681B6867
:1009880003F00103002B04D0BB69C3F5F053013316
:10099800BB617B681B685A087B681A607B681B68A8
:1009A8001846FFF71FFE0346172B04D9FFF70AFE68
:1009B80002467B681A60BB695FE17B681B68184662
:1009C800FFF710FE03461A2B04D9FFF7FBFD02467A
:1009D8007B681A60BB6903F007037B627B681B684E
:1009E80003F01F027B6A5B011344FB607B681B6892
:1009F8005A097B681A607B681B68012B04D1FFF7D2
:100A0800E1FD02467B681A60694AFB6813441B785B
:100A1800BB61BB6903F02003BB60BB68002B22D11C
:100A2800BB6903F01F03BB617B681B6803F001030C
:100A3800002B04D0BB69C3F5F0530133BB617B685D
:100A48001B685A087B681A607B681B681846FFF7A2
:100A5800C9FD0346172B04D9FFF7B4FD02467B688E
:100A68001A60BB6909E1BB6903F00F037B620023CD
:100A7800FB6156E07B6A5B001A467B681B6803F0E3
:100A8800010313447B627B681B685A087B681A6001
:100A98007B681B68012B04D1FFF794FD02467B6835
:100AA8001A60444BFA6953F822303B611F233B62BA
:100AB80031E03B69DB171A467B6A13447B623B696A
:100AC8005B003B617B6AB3F1FF3F21D17B681B6808
:100AD80003F00103002B05D03B6AC3F5F053013343
:100AE800BB6101E03B6ABB617B681B685A087B6895
:100AF8001A607B681B681846FFF774FD0346172BBE
:100B080004D9FFF75FFD02467B681A60BB69B4E051
:100B18003B6A013B3B623B6A002BCADAFB69013343
:100B2800FB61FB696C2BA5DD0823FB619FE0224B71
:100B3800FA6953F822307B611E4BFA6953F8223068
:100B48003B617B6A5B001A467B681B6803F0010304
:100B580013447B627B681B685A087B681A607B6851
:100B68001B68012B05D114F005FE03461A467B6865
:100B78001A6036233B623BE07B69DB171A467B6AC7
:100B880013447B627B695B007B617B6AB3F1FF3F47
:100B98002BD17B681B6803F00103002B0ED03B6A46
:100BA800C3F5F0530133BB610AE000BF58000020D1
:100BB80058010020E4620020646400203B6ABB61A5
:100BC8007B681B685A087B681A607B681B68184634
:100BD800FFF708FD0346172B05D914F0CBFD034694
:100BE8001A467B681A60BB6947E03B6A013B3B6277
:100BF8003B6A1F2BC0DC1F233B6232E03B69DB17DB
:100C08001A467B6A13447B623B695B003B617B6AE3
:100C1800B3F1FF3F22D17B681B6803F00103002B6F
:100C280005D03B6AC3F5F0530133BB6101E03B6A71
:100C3800BB617B681B685A087B681A607B681B6805
:100C48001846FFF7CFFC0346172B05D914F092FD81
:100C580003461A467B681A60BB690EE03B6A013B93
:100C68003B623B6A002BC9DAFB690133FB61FB6914
:100C78005F2B7FF75CAF4FF0FF3318462837BD4630
:100C880080BD00BF80B588B000AF786039607B68F0
:100C98001B68DBB2FB607B681B681A0A7B681A60FA
:100CA8007E4AFB6813441B783B613B6903F01003E1
:100CB800BB60BB68002B2ED17B681B68012B04D15D
:100CC800FFF780FC02467B681A603B6903F00F035C
:100CD8003B617B681B6803F00103002B04D03B6970
:100CE800C3F5F05301333B617B681B685A087B6886
:100CF8001A607B681B681846FFF774FC0346172BBD
:100D080004D9FFF75FFC02467B681A603B68012242
:100D18001A603B69BEE07B681B681846FFF762FCF7
:100D280003461A2B04D9FFF74DFC02467B681A606C
:100D38003B6903F00703FB617B681B6803F01F0234
:100D4800FB695B011344FB607B681B685A097B687D
:100D58001A607B681B68012B04D1FFF733FC02463D
:100D68007B681A604E4AFB6813441B783B613B69F9
:100D780003F02003BB60BB68002B25D13B6903F05F
:100D88001F033B617B681B6803F00103002B04D041
:100D98003B69C3F5F05301333B617B681B685A0814
:100DA8007B681A607B681B681846FFF71BFC0346C4
:100DB800172B04D9FFF706FC02467B681A603B68CC
:100DC80001221A603B6965E03B6903F00F03FB6190
:100DD8000D237B6156E0FB695B001A467B681B6844
:100DE80003F001031344FB617B681B685A087B68A6
:100DF8001A607B681B68012B04D1FFF7E3FB0246EE
:100E08007B681A603623BB6136E0264BBA696D21D0
:100E180001FB02F17A690A4453F82230FA69D31ABD
:100E2800FB61FB69002B24DA7B681B6803F0010374
:100E3800002B05D0BB69C3F5F05301333B6101E0DA
:100E4800BB693B617B681B685A087B681A607B68D2
:100E58001B681846FFF7C6FB0346172B04D9FFF794
:100E6800B1FB02467B681A603B6800221A603B6946
:100E780010E0BB69013BBB61BB69002BC5DA7B692C
:100E880001337B617B696C2BA5DD3B6800221A600E
:100E98004FF0FF3318462037BD4680BD580000206C
:100EA800580100203802002090B585B000AF786066
:100EB8000023FB601FE014F05DFC0346BB60FB6889
:100EC8009B007A68D418BB689BB21846FFF7A8FB4A
:100ED80003469BB22380FB689B0002337A68D418D0
:100EE800BB681B0C1846FFF79BFB03469BB223808D
:100EF800FB680133FB60FB687F2BDCD9786800F066
:100F0800C1F91437BD4690BD80B582B000AF786096
:100F18007868FFF7E7FB786800F0B4F90837BD4652
:100F280080BD00BF80B588B000AF78600023FB614A
:100F38002AE014F01FFC03467B610023BB6120E01C
:100F48007B6903F001033B617B695B0803F00103E4
:100F5800FB60FB68012B05D13B69012B02D14FF4E3
:100F6800F0533B61FB695A1CFA615B007A681344D1
:100F78003A6992B21A807B699B087B61BB6901332D
:100F8800BB61BB690F2BDBD9FB69FF2BD1D9786813
:100F980000F078F92037BD4680BD00BF80B48FB01F
:100FA80000AF786001237B636EE07B6B03F0010385
:100FB8003B637B6B5B0803F00103FB627B6B9B0865
:100FC80003F00103BB627B6BDB0803F001037B6268
:100FD8007B6B1B0903F001033B627B6B5B0903F02E
:100FE8000103FB617B6B9B0903F00103BB613B6B56
:100FF8005A00FB6A13445A00BB6A13445A007B6ABE
:1010080013445A003B6A13445A00FB6913445A00BC
:10101800BB6913447B617A697B6B9A4231D97B6BDC
:101028009B007A6813441B883B617B6B9B000233EF
:101038007A6813441B88FB607B6B9B007A681344B7
:101048007A69920079680A4412881A807B6B9B003F
:1010580002337A6813447A699200023279680A4442
:1010680012881A807B699B007A6813443A6992B2A5
:101078001A807B699B0002337A681344FA6892B23B
:101088001A807B6B01337B637B6B7F2B8DD93C375D
:10109800BD465DF8047B704780B485B000AF7860CA
:1010A80039600023FB6010E0FB689B007A681344FA
:1010B8001A68FB689B0039680B441B689A4201D088
:1010C800002306E0FB680133FB60FB68FF2BEBDDC8
:1010D800012318461437BD465DF8047B704700BFEE
:1010E80080B493B000AF786000233B6400237B6436
:1010F800BEE07B6C03F00103FB637B6C5B0803F0D1
:101108000103BB637B6C9B0803F001037B637B6C6F
:10111800DB0803F001033B637B6C1B0903F001034D
:10112800FB627B6C5B0903F00103BB627B6C9B0970
:1011380003F001037B627B6CDB0903F001033B6274
:10114800FB6B5A00BB6B13445A007B6B13445A0069
:101158003B6B13445A00FB6A13445A00BB6A13449E
:101168005A007B6A13445A003B6A1344FB617B6C48
:101178005B08BB617B6C03F001037B61FB695B0867
:101188003B61FB6903F00103FB60FA697B6C9A42DF
:101198006BD9FB68002B05D13B699B007A68134427
:1011A8001B883B64FB68012B06D13B699B0002331B
:1011B8007A6813441B883B64FB68002B0CD17B695D
:1011C800002B09D13B699B007A681344BA699200E5
:1011D80079680A4412881A80FB68002B0DD17B6954
:1011E800012B0AD13B699B007A681344BA699200C3
:1011F800023279680A4412881A80FB68012B0DD1E3
:101208007B69002B0AD13B699B0002337A6813443F
:10121800BA69920079680A4412881A80FB68012B1F
:101228000ED17B69012B0BD13B699B0002337A6895
:101238001344BA699200023279680A4412881A8003
:101248007B69002B06D1BB699B007A6813443A6C12
:1012580092B21A807B69012B07D1BB699B000233CC
:101268007A6813443A6C92B21A807B6C01337B64BF
:101278007B6CFF2B7FF63DAF4C37BD465DF8047B9A
:10128800704700BF90B58DB000AF78600023FB6257
:1012980002233B62A3E0794BFA6A33F81230BB6150
:1012A800FB6A5A1C754B33F81230FB61FB6A013339
:1012B800FB620023BB628AE000237B6278E0BA6AA3
:1012C8007B6A13445B007A6813441B887B61BA6AA3
:1012D8007B6A134401335B007A6813441B88FA69FC
:1012E80002FB03F31846FFF79BF93861BA6A7B6A79
:1012F8001A443B6A13445B007A6813441B88FB60FA
:10130800BA6A7B6A1A443B6A134401335B007A6801
:1013180013441B88FA6902FB03F31846FFF780F9A8
:10132800B860BA6A7B6A13445B007A68D4187A6931
:101338003B6913441846FFF773F903469BB22380B1
:10134800BA6A7B6A134401335B007A68D418FA6876
:10135800BB6813441846FFF763F903469BB2238022
:10136800BA6A7B6A1A443B6A13445B007A68D418E9
:101378007A693B69D31A1846FFF752F903469BB2BC
:101388002380BA6A7B6A1A443B6A134401335B00C0
:101398007A68D418FA68BB68D31A1846FFF740F978
:1013A80003469BB223803B6A5B007A6A13447B62E4
:1013B8007B6AFF2B83DDFB69BA6902FB03F3FB61E0
:1013C800F869FFF72DF9F861BB6A0233BB62BA6AA4
:1013D8003B6A9A42FFF670AF3B6A5B003B623B6A2E
:1013E800802B7FF758AF41F2FE33BB6140F22943AF
:1013F800FB610023BB623AE0BB6A9B0002337A6858
:1014080013441B88FA6902FB03F33B613869FFF751
:1014180007F93861BB6A9B007A6813441B887B61B3
:10142800BB6A9B007A68D4187A693B6913441846EA
:10143800FFF7F6F803469BB22380BB6A9B00023392
:101448007A68D4187A693B69D31A1846FFF7E8F81E
:1014580003469BB22380FB69BA6902FB03F3FB6175
:10146800F869FFF7DDF8F861BB6A0133BB62BB6A54
:101478007F2BC1DD3437BD4690BD00BF380000204A
:1014880080B48FB000AF7860396000237B6392E04E
:101498007A6B4D4B1340002B03DA013B63F00103D9
:1014A80001333B637B6B5A10474B1340002B03DA25
:1014B800013B63F001030133FB627B6B9A10424BE3
:1014C8001340002B03DA013B63F001030133BB62D5
:1014D8007B6BDA103C4B1340002B03DA013B63F0C3
:1014E800010301337B627B6B1A11374B1340002BCE
:1014F80003DA013B63F0010301333B627B6B5A1152
:10150800314B1340002B03DA013B63F00103013335
:10151800FB617B6B9A112C4B1340002B03DA013BC8
:1015280063F001030133BB613B6B5A00FB6A134450
:101538005A00BB6A13445A007B6A13445A003B6A38
:1015480013445A00FB6913445A00BB6913447B6176
:101558007A697B6B9A422BDD7B6B9B007A6813441C
:101568001B683B617B6B9B003A6813441B68FB60FC
:101578007B6B9B007A6813447A69920079680A4405
:1015880012681A607B6B9B003A6813447A69920070
:1015980039680A4412681A607B699B007A681344A8
:1015A8003A691A607B699B003A681344FA681A60C2
:1015B8007B6B01337B637B6B7F2B7FF769AF3C379A
:1015C800BD465DF8047B70470100008090B58DB082
:1015D80000AF786000233B6202237B62D8E07B6A1D
:1015E800102B1BD0102B06DC042B0FD0082B11D08E
:1015F800022B07D022E0402B18D0802B1AD0202BAA
:1016080010D01BE04FF4F0533B6217E040F637531D
:101618003B6213E041F27C633B620FE04FF4D86316
:101628003B620BE04FF4ED533B6207E041F6A91330
:101638003B6203E041F6C9133B6200BF0123FB6133
:101648000023FB6298E00023BB6285E0BA6AFB6A6C
:1016580013449B0002337A6813441B88FA6902FB1F
:1016680003F37B617869FEF7DBFF7861BA6AFB6A8E
:1016780013449B007A6813441B883B61BA6AFB6A6F
:101688001A447B6AD90F0B445B1013449B00023346
:101698007A6813441B88FA6902FB03F3FB60F86855
:1016A800FEF7BEFFF860BA6AFB6A1A447B6AD90F74
:1016B8000B445B1013449B007A6813441B88BB607F
:1016C800BA6AFB6A13449B007A68D4183A697B6942
:1016D80013441846FEF7A4FF03469BB22380BA6A58
:1016E800FB6A1A447B6AD90F0B445B1013449B00B6
:1016F8007A68D4183A697B69D31A1846FEF790FFBE
:1017080003469BB22380BA6AFB6A13449B000233E8
:101718007A68D418BA68FB6813441846FEF780FF45
:1017280003469BB22380BA6AFB6A1A447B6AD90FC4
:101738000B445B1013449B0002337A68D418BA68D0
:10174800FB68D31A1846FEF76BFF03469BB223804B
:10175800BA6A7B6A1344BB62BB6A7F2B7FF776AF9A
:10176800FB693A6A02FB03F3FB61F869FEF758FF6D
:10177800F861FB6A0133FB627B6ADA0F13445B1082
:101788001A46FB6A9A423FF75EAF7B6A5B007B6250
:101798007B6A802B7FF723AF4FF434633B620123CE
:1017A800FB610023FB623EE0FB6A5B007A6813443E
:1017B8001B883B61FB6A0133FB62FB6A5B007A684A
:1017C80013441B88FA6902FB03F37B617869FEF70F
:1017D80027FF7861FB6A03F10043013B5B007A68ED
:1017E800D4183A697B6913441846FEF719FF034673
:1017F8009BB22380FB6A5B007A68D4183A697B69DC
:10180800D31A1846FEF70CFF03469BB22380FB6AE7
:101818000133FB62FB693A6A02FB03F3FB61F86977
:10182800FEF7FEFEF861FB6AFF2BBDDD40F637537D
:10183800BB6140F6B1133B620123FB610023FB62ED
:1018480061E0FB6A5B007A68D418FB6A5B007A681F
:1018580013441B88FA6902FB03F31846FEF7E0FEFF
:1018680003469BB22380FB6A5B007A68D418FB6A44
:101878005B007A6813441B8841F6E35202FB03F3CA
:101888001846FEF7CDFE03469BB22380FB6A013360
:10189800FB62FB6A5B007A68D418FB6A5B007A68B3
:1018A80013441B88BA6902FB03F31846FEF7B8FE17
:1018B80003469BB22380FB6A5B007A68D418FB6AF4
:1018C8005B007A6813441B8841F6E35202FB03F37A
:1018D8001846FEF7A5FE03469BB22380FB6A013338
:1018E800FB62FB693A6A02FB03F3FB61F869FEF7E6
:1018F80097FEF861BB693A6A02FB03F3BB61B869FA
:10190800FEF78EFEB861FB6AFF2B9ADD3437BD46C1
:1019180090BD00BF80B487B000AFF860B9607A604E
:1019280000237B611EE07B699B007A6813441B6877
:101938009AB27B699B00F9680B441B689A420CD1E8
:101948007B699B007A6813441B681A0C7B699B00AF
:10195800B9680B441B689A4201D0002306E07B69F2
:1019680001337B617B697F2BDDDD012318461C3742
:10197800BD465DF8047B704790B587B000AFF8604E
:10198800B9607A603B6000237B613EE07B699B0025
:10199800FA6813447A699200F9680A4411687A6906
:1019A80092007868024412680A441A607B699B00B6
:1019B800FA68D4187B699B00FA6813441B681846B8
:1019C800FEF72EFE034623607B699B00BA6813442A
:1019D8007A699200B9680A4411687A69920038688D
:1019E800024412680A441A607B699B00BA68D418DA
:1019F8007B699B00BA6813441B681846FEF710FE03
:101A0800034623607B6901337B617B697F2BBDDDE6
:101A18001C37BD4690BD00BF90B587B000AFF860D9
:101A2800B9607A603B6000237B6140E07B699B0082
:101A3800FA6813447A699200F9680A441268796965
:101A4800890078680144096801FB02F21A607B6921
:101A58009B00FA68D4187B699B00FA6813441B68DA
:101A68001846FEF7DDFD034623607B699B00BA68D4
:101A780013447A699200B9680A441268796989003E
:101A880038680144096801FB02F21A607B699B000F
:101A9800BA68D4187B699B00BA6813441B68184657
:101AA800FEF7BEFD034623607B6901337B617B69DA
:101AB8007F2BBBDD1C37BD4690BD00BF90B587B0FE
:101AC80000AFF860B9607A603B6000237B613EE05C
:101AD8007B699B00FA6813447A699200F9680A44A2
:101AE80011687A6992007868024412688A1A1A6042
:101AF8007B699B00FA68D4187B699B00FA681344D9
:101B08001B681846FEF78CFD034623607B699B0023
:101B1800BA6813447A699200B9680A4411687A6904
:101B280092003868024412688A1A1A607B699B001E
:101B3800BA68D4187B699B00BA6813441B681846B6
:101B4800FEF76EFD034623607B6901337B617B6989
:101B58007F2BBDDD1C37BD4690BD00BF80B485B06E
:101B680000AF786039600023FB6021E0FB689B00D0
:101B78007A6813441B689AB2FB68DB0039680B4427
:101B88001B689A4201D0002316E0FB689B007A6824
:101B980013441B681A0CFB68DB00043339680B44D8
:101BA8001B689A4201D0002306E0FB680133FB6002
:101BB800FB687F2BDADD012318461437BD465DF834
:101BC800047B704790B587B000AFF860B9607A6061
:101BD80000237B6118E07B695B00FA68D4187B6995
:101BE8005B00BA6813441B887A69520079680A4412
:101BF800128802FB03F31846FEF712FD03469BB258
:101C080023807B6901337B617B69FF2BE3DD1C3714
:101C1800BD4690BD90B587B000AFF860B9607A60F6
:101C280000237B6118E07B695B00FA68D4187B6944
:101C38005B00BA6813441B881A467B695B007968A5
:101C48000B441B8813441846FEF7EAFC03469BB274
:101C580023807B6901337B617B69FF2BE3DD1C37C4
:101C6800BD4690BD90B587B000AFF860B9607A60A6
:101C78003B6000237B6121E07B695B00BA68134409
:101C88001B887A69520079680A44128802FB03F3B8
:101C98003B617B695B00FA68D4187B695B003A6832
:101CA80013441B881A463B6913441846FEF7B8FCD0
:101CB80003469BB223807B6901337B617B69FF2BE1
:101CC800DADD1C37BD4690BD90B587B000AFF8602F
:101CD800B9607A6000237B6118E07B695B00FA6871
:101CE800D4187B695B00BA6813441B881A467B6961
:101CF8005B0079680B441B88D31A1846FEF790FCE2
:101D080003469BB223807B6901337B617B69FF2B90
:101D1800E3DD1C37BD4690BD80B5ADF5047D00AF51
:101D280007F10C03186007F1080319603B1D1A60DE
:101D380007F10C031868FFF7B7F807F108031868EC
:101D4800FFF7E2F83B1D1868FFF7ECF807F1100100
:101D580007F10C023B1D084611681A68FFF732FFAD
:101D680007F1080107F1080207F110030868116874
:101D78001A46FFF7A9FF3B1D1868FFF70FF907F58B
:101D88000477BD4680BD00BF90B5ADF61C0D00AF11
:101D980007F10C04206007F108000160391D0A6092
:101DA8003A4613600023C7F8143816E0D7F81438F9
:101DB8005B003A46126813441B881A461201D31A6C
:101DC8001B0299B207F11403D7F8142823F812104C
:101DD800D7F814380133C7F81438D7F81438FF2B5C
:101DE800E4DD07F214631846FEF77CFC07F214439F
:101DF8001846FEF777FC07F505731846FEF772FCE0
:101E080007F5057107F5057207F114030846114631
:101E18001A46FFF7FFFE07F214631846FFF732FA77
:101E280007F214431846FFF72DFA07F5057318460D
:101E3800FFF728FA07F1080107F10C0207F214630B
:101E4800086811681A46FFF7BDFE07F1080107F296
:101E5800144207F10803086811461A68FFF7DAFE0A
:101E68003A1D07F214631068D7F828181A46FFF7C6
:101E7800A9FE391D07F505723B1D086811461A6849
:101E8800FFF7C8FE07F108031868FFF787F83B1D3E
:101E98001868FFF783F807F61C07BD4690BD00BF1A
:101EA80080B584B000AFF860B9607A60F868F96806
:101EB8007A68FFF787FEF868F968BA68FFF7AAFE3C
:101EC800F868FFF783FB1037BD4680BD90B585B035
:101ED80000AF78600023FB600EE0FB685B007A6867
:101EE800D418FEF76FFB03469BB203F001039BB2C5
:101EF8002380FB680133FB60FB68FF2BEDDD1437A3
:101F0800BD4690BD90B589B000AFF860B9607A6001
:101F1800786813F027FC0023FB6138E0FEF752FBDA
:101F28000346C3F30C03BB61FEF74CFB0346C3F344
:101F38000C037B61FB699B00FA68D418B869FEF74B
:101F48006FFB03469BB22380FB699B000233FA6850
:101F5800D4187869FEF764FB03469BB22380FB69BB
:101F68009B00BA68D418B869FEF75AFB03469BB2BF
:101F78002380FB699B000233BA68D4187869FEF79E
:101F88004FFB03469BB22380FB690133FB61FB696E
:101F98007F2BC3D92437BD4690BD00BF80B588B01C
:101FA80000AFF860B9607A60786813F0DBFB7B6893
:101FB800002B26D10023FB611FE0FB690133BB61C5
:101FC800FB6902337B61FB699B00FA681344BA69B9
:101FD80091B27A6912040A441A60FB69DB00BA6894
:101FE8001344BA691A60FB69DB000433BA68134406
:101FF8007A691A60FB690133FB61FB697F2BDCD9C5
:102008002BE00023FB6125E0FEF7DCFA0346C3F36F
:102018000C03BB61FEF7D6FA0346C3F30C037B61DE
:10202800FB699B00FA681344BA6991B27A69120491
:102038000A441A60FB69DB00BA681344BA691A607B
:10204800FB69DB000433BA6813447A691A60FB69D8
:102058000133FB61FB697F2BD6D92037BD4680BD94
:1020680080B485B000AF786039600023FB6018E069
:10207800FB685B003A681344FA68920079680A447E
:1020880012881A80FB6801335B003A681344FA68C7
:102098000132920079680A4412881A80FB68023378
:1020A800FB60FB687F2BE3DD0023FB601BE0FB6824
:1020B80080335B003A681344FA6892000232796808
:1020C8000A4412881A80FB6881335B003A6813441B
:1020D800FA6801329200023279680A4412881A803A
:1020E800FB680233FB60FB687F2BE0DD1437BD46DD
:1020F8005DF8047B704700BF80B588B000AFF8601A
:10210800B9607A60F86813F02DFBFB68002B27D1C3
:102118000023FB6120E0FB695B00BB61FB695B009E
:1021280001337B61FB699B00BA681344BA6991B2B9
:102138007A6912040A441A60FB69DB007A6813445E
:10214800BA691A60FB69DB0004337A6813447A6958
:102158001A60FB690133FB61FB697F2BDBD92BE03C
:102168000023FB6125E0FEF72DFA0346C3F30C03B9
:10217800BB61FEF727FA0346C3F30C037B61FB69D7
:102188009B00BA681344BA6991B27A6912040A4486
:102198001A60FB69DB007A681344BA691A60FB6944
:1021A800DB0004337A6813447A691A60FB690133E7
:1021B800FB61FB697F2BD6D92037BD4680BD00BFA8
:1021C8002DE9F05F83466E4A6E4DDFF8BC81DFF87B
:1021D800BC914FF0FF310EB513F0CCFA40F000403F
:1021E800BDE80E40DFF8A8C1C4B24FEA10200128AC
:1021F80000F307800EB513F0BDFA40F00040BDE8CB
:102208000E40135D5C0980F007804008C0F0A28092
:10221800A5EB030300F09EB8B0FA80F41A2C40F343
:1022280007800EB513F0A6FA40F00040BDE80E4056
:1022380003F0070600F01F0404EB46144FEA5010A1
:10224800012800F307800EB513F094FA40F000401F
:10225800BDE80E4019F804309C0980F0098003F0AD
:102268001F034008C0F07680A5EB030300F072B8A6
:1022780003F00F064FF0000400F0010A40080AEBD3
:102288004606012800F307800EB513F073FA40F0F4
:102298000040BDE80E4058F824A04FF01703BAFAE2
:1022A8008AF707F101070AFA07FAA3EB0703013EC9
:1022B80000F14B80BAF1000F7FF4F1AF04F1010493
:1022C800082CFFF6D9AFDFF8CC9000F0010A4FEAEE
:1022D80050000AEB4606012800F307800EB513F0FC
:1022E80049FA40F00040BDE80E4059F824A0BAF180
:1022F800000F00F011804FF03703BAFA8AF707F1A0
:1023080001070AFA07FAA3EB0703013E00F11B8055
:10231800BAF1000F7FF4F1AF4FF0170358F824A07B
:10232800BAFA8AF707F101070AFA07FAA3EB0703D3
:10233800013E00F10880BAF1000F7FF4F1AF04F11B
:102348000104FFF7C2BFDFF844904008C0F00280E4
:10235800A5EB0303B0FA80F6172E40F307800EB5FD
:1023680013F008FA40F00040BDE80E4001F1010109
:102378002BF8113061457FF437AFBDE8F09F0000BE
:1023880058000020011E0000E45F002058010020D2
:10239800FF000000646100202DE9F05F83467B4A5E
:1023A8007B4DDFF8F081DFF8F0914FF0FF310EB58B
:1023B80013F0E0F940F00040BDE80E40DFF8DCC162
:1023C800C4B24FEA1020012800F307800EB513F0BD
:1023D800D1F940F00040BDE80E40135D5C0980F083
:1023E80007804008C0F0A480A5EB030300F0A0B864
:1023F800B0FA80F41A2C40F307800EB513F0BAF93E
:1024080040F00040BDE80E4003F0070600F01F044E
:1024180004EB46144FEA5010012800F307800EB56C
:1024280013F0A8F940F00040BDE80E4019F8043058
:102438009C0980F0098003F01F034008C0F07880F1
:10244800A5EB030300F074B803F00F064FF0000487
:1024580000F0010A40080AEB4606012800F307804D
:102468000EB513F087F940F00040BDE80E4058F86B
:1024780024A04FF01703BAFA8AF707F101070AFAFE
:1024880007FAA3EB0703013E00F14B80BAF1000FF6
:102498007FF4F1AF04F10104082CFFF6D9AFDFF89F
:1024A800009100F0010A4FEA50000AEB46060128A5
:1024B80000F307800EB513F05DF940F00040BDE869
:1024C8000E4059F824A0BAF1000F00F011804FF027
:1024D8003703BAFA8AF707F101070AFA07FAA3EBF2
:1024E8000703013E00F11B80BAF1000F7FF4F1AF42
:1024F8004FF0170358F824A0BAFA8AF707F1010732
:102508000AFA07FAA3EB0703013E00F10880BAF1C3
:10251800000F7FF4F1AF04F10104FFF7C2BFDFF849
:1025280078904008C0F01B80A5EB030300F017B8B3
:10253800B0FA80F6172E40F307800EB513F01AF99B
:1025480040F00040BDE80E4001F101012BF81130C8
:1025580061457FF435AF0CF10100BDE8F09FB0FA9A
:1025680080F6172E40F307800EB513F003F940F0FC
:102578000040BDE80E402BF81C30ACF1010C614561
:102588007FF41EAF0CF10100BDE8F09F5800002059
:10259800011E0000E45F002058010020FF00000039
:1025A800646100200146DFF8DC3983FB0103DA0AA5
:1025B80013019B1A02EB4323C81AF746DFF8C81920
:1025C800B0FBF1F201FB1200F746DFF8B83901461B
:1025D80083FB0103DA12B2EBE17213019B1A02EBDF
:1025E8004323C81AF7460028C0F20C800146DFF8DA
:1025F800943983FB0103DA0A13019B1A02EB432384
:10260800C81AF746DFF8801990FBF1F24FF0010382
:10261800A3EB020303FB0100F746DFF86839014624
:1026280083FB0103DA12B2EBE17213019B1A02EB8E
:102638004323C81A002980F20380DFF84C190844A4
:10264800F7460028C0F20C800146DFF8383983FBD2
:102658000103DA0A13019B1A02EB4323C81AF7464F
:10266800DFF8202982FB0012D212C317D21ADFF832
:1026780018194FF00103A3EB020303FB0100F7460F
:102688000028C0F20C800146DFF8F83883FB01030C
:10269800DA0A13019B1A02EB4323C81AF746C0F162
:1026A80000000146DFF8DC3883FB0103DA0A130176
:1026B8009B1A02EB4323C81ADFF8CC18A1EB0000E1
:1026C800F746DFF8C4180028BABF40420B4600237B
:1026D800B0FBF1F202FB1102A3EB02021046F7462F
:1026E800DFF8A4180028BABF40420B460023B0FB0D
:1026F800F1F202FB1102A3EB0200F7462DE930408C
:10270800DFF8803881B2A3FB0124E20A1401A41A7D
:1027180002EB44240D1B1FFAA0F1A3FB0124E20ADB
:102728001401A41A02EB44240B1B05EB0340BDE87B
:1027380030802DE9F040DFF850784FF0000351F871
:10274800234052F8235094FA45F4A6B2BE4258BF2B
:10275800F61B4FEA1444BC4258BFE41B06EB044482
:1027680040F8234003F10103802B7FF4E8AFBDE874
:10277800F0802DE9F041DFF810884FF0000351F8A0
:10278800234052F8235014FB35F6B6FBF8F708FB44
:10279800176614FB05F4B4FBF8F708FB174404EBC1
:1027A800064440F8234003F10103802B7FF4E7AF90
:1027B800BDE8F0812DE9F047DFF8CC874FF0000A3B
:1027C80051F82A4052F82A5053F82A9014FB35F64B
:1027D80006EB1946B6FBF8F708FB176614FB05F479
:1027E8001FFA89F94C44B4FBF8F708FB174404EBCB
:1027F800064440F82A400AF1010ABAF1800F7FF432
:10280800DFAFBDE8F0872DE9F001DFF87C874FF0F6
:10281800000351F8234052F82350D4FA05F634B295
:10282800002CB8BF6442B4FBF8F707FB1847B8BFE1
:10283800A8EB07070FFAA6F5002DB8BF6D42B5FB48
:10284800F8F404FB1854B8BFA8EB040407EB0444DD
:1028580040F8234003F10103802B7FF4DAAFBDE891
:10286800F001F7462DE9F05FDFF81C17DFF81C3799
:1028780008B44FF0020208BC1C6803F1020308B454
:102888004FF001084FF000064FF0000706EB07096C
:1028980050F829301FFA83FA13FB28FBBBFBF1FC25
:1028A80001FB1CBB0AEB0B0C8C4558BFACEB010CB5
:1028B800BAEB0B0E48BF8E4409EB520950F8293089
:1028C80013FB28FB9BB2BBFBF1FA01FB1ABBB3EB72
:1028D8000B0A48BF8A440EEB0A4A40F829A003EBCA
:1028E8000B0A8A4558BFAAEB010A0CEB0A4C06EB07
:1028F800070940F829C01744802FFFF6C7AF18FB17
:1029080004F8B8FBF1F901FB198806F10106B6EBEA
:10291800520F3FF5B9AF4FEA4202802A7FF7ABAFBB
:102928004FF434644FF001084FF0000950F8293093
:102938001FFA83FA13FB28FBBBFBF1FC01FB1CBB52
:102948000AEB0B0C8C4558BFACEB010CBAEB0B0E29
:1029580048BF8E440CEB0E4C40F829C018FB04F815
:10296800B8FBF1F301FB138809F10109B9F1800FF4
:10297800FFF6DCAFDFF81836DFF81846DFF8187610
:102988004FF001084FF0000950F829A01AFB08FB86
:10299800BBFBF1FC01FB1CBB1BFB07FBBBFBF1FCFE
:1029A80001FB1CBB1AFB23FEBEFBF1FC01FB1CEE6A
:1029B8001EFB07FEBEFBF1FC01FB1CEE0BEB0E4BF6
:1029C80040F829B018FB04F8B8FBF1FA01FB1A88A3
:1029D80013FB04F3B3FBF1FA01FB1A3309F1010904
:1029E800B9F1800FFFF6D0AF08BCBDE8F09F2DE924
:1029F800F05FDFF89415DFF8A43508B44FF0020251
:102A080008BC1C681FFAA4F8A4B203F1020308B4B6
:102A18004FF000064FF0000706EB070950F8293081
:102A28001FFA83FA13FB28FBBBFBF1FC01FB1CBB61
:102A38000AEB0B0C8C4558BFACEB010CBAEB0B0E38
:102A480048BF8E4409EB520950F8293013FB28FB84
:102A58009BB2BBFBF1FA01FB1ABBB3EB0B0A48BFF5
:102A68008A440EEB0A4A40F829A003EB0B0A8A4570
:102A780058BFAAEB010A0CEB0A4C06EB070940F811
:102A880029C01744802FFFF6C7AF18FB04F8B8FB1E
:102A9800F1F901FB198806F10106B6EB520F3FF573
:102AA800B9AF4FEA4202802A7FF7AAAFDFF8F044B5
:102AB800DFF8F0844FF0000950F829301FFA83FA44
:102AC80013FB28FBBBFBF1FC01FB1CBB0AEB0B0C4B
:102AD8008C4558BFACEB010CBAEB0B0E48BF8E44CB
:102AE8000CEB0E4C40F829C018FB04F8B8FBF1F3C6
:102AF80001FB138809F10109B9F1800FFFF6DCAF7A
:102B080008BCBDE8F09F2DE9F05FDFF87C14DFF822
:102B18008C3408B44FF0020208BC1C681FFAA4F8F1
:102B2800A4B203F1020308B44FF000064FF0000707
:102B380006EB070950F829301FFA83FA13FB28FB24
:102B4800BBFBF1FC01FB1CBB0AEB0B0C8C4558BF13
:102B5800ACEB010CBAEB0B0E48BF8E4409EB5209E3
:102B680050F8293013FB28FB9BB2BBFBF1FA01FBA1
:102B78001ABBB3EB0B0A48BF8A440EEB0A4A40F86B
:102B880029A003EB0B0A8A4558BFAAEB010A0CEBF4
:102B98000A4C06EB070940F829C000F5007006EB5F
:102BA800070950F829301FFA83FA13FB28FBBBFBEF
:102BB800F1FC01FB1CBB0AEB0B0C8C4558BFACEBC2
:102BC800010CBAEB0B0E48BF8E4409EB520950F8C2
:102BD800293013FB28FB9BB2BBFBF1FA01FB1ABBA4
:102BE800B3EB0B0A48BF8A440EEB0A4A40F829A007
:102BF80003EB0B0A8A4558BFAAEB010A0CEB0A4CF7
:102C080006EB070940F829C000F5007006EB070934
:102C180050F829301FFA83FA13FB28FBBBFBF1FCA1
:102C280001FB1CBB0AEB0B0C8C4558BFACEB010C31
:102C3800BAEB0B0E48BF8E4409EB520950F8293005
:102C480013FB28FB9BB2BBFBF1FA01FB1ABBB3EBEE
:102C58000B0A48BF8A440EEB0A4A40F829A003EB46
:102C68000B0A8A4558BFAAEB010A0CEB0A4C06EB83
:102C7800070940F829C0A0F580601744802FFFF6A7
:102C880057AF18FB04F8B8FBF1F901FB198806F1F6
:102C98000106B6EB520F3FF549AF4FEA4202802AD0
:102CA8007FF73AAFBE4CDFF8FC824FF0000950F8CE
:102CB80029301FFA83FA13FB28FBBBFBF1FC01FB4D
:102CC8001CBB0AEB0B0C8C4558BFACEB010CBAEBE8
:102CD8000B0E48BF8E440CEB0E4C40F829C000F593
:102CE800007050F829301FFA83FA13FB28FBBBFB4E
:102CF800F1FC01FB1CBB0AEB0B0C8C4558BFACEB81
:102D0800010CBAEB0B0E48BF8E440CEB0E4C40F88E
:102D180029C000F5007050F829301FFA83FA13FB18
:102D280028FBBBFBF1FC01FB1CBB0AEB0B0C8C4525
:102D380058BFACEB010CBAEB0B0E48BF8E440CEB42
:102D48000E4C40F829C0A0F5806018FB04F8B8FBC9
:102D5800F1F301FB138809F10109B9F1800FFFF6BE
:102D6800A6AF08BCBDE8F09F2DE910404FF0010167
:102D780091FAA1F24FEA52628A4240F3088050F871
:102D8800213050F8224040F8214040F8223001F12B
:102D980001018029FFF6ECAFBDE810802DE9F04075
:102DA800794C07464FF000050EB512F0E3FCBDE87C
:102DB8000E4086B2B6FBF4F104FB11661FFAA0F0D0
:102DC800B0FBF4F104FB110006EB004647F8256060
:102DD80005F10105802D7FF4E7AF3846FFF707FEC0
:102DE800BDE8F0802DE9F04104464FF4F0574FF06C
:102DF80000090EB512F0BEFCBDE80E4000F0010659
:102E08008008C0F0028006FB07F600F00108800881
:102E1800C0F0028008FB07F806EB084644F8296072
:102E280009F1010900F001068008C0F0028006FBE4
:102E380007F600F001088008C0F0028008FB07F8D8
:102E480006EB084644F8296009F1010900F001067B
:102E58008008C0F0028006FB07F600F00108800831
:102E6800C0F0028008FB07F806EB084644F8296022
:102E780009F1010900F001068008C0F0028006FB94
:102E880007F600F001088008C0F0028008FB07F888
:102E980006EB084644F8296009F1010900F001062B
:102EA8008008C0F0028006FB07F600F001088008E1
:102EB800C0F0028008FB07F806EB084644F82960D2
:102EC80009F1010900F001068008C0F0028006FB44
:102ED80007F600F001088008C0F0028008FB07F838
:102EE80006EB084644F8296009F1010900F00106DB
:102EF8008008C0F0028006FB07F600F00108800891
:102F0800C0F0028008FB07F806EB084644F8296081
:102F180009F1010900F001068008C0F0028006FBF3
:102F280007F600F001088008C0F0028008FB07F8E7
:102F380006EB084644F8296009F10109B9F1800F48
:102F480000F00480B9F1800F7FF453AF2046FFF7FB
:102F58004EFDBDE8F081F74630B4134A4FF0000546
:102F680051F8253013FB02F413FB22F304EB03445E
:102F780040F8254005F10105802D7FF4F1AF30BC04
:102F8800F7460000CDFD4144011E00004800002026
:102F9800370D0000B1090000E31D000038000020D3
:102FA800FE13000029040000000F000080B582B065
:102FB80000AF78607868FFF703F97868FFF717FDC6
:102FC8000837BD4680BD00BF80B5ADF5047D00AFB4
:102FD80007F10C03186007F1080319603B1D1A601C
:102FE80007F10C031868FFF7D9FE07F10803186802
:102FF800FFF7DCFF3B1D1868FFF7F4FE07F110012F
:1030080007F10C023B1D084611681A68FFF7B1FB6F
:1030180007F1080107F1080207F1100308681168B1
:103028001A46FFF7F0FB3B1D1868FFF79DFE07F5F2
:103038000477BD4680BD00BF80B584B000AFF8609E
:10304800B9607A60F868F9687A68BB68FFF7B2FB1C
:10305800F868FFF707FC1037BD4680BD90B5ADF5A1
:10306800057D00AF07F10C04206007F1080001603E
:10307800391D0A603A46136007F110023B461046B4
:103088001968FFF769FF1948FFF79AF81848FFF71A
:1030980097F81848FFF794F807F1100315481549F1
:1030A8001A46FFF746FB1148FFF72DFD07F1080206
:1030B80007F10C03106819680C4A0D4BFFF77AFBEF
:1030C8003B1D1868D7F82012084A0A4BFFF772FB15
:1030D80007F108031868FFF747FE3B1D1868FFF75C
:1030E80043FE07F50577BD4690BD00BFD06F0020B1
:1030F800D0710020D073002090B585B000AF786003
:103108000023FB6013E0FB685B007A68D41812F0B8
:1031180031FB0246094B1340002B03DA013B63F0F5
:10312800010301339BB22380FB680133FB60FB681A
:10313800FF2BE8DD1437BD4690BD00BF01000080BD
:1031480080B485B000AF786039600023FB6018E078
:10315800FB68DA0F13445B109B003A681344FA6863
:10316800920079680A44126891B2FA6801329200B2
:1031780078680244126812040A441A60FB68023331
:10318800FB60FB687F2BE3DD0023FB601AE0FB6834
:10319800DA0F13445B1040339B003A681A44FB680B
:1031A8009B0079680B441B68190CFB6801339B0072
:1031B800786803441B681B0C1B040B441360FB68F2
:1031C8000233FB60FB687F2BE1DD1437BD465DF8F9
:1031D800047B704780B483B000AF786039603B6887
:1031E8009AB27B681B681B0C1B041A447B681A6024
:1031F8000C37BD465DF8047B704700BF80B483B0D0
:1032080000AF786039603B681A047B681B689BB222
:103218001A447B681A600C37BD465DF8047B70471A
:1032280080B592B000AF786000237B640CE17A6CC3
:10323800894B1340002B03DA013B63F00103013390
:10324800FB637B6C5A10844B1340002B03DA013B61
:1032580063F001030133BB637B6C9A107E4B134010
:10326800002B03DA013B63F0010301337B637B6CC2
:10327800DA10794B1340002B03DA013B63F00103AA
:1032880001333B637B6C1A11734B1340002B03DA39
:10329800013B63F001030133FB627B6C5A116E4BF7
:1032A8001340002B03DA013B63F001030133BB62D7
:1032B8007B6C9A11684B1340002B03DA013B63F0D7
:1032C800010301337B627B6CDA11634B1340002BE3
:1032D80003DA013B63F0010301333B627B6CDA0FD5
:1032E80013445B10FB617A6C5B4B1340002B03DAD1
:1032F800013B63F001030133BB61FB6B5A00BB6BFD
:1033080013445A007B6B13445A003B6B13445A0016
:10331800FB6A13445A00BB6A13445A007B6A13447D
:103328005A003B6A13447B617B69DA0F13445B10D4
:103338003B617A69484B1340002B03DA013B63F089
:1033480001030133FB607A697B6C9A4279DDFB6883
:10335800002B06D13B699B007A6813441B689BB21B
:103368003B64FB68012B06D13B699B007A681344D8
:103378001B681B0C3B64FB68002B0FD1BB69002B3F
:103388000CD13B699B007A681A44FB699B007968F9
:103398000B441B6810461946FFF71CFFFB68002BFF
:1033A80010D1BB69012B0DD13B699B007A681A4487
:1033B800FB699B0079680B441B681B0C1046194677
:1033C800FFF708FFFB68012B0FD1BB69002B0CD15D
:1033D8003B699B007A681A44FB699B0079680B4437
:1033E8001B6810461946FFF709FFFB68012B10D12F
:1033F800BB69012B0DD13B699B007A681A44FB69B4
:103408009B0079680B441B681B0C10461946FFF794
:10341800F5FEBB69002B08D1FB699B007A681A444A
:103428003B6C10461946FFF7D5FEBB69012B08D146
:10343800FB699B007A681A443B6C10461946FFF7F3
:10344800DDFE7B6C01337B647B6CFF2B7FF7EFAE7B
:103458004837BD4680BD00BF0100008080B584B0FC
:1034680000AFF860B9607A60F868FFF7C0FAB8682A
:10347800FFF7BDFA7868F968BA68FFF77AF97868EB
:10348800FFF772FC7868FFF7EDF91037BD4680BD8D
:1034980080B586B000AF78607868FEF77DFF786108
:1034A80021E0FDF78FF80346DBB23B617A693B699F
:1034B8009A4218D93B695B007A6813441B88FB81E0
:1034C8003B695B007A6813447A69520079680A4458
:1034D80012881A807B695B007A681344FA891A801B
:1034E8007B6901337B617B69FF2BDADD1837BD46C9
:1034F80080BD00BF80B485B000AF7860396000231C
:103508007B7204E07B681B685A1C7B681A607B68C6
:103518001B681B78FB72FB7A202BF3D0FB7A2D2BD0
:103528000AD101237B727B681B685A1C7B681A606E
:103538007B681B681B78FB72FB7A302B39D17B6860
:103548001B685A1C7B681A607B681B681B78FB72B7
:10355800FB7A202B04D83B6800221A6001236CE018
:10356800FB7A782B0BD11023BB727B681B685A1C23
:103578007B681A607B681B681B78FB7223E0FB7A08
:10358800622B0BD10223BB727B681B685A1C7B68B9
:103598001A607B681B681B78FB7214E0FB7A2F2B80
:1035A80005D9FB7A392B02D80823BB720BE000231C
:1035B80043E0FB7A302B02D9FB7A392B01D900235F
:1035C8003BE00A23BB720023FB6029E0FB7A602BF7
:1035D80002D9FB7A203BFB72FB7A303BFB72FB7A09
:1035E800102B07D9FB7A073BFB72FB7A092B01D812
:1035F800002322E0FA7ABB7A9A4201D300231CE026
:10360800BB7AFA6802FB03F2FB7A1344FB607B681F
:103618001B685A1C7B681A607B681B681B78FB72E6
:10362800FB7A202BD2D87B7A002B02D0FB685B4236
:10363800FB60FA683B681A60012318461437BD46D8
:103648005DF8047B704700BF80B582B000AF0346C9
:10365800FB71FB790A2B02D10D2000F009FBFB79E5
:10366800184600F005FB0837BD4680BD80B582B01E
:1036780000AF786006E07B685A1C7A601B781846B1
:10368800FFF7E2FF7B681B78002BF4D10837BD46B3
:1036980080BD00BF80B58CB000AFF860B9607A60BB
:1036A800002387F82E30202387F82D30002387F851
:1036B8002C30BB68002B0BDABB685B42BB60FB6835
:1036C800002B05DAFB685B42FB602D2387F82E3060
:1036D800FB68BB62BB6887F827307B68002B05DA7C
:1036E8007B685B427B60302387F82D307B68142B26
:1036F80062DC97F82720BB6AB3FBF2F102FB01F208
:103708009B1A87F82F3097F82F30092B04D997F890
:103718002F30073387F82F3097F82F30303387F85A
:103728002F3097F82C305A1C87F82C2007F13002DC
:10373800134497F82F2003F8202C97F82730BA6AFB
:10374800B2FBF3F3BB62BB6A002BD2D197F82E30E1
:10375800002B0CD097F82C305A1C87F82C2007F136
:103768003002134497F82E2003F8202C0CE00BE0CD
:1037780097F82C305A1C87F82C2007F13002134494
:1037880097F82D2003F8202C97F82C207B689A4274
:10379800EEDB97F82C30013B87F82C3097F82C306B
:1037A80007F13002134413F8203C1846FFF74CFF8A
:1037B80097F82C30002BECD13037BD4680BD00BFC8
:1037C8000FB480B586B000AF07F124033B60A2E0D8
:1037D8007B69252B05D07B69DBB21846FFF734FFE0
:1037E80099E03B6A5A1C3A621B787B6100237B6034
:1037F8007B68BB60BB683B613B69FB607B69302BC6
:1038080007D13B6A5A1C3A621B787B610123BB6073
:1038180011E010E0FA6813469B0013445B001A4657
:103828007B69303B1344FA681344FB603B6A5A1CBB
:103838003A621B787B617B692F2B02DD7B69392B10
:10384800E8DDBB68002B02D0FB685B42FB607B694C
:103858006C2B06D101237B603B6A5A1C3A621B78A9
:103868007B617B69002B00D15EE07B69732B07D1FC
:103878003B681A1D3A601B681846FFF7F7FE4AE0D6
:103888007B69632B08D13B681A1D3A601B68DBB261
:103898001846FFF7D9FE3EE07B69752B01D10A2354
:1038A8003B617B69642B02D16FF009033B617B6943
:1038B800582B02D07B69782B01D110233B617B699F
:1038C800622B01D102233B613B69002B00D12BE025
:1038D8007B68002B09D03B681A1D3A601B681846A4
:1038E8003969FA68FFF7D6FE15E03B69002B09DD58
:1038F8003B681A1D3A601B6818463969FA68FFF771
:10390800C9FE08E03B681A1D3A601B681846396909
:10391800FA68FFF7BFFE3B6A5A1C3A621B787B6164
:103928007B69002B7FF454AF1837BD46BDE8804053
:1039380004B0704780B586B000AFF860B9607A60AF
:103948001F48B968FFF73CFF0023FB750AE0FB7DC1
:10395800FA6813441B781B481946FFF731FFFB7DB3
:103968000133FB75FA7D7B689A42F0DB2020FFF774
:103978006BFE0023FB7519E0FB7DFA6813441B7886
:103988001F2B05D9FB7DFA6813441B787E2B03D9BE
:103998002E20FFF759FE06E0FB7DFA6813441B78DA
:1039A8001846FFF751FEFB7D0133FB75FA7D7B68F6
:1039B8009A42E1DB0A20FFF747FE1837BD4680BD73
:1039C800B0830108B883010880B584B000AF78607F
:1039D80039600023FB6000F043F90346FB72FB7A71
:1039E8000D2B00D128E0FB7A082B10D1FB68002BA7
:1039F8000DD0FB68013BFB60FB7A1846FFF724FEFD
:103A08002020FFF721FEFB7A1846FFF71DFEFB7A00
:103A18001F2B10D93B685A1EFB689A420BDDFB68C6
:103A28005A1CFA607A681344FA7A1A70FB7A1846B4
:103A3800FFF70AFECFE7CEE7FB687A681344002257
:103A48001A700A20FFF700FE1037BD4680BD00BF80
:103A580080B588B000AFF860B9607A600023FB6178
:103A680000F0F6F80346002B3ED07B681B68BB616C
:103A780000F0F6F80346FB75FB7D0D2B0AD1BB69F8
:103A8800FA68134400221A700A20FFF7DDFD0123AB
:103A9800FB6126E0FB7D082B10D1BB69002B0DD004
:103AA800BB69013BBB61FB7D1846FFF7CDFD2020BC
:103AB800FFF7CAFDFB7D1846FFF7C6FDFB7D1F2BF0
:103AC8000FD9BB685A1EBB699A420ADDBB695A1CEA
:103AD800BA61FA681344FA7D1A70FB7D1846FFF73D
:103AE800B3FD7B68BA691A60FB6918462037BD4682
:103AF80080BD00BF80B58AB000AF7860102001217A
:103B08000BF0C6FD022001210BF04AFDC0233B62E9
:103B1800022387F82430022387F82530002387F80A
:103B28002630012387F8273007F120031C4819465F
:103B380009F0C0FC1A480621072209F029FE184896
:103B48000721072209F024FE7B683B610023BB8222
:103B58000023FB8200233B830023BB830C237B834E
:103B680007F110030F48194610F028F80D4840F2E5
:103B78002551012210F05CFB25233B7300237B7346
:103B88000023BB730123FB7307F10C03184602F0F3
:103B980029F90448012110F027F92837BD4680BDCE
:103BA800000402400010014080B582B000AF786088
:103BB800396012E000BF7B681B889BB203F04003AA
:103BC800002BF8D03B681B78DBB27868194610F0F8
:103BD80089F93B685A1C3A601B783B681B78DBB252
:103BE800002BE7D10837BD4680BD00BF80B582B045
:103BF80000AF144840F2255110F08EFB0346002B0D
:103C08001DD0104B9B889BB2FB71FB790A2B0FD000
:103C18000D4B1B780B2B0BD80B4B1B780B4AF979E8
:103C2800D154094B1B780133DAB2074B1A7006E0FE
:103C3800054B00221A7003480449FFF7B5FF0837FF
:103C4800BD4680BD00100140EC7500203476002090
:103C580080B400AF1846BD465DF8047B704700BFCE
:103C680080B400AF1846BD465DF8047B704700BFBE
:103C780080B582B000AF0346FB7100BF074B1B88BD
:103C88009BB203F04003002BF8D0FB799BB20348AA
:103C9800194610F027F90837BD4680BD00100140CD
:103CA80080B500AF4FF41650FFF724FF80BD00BF6A
:103CB80080B586B000AFF860B9607A60BA68FB6812
:103CC800D21A3B6AD31A7B617B687A69B2FBF3F339
:103CD8003B61BB6A012B07D13B691B0A064839695E
:103CE8001A46FFF76DFD03E004483969FFF768FDE0
:103CF8001837BD4680BD00BFC0830108EC830108AA
:103D080090B5ADF5685D8BB004AF9E4B9D4AD26807
:103D180042F08072DA609C4B00225A609A4B9A4AB1
:103D2800126842F001021A60974B5B6807F5685108
:103D380001F110010B60944B5B6807F5685202F1C2
:103D48000C02136007F5685303F10C031A6807F5B2
:103D5800685101F110010B68D31A1A464FF000039D
:103D680007F56851C1E9002307F5685213688748C9
:103D78001946FFF725FD844B5B6807F5685101F18B
:103D88000C010B604FF47A7011F0ECFC7E4B0022B2
:103D98005A607D4B5B6807F5685202F110021360A8
:103DA800002307F5685101F114010B6010E007F1D9
:103DB8001803183B1846FFF76BFB07F5685202F12A
:103DC80014021368013307F5685101F114010B60FF
:103DD80007F5685202F114021368B3F57A7FE6DB3F
:103DE800694B5B6807F5685101F10C010B60684885
:103DF800FFF7E6FC07F56851D1E90023CDE9002378
:103E08000123029307F5685202F11002106807F5C2
:103E1800685303F10C0319684FF47A72FFF748FFEF
:103E28004FF47A7011F09EFC574B00225A60564BA3
:103E38005B6807F5685101F110010B60002307F575
:103E4800685202F11402136010E007F11803183BDE
:103E58001846FEF7A1FA07F5685101F114010B683D
:103E6800013307F5685202F11402136007F568512F
:103E780001F114010B68B3F57A7FE6DB424B5B680E
:103E880007F5685202F10C0213604248FFF798FCEC
:103E980007F56851D1E90023CDE9002301230293F6
:103EA80007F5685202F11002106807F5685303F12C
:103EB8000C0319684FF47A72FFF7FAFE4FF47A7020
:103EC80011F050FC304B00225A602F4B5B6807F50D
:103ED800685101F110010B60002307F5685202F1E7
:103EE8001402136010E007F11803183B1846FEF798
:103EF80067F907F5685101F114010B68013307F5FB
:103F0800685202F11402136007F5685101F11401B7
:103F18000B68B3F57A7FE6DB1B4B5B6807F56852E5
:103F280002F10C0213601C48FFF74AFC07F56851C0
:103F3800D1E90023CDE900230123029307F5685254
:103F480002F11002106807F5685303F10C031968B1
:103F58004FF47A72FFF7ACFE4FF47A7011F002FC5E
:103F6800094B00225A60084B5B6807F5685101F15C
:103F780010010B60002307F5685202F11402136068
:103F880022E000BFF0ED00E0001000E00884010826
:103F98001C840108488401086084010807F5585109
:103FA80007F5485207F53853084611461A46FFF7F1
:103FB80055FA07F5685101F114010B68013307F54B
:103FC800685202F11402136007F5685101F11401F7
:103FD8000B68B3F57A7FE1DB974B5B6807F56852AE
:103FE80002F10C0213609548FFF7EAFB07F56851E8
:103FF800D1E90023CDE900230023029307F5685295
:1040080002F11002106807F5685303F10C031968F0
:104018004FF47A72FFF74CFE4FF47A7011F0A2FB5E
:10402800854B00225A60844B5B6807F5685101F1A3
:1040380010010B60002307F5685202F114021360A7
:1040480022E007F5285000F11800183807F6186123
:10405800183907F61822183A07F5D05303F1180350
:10406800183B07F5185404F11804183C0094FEF79F
:10407800F5FF07F5685101F114010B68013307F5E5
:10408800685202F11402136007F5685101F1140136
:104098000B68B3F57A7FD4DB674B5B6807F568522A
:1040A80002F10C0213606648FFF78AFB07F56851B6
:1040B800D1E90023CDE900230023029307F56852D4
:1040C80002F11002106807F5685303F10C03196830
:1040D8004FF47A72FFF7ECFD4FF47A7011F042FB5F
:1040E800554B00225A60544B5B6807F5685101F143
:1040F80010010B60002307F5685202F114021360E7
:104108001AE007F61861183907F61822183A07F561
:10411800085303F11803183B084611461A46FEF7E0
:104128008BFF07F5685101F114010B68013307F59E
:10413800685202F11402136007F5685101F1140185
:104148000B68B3F57A7FDCDB3B4B5B6807F568529D
:1041580002F10C0213603B48FFF732FB07F5685188
:10416800D1E90023CDE900230023029307F5685223
:1041780002F11002106807F5685303F10C0319687F
:104188004FF47A72FFF794FD4FF47A7011F0EAFA5F
:10419800294B00225A60284B5B6807F5685101F1EA
:1041A80010010B60002307F5685202F11402136036
:1041B80015E007F5585107F5485207F538530846F2
:1041C80011461A46FEF700FF07F5685101F1140180
:1041D8000B68013307F5685202F11402136007F502
:1041E800685101F114010B68B3F57A7FE1DB124BDA
:1041F8005B6807F5685202F10C0213601248FFF77A
:10420800DFFA07F56851D1E90023CDE9002300233F
:10421800029307F5685202F11002106807F5685317
:1042280003F10C0319684FF47A72FFF741FD07F5A3
:1042380068571C37BD4690BD001000E07084010827
:104248008484010894840108A484010880B483B09C
:1042580000AF786039607B681A683B681B68D31ABE
:1042680018460C37BD465DF8047B704780B483B0B0
:1042780000AF786039607B681B881A463B681B88EA
:10428800D31A18460C37BD465DF8047B704700BF4B
:1042980080B485B000AF786039600023FB600DE022
:1042A800FB685B003A681344FA68920079680A442C
:1042B800126892B21A80FB680133FB60FB68FF2B1F
:1042C800EEDD1437BD465DF8047B704780B586B0D7
:1042D80000AFF860B9607A6000237B6114E07B6905
:1042E8005B00FA6813441A887B695B00B9680B4461
:1042F8001B889A4205D009487969FFF761FA0023BB
:1043080007E07B6901337B617A697B689A42E6DB67
:10431800012318461837BD4680BD00BFB484010884
:1043280090B5ADF5B84D8BB002AFCB48FFF79EF90D
:10433800CA48FFF79BF9002307F5B84101F11401BA
:104348000B60002307F5B84202F11C021360A8E0D5
:1043580007F5B84303F11C031A68C14B83FB02132A
:104368005911D317CB1A642101FB03F3D31A002B7D
:1043780002D1BC48FFF724FA07F5B84202F11C0243
:10438800136807F5B84101F11C010A6802FB03F341
:10439800184611F0E7F907F5E1531C3B1846FCF7FE
:1043A80009FA07F5B84202F11C02136807F5B8418B
:1043B80001F11C010A6802FB03F3184611F0D2F957
:1043C80007F5D1531C3B1846FCF7C0F907F5B8426E
:1043D80002F11C02136807F5B84101F11C010A68D3
:1043E80002FB03F3184611F0BDF907F5C1531C3B56
:1043F8001846FFF74DF807F5C1521C3A07F5E15387
:104408001C3B104619464FF48072FFF75FFF0346C6
:10441800012B0ED0944807F5B84202F11C0211682E
:10442800FFF7CEF9012307F5B84101F114010B603C
:104438003FE007F5E1531C3B18464FF48071022218
:104448008A4B10F0E1FE07F5D1531C3B18464FF498
:1044580080710222854B10F0D7FE07F5D1521C3A25
:1044680007F5E1531C3B104619464FF48072FFF7DD
:104478002DFF0346012B09D07D48FFF7F7F80123EC
:1044880007F5B84202F11402136012E007F5B841CB
:1044980001F11C010B68013307F5B84202F11C0257
:1044A800136007F5B84101F11C010B68632B7FF716
:1044B8004FAF07F5B84202F114021368012B03D17C
:1044C8006C48FFF7D3F802E06B48FFF7CFF86B486A
:1044D800FFF776F9002307F5B84101F114010B60E5
:1044E800002307F5B84202F11C02136058E007F5F3
:1044F800B84303F11C031A68594B83FB0213591183
:10450800D317CB1A642101FB03F3D31A002B02D172
:104518005448FFF755F907F5B84202F11C02136831
:10452800184611F01FF907F5E1531C3B1846FDF733
:1045380047FE07F5B84101F11C010B68184611F058
:1045480011F907F5D1531C3B1846FCF7CBF807F5D2
:10455800D1521C3A07F5E1531C3B104619464FF45B
:104568008072FFF7B3FE0346012B0ED0444807F5CF
:10457800B84202F11C021168FFF722F9012307F57E
:10458800B84101F114010B6011E007F5B84202F1DE
:104598001C021368013307F5B84101F11C010B60D7
:1045A80007F5B84202F11C021368632B9FDD07F57B
:1045B800B84101F114010B68012B08D1314807F506
:1045C800B84202F11C021168FFF7FAF802E02E481F
:1045D800FFF7F6F8002307F5B84101F114010B6065
:1045E8002A48FFF7EDF8002307F5B84202F11C024C
:1045F800136058E007F5B84101F11C010B68184633
:1046080011F0B0F807F5E1531C3B1846FEF7EAFB3A
:1046180007F5B84202F11C021368184611F0A2F817
:1046280007F5D1531C3B1846FCF77CFC07F5E15213
:104638001C3A07F5D1531C3B104619464FF48072BB
:10464800FFF744FE0346012B22D0012307F5B841AA
:1046580001F114010B602DE0BC840108C884010835
:104668001F85EB51E0840108E484010875420008C5
:10467800088501082085010828850108308501087A
:1046880040850108488501085485010858850108B6
:1046980007F5B84202F11C021368013307F5B84167
:1046A80001F11C010B6007F5B84202F11C02136806
:1046B800632B9FDD07F5B84101F114010B68012B4D
:1046C80008D1AB4807F5B84202F11C021168FFF7A0
:1046D80077F802E0A748FFF773F8A748FEF7C6FF88
:1046E800002307F5B84101F114010B60012307F518
:1046F800B84202F11C02136069E007F5B84101F104
:104708001C010B68184611F02DF807F5B84202F1A4
:104718001C0213685B001C4607F581521C3A07F51A
:10472800E1531C3B104619462246FDF7EBFB07F503
:10473800B84101F11C010B685B0001331C4607F509
:1047480091521C3A07F5D1531C3B10461946224694
:10475800FDF7D8FB07F5A1511C3907F5E1521C3AC2
:1047680007F5D1531C3B084611461A46FDF7E1FFF1
:1047780007F5B1511C3907F5E1521C3A07F5D15339
:104788001C3B084611461A46FDF744FA07F5A152A4
:104798001C3A07F5B1531C3B104619464FF480727A
:1047A800FFF794FD0346012B06D0012307F5B84215
:1047B80002F11402136018E007F5B84101F11C0179
:1047C8000B68013307F5B84202F11C02136007F5C4
:1047D800B84101F11C010B68632B06DC07F5B842F0
:1047E80002F114021368002B87D007F5B84101F1D4
:1047F80014010B68012B08D1604807F5B84202F193
:104808001C021168FEF7DCFF02E05A48FEF7D8FFE9
:104818005B48FEF7D5FF002307F5B84101F1140105
:104828000B60002307F5B84202F11C02136078E020
:1048380007F5B84101F11C010B68184610F092FF0A
:1048480007F5B84202F11C02146807F562621C3AC7
:1048580007F5E1531C3B104619462246FDF752FB6B
:1048680007F5B84101F11C010B6801331C4607F537
:1048780081521C3A07F5D1531C3B10461946224673
:10488800FDF740FB07F5B84202F11C02136802333A
:104898001C4607F591521C3A07F5C1531C3B1046BC
:1048A80019462246FDF72EFB07F5A1501C3807F5DF
:1048B80062611C3907F581521C3A07F591531C3B7C
:1048C800FDF778FF07F5B1501C3807F5E1511C39A1
:1048D80007F5D1521C3A07F5C1531C3BFDF7C2F945
:1048E80007F5A1521C3A07F5B1531C3B104619466F
:1048F8004FF48072FFF7EAFC0346012B06D0012330
:1049080007F5B84101F114010B6012E007F5B84250
:1049180002F11C021368013307F5B84101F11C01CB
:104928000B6007F5B84202F11C021368632B7FF78E
:104938007FAF07F5B84101F114010B68012B03D1D2
:104948001048FEF73DFF02E00F48FEF739FF0F4819
:10495800FEF78CFE002307F5B84202F1140213603B
:10496800002307F5B84101F11C010B6061E000BFAD
:10497800688501085485010874850108488501087F
:104988008C8501082085010828850108A48501086F
:1049980007F5B84303F11C031A68C14B83FB0213E4
:1049A8005911D317CB1A642101FB03F3D31A002B37
:1049B80002D12E20FEF748FE07F5B84202F11C028C
:1049C800146807F5E1521C3A07F5D1531C3B104611
:1049D80019462246FDF796FA07F5E1531C3B18469F
:1049E800FEF71EFC07F5D1531C3B1846FCF778FB75
:1049F80007F5E1521C3A07F5D1531C3B10461946FE
:104A08004FF48072FFF762FC0346012B06D00123A6
:104A180007F5B84101F114010B6018E007F5B84239
:104A280002F11C021368013307F5B84101F11C01BA
:104A38000B6007F5B84202F11C021368632B06DC11
:104A480007F5B84101F114010B68002BA0D007F558
:104A5800B84202F114021368012B08D1914807F5F6
:104A6800B84303F11C031968FEF7AAFE02E08E485A
:104A7800FEF7A6FE8D48FEF7F9FD002307F5B841BD
:104A880001F114010B60002307F5B84202F11C0282
:104A9800136066E007F5B84101F11C010B68184680
:104AA80010F060FE07F5B84202F11C02146807F521
:104AB80081521C3A07F5E1531C3B10461946224621
:104AC800FDF720FA07F5B84101F11C010B68013325
:104AD8001C4607F591521C3A07F5D1531C3B10466A
:104AE80019462246FDF70EFA07F5A1511C3907F5BC
:104AF800E1521C3A07F5D1531C3B084611461A46A9
:104B0800FDF737FE07F5B1511C3907F5E1521C3A9C
:104B180007F5D1531C3B084611461A46FDF752F8D3
:104B280007F5A1521C3A07F5B1531C3B104619462C
:104B38004FF48072FFF7CAFB0346012B06D001230E
:104B480007F5B84202F11402136018E007F5B841FE
:104B580001F11C010B68013307F5B84202F11C0290
:104B6800136007F5B84101F11C010B68632B06DCE3
:104B780007F5B84202F114021368002B8AD007F532
:104B8800B84101F114010B68012B08D1454807F51C
:104B9800B84202F11C021168FEF712FE02E0424818
:104BA800FEF70EFE4248FEF761FD002307F5B84107
:104BB80001F114010B60002307F5B84202F11C0251
:104BC80013603CE007F5B84101F11C010B68184679
:104BD80010F0C8FD07F5E1531C3B1846FEF7DEF858
:104BE80007F5B84202F11C021368184610F0BAFD26
:104BF80007F5D1531C3B1846FCF756F907F5E15267
:104C08001C3A07F5D1531C3B104619464FF48072E5
:104C1800FFF75CFB0346012B06D0012307F5B841DB
:104C280001F114010B6018E007F5B84202F11C020B
:104C38001368013307F5B84101F11C010B6007F552
:104C4800B84202F11C021368632B06DC07F5B84171
:104C580001F114010B68002BB4D007F5B84202F13A
:104C680014021368012B08D10E4807F5B84303F165
:104C78001C031968FEF7A4FD02E00B48FEF7A0FD2F
:104C88000C48FEF7F3FC002307F5B84101F11401C5
:104C98000B60072307F5B84202F11C02136048E0D5
:104CA8001F85EB514885010854850108B485010822
:104CB800CC850108D885010807F5B84101F11C0128
:104CC8000B68184610F04EFD07F5E1531C3B1846DB
:104CD800FEF76CF907F5B84202F11C021368184692
:104CE80010F040FD07F5D1531C3B1846FCF70CF9B2
:104CF80007F5E1521C3A07F5D1531C3B10461946FB
:104D08004FF48072FFF7E2FA0346012B06D0012325
:104D180007F5B84101F114010B6018E007F5B84236
:104D280002F11C021368013307F5B84101F11C01B7
:104D38000B6007F5B84202F11C021368632B06DC0E
:104D480007F5B84101F114010B68002BB4D007F541
:104D5800B84202F114021368012B08D1C04807F5C4
:104D6800B84303F11C031968FEF72AFD02E0BD48A9
:104D7800FEF726FDBC48FEF779FC002307F5B8418D
:104D880001F114010B60002307F5B84202F11C027F
:104D9800136066E007F5B84101F11C010B6818467D
:104DA80010F0E0FC07F5B84202F11C02146807F5A0
:104DB80081521C3A07F5E1531C3B1046194622461E
:104DC800FDF7A0F807F5B84101F11C010B680133A4
:104DD8001C4607F591521C3A07F5D1531C3B104667
:104DE80019462246FDF78EF807F5A1511C3907F53B
:104DF800E1521C3A07F5D1531C3B084611461A46A6
:104E0800FDF701FD07F5B1511C3907F5E1521C3AD0
:104E180007F5D1531C3B084611461A46FCF754FFC8
:104E280007F5A1521C3A07F5B1531C3B1046194629
:104E38004FF48072FFF74AFA0346012B06D001238C
:104E480007F5B84202F11402136018E007F5B841FB
:104E580001F11C010B68013307F5B84202F11C028D
:104E6800136007F5B84101F11C010B68632B06DCE0
:104E780007F5B84202F114021368002B8AD007F52F
:104E8800B84101F114010B68012B08D1744807F5EA
:104E9800B84202F11C021168FEF792FC02E0714868
:104EA800FEF78EFC7148FEF7E1FB002307F5B841D9
:104EB80001F114010B60002307F5B84202F11C024E
:104EC80013603CE007F5B84303F11C031C6807F5C1
:104ED800E1521C3A07F5D1531C3B104619462246AD
:104EE800FDF710F807F5E1531C3B1846FDF73CFFAA
:104EF80007F5D1531C3B1846FCF750F807F5E1526B
:104F08001C3A07F5D1531C3B104619464FF48072E2
:104F1800FFF7DCF90346012B06D0012307F5B8415A
:104F280001F114010B6018E007F5B84202F11C0208
:104F38001368013307F5B84101F11C010B6007F54F
:104F4800B84202F11C021368632B06DC07F5B8416E
:104F580001F114010B68002BB4D007F5B84202F137
:104F680014021368012B08D13D4807F5B84303F133
:104F78001C031968FEF724FC02E03A48FEF720FCFF
:104F88003B48FEF773FB002307F5B84101F1140114
:104F98000B60002307F5B84202F11C0213608DE094
:104FA80007F5B84303F11C031A6807F5E1531C3BE6
:104FB80030481946FCF7A6FF07F5B84101F11C0176
:104FC8000A6807F5D1531C3B2B481946FCF79AFF92
:104FD80007F5B84303F11C031A6807F5C1531C3BD6
:104FE80026481946FCF78EFF2248FDF78CFD07F589
:104FF800E1531C3B1846FCF745F907F5D1531C3B18
:105008001846FCF73FF907F5C1531C3B1846FCF757
:1050180039F907F5E1531C3B184616494FF48072DD
:10502800FFF754F90346012B06D0012307F5B841D1
:1050380001F114010B6050E007F5D1531C3B1846F1
:105048000D494FF48072FFF741F90346012B17D041
:10505800012307F5B84202F1140213603DE000BFD6
:105068004885010854850108E4850108FC85010884
:105078000C860108D06F0020D0710020D07300206A
:1050880007F5C1531C3B1846BF494FF48072FFF720
:105098001DF90346012B06D0012307F5B84101F19C
:1050A80014010B6019E007F5B84202F11C021368FD
:1050B800013307F5B84101F11C010B6007F5B8424F
:1050C80002F11C021368632B07DC07F5B84101F1F4
:1050D80014010B68002B3FF463AF07F5B84202F1E7
:1050E80014021368012B08D1A84807F5B84303F147
:1050F8001C031968FEF764FB02E0A548FEF760FB95
:10510800A448FEF7B3FA002307F5B84101F11401EA
:105118000B60002307F5B84202F11C0213603CE063
:1051280007F5B84303F11C031C6807F5E1521C3A64
:1051380007F5D1531C3B104619462246FCF7E2FE00
:1051480007F5E1531C3B1846FDF751FC07F5D15311
:105158001C3B1846FCF796F807F5E1521C3A07F590
:10516800D1531C3B104619464FF48072FFF7AEF836
:105178000346012B06D0012307F5B84101F11401BC
:105188000B6018E007F5B84202F11C0213680133FE
:1051980007F5B84101F11C010B6007F5B84202F1AF
:1051A8001C021368632B06DC07F5B84101F11401F2
:1051B8000B68002BB4D007F5B84202F1140213684B
:1051C800012B08D1714807F5B84303F11C0319688E
:1051D800FEF7F6FA02E06E48FEF7F2FA6E48FEF7BE
:1051E80045FA002307F5B84101F114010B600023CB
:1051F80007F5B84202F11C0213603CE007F5B8431A
:1052080003F11C031C6807F5E1521C3A07F5D1535A
:105218001C3B104619462246FCF774FE07F5E1537D
:105228001C3B1846FDF71EFB07F5D1531C3B1846DF
:10523800FCF7CCF907F5E1521C3A07F5D1531C3BB2
:10524800104619464FF48072FFF740F80346012BC9
:1052580006D0012307F5B84101F114010B6018E0ED
:1052680007F5B84202F11C021368013307F5B8418B
:1052780001F11C010B6007F5B84202F11C0213682A
:10528800632B06DC07F5B84101F114010B68002B0C
:10529800B4D007F5B84202F114021368012B08D103
:1052A8003A4807F5B84303F11C031968FEF788FA72
:1052B80002E03748FEF784FA002307F5B84101F108
:1052C80014010B603548FEF77BFA002307F5B84256
:1052D80002F11C02136085E007F5B84101F11C01D9
:1052E8000B68184610F03EFA07F542611C3907F5BD
:1052F80062621C3A07F581531C3B084611461A4660
:10530800FDF762FE07F5B84202F11C021368184661
:1053180010F028FA07F591511C3907F5A1521C3AEB
:1053280007F5B1531C3B084611461A46FCF7F4FC36
:1053380007F542621C3A07F591531C3B1046194683
:105348004FF48072FEF7C2FF0346012B06D00123FB
:1053580007F5B84101F114010B604BE007F56262F3
:105368001C3A07F5A1531C3B104619464FF48072AE
:10537800FEF7ACFF0346012B12D0012307F5B84214
:1053880002F11402136035E0D0730020488501084B
:1053980054850108248601083486010844860108DA
:1053A80007F581521C3A07F5B1531C3B10461946C4
:1053B8004FF48072FEF78AFF0346012B07D00123C2
:1053C80007F5B84101F114010B6000BF12E007F5C1
:1053D800B84202F11C021368013307F5B84101F124
:1053E8001C010B6007F5B84202F11C021368632B1D
:1053F8007FF772AF07F5B84101F114010B68012B73
:1054080008D1AC4807F5B84202F11C021168FEF752
:10541800D7F902E0A848FEF7D3F9A848FEF7D0F973
:10542800002307F5B84101F11C010B601DE107F5E8
:10543800B84202F11C021368184610F093F907F1FC
:1054480020031C3B1846FCF741FD07F5B84101F164
:105458001C010B68184610F085F907F508711C390E
:1054680007F584621C3A07F5C4631C3B08461146DD
:105478001A46FCF751FC07F5B84202F11C02136802
:10548800184610F06FF907F508701C3807F5026127
:105498001C3907F522621C3A07F120031C3B07F56B
:1054A80084641C3C0094FCF76FFC07F5B84101F1DB
:1054B8001C010B68184610F055F907F542631C3BB0
:1054C8001846FDF719FE07F5B84202F11C021368E9
:1054D800184610F047F907F562611C3907F5815243
:1054E8001C3A07F591531C3B084611461A46FDF72E
:1054F8006BFD07F5B84101F11C010B68184610F067
:1055080031F907F562601C3807F5A1511C3907F518
:10551800B1521C3A07F542631C3B07F581541C3C09
:105528000094FDF79BFD07F542621C3A07F1200342
:105538001C3B104619464FF48072FEF7C7FE03461F
:10554800012B08D05E48FEF73BF9012307F5B84266
:1055580002F11402136007F562621C3A07F508733A
:105568001C3B104619464FF48072FEF7AFFE034607
:10557800012B08D05348FEF723F9012307F5B8415A
:1055880001F114010B6007F581521C3A07F5846399
:105598001C3B104619464FF48072FEF797FE0346EF
:1055A800012B08D04848FEF70BF9012307F5B8424C
:1055B80002F11402136007F591521C3A07F5C4630F
:1055C8001C3B104619464FF48072FEF77FFE0346D7
:1055D800012B08D03D48FEF7F3F8012307F5B84141
:1055E80001F114010B6007F5A1521C3A07F502639B
:1055F8001C3B104619464FF48072FEF767FE0346BF
:10560800012B08D03248FEF7DBF8012307F5B84232
:1056180002F11402136007F5B1521C3A07F5226330
:105628001C3B104619464FF48072FEF74FFE0346A6
:10563800012B08D02748FEF7C3F8012307F5B84126
:1056480001F114010B6007F5B84202F11402136866
:10565800012B12D007F5B84101F11C010B68013389
:1056680007F5B84202F11C02136007F5B84101F1D1
:105678001C010B68632B7FF7DAAE07F5B84202F11D
:1056880014021368012B08D10A4807F5B84303F13F
:105698001C031968FEF794F802E00748FEF790F833
:1056A8000D48FEF78DF8002307F5B84101F11C01FC
:1056B8000B6046E1488501085485010854860108B5
:1056C80060860108688601086C86010870860108F2
:1056D80074860108788601087C86010807F5B842B7
:1056E80002F11C021368184610F03CF807F1200379
:1056F8001C3B1846FCF7EAFB07F5B84101F11C0111
:105708000B68184610F02EF807F508711C3907F5D4
:1057180084621C3A07F5C4631C3B084611461A46C6
:10572800FCF7FAFA07F5B84202F11C0213681846AA
:1057380010F018F807F508701C3807F502611C39D5
:1057480007F522621C3A07F120031C3B07F5846425
:105758001C3C0094FCF718FB07F502611C3907F59F
:1057680022621C3A07F5C4631C3B084611461A46D8
:10577800FCF796FB07F5B84101F11C010B681846C8
:105788000FF0F0FF07F542631C3B1846FDF7B4FC29
:1057980007F5B84202F11C02136818460FF0E2FF41
:1057A80007F562611C3907F581521C3A07F59153D8
:1057B8001C3B084611461A46FDF706FC07F5B8419A
:1057C80001F11C010B6818460FF0CCFF07F5626069
:1057D8001C3807F5A1511C3907F5B1521C3A07F5D9
:1057E80042631C3B07F581541C3C0094FDF736FCD2
:1057F80007F5A1511C3907F5B1521C3A07F5915329
:105808001C3B084611461A46FDF716FC07F542628E
:105818001C3A07F120031C3B104619464FF48072CE
:10582800FEF754FD0346012B08D0C948FDF7C8FF11
:10583800012307F5B84202F11402136007F562620A
:105848001C3A07F508731C3B104619464FF4807242
:10585800FEF73CFD0346012B08D0BE48FDF7B0FF1C
:10586800012307F5B84101F114010B6007F58152D6
:105878001C3A07F584631C3B104619464FF48072A6
:10588800FEF724FD0346012B08D0B348FDF798FF27
:10589800012307F5B84202F11402136007F591528B
:1058A8001C3A07F5C4631C3B104619464FF4807236
:1058B800FEF70CFD0346012B08D0A848FDF780FF32
:1058C800012307F5B84101F114010B6007F5A15256
:1058D8001C3A07F502631C3B104619464FF48072C8
:1058E800FEF7F4FC0346012B08D09D48FDF768FF3E
:1058F800012307F5B84202F11402136007F5B1520B
:105908001C3A07F522631C3B104619464FF4807277
:10591800FEF7DCFC0346012B08D09248FDF750FF48
:10592800012307F5B84101F114010B6007F5B842EE
:1059380002F11C021368013307F5B84101F11C019B
:105948000B6007F5B84202F11C021368632B7FF75E
:10595800C5AE07F5B84101F114010B68012B08D158
:10596800814807F5B84202F11C021168FDF728FFCB
:1059780002E07E48FDF724FF002307F5B84101F156
:1059880014010B607A48FDF71BFF002307F5B842A6
:1059980002F11C021360BCE007F5B84101F11C01DB
:1059A8000B6818460FF0DEFE07F542631C3B1846ED
:1059B800FCF78CFA07F542631C3B1846FBF790FB93
:1059C80007F562611C3907F581521C3A07F59153B6
:1059D8001C3B084611461A46FCF79EF907F562601B
:1059E8001C3807F5A1511C3907F5B1521C3A07F5C7
:1059F80042631C3B07F581541C3C0094FCF7C4F936
:105A080007F5A1511C3907F5B1521C3A07F5915316
:105A18001C3B084611461A46FCF742FA002307F5D4
:105A2800B84202F1180213603BE007F5A1531C3B92
:105A380007F5B84101F118010A6833F81230B3F5D7
:105A4800F06F18D907F5A1531C3B07F5B84101F1D0
:105A580018010A6833F81230B3F5B45F0BD207F5B2
:105A6800A1531C3B07F5B84101F118010A6801214F
:105A780023F812100AE007F5A1531C3B07F5B841BB
:105A880001F118010A68002123F8121007F5B8423D
:105A980002F118021368013307F5B84101F1180142
:105AA8000B6007F5B84202F118021368FF2BBCD946
:105AB80007F542631C3B1846FBF712FB07F5A1529A
:105AC8001C3A07F5E1531C3B10461946FCF7C8FA87
