:020000040800F2
:1000000000000220355A01082D03000839030008BA
:1000100041030008490300085103000800000000E4
:10002000000000000000000000000000590300086C
:100030006503000800000000710300087D0300084C
:10004000815A0108815A0108815A0108815A010820
:10005000815A0108815A0108815A0108815A010810
:10006000815A0108815A0108815A0108815A010800
:10007000815A0108815A0108815A0108815A0108F0
:10008000815A0108815A0108815A0108815A0108E0
:10009000815A0108815A0108815A0108815A0108D0
:1000A000815A0108815A0108815A0108815A0108C0
:1000B000815A0108815A0108815A0108815A0108B0
:1000C000815A0108815A0108815A0108815A0108A0
:1000D000815A01086D3D0008815A0108815A0108C2
:1000E000815A0108815A0108815A0108815A010880
:1000F000815A0108815A0108815A0108815A010870
:10010000815A0108815A0108815A0108815A01085F
:10011000815A0108815A0108815A0108815A01084F
:10012000815A0108815A0108815A0108815A01083F
:10013000815A0108815A0108815A0108815A01082F
:10014000815A0108815A0108815A0108815A01081F
:10015000815A0108815A0108815A0108815A01080F
:10016000815A0108815A0108815A0108815A0108FF
:10017000815A0108815A0108815A0108815A0108EF
:08018000815A0108815A0108AF
:1001880010B5054C237833B9044B13B10448AFF3C9
:1001980000800123237010BDD075002000000000EE
:1001A8007090010808B5064B1BB106480649AFF325
:1001B80000800648036813B1054B03B1984708BD92
:1001C8000000000070900108D4750020CC6F00205A
:1001D80000000000154B002B08BF134B9D46A3F5EC
:1001E800803A00218B460F461348144A121A15F01C
:1001F800DFFA0F4B002B00D098470E4B002B00D096
:1002080098470020002104000D000D48002802D066
:100218000C4815F099FB15F0A3FA2000290000F00E
:100228005BF815F08DFA00BF000008000000000020
:100238000000000000000000D07500204876002073
:10024800515901085D59010880B483B000AF786046
:1002580000BF7B685A1E7A60002BFAD10C37BD4666
:100268005DF8047B704700BF80B500AF00BF012078
:1002780010F0C0F80346002BF9D0024B9B681846D3
:1002880080BD00BF0008065080B500AF03F0C4FD74
:10029800402001210FF022FE012010F067F880BDF8
:1002A80080B584B000AF78600023FB600BE0FB688A
:1002B8009B007A6813441B680648194603F03CFB08
:1002C800FB680133FB60FB68FF2BF0DD1037BD4690
:1002D80080BD00BF6C8C010880B582B000AFFFF70D
:1002E800D3FF0D4803F028FB00237B6009E000F0F2
:1002F8007BF903460948194603F01EFB7B68013366
:100308007B607B68092BF2DD04F0C6F803F0B4FDCE
:10031800034803F067FAFEE7708C01087C8C01083B
:10032800888C010880B400AFBD465DF8047B704737
:1003380080B400AFFEE700BF80B400AFFEE700BFA7
:1003480080B400AFFEE700BF80B400AFFEE700BF97
:1003580080B400AFBD465DF8047B704780B400AF41
:10036800BD465DF8047B704780B400AFBD465DF8BC
:10037800047B704780B400AFBD465DF8047B7047CE
:1003880080B500AF154B154AD2F8882042F47002A8
:10039800C3F88820124B124A126842F001021A6010
:1003A8000F4B00229A600E4A0D4B1B6823F0847392
:1003B80023F4803313600A4B0A4A5A60084B084AF0
:1003C800126822F480221A60054B0022DA6000F0DD
:1003D80087F8024B4FF000629A6080BD00ED00E0A4
:1003E800003802401030002480B487B000AF0023EA
:1003F8003B6100237B610223FB600023BB60022377
:100408007B60324B9B6803F00C033B613B69042B18
:1004180007D0082B09D0002B3FD12D4B2D4A1A604D
:100428003FE02B4B2C4A1A603BE0284B5B6803F4F7
:1004380080039B0DBB60254B5B6803F03F037B602B
:10044800BB68002B0DD0244A7B68B2FBF3F21F4B2C
:10045800596847F6C0730B409B0903FB02F37B61A5
:100468000CE01C4A7B68B2FBF3F2184B596847F65C
:10047800C0730B409B0903FB02F37B61134B5B6862
:1004880003F440331B0C01335B00FB607A69FB68A3
:10049800B2FBF3F20E4B1A6003E00D4B0D4A1A60E3
:1004A80000BF0A4B9B6803F0F0031B090B4AD35C9F
:1004B800DBB23B61064B1A683B69DA40044B1A60B1
:1004C8001C37BD465DF8047B704700BF003802400A
:1004D800040000200024F40000127A000800002024
:1004E80080B483B000AF00237B6000233B60354BB2
:1004F800344A126842F480321A60324B1B6803F4A3
:1005080000333B607B6801337B603B68002B03D181
:100518007B68B3F5A06FF0D12A4B1B6803F4003356
:10052800002B02D001233B6001E000233B603B68C5
:10053800012B42D1234B234A126C42F080521A6499
:10054800214B214A126842F440421A601D4B1D4A51
:1005580092689A601B4B1B4A926842F400429A6068
:10056800184B184A926842F4A0529A60154B174AE1
:100578005A60144B134A126842F080721A6000BF26
:10058800104B1B6803F00073002BF9D0104B40F29E
:1005980005721A600B4B0B4A926822F003029A60AC
:1005A800084B084A926842F002029A6000BF054B65
:1005B8009B6803F00C03082BF9D10C37BD465DF896
:1005C800047B70470038024000700040195440070F
:1005D800003C024080B500AFFFF706FF014B1B68E7
:1005E800184680BD0400002080B582B000AF15F029
:1005F80041FD03467B607B6843F000437B607B687A
:1006080018460837BD4680BD80B485B000AF786015
:100618000023FB600CE0FB68C3F11F037A6822FA31
:1006280003F3012B01D1FB6806E0FB680133FB6093
:10063800FB681F2BEFDD202318461437BD465DF8F5
:10064800047B704780B584B000AF78607B68BB607E
:10065800B968294B83FB0123DA12CB17D21A134648
:100668001B019B1A5B021344CA1A002A0DDBB968E6
:10067800214B83FB0123DA12CB17D21A13461B0135
:100688009B1A5B021344CA1A0FE0B9681A4B83FB22
:100698000123DA12CB17D21A13461B019B1A5B02ED
:1006A8001344CA1A02F5F0520132FA6004E0FB68FA
:1006B80003F5F0530133FB60FB68002BF7DB04E024
:1006C800FB68A3F5F053013BFB60FA6841F6016350
:1006D8009A42F5DCFB68002B03DBFB68B3F5F05F9F
:1006E80005DD06483E21064A064B15F0C7F9FB68AA
:1006F80018461037BD4680BDCDFD4144948C010895
:10070800B88C01089C8C010890B587B000AF786060
:10071800FFF76AFF03463B6100237B611FE07B69AB
:10072800DB007A68D41807F1100207F10C031046B1
:10073800194600F0B7FA034623607B69DB000433EF
:100748007A68D41807F1100207F10C03104619460D
:1007580000F0A8FA034623607B6901337B617B695B
:100768007F2BDCDD1C37BD4690BD00BF90B587B040
:1007780000AF7860FFF738FF03463B6100237B61D9
:1007880021E07B699B007A68D41807F1100207F111
:100798000C031046194600F085FA03469BB22380E5
:1007A8007B699B0002337A68D41807F1100207F1BD
:1007B8000C031046194600F075FA03469BB22380D5
:1007C8007B6901337B617B697F2BDADD1C37BD4692
:1007D80090BD00BF80B58AB000AF786000233B624F
:1007E8000023FB61FFF700FF0346FB6000237B62E9
:1007F8004EE0FF233B6107F10C0207F1100310469E
:10080800194600F04FFA03467B833B69012B09D157
:100818003B6A5B007A6813447A8B1A803B6A01331F
:100828003B620DE0FA691346DB079B1A5B0003F590
:10083800FF737A6813447A8B1A80FB690133FB6172
:1008480007F10C0207F110031046194600F02AFAC6
:1008580003467B833B69012B09D13B6A5B007A68BD
:1008680013447A8B1A803B6A01333B620DE0FA69C4
:100878001346DB079B1A5B0003F5FF737A68134482
:100888007A8B1A80FB690133FB617B6A01337B62D7
:100898007B6A7F2BADDD28E0FFF7A6FE0346DBB2BF
:1008A8007B61FB69C3F580731A467B699A421CD940
:1008B8007B695B007A6813441B887B837B695B00D8
:1008C8007A681344FA69C2F58072520079680A445A
:1008D80012881A80FB69C3F580735B007A68134439
:1008E8007A8B1A80FB69013BFB61FB69002BD3DC27
:1008F8002837BD4680BD00BF90B585B000AF786091
:10090800FFF772FE0346BB600023FB6019E0FB683B
:10091800DB0004337A68D41807F10803184600F09E
:1009280017F803462360FB68DB007A68D41807F1E0
:100938000803184600F00CF803462360FB680133EF
:10094800FB60FB687F2BE2DD1437BD4690BD00BF1E
:1009580080B58AB000AF78607B681B68DBB2FB604B
:100968007B681B681A0A7B681A60984AFB681344FC
:100978001B78BB61BB6903F01003BB60BB68002B2D
:100988002BD17B681B68012B04D1FFF72DFE024693
:100998007B681A60BB6903F00F03BB617B681B6847
:1009A80003F00103002B04D0BB69C3F5F0530133F6
:1009B800BB617B681B685A087B681A607B681B6888
:1009C8001846FFF721FE0346172B04D9FFF70CFE44
:1009D80002467B681A60BB695FE17B681B68184642
:1009E800FFF712FE03461A2B04D9FFF7FDFD024656
:1009F8007B681A60BB6903F007037B627B681B682E
:100A080003F01F027B6A5B011344FB607B681B6871
:100A18005A097B681A607B681B68012B04D1FFF7B1
:100A2800E3FD02467B681A60694AFB6813441B7839
:100A3800BB61BB6903F02003BB60BB68002B22D1FC
:100A4800BB6903F01F03BB617B681B6803F00103EC
:100A5800002B04D0BB69C3F5F0530133BB617B683D
:100A68001B685A087B681A607B681B681846FFF782
:100A7800CBFD0346172B04D9FFF7B6FD02467B686A
:100A88001A60BB6909E1BB6903F00F037B620023AD
:100A9800FB6156E07B6A5B001A467B681B6803F0C3
:100AA800010313447B627B681B685A087B681A60E1
:100AB8007B681B68012B04D1FFF796FD02467B6813
:100AC8001A60444BFA6953F822303B611F233B629A
:100AD80031E03B69DB171A467B6A13447B623B694A
:100AE8005B003B617B6AB3F1FF3F21D17B681B68E8
:100AF80003F00103002B05D03B6AC3F5F053013323
:100B0800BB6101E03B6ABB617B681B685A087B6874
:100B18001A607B681B681846FFF776FD0346172B9B
:100B280004D9FFF761FD02467B681A60BB69B4E02F
:100B38003B6A013B3B623B6A002BCADAFB69013323
:100B4800FB61FB696C2BA5DD0823FB619FE0224B51
:100B5800FA6953F822307B611E4BFA6953F8223048
:100B68003B617B6A5B001A467B681B6803F00103E4
:100B780013447B627B681B685A087B681A607B6831
:100B88001B68012B05D115F075FA03461A467B68D8
:100B98001A6036233B623BE07B69DB171A467B6AA7
:100BA80013447B627B695B007B617B6AB3F1FF3F27
:100BB8002BD17B681B6803F00103002B0ED03B6A26
:100BC800C3F5F0530133BB610AE000BF58000020B1
:100BD80058010020E4620020646400203B6ABB6185
:100BE8007B681B685A087B681A607B681B68184614
:100BF800FFF70AFD0346172B05D915F03BFA034604
:100C08001A467B681A60BB6947E03B6A013B3B6256
:100C18003B6A1F2BC0DC1F233B6232E03B69DB17BA
:100C28001A467B6A13447B623B695B003B617B6AC3
:100C3800B3F1FF3F22D17B681B6803F00103002B4F
:100C480005D03B6AC3F5F0530133BB6101E03B6A51
:100C5800BB617B681B685A087B681A607B681B68E5
:100C68001846FFF7D1FC0346172B05D915F002FAF1
:100C780003461A467B681A60BB690EE03B6A013B73
:100C88003B623B6A002BC9DAFB690133FB61FB69F4
:100C98005F2B7FF75CAF4FF0FF3318462837BD4610
:100CA80080BD00BF80B588B000AF786039607B68D0
:100CB8001B68DBB2FB607B681B681A0A7B681A60DA
:100CC8007E4AFB6813441B783B613B6903F01003C1
:100CD800BB60BB68002B2ED17B681B68012B04D13D
:100CE800FFF782FC02467B681A603B6903F00F033A
:100CF8003B617B681B6803F00103002B04D03B6950
:100D0800C3F5F05301333B617B681B685A087B6865
:100D18001A607B681B681846FFF776FC0346172B9A
:100D280004D9FFF761FC02467B681A603B68012220
:100D38001A603B69BEE07B681B681846FFF764FCD5
:100D480003461A2B04D9FFF74FFC02467B681A604A
:100D58003B6903F00703FB617B681B6803F01F0214
:100D6800FB695B011344FB607B681B685A097B685D
:100D78001A607B681B68012B04D1FFF735FC02461B
:100D88007B681A604E4AFB6813441B783B613B69D9
:100D980003F02003BB60BB68002B25D13B6903F03F
:100DA8001F033B617B681B6803F00103002B04D021
:100DB8003B69C3F5F05301333B617B681B685A08F4
:100DC8007B681A607B681B681846FFF71DFC0346A2
:100DD800172B04D9FFF708FC02467B681A603B68AA
:100DE80001221A603B6965E03B6903F00F03FB6170
:100DF8000D237B6156E0FB695B001A467B681B6824
:100E080003F001031344FB617B681B685A087B6885
:100E18001A607B681B68012B04D1FFF7E5FB0246CB
:100E28007B681A603623BB6136E0264BBA696D21B0
:100E380001FB02F17A690A4453F82230FA69D31A9D
:100E4800FB61FB69002B24DA7B681B6803F0010354
:100E5800002B05D0BB69C3F5F05301333B6101E0BA
:100E6800BB693B617B681B685A087B681A607B68B2
:100E78001B681846FFF7C8FB0346172B04D9FFF772
:100E8800B3FB02467B681A603B6800221A603B6924
:100E980010E0BB69013BBB61BB69002BC5DA7B690C
:100EA80001337B617B696C2BA5DD3B6800221A60EE
:100EB8004FF0FF3318462037BD4680BD580000204C
:100EC800580100203802002090B585B000AF786046
:100ED8000023FB601DE015F0CDF80346BB60FB68FE
:100EE800DB007A68D418BB689BB21846FFF7AAFBE8
:100EF80003462360FB68DB0004337A68D418BB68B8
:100F08001B0C1846FFF79EFB03462360FB68013362
:100F1800FB60FB687F2BDED9786800F0BBF91437DB
:100F2800BD4690BD80B582B000AF78607868FFF7A5
:100F3800EBFB786800F0AEF90837BD4680BD00BF0E
:100F480080B588B000AF78600023FB6129E015F018
:100F580091F803467B610023BB611FE07B6903F0C6
:100F680001033B617B695B0803F00103FB60FB68DD
:100F7800012B05D13B69012B02D14FF4F0533B61A2
:100F8800FB695A1CFA619B007A6813443A691A6033
:100F98007B699B087B61BB690133BB61BB690F2B14
:100FA800DCD9FB69FF2BD2D9786800F073F92037B8
:100FB800BD4680BD80B48FB000AF786001237B63ED
:100FC8006CE07B6B03F001033B637B6B5B0803F016
:100FD8000103FB627B6B9B0803F00103BB627B6B25
:100FE800DB0803F001037B627B6B1B0903F0010341
:100FF8003B627B6B5B0903F00103FB617B6B9B0925
:1010080003F00103BB613B6B5A00FB6A13445A00AF
:10101800BB6A13445A007B6A13445A003B6A134460
:101028005A00FB6913445A00BB6913447B617A690F
:101038007B6B9A422FD97B6BDB007A6813441B6861
:101048003B617B6BDB0004337A6813441B68FB60ED
:101058007B6BDB007A6813447A69D20079680A44AA
:1010680012681A607B6BDB0004337A6813447A6970
:10107800D200043279680A4412681A607B69DB007E
:101088007A6813443A691A607B69DB0004337A682A
:101098001344FA681A607B6B01337B637B6B7F2B8D
:1010A8008FD93C37BD465DF8047B704780B485B066
:1010B80000AF786039600023FB6010E0FB689B009C
:1010C8007A6813441A68FB689B0039680B441B68EC
:1010D8009A4201D0002306E0FB680133FB60FB68FD
:1010E800FF2BEBDD012318461437BD465DF8047B62
:1010F800704700BF80B493B000AF786000233B64B2
:1011080000237B64BCE07B6C03F00103FB637B6C16
:101118005B0803F00103BB637B6C9B0803F00103CE
:101128007B637B6CDB0803F001033B637B6C1B096F
:1011380003F00103FB627B6C5B0903F00103BB62F4
:101148007B6C9B0903F001037B627B6CDB0903F07A
:1011580001033B62FB6B5A00BB6B13445A007B6B69
:1011680013445A003B6B13445A00FB6A13445A0059
:10117800BB6A13445A007B6A13445A003B6A1344FF
:10118800FB617B6C5B08BB617B6C03F001037B61DB
:10119800FB695B083B61FB6903F00103FB60FA69CB
:1011A8007B6C9A4269D9FB68002B05D13B69DB004F
:1011B8007A6813441B683B64FB68012B06D13B69C2
:1011C800DB0004337A6813441B683B64FB68002B1C
:1011D8000CD17B69002B09D13B69DB007A68134489
:1011E800BA69D20079680A4412681A60FB68002B51
:1011F8000DD17B69012B0AD13B69DB007A68134466
:10120800BA69D200043279680A4412681A60FB6825
:10121800012B0DD17B69002B0AD13B69DB0004331C
:101228007A681344BA69D20079680A4412681A6065
:10123800FB68012B0ED17B69012B0BD13B69DB00CD
:1012480004337A681344BA69D200043279680A44CC
:1012580012681A607B69002B05D1BB69DB007A68CC
:1012680013443A6C1A607B69012B06D1BB69DB0019
:1012780004337A6813443A6C1A607B6C01337B64DC
:101288007B6CFF2B7FF63FAF4C37BD465DF8047B88
:10129800704700BF90B58DB000AF78600023FB6247
:1012A80002233B629FE0814BFA6A33F81230BB613C
:1012B800FB6A5A1C7D4B33F81230FB61FB6A013321
:1012C800FB620023BB6286E000237B6274E0BA6A9B
:1012D8007B6A13449B007A6813441B687B61BA6A73
:1012E8007B6A134401339B007A6813441B68FA69CC
:1012F80002FB03F31846FFF7A5F93861BA6A7B6A5F
:101308001A443B6A13449B007A6813441B68FB60C9
:10131800BA6A7B6A1A443B6A134401339B007A68B1
:1013280013441B68FA6902FB03F31846FFF78AF9AE
:10133800B860BA6A7B6A13449B007A68D4187A69E1
:101348003B6913441846FFF77DF903462360BA6AE0
:101358007B6A134401339B007A68D418FA68BB6827
:1013680013441846FFF76EF903462360BA6A7B6A8E
:101378001A443B6A13449B007A68D4187A693B691B
:10138800D31A1846FFF75EF903462360BA6A7B6AE8
:101398001A443B6A134401339B007A68D418FA68EC
:1013A800BB68D31A1846FFF74DF9034623603B6A1A
:1013B8005B007A6A13447B627B6AFF2B87DDFB69DB
:1013C800BA6902FB03F3FB61F869FFF73BF9F861BF
:1013D800BB6A0233BB62BA6A3B6A9A42FFF674AFD1
:1013E8003B6A5B003B623B6A802B7FF75CAF41F254
:1013F800FE33BB6140F22943FB610023BB624EE030
:10140800BB6ADB0004337A6813441B68FA6902FB81
:1014180003F33B613869FFF715F93861BB6ADB00F4
:101428007A6813441B687B61BB6ADB007A681344E3
:1014380079693A690A441A60BB6ADB007A68D41889
:10144800BB6ADB007A6813441B681846FFF7FAF892
:1014580003462360BB6ADB0004337A681344796966
:101468003A698A1A1A60BB6ADB0004337A68D418AE
:10147800BB6ADB0004337A6813441B681846FFF71D
:10148800E1F803462360FB69BA6902FB03F3FB61D9
:10149800F869FFF7D7F8F861BB6A0133BB62BB6A2A
:1014A8007F2BADDD3437BD4690BD00BF380000202E
:1014B80080B48FB000AF7860396000237B6392E01E
:1014C8007A6B4D4B1340002B03DA013B63F00103A9
:1014D80001333B637B6B5A10474B1340002B03DAF5
:1014E800013B63F001030133FB627B6B9A10424BB3
:1014F8001340002B03DA013B63F001030133BB62A5
:101508007B6BDA103C4B1340002B03DA013B63F092
:10151800010301337B627B6B1A11374B1340002B9D
:1015280003DA013B63F0010301333B627B6B5A1121
:10153800314B1340002B03DA013B63F00103013305
:10154800FB617B6B9A112C4B1340002B03DA013B98
:1015580063F001030133BB613B6B5A00FB6A134420
:101568005A00BB6A13445A007B6A13445A003B6A08
:1015780013445A00FB6913445A00BB6913447B6146
:101588007A697B6B9A422BDD7B6B9B007A681344EC
:101598001B683B617B6B9B003A6813441B68FB60CC
:1015A8007B6B9B007A6813447A69920079680A44D5
:1015B80012681A607B6B9B003A6813447A69920040
:1015C80039680A4412681A607B699B007A68134478
:1015D8003A691A607B699B003A681344FA681A6092
:1015E8007B6B01337B637B6B7F2B7FF769AF3C376A
:1015F800BD465DF8047B70470100008090B58DB052
:1016080000AF786000233B6202237B6224E17B6A9F
:10161800102B1BD0102B06DC042B0FD0082B11D05D
:10162800022B07D022E0402B18D0802B1AD0202B79
:1016380010D01BE04FF4F0533B6217E040F63753ED
:101648003B6213E041F27C633B620FE04FF4D863E6
:101658003B620BE04FF4ED533B6207E041F6A91300
:101668003B6203E041F6C9133B6200BF0123FB6103
:101678000023FB62E4E00023BB62D1E0BA6AFB6AA4
:101688001344DB0004337A6813441B68FA6902FBCD
:1016980003F37B617869FEF7D5FF7861BA6AFB6A64
:1016A8001344DB007A6813441B683B61BA6AFB6A1F
:1016B8001A447B6AD90F0B445B101344DB000433D4
:1016C8007A6813441B68FA6902FB03F3FB60F86845
:1016D800FEF7B8FFF860BA6AFB6A1A447B6AD90F4A
:1016E8000B445B101344DB007A6813441B68BB602F
:1016F800BA6AFB6A1344DB007A68134439697A6969
:101708000A441A60BA6AFB6A1344DB007A68D41880
:10171800BA6AFB6A1344DB007A6813441B681846EC
:10172800FEF790FF03462360BA6AFB6A1A447B6A95
:10173800D90F0B445B101344DB007A6813443969F2
:101748007A698A1A1A60BA6AFB6A1A447B6AD90FDC
:101758000B445B101344DB007A68D418BA6AFB6A3E
:101768001A447B6AD90F0B445B101344DB007A6878
:1017780013441B681846FEF765FF03462360BA6AE0
:10178800FB6A1344DB0004337A681344B968FA68C7
:101798000A441A60BA6AFB6A1344DB0004337A68A5
:1017A800D418BA6AFB6A1344DB0004337A6813441A
:1017B8001B681846FEF746FF03462360BA6AFB6AB1
:1017C8001A447B6AD90F0B445B101344DB000433C3
:1017D8007A681344B968FA688A1A1A60BA6AFB6A9E
:1017E8001A447B6AD90F0B445B101344DB000433A3
:1017F8007A68D418BA6AFB6A1A447B6AD90F0B4410
:101808005B101344DB0004337A6813441B681846E2
:10181800FEF718FF03462360BA6A7B6A1344BB626B
:10182800BB6A7F2B7FF72AAFFB693A6A02FB03F397
:10183800FB61F869FEF706FFF861FB6A0133FB629A
:101848007B6ADA0F13445B101A46FB6A9A423FF729
:1018580012AF7B6A5B007B627B6A802B7FF7D7AE17
:101868004FF434633B620123FB610023FB6256E0C3
:10187800FB6A9B007A6813441B683B61FB6A01336F
:10188800FB62FB6A9B007A6813441B68FA6902FBD7
:1018980003F37B617869FEF7D5FE7861FB6A03F193
:1018A8008043013B9B007A68134439697A690A448A
:1018B8001A60FB6A03F18043013B9B007A68D418E5
:1018C800FB6A03F18043013B9B007A6813441B6861
:1018D8001846FEF7B7FE03462360FB6A9B007A684A
:1018E800134439697A698A1A1A60FB6A9B007A6814
:1018F800D418FB6A9B007A6813441B681846FEF7E5
:10190800A1FE03462360FB6A0133FB62FB693A6A66
:1019180002FB03F3FB61F869FEF794FEF861FB6ACA
:10192800FF2BA5DD40F63753BB6140F6B1133B6290
:101938000123FB610023FB6285E0FB6A9B007A6858
:101948001344FA6A920079680A441268F96901FB3B
:1019580002F21A60FB6A9B007A68D418FB6A9B0043
:101968007A6813441B681846FEF76CFE034623602A
:10197800FB6A9B007A681344FA6A920079680A4401
:10198800126841F6E35101FB02F21A60FB6A9B0000
:101998007A68D418FB6A9B007A6813441B68184657
:1019A800FEF750FE03462360FB6A0133FB62FB6AC5
:1019B8009B007A681344FA6A920079680A441268AC
:1019C800B96901FB02F21A60FB6A9B007A68D418B5
:1019D800FB6A9B007A6813441B681846FEF732FEC0
:1019E80003462360FB6A9B007A681344FA6A9200F4
:1019F80079680A44126841F6E35101FB02F21A6061
:101A0800FB6A9B007A68D418FB6A9B007A681344C7
:101A18001B681846FEF716FE03462360FB6A01336F
:101A2800FB62FB693A6A02FB03F3FB61F869FEF7A4
:101A380009FEF861BB693A6A02FB03F3BB61B86946
:101A4800FEF700FEB861FB6AFF2B7FF776AF3437ED
:101A5800BD4690BD80B487B000AFF860B9607A60C9
:101A680000237B611EE07B699B007A6813441B6836
:101A78009AB27B699B00F9680B441B689A420CD1A7
:101A88007B699B007A6813441B681A0C7B699B006E
:101A9800B9680B441B689A4201D0002306E07B69B1
:101AA80001337B617B697F2BDDDD012318461C3701
:101AB800BD465DF8047B704790B587B000AFF8600D
:101AC800B9607A603B6000237B613EE07B699B00E4
:101AD800FA6813447A699200F9680A4411687A69C5
:101AE80092007868024412680A441A607B699B0075
:101AF800FA68D4187B699B00FA6813441B68184677
:101B0800FEF7A0FD034623607B699B00BA68134477
:101B18007A699200B9680A4411687A69920038684B
:101B2800024412680A441A607B699B00BA68D41898
:101B38007B699B00BA6813441B681846FEF782FD50
:101B4800034623607B6901337B617B697F2BBDDDA5
:101B58001C37BD4690BD00BF90B587B000AFF86098
:101B6800B9607A603B6000237B6140E07B699B0041
:101B7800FA6813447A699200F9680A441268796924
:101B8800890078680144096801FB02F21A607B69E0
:101B98009B00FA68D4187B699B00FA6813441B6899
:101BA8001846FEF74FFD034623607B699B00BA6821
:101BB80013447A699200B9680A44126879698900FD
:101BC80038680144096801FB02F21A607B699B00CE
:101BD800BA68D4187B699B00BA6813441B68184616
:101BE800FEF730FD034623607B6901337B617B6927
:101BF8007F2BBBDD1C37BD4690BD00BF90B587B0BD
:101C080000AFF860B9607A603B6000237B613EE01A
:101C18007B699B00FA6813447A699200F9680A4460
:101C280011687A6992007868024412688A1A1A6000
:101C38007B699B00FA68D4187B699B00FA68134497
:101C48001B681846FEF7FEFC034623607B699B0071
:101C5800BA6813447A699200B9680A4411687A69C3
:101C680092003868024412688A1A1A607B699B00DD
:101C7800BA68D4187B699B00BA6813441B68184675
:101C8800FEF7E0FC034623607B6901337B617B69D7
:101C98007F2BBDDD1C37BD4690BD00BF80B485B02D
:101CA80000AF786039600023FB6021E0FB689B008F
:101CB8007A6813441B689AB2FB68DB0039680B44E6
:101CC8001B689A4201D0002316E0FB689B007A68E3
:101CD80013441B681A0CFB68DB00043339680B4497
:101CE8001B689A4201D0002306E0FB680133FB60C1
:101CF800FB687F2BDADD012318461437BD465DF8F3
:101D0800047B704790B587B000AFF860B9607A601F
:101D180000237B6121E07B699B00FA6813447A69A0
:101D28009200B9680A4412687969890078680144A0
:101D3800096801FB02F21A607B699B00FA68D418F3
:101D48007B699B00FA6813441B681846FEF77AFC07
:101D5800034623607B6901337B617B69FF2BDADDF6
:101D68001C37BD4690BD00BF90B587B000AFF86086
:101D7800B9607A6000237B6120E07B699B00FA6888
:101D880013447A699200B9680A4411687A69920022
:101D98007868024412680A441A607B699B00FA68F2
:101DA800D4187B699B00FA6813441B681846FEF731
:101DB80049FC034623607B6901337B617B69FF2B08
:101DC800DBDD1C37BD4690BD90B587B000AFF8602D
:101DD800B9607A603B6000237B6131E07B699B00DE
:101DE800FA6813447A699200B9680A4412687969F2
:101DF800890078680144096801FB02F21A607B696E
:101E08009B00FA6813447A699200F9680A441168D9
:101E18007A6992003868024412680A441A607B6939
:101E28009B00FA68D4187B699B00FA6813441B6806
:101E38001846FEF707FC034623607B6901337B6184
:101E48007B69FF2BCADD1C37BD4690BD90B587B0B6
:101E580000AFF860B9607A6000237B6120E07B699D
:101E68009B00FA6813447A699200B9680A441168B9
:101E78007A6992007868024412688A1A1A607B6943
:101E88009B00FA68D4187B699B00FA6813441B68A6
:101E98001846FEF7D7FB034623607B6901337B6155
:101EA8007B69FF2BDBDD1C37BD4690BD80B5ADF5EA
:101EB800826D00AF07F10C03186007F10803196081
:101EC8003B1D1A6007F10C031868FEF7FDFF07F1C8
:101ED80008031868FFF726F83B1D1868FFF730F865
:101EE80007F1100107F10C023B1D084611681A683A
:101EF800FFF708FF07F1080107F1080207F11003CF
:101F0800086811681A46FFF7A1FF3B1D1868FFF71C
:101F180051F807F58267BD4680BD00BF90B5ADF5A5
:101F2800805D87B000AF07F118040C3C206007F112
:101F380018001038016007F1180114390A6007F118
:101F48001802183A1360002307F5805000F11400B6
:101F5800036025E007F5805202F1140213689A0025
:101F680007F11803183B1B6813441A6813461B0132
:101F78009B1A1B02194607F11803043B07F580500A
:101F880000F11400026843F8221007F5805202F1AC
:101F980014021368013307F5805000F11400036040
:101FA80007F5805202F114021368FF2BD2DD07F601
:101FB80014431846FEF7A8FB07F614031846FEF765
:101FC800A3FB07F214431846FEF79EFB07F21441E1
:101FD80007F2144207F11803043B084611461A4653
:101FE800FFF7C2FE07F614431846FFF753F907F642
:101FF80014031846FFF74EF907F214431846FFF783
:1020080049F907F11802103A07F118030C3B07F6D3
:102018001444106819682246FFF774FE07F1180285
:10202800103A07F6140107F11803103B10681A68F4
:10203800FFF79AFE07F11803143B07F614421868D5
:1020480007F5815303F108031968FFF75BFE07F1F1
:102058001802143A07F2144107F11803143B1068E8
:102068001A68FFF781FE07F11803103B1868FEF79E
:10207800A1FF07F11803143B1868FEF79BFF07F54B
:1020880080571C37BD4690BD80B584B000AFF8605E
:10209800B9607A60F868F9687A68FFF733FEF8681B
:1020A800F968BA68FFF760FEF868FFF7A7FA103713
:1020B800BD4680BD90B585B000AF78600023FB6059
:1020C8000CE0FB689B007A68D418FEF78DFA03468B
:1020D80003F001032360FB680133FB60FB68FF2BFF
:1020E800EFDD1437BD4690BD80B588B000AFF8600D
:1020F800B9607A60786813F0B5FF7B68002B26D149
:102108000023FB611FE0FB690133BB61FB690233FC
:102118007B61FB699B00FA681344BA6991B27A69DA
:1021280012040A441A60FB69DB00BA681344BA69EE
:102138001A60FB69DB000433BA6813447A691A60D1
:10214800FB690133FB61FB697F2BDCD92BE00023A2
:10215800FB6125E0FEF748FA0346C3F30C03BB61B5
:10216800FEF742FA0346C3F30C037B61FB699B004D
:10217800FA681344BA6991B27A6912040A441A6077
:10218800FB69DB00BA681344BA691A60FB69DB00B3
:102198000433BA6813447A691A60FB690133FB6136
:1021A800FB697F2BD6D92037BD4680BD80B485B06A
:1021B80000AF786039600023FB6018E0FB689B0083
:1021C8003A681344FA68D20079680A4412681A60B7
:1021D800FB6801339B003A681344FA680132D20065
:1021E80079680A4412681A60FB680233FB60FB686E
:1021F8007F2BE3DD0023FB601BE0FB6880339B0043
:102208003A681344FA68D200043279680A441268BA
:102218001A60FB6881339B003A681344FA680132FC
:10222800D200043279680A4412681A60FB680233E3
:10223800FB60FB687F2BE0DD1437BD465DF8047B4F
:10224800704700BF80B588B000AFF860B9607A60A9
:10225800F86813F007FFFB68002B27D10023FB6108
:1022680020E0FB695B00BB61FB695B0001337B61BC
:10227800FB699B00BA681344BA6991B27A6912047F
:102288000A441A60FB69DB007A681344BA691A6069
:10229800FB69DB0004337A6813447A691A60FB69C6
:1022A8000133FB61FB697F2BDBD92BE00023FB614A
:1022B80025E0FEF799F90346C3F30C03BB61FEF76B
:1022C80093F90346C3F30C037B61FB699B00BA686F
:1022D8001344BA6991B27A6912040A441A60FB6914
:1022E800DB007A681344BA691A60FB69DB000433BF
:1022F8007A6813447A691A60FB690133FB61FB69E8
:102308007F2BD6D92037BD4680BD00BF2DE9F05FB1
:1023180083466E4A6E4DDFF8BC81DFF8BC914FF002
:10232800FF310EB513F0A6FE40F00040BDE80E40A8
:10233800DFF8A8C1C4B24FEA1020012800F30780D3
:102348000EB513F097FE40F00040BDE80E40135D57
:102358005C0980F007804008C0F0A280A5EB030369
:1023680000F09EB8B0FA80F41A2C40F307800EB53E
:1023780013F080FE40F00040BDE80E4003F0070671
:1023880000F01F0404EB46144FEA5010012800F334
:1023980007800EB513F06EFE40F00040BDE80E4019
:1023A80019F804309C0980F0098003F01F034008E5
:1023B800C0F07680A5EB030300F072B803F00F06B7
:1023C8004FF0000400F0010A40080AEB4606012815
:1023D80000F307800EB513F04DFE40F00040BDE855
:1023E8000E4058F824A04FF01703BAFA8AF707F1FD
:1023F80001070AFA07FAA3EB0703013E00F14B8035
:10240800BAF1000F7FF4F1AF04F10104082CFFF6D4
:10241800D9AFDFF8CC9000F0010A4FEA50000AEB80
:102428004606012800F307800EB513F023FE40F09E
:102438000040BDE80E4059F824A0BAF1000F00F0A2
:1024480011804FF03703BAFA8AF707F101070AFA41
:1024580007FAA3EB0703013E00F11B80BAF1000F56
:102468007FF4F1AF4FF0170358F824A0BAFA8AF7AF
:1024780007F101070AFA07FAA3EB0703013E00F187
:102488000880BAF1000F7FF4F1AF04F10104FFF7FF
:10249800C2BFDFF844904008C0F00280A5EB0303F8
:1024A800B0FA80F6172E40F307800EB513F0E2FD60
:1024B80040F00040BDE80E4001F101012BF8113059
:1024C80061457FF437AFBDE8F09F00005800002059
:1024D800011E0000E45F002058010020FF000000FA
:1024E800646100202DE9F05F83467B4A7B4DDFF86D
:1024F800F081DFF8F0914FF0FF310EB513F0BAFD1F
:1025080040F00040BDE80E40DFF8DCC1C4B24FEA3D
:102518001020012800F307800EB513F0ABFD40F042
:102528000040BDE80E40135D5C0980F0078040085C
:10253800C0F0A480A5EB030300F0A0B8B0FA80F4C3
:102548001A2C40F307800EB513F094FD40F00040BC
:10255800BDE80E4003F0070600F01F0404EB461424
:102568004FEA5010012800F307800EB513F082FDE2
:1025780040F00040BDE80E4019F804309C0980F096
:10258800098003F01F034008C0F07880A5EB03031F
:1025980000F074B803F00F064FF0000400F0010AD1
:1025A80040080AEB4606012800F307800EB513F031
:1025B80061FD40F00040BDE80E4058F824A04FF0FF
:1025C8001703BAFA8AF707F101070AFA07FAA3EB21
:1025D8000703013E00F14B80BAF1000F7FF4F1AF21
:1025E80004F10104082CFFF6D9AFDFF8009100F0E0
:1025F800010A4FEA50000AEB4606012800F307805B
:102608000EB513F037FD40F00040BDE80E4059F814
:1026180024A0BAF1000F00F011804FF03703BAFA86
:102628008AF707F101070AFA07FAA3EB0703013E45
:1026380000F11B80BAF1000F7FF4F1AF4FF01703E0
:1026480058F824A0BAFA8AF707F101070AFA07FA34
:10265800A3EB0703013E00F10880BAF1000F7FF4F5
:10266800F1AF04F10104FFF7C2BFDFF8789040082A
:10267800C0F01B80A5EB030300F017B8B0FA80F692
:10268800172E40F307800EB513F0F4FC40F000401D
:10269800BDE80E4001F101012BF8113061457FF4CE
:1026A80035AF0CF10100BDE8F09FB0FA80F6172EA7
:1026B80040F307800EB513F0DDFC40F00040BDE8A4
:1026C8000E402BF81C30ACF1010C61457FF41EAFB5
:1026D8000CF10100BDE8F09F58000020011E000029
:1026E800E45F002058010020FF0000006461002022
:1026F8000146DFF8DC3983FB0103DA0A13019B1A70
:1027080002EB4323C81AF746DFF8C819B0FBF1F209
:1027180001FB1200F746DFF8B839014683FB0103D5
:10272800DA12B2EBE17213019B1A02EB4323C81AC7
:10273800F7460028C0F20C800146DFF8943983FB85
:102748000103DA0A13019B1A02EB4323C81AF7465E
:10275800DFF8801990FBF1F24FF00103A3EB0203BD
:1027680003FB0100F746DFF86839014683FB0103E4
:10277800DA12B2EBE17213019B1A02EB4323C81A77
:10278800002980F20380DFF84C190844F746002836
:10279800C0F20C800146DFF8383983FB0103DA0AFE
:1027A80013019B1A02EB4323C81AF746DFF82029C6
:1027B80082FB0012D212C317D21ADFF818194FF091
:1027C8000103A3EB020303FB0100F7460028C0F254
:1027D8000C800146DFF8F83883FB0103DA0A13019D
:1027E8009B1A02EB4323C81AF746C0F100000146C2
:1027F800DFF8DC3883FB0103DA0A13019B1A02EBCA
:102808004323C81ADFF8CC18A1EB0000F746DFF81D
:10281800C4180028BABF40420B460023B0FBF1F2AF
:1028280002FB1102A3EB02021046F746DFF8A418D8
:102838000028BABF40420B460023B0FBF1F202FB6E
:102848001102A3EB0200F7462DE93040DFF880388B
:1028580081B2A3FB0124E20A1401A41A02EB442466
:102868000D1B1FFAA0F1A3FB0124E20A1401A41A0C
:1028780002EB44240B1B05EB0340BDE830802DE937
:10288800F040DFF850784FF0000351F8234052F839
:10289800235094FA45F4A6B2BE4258BFF61B4FEA3D
:1028A8001444BC4258BFE41B06EB044440F82340E0
:1028B80003F10103802B7FF4E8AFBDE8F0802DE938
:1028C800F041DFF810884FF0000351F8234052F828
:1028D800235014FB35F6B6FBF8F708FB176614FB14
:1028E80005F4B4FBF8F708FB174404EB064440F87A
:1028F800234003F10103802B7FF4E7AFBDE8F081AB
:102908002DE9F047DFF8CC874FF0000A51F82A404C
:1029180052F82A5053F82A9014FB35F606EB19465C
:10292800B6FBF8F708FB176614FB05F41FFA89F9DC
:102938004C44B4FBF8F708FB174404EB064440F892
:102948002A400AF1010ABAF1800F7FF4DFAFBDE82F
:10295800F0872DE9F001DFF87C874FF0000351F88C
:10296800234052F82350D4FA05F634B2002CB8BFED
:102978006442B4FBF8F707FB1847B8BFA8EB070792
:102988000FFAA6F5002DB8BF6D42B5FBF8F404FBAD
:102998001854B8BFA8EB040407EB044440F82340DC
:1029A80003F10103802B7FF4DAAFBDE8F001F746AD
:1029B8002DE9F05FDFF81C17DFF81C3708B44FF07B
:1029C800020208BC1C6803F1020308B44FF00108B6
:1029D8004FF000064FF0000706EB070950F82930C2
:1029E8001FFA83FA13FB28FBBBFBF1FC01FB1CBBA2
:1029F8000AEB0B0C8C4558BFACEB010CBAEB0B0E79
:102A080048BF8E4409EB520950F8293013FB28FBC4
:102A18009BB2BBFBF1FA01FB1ABBB3EB0B0A48BF35
:102A28008A440EEB0A4A40F829A003EB0B0A8A45B0
:102A380058BFAAEB010A0CEB0A4C06EB070940F851
:102A480029C01744802FFFF6C7AF18FB04F8B8FB5E
:102A5800F1F901FB198806F10106B6EB520F3FF5B3
:102A6800B9AF4FEA4202802A7FF7ABAF4FF4346424
:102A78004FF001084FF0000950F829301FFA83FA87
:102A880013FB28FBBBFBF1FC01FB1CBB0AEB0B0C8B
:102A98008C4558BFACEB010CBAEB0B0E48BF8E440B
:102AA8000CEB0E4C40F829C018FB04F8B8FBF1F306
:102AB80001FB138809F10109B9F1800FFFF6DCAFBA
:102AC800DFF81836DFF81846DFF818764FF00108F7
:102AD8004FF0000950F829A01AFB08FBBBFBF1FCDA
:102AE80001FB1CBB1BFB07FBBBFBF1FC01FB1CBB7D
:102AF8001AFB23FEBEFBF1FC01FB1CEE1EFB07FECE
:102B0800BEFBF1FC01FB1CEE0BEB0E4B40F829B0B1
:102B180018FB04F8B8FBF1FA01FB1A8813FB04F35D
:102B2800B3FBF1FA01FB1A3309F10109B9F1800F7E
:102B3800FFF6D0AF08BCBDE8F09F2DE9F05FDFF8E5
:102B48009415DFF8A43508B44FF0020208BC1C68DD
:102B58001FFAA4F8A4B203F1020308B44FF0000668
:102B68004FF0000706EB070950F829301FFA83FADF
:102B780013FB28FBBBFBF1FC01FB1CBB0AEB0B0C9A
:102B88008C4558BFACEB010CBAEB0B0E48BF8E441A
:102B980009EB520950F8293013FB28FB9BB2BBFB09
:102BA800F1FA01FB1ABBB3EB0B0A48BF8A440EEBE0
:102BB8000A4A40F829A003EB0B0A8A4558BFAAEB3A
:102BC800010A0CEB0A4C06EB070940F829C0174428
:102BD800802FFFF6C7AF18FB04F8B8FBF1F901FB2B
:102BE800198806F10106B6EB520F3FF5B9AF4FEA67
:102BF8004202802A7FF7AAAFDFF8F044DFF8F084BA
:102C08004FF0000950F829301FFA83FA13FB28FB0C
:102C1800BBFBF1FC01FB1CBB0AEB0B0C8C4558BF42
:102C2800ACEB010CBAEB0B0E48BF8E440CEB0E4C10
:102C380040F829C018FB04F8B8FBF1F301FB13882E
:102C480009F10109B9F1800FFFF6DCAF08BCBDE856
:102C5800F09F2DE9F05FDFF87C14DFF88C3408B4BE
:102C68004FF0020208BC1C681FFAA4F8A4B203F1D2
:102C7800020308B44FF000064FF0000706EB0709FF
:102C880050F829301FFA83FA13FB28FBBBFBF1FC31
:102C980001FB1CBB0AEB0B0C8C4558BFACEB010CC1
:102CA800BAEB0B0E48BF8E4409EB520950F8293095
:102CB80013FB28FB9BB2BBFBF1FA01FB1ABBB3EB7E
:102CC8000B0A48BF8A440EEB0A4A40F829A003EBD6
:102CD8000B0A8A4558BFAAEB010A0CEB0A4C06EB13
:102CE800070940F829C000F5007006EB070950F8FD
:102CF80029301FFA83FA13FB28FBBBFBF1FC01FB0D
:102D08001CBB0AEB0B0C8C4558BFACEB010CBAEBA7
:102D18000B0E48BF8E4409EB520950F8293013FBBB
:102D280028FB9BB2BBFBF1FA01FB1ABBB3EB0B0A06
:102D380048BF8A440EEB0A4A40F829A003EB0B0A65
:102D48008A4558BFAAEB010A0CEB0A4C06EB0709A7
:102D580040F829C000F5007006EB070950F8293043
:102D68001FFA83FA13FB28FBBBFBF1FC01FB1CBB1E
:102D78000AEB0B0C8C4558BFACEB010CBAEB0B0EF5
:102D880048BF8E4409EB520950F8293013FB28FB41
:102D98009BB2BBFBF1FA01FB1ABBB3EB0B0A48BFB2
:102DA8008A440EEB0A4A40F829A003EB0B0A8A452D
:102DB80058BFAAEB010A0CEB0A4C06EB070940F8CE
:102DC80029C0A0F580601744802FFFF657AF18FB85
:102DD80004F8B8FBF1F901FB198806F10106B6EB16
:102DE800520F3FF549AF4FEA4202802A7FF73AAFC8
:102DF800BE4CDFF8FC824FF0000950F829301FFA6A
:102E080083FA13FB28FBBBFBF1FC01FB1CBB0AEBA1
:102E18000B0C8C4558BFACEB010CBAEB0B0E48BF42
:102E28008E440CEB0E4C40F829C000F5007050F8A9
:102E380029301FFA83FA13FB28FBBBFBF1FC01FBCB
:102E48001CBB0AEB0B0C8C4558BFACEB010CBAEB66
:102E58000B0E48BF8E440CEB0E4C40F829C000F511
:102E6800007050F829301FFA83FA13FB28FBBBFBCC
:102E7800F1FC01FB1CBB0AEB0B0C8C4558BFACEBFF
:102E8800010CBAEB0B0E48BF8E440CEB0E4C40F80D
:102E980029C0A0F5806018FB04F8B8FBF1F301FB2A
:102EA800138809F10109B9F1800FFFF6A6AF08BC34
:102EB800BDE8F09F2DE910404FF0010191FAA1F211
:102EC8004FEA52628A4240F3088050F8213050F8A5
:102ED800224040F8214040F8223001F101018029C8
:102EE800FFF6ECAFBDE810802DE9F040794C0746BD
:102EF8004FF000050EB513F0BDF8BDE80E4086B2E0
:102F0800B6FBF4F104FB11661FFAA0F0B0FBF4F174
:102F180004FB110006EB004647F8256005F10105A2
:102F2800802D7FF4E7AF3846FFF707FEBDE8F08055
:102F38002DE9F04104464FF4F0574FF000090EB563
:102F480013F098F8BDE80E4000F001068008C0F0C4
:102F5800028006FB07F600F001088008C0F0028036
:102F680008FB07F806EB084644F8296009F101094F
:102F780000F001068008C0F0028006FB07F600F0AA
:102F880001088008C0F0028008FB07F806EB084635
:102F980044F8296009F1010900F001068008C0F031
:102FA800028006FB07F600F001088008C0F00280E6
:102FB80008FB07F806EB084644F8296009F10109FF
:102FC80000F001068008C0F0028006FB07F600F05A
:102FD80001088008C0F0028008FB07F806EB0846E5
:102FE80044F8296009F1010900F001068008C0F0E1
:102FF800028006FB07F600F001088008C0F0028096
:1030080008FB07F806EB084644F8296009F10109AE
:1030180000F001068008C0F0028006FB07F600F009
:1030280001088008C0F0028008FB07F806EB084694
:1030380044F8296009F1010900F001068008C0F090
:10304800028006FB07F600F001088008C0F0028045
:1030580008FB07F806EB084644F8296009F101095E
:1030680000F001068008C0F0028006FB07F600F0B9
:1030780001088008C0F0028008FB07F806EB084644
:1030880044F8296009F10109B9F1800F00F00480C2
:10309800B9F1800F7FF453AF2046FFF74EFDBDE82E
:1030A800F081F74630B4134A4FF0000551F8253047
:1030B80013FB02F413FB22F304EB034440F825400E
:1030C80005F10105802D7FF4F1AF30BCF746000013
:1030D800CDFD4144011E000048000020370D0000CE
:1030E800B1090000E31D000038000020FE130000B5
:1030F80029040000000F000080B582B000AF78609E
:103108007868FFF703F97868FFF717FD0837BD46B9
:1031180080BD00BF80B5ADF5047D00AF07F10C039D
:10312800186007F1080319603B1D1A6007F10C03CA
:103138001868FFF7D9FE07F108031868FFF7DCFFE6
:103148003B1D1868FFF7F4FE07F1100107F10C02A8
:103158003B1D084611681A68FFF7B1FB07F1080123
:1031680007F1080207F11003086811681A46FFF70B
:10317800F0FB3B1D1868FFF79DFE07F50477BD4679
:1031880080BD00BF80B584B000AFF860B9607A60D8
:10319800F868F9687A68BB68FFF7B2FBF868FFF768
:1031A80007FC1037BD4680BD90B5ADF5057D00AF75
:1031B80007F10C04206007F108000160391D0A605E
:1031C8003A46136007F110023B4610461968FFF7AC
:1031D80069FF1948FFF79AF81848FFF797F8184851
:1031E800FFF794F807F11003154815491A46FFF739
:1031F80046FB1148FFF72DFD07F1080207F10C0304
:10320800106819680C4A0D4BFFF77AFB3B1D1868CC
:10321800D7F82012084A0A4BFFF772FB07F1080398
:103228001868FFF747FE3B1D1868FFF743FE07F5D0
:103238000577BD4690BD00BFD06F0020D07100203B
:10324800D0730020B0B584B000AF78600023FB6075
:1032580029E0FB689B007A68D41812F00BFF02463D
:10326800144B1340002B03DA013B63F001030133D5
:103278002360FB689B007A68D418FB689B007A6817
:1032880013441D6812F0F6FE02460A4B1340002B49
:1032980003DA013B63F0010301331B042B44236071
:1032A800FB680133FB60FB687F2BD2DD1037BD461E
:1032B800B0BD00BF0100008080B485B000AF786069
:1032C80039600023FB6018E0FB68DA0F13445B10D9
:1032D8009B003A681344FA68920079680A441268B5
:1032E80091B2FA68013292007868024412681204B6
:1032F8000A441A60FB680233FB60FB687F2BE3DD3E
:103308000023FB601AE0FB68DA0F13445B104033BC
:103318009B003A681A44FB689B0079680B441B6859
:10332800190CFB6801339B00786803441B681B0C6D
:103338001B040B441360FB680233FB60FB687F2BA4
:10334800E1DD1437BD465DF8047B704780B483B077
:1033580000AF786039603B689AB27B681B681B0CC9
:103368001B041A447B681A600C37BD465DF8047B61
:10337800704700BF80B483B000AF786039603B68A5
:103388001A047B681B689BB21A447B681A600C3766
:10339800BD465DF8047B704780B592B000AF786099
:1033A80000237B640CE17A6C894B1340002B03DA11
:1033B800013B63F001030133FB637B6C5A10844BC0
:1033C8001340002B03DA013B63F001030133BB63B5
:1033D8007B6C9A107E4B1340002B03DA013B63F0A1
:1033E800010301337B637B6CDA10794B1340002BAC
:1033F80003DA013B63F0010301333B637B6C1A1171
:10340800734B1340002B03DA013B63F001030133D4
:10341800FB627B6C5A116E4B1340002B03DA013BA5
:1034280063F001030133BB627B6C9A11684B134054
:10343800002B03DA013B63F0010301337B627B6CF1
:10344800DA11634B1340002B03DA013B63F00103ED
:1034580001333B627B6CDA0F13445B10FB617A6CBF
:103468005B4B1340002B03DA013B63F0010301338C
:10347800BB61FB6B5A00BB6B13445A007B6B134454
:103488005A003B6B13445A00FB6A13445A00BB6A48
:1034980013445A007B6A13445A003B6A13447B6105
:1034A8007B69DA0F13445B103B617A69484B134020
:1034B800002B03DA013B63F001030133FB607A69F7
:1034C8007B6C9A4279DDFB68002B06D13B699B0037
:1034D8007A6813441B689BB23B64FB68012B06D1D6
:1034E8003B699B007A6813441B681B0C3B64FB68B0
:1034F800002B0FD1BB69002B0CD13B699B007A686C
:103508001A44FB699B0079680B441B6810461946EE
:10351800FFF71CFFFB68002B10D1BB69012B0DD1F5
:103528003B699B007A681A44FB699B0079680B44E5
:103538001B681B0C10461946FFF708FFFB68012B98
:103548000FD1BB69002B0CD13B699B007A681A44E8
:10355800FB699B0079680B441B6810461946FFF706
:1035680009FFFB68012B10D1BB69012B0DD13B6909
:103578009B007A681A44FB699B0079680B441B68B6
:103588001B0C10461946FFF7F5FEBB69002B08D146
:10359800FB699B007A681A443B6C10461946FFF792
:1035A800D5FEBB69012B08D1FB699B007A681A44D8
:1035B8003B6C10461946FFF7DDFE7B6C01337B64DC
:1035C8007B6CFF2B7FF7EFAE4837BD4680BD00BF51
:1035D8000100008080B584B000AFF860B9607A60FF
:1035E800F868FFF7AAFAB868FFF7A7FA7868F968E1
:1035F800BA68FFF764F97868FFF75CFC7868FFF74A
:10360800D7F91037BD4680BD80B586B000AF786069
:103618007868FEF767FF786121E0FCF7E5FF03466D
:10362800DBB23B617A693B699A4218D93B695B0016
:103638007A6813441B88FB813B695B007A681344F2
:103648007A69520079680A4412881A807B695B009B
:103658007A681344FA891A807B6901337B617B6934
:10366800FF2BDADD1837BD4680BD00BF80B485B0BA
:1036780000AF7860396000237B7204E07B681B68C8
:103688005A1C7B681A607B681B681B78FB72FB7A84
:10369800202BF3D0FB7A2D2B0AD101237B727B6878
:1036A8001B685A1C7B681A607B681B681B78FB7256
:1036B800FB7A302B39D17B681B685A1C7B681A60EF
:1036C8007B681B681B78FB72FB7A202B04D83B684D
:1036D80000221A6001236CE0FB7A782B0BD11023AF
:1036E800BB727B681B685A1C7B681A607B681B6806
:1036F8001B78FB7223E0FB7A622B0BD10223BB728F
:103708007B681B685A1C7B681A607B681B681B787F
:10371800FB7214E0FB7A2F2B05D9FB7A392B02D8E0
:103728000823BB720BE0002343E0FB7A302B02D95D
:10373800FB7A392B01D900233BE00A23BB72002313
:10374800FB6029E0FB7A602B02D9FB7A203BFB72F5
:10375800FB7A303BFB72FB7A102B07D9FB7A073BCD
:10376800FB72FB7A092B01D8002322E0FA7ABB7A94
:103778009A4201D300231CE0BB7AFA6802FB03F2E9
:10378800FB7A1344FB607B681B685A1C7B681A60D1
:103798007B681B681B78FB72FB7A202BD2D87B7A5C
:1037A800002B02D0FB685B42FB60FA683B681A603A
:1037B800012318461437BD465DF8047B704700BFE7
:1037C80080B582B000AF0346FB71FB790A2B02D1AA
:1037D8000D2000F009FBFB79184600F005FB0837BF
:1037E800BD4680BD80B582B000AF786006E07B68DA
:1037F8005A1C7A601B781846FFF7E2FF7B681B7833
:10380800002BF4D10837BD4680BD00BF80B58CB011
:1038180000AFF860B9607A60002387F82E30202363
:1038280087F82D30002387F82C30BB68002B0BDA83
:10383800BB685B42BB60FB68002B05DAFB685B4238
:10384800FB602D2387F82E30FB68BB62BB6887F8C6
:1038580027307B68002B05DA7B685B427B6030236E
:1038680087F82D307B68142B62DC97F82720BB6A19
:10387800B3FBF2F102FB01F29B1A87F82F3097F89D
:103888002F30092B04D997F82F30073387F82F30BA
:1038980097F82F30303387F82F3097F82C305A1C90
:1038A80087F82C2007F13002134497F82F2003F8EB
:1038B800202C97F82730BA6AB2FBF3F3BB62BB6AD5
:1038C800002BD2D197F82E30002B0CD097F82C3043
:1038D8005A1C87F82C2007F13002134497F82E2041
:1038E80003F8202C0CE00BE097F82C305A1C87F8D2
:1038F8002C2007F13002134497F82D2003F8202CD0
:1039080097F82C207B689A42EEDB97F82C30013B25
:1039180087F82C3097F82C3007F13002134413F84D
:10392800203C1846FFF74CFF97F82C30002BECD1C1
:103938003037BD4680BD00BF0FB480B586B000AF3C
:1039480007F124033B60A2E07B69252B05D07B6946
:10395800DBB21846FFF734FF99E03B6A5A1C3A621B
:103968001B787B6100237B607B68BB60BB683B6125
:103978003B69FB607B69302B07D13B6A5A1C3A6272
:103988001B787B610123BB6011E010E0FA681346E5
:103998009B0013445B001A467B69303B1344FA686A
:1039A8001344FB603B6A5A1C3A621B787B617B6953
:1039B8002F2B02DD7B69392BE8DDBB68002B02D099
:1039C800FB685B42FB607B696C2B06D101237B6043
:1039D8003B6A5A1C3A621B787B617B69002B00D1D9
:1039E8005EE07B69732B07D13B681A1D3A601B6840
:1039F8001846FFF7F7FE4AE07B69632B08D13B685E
:103A08001A1D3A601B68DBB21846FFF7D9FE3EE084
:103A18007B69752B01D10A233B617B69642B02D139
:103A28006FF009033B617B69582B02D07B69782BC7
:103A380001D110233B617B69622B01D102233B61D9
:103A48003B69002B00D12BE07B68002B09D03B6839
:103A58001A1D3A601B6818463969FA68FFF7D6FEDE
:103A680015E03B69002B09DD3B681A1D3A601B68AD
:103A780018463969FA68FFF7C9FE08E03B681A1D5D
:103A88003A601B6818463969FA68FFF7BFFE3B6A57
:103A98005A1C3A621B787B617B69002B7FF454AF18
:103AA8001837BD46BDE8804004B0704780B586B081
:103AB80000AFF860B9607A601F48B968FFF73CFF4B
:103AC8000023FB750AE0FB7DFA6813441B781B484A
:103AD8001946FFF731FFFB7D0133FB75FA7D7B68E3
:103AE8009A42F0DB2020FFF76BFE0023FB7519E0FC
:103AF800FB7DFA6813441B781F2B05D9FB7DFA68F8
:103B080013441B787E2B03D92E20FFF759FE06E0BD
:103B1800FB7DFA6813441B781846FFF751FEFB7DBE
:103B28000133FB75FA7D7B689A42E1DB0A20FFF7D7
:103B380047FE1837BD4680BDBC8C0108C48C0108FF
:103B480080B584B000AF786039600023FB6000F076
:103B580043F90346FB72FB7A0D2B00D128E0FB7A70
:103B6800082B10D1FB68002B0DD0FB68013BFB60D4
:103B7800FB7A1846FFF724FE2020FFF721FEFB7A88
:103B88001846FFF71DFEFB7A1F2B10D93B685A1EFB
:103B9800FB689A420BDDFB685A1CFA607A6813448A
:103BA800FA7A1A70FB7A1846FFF70AFECFE7CEE7D3
:103BB800FB687A68134400221A700A20FFF700FE97
:103BC8001037BD4680BD00BF80B588B000AFF86033
:103BD800B9607A600023FB6100F0F6F80346002B19
:103BE8003ED07B681B68BB6100F0F6F80346FB75A6
:103BF800FB7D0D2B0AD1BB69FA68134400221A70A9
:103C08000A20FFF7DDFD0123FB6126E0FB7D082B81
:103C180010D1BB69002B0DD0BB69013BBB61FB7D9B
:103C28001846FFF7CDFD2020FFF7CAFDFB7D18469B
:103C3800FFF7C6FDFB7D1F2B0FD9BB685A1EBB695A
:103C48009A420ADDBB695A1CBA61FA681344FA7DC4
:103C58001A70FB7D1846FFF7B3FD7B68BA691A60D6
:103C6800FB6918462037BD4680BD00BF80B58AB0C5
:103C780000AF7860102001210CF08AF902200121A0
:103C88000CF00EF9C0233B62022387F8243002238C
:103C980087F82530002387F82630012387F8273056
:103CA80007F120031C4819460AF084F81A4806212F
:103CB80007220AF0EDF91848072107220AF0E8F967
:103CC8007B683B610023BB820023FB8200233B838C
:103CD8000023BB830C237B8307F110030F4819468D
:103CE80010F0ECFB0D4840F22551012210F020FFA6
:103CF80025233B7300237B730023BB730123FB73D2
:103D080007F10C03184602F0EDFC0448012110F0FD
:103D1800EBFC2837BD4680BD00040240001001407E
:103D280080B582B000AF7860396012E000BF7B6870
:103D38001B889BB203F04003002BF8D03B681B782C
:103D4800DBB27868194610F04DFD3B685A1C3A60A2
:103D58001B783B681B78DBB2002BE7D10837BD46E0
:103D680080BD00BF80B582B000AF144840F2255135
:103D780010F052FF0346002B1DD0104B9B889BB2BE
:103D8800FB71FB790A2B0FD00D4B1B780B2B0BD833
:103D98000B4B1B780B4AF979D154094B1B7801332B
:103DA800DAB2074B1A7006E0054B00221A70034876
:103DB8000449FFF7B5FF0837BD4680BD0010014034
:103DC800EC7500203476002080B400AF1846BD465C
:103DD8005DF8047B704700BF80B400AF1846BD464D
:103DE8005DF8047B704700BF80B582B000AF034622
:103DF800FB7100BF074B1B889BB203F04003002BED
:103E0800F8D0FB799BB20348194610F0EBFC083751
:103E1800BD4680BD0010014080B500AF4FF416507C
:103E2800FFF724FF80BD00BF80B586B000AFF86003
:103E3800B9607A60BA68FB68D21A3B6AD31A7B61A8
:103E48007B687A69B2FBF3F33B61BB6A012B07D14C
:103E58003B691B0A064839691A46FFF76DFD03E0FE
:103E680004483969FFF768FD1837BD4680BD00BFB3
:103E7800CC8C0108F88C010890B5ADF5685D8BB065
:103E880004AF9E4B9D4AD26842F08072DA609C4B28
:103E980000225A609A4B9A4A126842F001021A604C
:103EA800974B5B6807F5685101F110010B60944B63
:103EB8005B6807F5685202F10C02136007F5685356
:103EC80003F10C031A6807F5685101F110010B683A
:103ED800D31A1A464FF0000307F56851C1E90023C9
:103EE80007F56852136887481946FFF725FD844B84
:103EF8005B6807F5685101F10C010B604FF47A70AB
:103F080012F0B0F87E4B00225A607D4B5B6807F5D3
:103F1800685202F110021360002307F5685101F19D
:103F280014010B6010E007F11803183B1846FFF75F
:103F38006BFB07F5685202F114021368013307F5A9
:103F4800685101F114010B6007F5685202F114027F
:103F58001368B3F57A7FE6DB694B5B6807F5685150
:103F680001F10C010B606848FFF7E6FC07F56851A2
:103F7800D1E90023CDE900230123029307F5685214
:103F880002F11002106807F5685303F10C03196871
:103F98004FF47A72FFF748FF4FF47A7012F062F824
:103FA800574B00225A60564B5B6807F5685101F180
:103FB80010010B60002307F5685202F11402136028
:103FC80010E007F11803183B1846FEF78BFA07F5BF
:103FD800685101F114010B68013307F5685202F1C9
:103FE8001402136007F5685101F114010B68B3F569
:103FF8007A7FE6DB424B5B6807F5685202F10C02F8
:1040080013604248FFF798FC07F56851D1E900238F
:10401800CDE900230123029307F5685202F110024B
:10402800106807F5685303F10C0319684FF47A72A6
:10403800FFF7FAFE4FF47A7012F014F8304B0022B2
:104048005A602F4B5B6807F5685101F110010B604E
:10405800002307F5685202F11402136010E007F11B
:104068001803183B1846FEF751F907F5685101F196
:1040780014010B68013307F5685202F1140213604A
:1040880007F5685101F114010B68B3F57A7FE6DB97
:104098001B4B5B6807F5685202F10C0213601C4861
:1040A800FFF74AFC07F56851D1E90023CDE9002361
:1040B8000123029307F5685202F11002106807F510
:1040C800685303F10C0319684FF47A72FFF7ACFEDA
:1040D8004FF47A7011F0C6FF094B00225A60084B62
:1040E8005B6807F5685101F110010B60002307F5C3
:1040F800685202F11402136022E000BFF0ED00E004
:10410800001000E0148D0108288D0108548D010865
:104118006C8D010807F5585107F5485207F53853D3
:10412800084611461A46FFF755FA07F5685101F196
:1041380014010B68013307F5685202F11402136089
:1041480007F5685101F114010B68B3F57A7FE1DBDB
:10415800974B5B6807F5685202F10C0213609548AB
:10416800FFF7EAFB07F56851D1E90023CDE9002301
:104178000023029307F5685202F11002106807F550
:10418800685303F10C0319684FF47A72FFF74CFE79
:104198004FF47A7011F066FF854B00225A60844B09
:1041A8005B6807F5685101F110010B60002307F502
:1041B800685202F11402136022E007F5285000F15A
:1041C8001800183807F61861183907F61822183A2F
:1041D80007F5D05303F11803183B07F5185404F1F9
:1041E8001804183C0094FEF7DFFF07F5685101F149
:1041F80014010B68013307F5685202F114021360C9
:1042080007F5685101F114010B68B3F57A7FD4DB27
:10421800674B5B6807F5685202F10C021360664849
:10422800FFF78AFB07F56851D1E90023CDE90023A0
:104238000023029307F5685202F11002106807F58F
:10424800685303F10C0319684FF47A72FFF7ECFD19
:104258004FF47A7011F006FF554B00225A60544B08
:104268005B6807F5685101F110010B60002307F541
:10427800685202F1140213601AE007F6186118393F
:1042880007F61822183A07F5085303F11803183BE4
:10429800084611461A46FEF775FF07F5685101F101
:1042A80014010B68013307F5685202F11402136018
:1042B80007F5685101F114010B68B3F57A7FDCDB6F
:1042C8003B4B5B6807F5685202F10C0213603B48F0
:1042D800FFF732FB07F56851D1E90023CDE9002348
:1042E8000023029307F5685202F11002106807F5DF
:1042F800685303F10C0319684FF47A72FFF794FDC1
:104308004FF47A7011F0AEFE294B00225A60284B08
:104318005B6807F5685101F110010B60002307F590
:10432800685202F11402136015E007F5585107F5B9
:10433800485207F53853084611461A46FEF7EAFE72
:1043480007F5685101F114010B68013307F568524C
:1043580002F11402136007F5685101F114010B68AA
:10436800B3F57A7FE1DB124B5B6807F5685202F11F
:104378000C0213601248FFF7DFFA07F56851D1E91C
:104388000023CDE900230023029307F5685202F1C8
:104398001002106807F5685303F10C0319684FF40D
:1043A8007A72FFF741FD07F568571C37BD4690BD87
:1043B800001000E07C8D0108908D0108A08D010897
:1043C800B08D010880B483B000AF786039607B6835
:1043D8001A683B681B68D31A18460C37BD465DF847
:1043E800047B704780B483B000AF786039607B6825
:1043F8001B881A463B681B88D31A18460C37BD46DB
:104408005DF8047B704700BF80B485B000AF78606A
:1044180039600023FB600DE0FB685B003A681344D9
:10442800FA68920079680A44126892B21A80FB68A6
:104438000133FB60FB68FF2BEEDD1437BD465DF8EA
:10444800047B704780B586B000AFF860B9607A60C9
:1044580000237B6114E07B695B00FA6813441A88C7
:104468007B695B00B9680B441B889A4205D00948F0
:104478007969FFF761FA002307E07B6901337B6103
:104488007A697B689A42E6DB012318461837BD46ED
:1044980080BD00BFC08D010890B5ADF5AC4D8FB0A3
:1044A80002AFC048FFF79EF9BF48FFF79BF900230A
:1044B80007F5AC4000F124000360052307F5AC4183
:1044C80001F12C010B60B3E007F5AC4303F12C03B9
:1044D8001A68B64B83FB02035911D317CB1A642110
:1044E80001FB03F3D31A002B02D1B148FFF724FADA
:1044F80007F5AC4101F12C010B6807F5AC4000F160
:104508002C00026802FB03F3184611F0ABFD07F517
:1045180043632C3B1846FCF75DF907F5AC4101F104
:104528002C010B6807F5AC4000F12C00026802FB77
:1045380003F3184611F096FD07F5815303F11003B4
:104548002C3B1846FCF712F907F5AC4101F12C0198
:104558000B6807F5AC4000F12C00026802FB03F37E
:10456800184611F07FFD07F5A15303F110032C3B0A
:104578001846FFF749F807F5A15202F110022C3A44
:1045880007F543632C3B104619464FF48072FFF73A
:1045980059FF0346012B0ED0864807F5AC4202F1BD
:1045A8002C021168FFF7C8F9012307F5AC4000F1A8
:1045B8002400036044E007F543632C3B18464FF49E
:1045C800807102227C4B11F09FFA07F5815303F1A9
:1045D80010032C3B18464FF480710222764B11F0E1
:1045E80093FA07F5815202F110022C3A07F543635A
:1045F8002C3B104619464FF48072FFF723FF034601
:10460800012B0AD06D48FFF7EDF8012307F5AC41FF
:1046180001F124010B6000BF12E007F5AC4202F182
:104628002C021368013307F5AC4000F12C0003603D
:1046380007F5AC4101F12C010B68632B7FF744AF00
:1046480007F5AC4202F124021368012B03D15C4840
:10465800FFF7C8F802E05B48FFF7C4F85A48FFF7CD
:104668006BF9002307F5AC4000F124000360002338
:1046780007F5AC4101F12C010B6059E007F5AC439B
:1046880003F12C031A68494B83FB02035911D31712
:10469800CB1A642101FB03F3D31A002B02D144483F
:1046A800FFF74AF907F5AC4101F12C010B681846F0
:1046B80011F0D8FC07F5A44303F104031846FDF7ED
:1046C80025FE07F5AC4202F12C021368184611F0DA
:1046D800C9FC07F59C4303F104031846FCF714F8DA
:1046E80007F5A44202F1040207F59C4303F1040311
:1046F80010461946FDF7D2FA0346002B0DD1334870
:1047080007F5AC4303F12C031968FFF715F90123EA
:1047180007F5AC4000F12400036007F5AC4101F156
:104728002C010B68013307F5AC4202F12C0213602F
:1047380007F5AC4000F12C000368632B9EDD07F5FC
:10474800AC4101F124010B68012B08D1204807F581
:10475800AC4202F12C021168FFF7EEF802E01D48A6
:10476800FFF7EAF81C48FFF73DF8002307F5AC40CF
:1047780000F124000360002307F5AC4101F12C018E
:104788000B6055E107F5AC4202F12C02136818469C
:1047980011F068FC002307F5AC4000F12800036025
:1047A800EFE000BFC88D0108D48D01081F85EB51CB
:1047B800EC8D0108F08D0108ED430008148E010806
:1047C8002C8E0108348E01083C8E01084C8E01089D
:1047D800548E0108608E0108648E010811F04AFCAD
:1047E8000346C3F30C0307F5AC4101F10C010B6060
:1047F80011F040FC0346C3F30C0307F5AC4202F189
:104808000802136007F5AC4000F12800036803F6BE
:10481800FF7307F5AC4101F10C010B6007F5AC42E1
:1048280002F12802136803F5805307F5AC4000F144
:104838000800036007F5AC4101F10C010B689AB25E
:1048480007F5AC4000F1080003681B04D11807F510
:10485800A44303F1040307F5AC4000F12800026803
:1048680043F8221007F5F15303F110032C3B07F529
:10487800AC4101F128010A6807F5AC4000F10C00D1
:10488800016843F8221007F5E15303F110032C3BAC
:1048980007F5AC4101F128010A6807F5AC4000F1C1
:1048A8000800016843F8221011F0E4FB034607F5FD
:1048B800AC4101F10C010B6011F0DCFB034607F57C
:1048C800AC4202F10802136007F5AC4000F1280081
:1048D800036803F6FF7307F5AC4101F10C010B60A7
:1048E80007F5AC4202F12802136803F5805307F577
:1048F800AC4000F10800036007F5AC4101F10C0180
:104908000B689AB207F5AC4000F1080003681B0475
:10491800D11807F59C4303F1040307F5AC4000F1F7
:104928002800026843F8221007F5D15303F1100359
:104938002C3B07F5AC4101F128010A6807F5AC40AA
:1049480000F10C00016843F8221007F5C15303F188
:1049580010032C3B07F5AC4101F128010A6807F563
:10496800AC4000F10800016843F8221007F5AC419B
:1049780001F128010B68013307F5AC4202F1280266
:10498800136007F5AC4000F1280003687F2B7FF621
:1049980025AF07F5A44101F1040107F5A44202F18E
:1049A800040207F59C4303F10403084611461A461E
:1049B800FDF765FF07F5F15000F110002C3807F5F9
:1049C800E15101F110012C3907F5D15202F1100221
:1049D8002C3A07F5C15303F110032C3BFDF76CF893
:1049E80007F5F15202F110022C3A07F5E15303F1F1
:1049F80010032C3B07F5A44404F10404104619469F
:104A08002246FDF727F80346002B06D1012307F5B8
:104A1800AC4101F124010B6019E007F5AC4202F149
:104A28002C021368013307F5AC4000F12C00036039
:104A380007F5AC4101F12C010B68632B07DC07F586
:104A4800AC4202F124021368002B3FF49BAE07F539
:104A5800AC4000F124000368012B08D1CD4807F5CC
:104A6800AC4202F12C021168FEF766FF02E0CA4868
:104A7800FEF762FFC948FEF75FFF002307F5AC4069
:104A880000F124000360002307F5AC4101F12C017B
:104A98000B607EE007F5AC4202F12C021368184661
:104AA80011F0E0FA07F5AC4303F12C031C6807F199
:104AB80030022C3A07F503632C3B10461946224670
:104AC800FDF712FB07F5AC4000F12C000368013339
:104AD8001C4607F50C722C3A07F543632C3B10462D
:104AE80019462246FDF700FB07F5AC4101F12C0100
:104AF8000B6802331C4607F586622C3A07F581538A
:104B080003F110032C3B104619462246FDF7ECFA38
:104B180007F5C6602C3807F130012C3907F50C72FF
:104B28002C3A07F586632C3BFDF7EAFE07F5A15002
:104B380000F110002C3807F503612C3907F54362A2
:104B48002C3A07F5815303F110032C3BFDF73CF990
:104B580007F5C6622C3A07F5A15303F110032C3B65
:104B680010461946FDF79AF80346002B06D1012393
:104B780007F5AC4202F12402136012E007F5AC40DD
:104B880000F12C000368013307F5AC4101F12C0159
:104B98000B6007F5AC4202F12C021368632B7FF718
:104BA80079AF07F5AC4000F124000368012B03D16D
:104BB8007B48FEF7C1FE02E07A48FEF7BDFE0023FF
:104BC80007F5AC4101F124010B607748FEF7B4FE0C
:104BD800002307F5AC4202F12C0213603EE007F512
:104BE800AC4000F12C000368184611F03BFA07F5B9
:104BF800A44303F104031846FEF79AF907F5AC41FC
:104C080001F12C010B68184611F02CFA07F59C43AA
:104C180003F104031846FCF793F907F5A44202F1DF
:104C2800040207F59C4303F1040310461946FDF7F7
:104C380035F80346002B06D1012307F5AC4202F1F3
:104C48002402136011E007F5AC4000F12C00036862
:104C5800013307F5AC4101F12C010B6007F5AC42BB
:104C680002F12C021368632BB9DD07F5AC4000F1A3
:104C780024000368012B03D14C48FEF75DFE02E0D7
:104C88004548FEF759FE4A48FEF7ACFD002307F5F4
:104C9800AC4101F124010B60002307F5AC4202F19D
:104CA8002C02136057E007F5AC4303F12C031A6894
:104CB800404B83FB02035911D317CB1A642101FB24
:104CC80003F3D31A002B02D12E20FEF779FD07F546
:104CD800AC4101F12C010B6807F5A44101F1040175
:104CE80007F59C4202F10402084611461A46FDF7F0
:104CF800FBF907F5A44303F104031846FEF74CFB40
:104D080007F59C4303F104031846FCF7F3F907F58C
:104D1800A44202F1040207F59C4303F10403104680
:104D28001946FCF7BBFF0346002B06D1012307F504
:104D3800AC4202F1240213601BE02E20FEF740FD76
:104D480007F5AC4000F12C000368013307F5AC41CE
:104D580001F12C010B6007F5AC4202F12C0213683B
:104D6800632B06DC07F5AC4000F124000368002B38
:104D780099D007F5AC4101F124010B68012B1BD137
:104D8800044807F5AC4202F12C021168FEF7D4FD85
:104D980015E000BF548E0108608E01087C8E010862
:104DA8002C8E0108348E0108948E0108A48E010807
:104DB800AC8E01081F85EB51BE48FEF7BDFDBE480D
:104DC800FEF710FD002307F5AC4000F12400036056
:104DD800002307F5AC4101F12C010B6038E107F520
:104DE800AC4202F12C021368184611F03BF900237B
:104DF80007F5AC4000F128000360D2E011F03AF961
:104E08000346C3F30C0307F5AC4101F10C010B6039
:104E180011F030F90346C3F30C0307F5AC4202F175
:104E28000802136007F5AC4000F12800036803F698
:104E3800FF7307F5AC4101F10C010B6007F5AC42BB
:104E480002F12802136803F5805307F5AC4000F11E
:104E58000800036007F5AC4101F10C010B689AB238
:104E680007F5AC4000F1080003681B04D11807F5EA
:104E7800A44303F1040307F5AC4000F128000268DD
:104E880043F8221007F5F15303F110032C3B07F503
:104E9800AC4101F128010A6807F5AC4000F10C00AB
:104EA800016843F8221007F5E15303F110032C3B86
:104EB80007F5AC4101F128010A6807F5AC4000F19B
:104EC8000800016843F8221011F0D4F8034607F5EA
:104ED800AC4101F10C010B6011F0CCF8034607F569
:104EE800AC4202F10802136007F5AC4000F128005B
:104EF800036803F6FF7307F5AC4101F10C010B6081
:104F080007F5AC4202F12802136803F5805307F550
:104F1800AC4000F10800036007F5AC4101F10C0159
:104F28000B689AB207F5AC4000F1080003681B044F
:104F3800D11807F59C4303F1040307F5AC4000F1D1
:104F48002800026843F8221007F5D15303F1100333
:104F58002C3B07F5AC4101F128010A6807F5AC4084
:104F680000F10C00016843F8221007F5C15303F162
:104F780010032C3B07F5AC4101F128010A6807F53D
:104F8800AC4000F10800016843F8221007F5AC4175
:104F980001F128010B68013307F5AC4202F1280240
:104FA800136007F5AC4000F1280003687F2B7FF6FB
:104FB80025AF07F5A44101F1040107F5A44202F168
:104FC800040207F59C4303F10403084611461A46F8
:104FD800FDF775FC07F5F15000F110002C3807F5C6
:104FE800E15101F110012C3907F5D15202F11002FB
:104FF8002C3A07F5C15303F110032C3BFCF7ACFD29
:1050080007F5F15202F110022C3A07F5E15303F1CA
:1050180010032C3B07F5A44404F104041046194678
:105028002246FCF717FD0346002B06D1012307F59E
:10503800AC4101F124010B6019E007F5AC4202F123
:105048002C021368013307F5AC4000F12C00036013
:1050580007F5AC4101F12C010B68632B07DC07F560
:10506800AC4202F124021368002B3FF4B8AE07F5F6
:10507800AC4000F124000368012B08D10F4807F564
:10508800AC4202F12C021168FEF756FC02E0094816
:10509800FEF752FC0A48FEF7A5FB002307F5AC40D3
:1050A80000F124000360002307F5AC4101F12C0155
:1050B8000B6046E0608E0108BC8E0108548E010822
:1050C800D48E010807F5AC4202F12C021368184689
:1050D80010F0C8FF07F5A44303F104031846FDF7D1
:1050E80003FF07F5AC4000F12C000368184610F0E8
:1050F800B9FF07F59C4303F104031846FBF7E4FEE8
:1051080007F5A44202F1040207F59C4303F10403E6
:1051180010461946FCF7C2FD0346002B06D10123B1
:1051280007F5AC4101F124010B6018E007F5AC422A
:1051380002F12C021368013307F5AC4000F12C0092
:10514800036007F5AC4101F12C010B68632B06DC09
:1051580007F5AC4202F124021368002BB2D007F520
:10516800AC4000F124000368012B08D14D4807F535
:10517800AC4202F12C021168FEF7DEFB02E04A485D
:10518800FEF7DAFB4948FEF72DFB002307F5AC4094
:1051980000F124000360002307F5AC4101F12C0164
:1051A8000B603EE007F5AC4202F12C02136818468A
:1051B80010F058FF07F5A44303F104031846FDF760
:1051C8009BFF07F5AC4000F12C000368184610F06F
:1051D80049FF07F59C4303F104031846FBF7A2FEB9
:1051E80007F5A44202F1040207F59C4303F1040306
:1051F80010461946FCF752FD0346002B06D1012341
:1052080007F5AC4101F124010B6018E007F5AC4249
:1052180002F12C021368013307F5AC4000F12C00B1
:10522800036007F5AC4101F12C010B68632B06DC28
:1052380007F5AC4202F124021368002BB2D007F53F
:10524800AC4000F124000368012B08D1154807F58C
:10525800AC4202F12C021168FEF76EFB02E0124824
:10526800FEF76AFB1248FEF7BDFA002307F5AC40CB
:1052780000F124000360002307F5AC4101F12C0183
:105288000B6043E107F5AC4202F12C0213681846A3
:1052980010F0E8FE002307F5AC4000F12800036099
:1052A800DDE000BF548E0108608E0108E08E010821
:1052B800EC8E010810F0DEFE0346C3F30C0307F57D
:1052C800AC4101F10C010B6010F0D4FE0346C3F3AE
:1052D8000C0307F5AC4202F10802136007F5AC4075
:1052E80000F12800036803F6FF7307F5AC4101F1EC
:1052F8000C010B6007F5AC4202F12802136803F5B4
:10530800805307F5AC4000F10800036007F5AC4195
:1053180001F10C010B689AB207F5AC4000F10800E6
:1053280003681B04D11807F5A44303F1040307F528
:10533800AC4000F12800026843F8221007F5F15349
:1053480003F110032C3B07F5AC4101F128010A6871
:1053580007F5AC4000F10C00016843F8221007F58E
:10536800E15303F110032C3B07F5AC4101F128018F
:105378000A6807F5AC4000F10800016843F82210FC
:1053880010F078FE034607F5AC4101F10C010B6003
:1053980010F070FE034607F5AC4202F108021360F4
:1053A80007F5AC4000F1280003685B0003F6FF73C3
:1053B80007F5AC4101F10C010B6007F5AC4202F1B5
:1053C8002802136803F500635B0007F5AC4000F1A1
:1053D8000800036007F5AC4101F10C010B689AB2B3
:1053E80007F5AC4000F1080003681B04D11807F565
:1053F8009C4303F1040307F5AC4000F12800026860
:1054080043F8221007F5D15303F110032C3B07F59D
:10541800AC4101F128010A6807F5AC4000F10C0025
:10542800016843F8221007F5C15303F110032C3B20
:1054380007F5AC4101F128010A6807F5AC4000F115
:105448000800016843F8221007F5AC4101F1280172
:105458000B68013307F5AC4202F12802136007F527
:10546800AC4000F1280003687F2B7FF623AF07F5D7
:10547800A44101F1040107F5A44202F1040207F571
:105488009C4303F10403084611461A46FDF761FAE6
:1054980007F5F15000F110002C3807F5E15101F142
:1054A80010012C3907F5D15202F110022C3A07F5F8
:1054B800C15303F110032C3BFCF7A0FB07F5F15295
:1054C80002F110022C3A07F5E15303F110032C3BCB
:1054D80007F5A44404F10404104619462246FCF7D3
:1054E800B9FA0346002B06D1012307F5AC4101F1B7
:1054F80024010B6019E007F5AC4202F12C02136895
:10550800013307F5AC4000F12C00036007F5AC410E
:1055180001F12C010B68632B07DC07F5AC4202F1A3
:1055280024021368002B3FF4ADAE07F5AC4000F140
:1055380024000368012B08D1BC4807F5AC4202F1EE
:105548002C021168FEF7F8F902E0B948FEF7F4F901
:10555800B848FEF747F9002307F5AC4000F12400EE
:105568000360002307F5AC4101F12C010B6040E01A
:1055780007F5AC4202F12C02116807F5A44202F1CA
:10558800040207F59C4303F10403084611461A4632
:10559800FCF758FE07F5A44303F104031846FDF78A
:1055A80089FC07F59C4303F104031846FBF702FD49
:1055B80007F5A44202F1040207F59C4303F1040332
:1055C80010461946FCF76AFB0346002B06D1012357
:1055D80007F5AC4000F12400036018E007F5AC4182
:1055E80001F12C010B68013307F5AC4202F12C02E2
:1055F800136007F5AC4000F12C000368632B06DC50
:1056080007F5AC4101F124010B68002BB0D007F578
:10561800AC4202F124021368012B08D1834807F534
:10562800AC4303F12C031968FEF786F902E08048C1
:10563800FEF782F98048FEF7D5F8002307F5AC405D
:1056480000F124000360002307F5AC4101F12C01AF
:105658000B6082E007F5AC4202F12C02136807F5F3
:10566800A44202F10402754811461A46FCF73CFDB3
:1056780007F5AC4000F12C00036807F59C4202F1E5
:1056880004026F4811461A46FCF72EFD07F5AC4197
:1056980001F12C010B6807F5944202F104026948F4
:1056A80011461A46FCF720FD6448FDF7D2FA07F5C3
:1056B800A44303F104031846FBF7ECFD07F59C43EC
:1056C80003F104031846FBF7E5FD07F5944303F1DE
:1056D80004031846FBF7DEFD07F5A44303F10403B2
:1056E80056481946FCF7DAFA0346002B06D101237F
:1056F80007F5AC4202F1240213603DE007F59C4334
:1057080003F104034E481946FCF7C8FA0346002B78
:1057180006D1012307F5AC4000F1240003602BE01B
:1057280007F5944303F1040346481946FCF7B6FA13
:105738000346002B06D1012307F5AC4101F12401F2
:105748000B6019E007F5AC4202F12C021368013333
:1057580007F5AC4000F12C00036007F5AC4101F1FE
:105768002C010B68632B07DC07F5AC4202F124021D
:105778001368002B3FF46EAF07F5AC4000F124002E
:105788000368012B08D1294807F5AC4202F12C0225
:105798001168FEF7D1F802E02548FEF7CDF82A484F
:1057A800FEF720F8002307F5AC4000F12400036061
:1057B800002307F5AC4101F12C010B6051E007F51E
:1057C800AC4202F12C02136807F5A44101F104016F
:1057D80007F59C4202F10402084611461A46FCF7F6
:1057E80083FC07F5A44303F104031846FDF7A5F964
:1057F80007F59C4303F104031846FBF74BFD07F537
:10580800A44202F1040207F59C4303F10403104685
:105818001946FCF743FA0346002B17D1012307F575
:10582800AC4000F12400036029E000BF548E010859
:10583800608E0108048F0108148F0108D06F0020C2
:10584800D0710020D07300202C8F010807F5AC41DF
:1058580001F12C010B68013307F5AC4202F12C026F
:10586800136007F5AC4000F12C000368632B06DCDD
:1058780007F5AC4101F124010B68002B9FD007F517
:10588800AC4202F124021368012B08D1434807F502
:10589800AC4303F12C031968FEF74EF802E04048C8
:1058A800FEF74AF83F48FDF79DFF002307F5AC4097
:1058B80000F124000360002307F5AC4101F12C013D
:1058C8000B6040E007F5AC4202F12C02136807F5C3
:1058D800A44101F1040107F59C4202F104020846C3
:1058E80011461A46FCF700FC07F5A44303F104032C
:1058F8001846FDF75DF807F59C4303F104031846C5
:10590800FBF77CFE07F5A44202F1040207F59C436D
:1059180003F1040310461946FCF7C0F90346002BAF
:1059280006D1012307F5AC4000F12400036018E01C
:1059380007F5AC4101F12C010B68013307F5AC42C6
:1059480002F12C02136007F5AC4000F12C0003684B
:10595800632B06DC07F5AC4101F124010B68002B31
:10596800B0D007F5AC4202F124021368012B08D12C
:105978000A4807F5AC4303F12C031968FDF7DCFF6F
:1059880002E00748FDF7D8FF0748FDF7D5FF0023D9
:1059980007F5AC4000F12C00036027E1548E0108A4
:1059A800608E01083C8F01084C8F010807F5AC4157
:1059B80001F12C010B68184610F054FB07F56853E9
:1059C80003F110030C3B1846FCF774FB07F5AC42D7
:1059D80002F12C021368184610F044FB07F54361E6
:1059E8002C3907F5815202F110022C3A07F5A15320
:1059F80003F110032C3B084611461A46FCF756FAE9
:105A080007F5AC4000F12C000368184610F02AFB9B
:105A180007F543602C3807F5505101F130012C3956
:105A280007F5405202F130022C3A07F5685303F1AA
:105A380010030C3B07F5815404F110042C3C00942E
:105A4800FCF76CFA07F5AC4101F12C010B6818461C
:105A580010F008FB07F5605303F110030C3B1846E0
:105A6800FDF7F0FB07F5AC4202F12C02136818466B
:105A780010F0F8FA07F586612C3907F5C6622C3A5A
:105A880007F503632C3B084611461A46FDF742FB0F
:105A980007F5AC4000F12C000368184610F0E2FA54
:105AA80007F586602C3807F5385101F130012C399B
:105AB80007F5305202F130022C3A07F5605303F132
:105AC80010030C3B07F5C6642C3C0094FDF76CFBF7
