:020000040800F2
:1000000000000220C550010809030008150300087C
:100010001D030008250300082D0300080000000050
:100020000000000000000000000000003503000890
:1000300041030008000000004D03000859030008B8
:100040001151010811510108115101081151010804
:1000500011510108115101081151010811510108F4
:1000600011510108115101081151010811510108E4
:1000700011510108115101081151010811510108D4
:1000800011510108115101081151010811510108C4
:1000900011510108115101081151010811510108B4
:1000A00011510108115101081151010811510108A4
:1000B0001151010811510108115101081151010894
:1000C0001151010811510108115101081151010884
:1000D00011510108053C0008115101081151010896
:1000E0001151010811510108115101081151010864
:1000F0001151010811510108115101081151010854
:100100001151010811510108115101081151010843
:100110001151010811510108115101081151010833
:100120001151010811510108115101081151010823
:100130001151010811510108115101081151010813
:100140001151010811510108115101081151010803
:1001500011510108115101081151010811510108F3
:1001600011510108115101081151010811510108E3
:1001700011510108115101081151010811510108D3
:080180001151010811510108A1
:1001880010B5054C237833B9044B13B10448AFF3C9
:1001980000800123237010BDD075002000000000EE
:1001A8006087010808B5064B1BB106480649AFF33E
:1001B80000800648036813B1054B03B1984708BD92
:1001C8000000000060870108D4750020CC6F002073
:1001D80000000000154B002B08BF134B9D46A3F5EC
:1001E800803A00218B460F461348144A121A14F01D
:1001F80027FE0F4B002B00D098470E4B002B00D04A
:1002080098470020002104000D000D48002802D066
:100218000C4814F0E1FE14F0EBFD2000290000F07A
:100228005BF814F0D5FD00BF0000080000000000D6
:100238000000000000000000D07500204876002073
:10024800E14F0108ED4F010880B483B000AF78603A
:1002580000BF7B685A1E7A60002BFAD10C37BD4666
:100268005DF8047B704700BF80B500AF00BF012078
:100278000FF008FC0346002BF9D0024B9B68184688
:1002880080BD00BF0008065080B500AF03F010FD28
:10029800402001210FF06AF901200FF0AFFB80BD6B
:1002A80080B584B000AF78600023FB600BE0FB688A
:1002B8009B007A6813441B680648194603F088FABD
:1002C800FB680133FB60FB68FF2BF0DD1037BD4690
:1002D80080BD00BFFC82010880B500AFFFF7D4FFE6
:1002E800054803F075FA04F0A1F803F011FD03487E
:1002F80003F0C4F9FEE700BF008301080C8301087E
:1003080080B400AFBD465DF8047B704780B400AF91
:10031800FEE700BF80B400AFFEE700BF80B400AFC7
:10032800FEE700BF80B400AFFEE700BF80B400AFB7
:10033800BD465DF8047B704780B400AFBD465DF8EC
:10034800047B704780B400AFBD465DF8047B7047FE
:1003580080B400AFBD465DF8047B704780B500AF40
:10036800154B154AD2F8882042F47002C3F8882049
:10037800124B124A126842F001021A600F4B002217
:100388009A600E4A0D4B1B6823F0847323F4803364
:1003980013600A4B0A4A5A60084B084A126822F44A
:1003A80080221A60054B0022DA6000F087F8024BC1
:1003B8004FF000629A6080BD00ED00E00038024016
:1003C8001030002480B487B000AF00233B610023C5
:1003D8007B610223FB600023BB6002237B60324BFE
:1003E8009B6803F00C033B613B69042B07D0082B87
:1003F80009D0002B3FD12D4B2D4A1A603FE02B4BE3
:100408002C4A1A603BE0284B5B6803F480039B0D81
:10041800BB60254B5B6803F03F037B60BB68002B28
:100428000DD0244A7B68B2FBF3F21F4B596847F69C
:10043800C0730B409B0903FB02F37B610CE01C4A71
:100448007B68B2FBF3F2184B596847F6C0730B4050
:100458009B0903FB02F37B61134B5B6803F4403396
:100468001B0C01335B00FB607A69FB68B2FBF3F29B
:100478000E4B1A6003E00D4B0D4A1A6000BF0A4B81
:100488009B6803F0F0031B090B4AD35CDBB23B61AA
:10049800064B1A683B69DA40044B1A601C37BD46A4
:1004A8005DF8047B704700BF00380240040000205C
:1004B8000024F40000127A000800002080B483B001
:1004C80000AF00237B6000233B60354B344A126841
:1004D80042F480321A60324B1B6803F400333B60ED
:1004E8007B6801337B603B68002B03D17B68B3F5E5
:1004F800A06FF0D12A4B1B6803F40033002B02D005
:1005080001233B6001E000233B603B68012B42D1A3
:10051800234B234A126C42F080521A64214B214A21
:10052800126842F440421A601D4B1D4A92689A6054
:100538001B4B1B4A926842F400429A60184B184AB7
:10054800926842F4A0529A60154B174A5A60144BAD
:10055800134A126842F080721A6000BF104B1B6881
:1005680003F00073002BF9D0104B40F205721A60AB
:100578000B4B0B4A926822F003029A60084B084A18
:10058800926842F002029A6000BF054B9B6803F034
:100598000C03082BF9D10C37BD465DF8047B704776
:1005A800003802400070004019544007003C0240E7
:1005B80080B500AFFFF706FF014B1B68184680BDEA
:1005C8000400002080B582B000AF15F09BF8034608
:1005D8007B607B6843F000437B607B681846083784
:1005E800BD4680BD80B500AF15F08CF803461846AF
:1005F80080BD00BF80B485B000AF78600023FB6089
:100608000CE0FB68C3F11F037A6822FA03F3012B9D
:1006180001D1FB6806E0FB680133FB60FB681F2B18
:10062800EFDD202318461437BD465DF8047B70477C
:1006380080B584B000AF78607B68BB60B968294B2F
:1006480083FB0123DA12CB17D21A13461B019B1A1C
:100658005B021344CA1A002A0DDBB968214B83FBDD
:100668000123DA12CB17D21A13461B019B1A5B021D
:100678001344CA1A0FE0B9681A4B83FB0123DA1234
:10068800CB17D21A13461B019B1A5B021344CA1AD2
:1006980002F5F0520132FA6004E0FB6803F5F0530A
:1006A8000133FB60FB68002BF7DB04E0FB68A3F574
:1006B800F053013BFB60FA6841F601639A42F5DCAE
:1006C800FB68002B03DBFB68B3F5F05F05DD06482C
:1006D8004921064A064B14F019FDFB6818461037E5
:1006E800BD4680BDCDFD4144188301083C83010807
:1006F8002083010890B587B000AF7860FFF762FFEC
:1007080003463B6100237B6121E07B699B007A689B
:10071800D41807F1100207F10C031046194600F02F
:10072800B9FA03469BB223807B699B0002337A683F
:10073800D41807F1100207F10C031046194600F00F
:10074800A9FA03469BB223807B6901337B617B69ED
:100758007F2BDADD1C37BD4690BD00BF90B587B052
:1007680000AF7860FFF72EFF03463B6100237B61F3
:1007780021E07B699B007A68D41807F1100207F121
:100788000C031046194600F085FA03469BB22380F5
:100798007B699B0002337A68D41807F1100207F1CD
:1007A8000C031046194600F075FA03469BB22380E5
:1007B8007B6901337B617B697F2BDADD1C37BD46A2
:1007C80090BD00BF80B58AB000AF786000233B625F
:1007D8000023FB61FFF7F6FE0346FB6000237B6204
:1007E8004EE0FF233B6107F10C0207F110031046AE
:1007F800194600F04FFA03467B833B69012B09D168
:100808003B6A5B007A6813447A8B1A803B6A01332F
:100818003B620DE0FA691346DB079B1A5B0003F5A0
:10082800FF737A6813447A8B1A80FB690133FB6182
:1008380007F10C0207F110031046194600F02AFAD6
:1008480003467B833B69012B09D13B6A5B007A68CD
:1008580013447A8B1A803B6A01333B620DE0FA69D4
:100868001346DB079B1A5B0003F5FF737A68134492
:100878007A8B1A80FB690133FB617B6A01337B62E7
:100888007B6A7F2BADDD28E0FFF79CFE0346DBB2D9
:100898007B61FB69C3F580731A467B699A421CD950
:1008A8007B695B007A6813441B887B837B695B00E8
:1008B8007A681344FA69C2F58072520079680A446A
:1008C80012881A80FB69C3F580735B007A68134449
:1008D8007A8B1A80FB69013BFB61FB69002BD3DC37
:1008E8002837BD4680BD00BF90B585B000AF7860A1
:1008F800FFF768FE0346BB600023FB6019E0FB6856
:10090800DB0004337A68D41807F10803184600F0AE
:1009180017F803462360FB68DB007A68D41807F1F0
:100928000803184600F00CF803462360FB680133FF
:10093800FB60FB687F2BE2DD1437BD4690BD00BF2E
:1009480080B58AB000AF78607B681B68DBB2FB605B
:100958007B681B681A0A7B681A60984AFB6813440C
:100968001B78BB61BB6903F01003BB60BB68002B3D
:100978002BD17B681B68012B04D1FFF723FE0246AD
:100988007B681A60BB6903F00F03BB617B681B6857
:1009980003F00103002B04D0BB69C3F5F053013306
:1009A800BB617B681B685A087B681A607B681B6898
:1009B8001846FFF71FFE0346172B04D9FFF702FE60
:1009C80002467B681A60BB695FE17B681B68184652
:1009D800FFF710FE03461A2B04D9FFF7F3FD024672
:1009E8007B681A60BB6903F007037B627B681B683E
:1009F80003F01F027B6A5B011344FB607B681B6882
:100A08005A097B681A607B681B68012B04D1FFF7C1
:100A1800D9FD02467B681A60694AFB6813441B7853
:100A2800BB61BB6903F02003BB60BB68002B22D10C
:100A3800BB6903F01F03BB617B681B6803F00103FC
:100A4800002B04D0BB69C3F5F0530133BB617B684D
:100A58001B685A087B681A607B681B681846FFF792
:100A6800C9FD0346172B04D9FFF7ACFD02467B6886
:100A78001A60BB6909E1BB6903F00F037B620023BD
:100A8800FB6156E07B6A5B001A467B681B6803F0D3
:100A9800010313447B627B681B685A087B681A60F1
:100AA8007B681B68012B04D1FFF78CFD02467B682D
:100AB8001A60444BFA6953F822303B611F233B62AA
:100AC80031E03B69DB171A467B6A13447B623B695A
:100AD8005B003B617B6AB3F1FF3F21D17B681B68F8
:100AE80003F00103002B05D03B6AC3F5F053013333
:100AF800BB6101E03B6ABB617B681B685A087B6885
:100B08001A607B681B681846FFF774FD0346172BAD
:100B180004D9FFF757FD02467B681A60BB69B4E049
:100B28003B6A013B3B623B6A002BCADAFB69013333
:100B3800FB61FB696C2BA5DD0823FB619FE0224B61
:100B4800FA6953F822307B611E4BFA6953F8223058
:100B58003B617B6A5B001A467B681B6803F00103F4
:100B680013447B627B681B685A087B681A607B6841
:100B78001B68012B05D114F0C5FD03461A467B6896
:100B88001A6036233B623BE07B69DB171A467B6AB7
:100B980013447B627B695B007B617B6AB3F1FF3F37
:100BA8002BD17B681B6803F00103002B0ED03B6A36
:100BB800C3F5F0530133BB610AE000BF58000020C1
:100BC80058010020E4620020646400203B6ABB6195
:100BD8007B681B685A087B681A607B681B68184624
:100BE800FFF708FD0346172B05D914F08BFD0346C4
:100BF8001A467B681A60BB6947E03B6A013B3B6267
:100C08003B6A1F2BC0DC1F233B6232E03B69DB17CA
:100C18001A467B6A13447B623B695B003B617B6AD3
:100C2800B3F1FF3F22D17B681B6803F00103002B5F
:100C380005D03B6AC3F5F0530133BB6101E03B6A61
:100C4800BB617B681B685A087B681A607B681B68F5
:100C58001846FFF7CFFC0346172B05D914F052FDB1
:100C680003461A467B681A60BB690EE03B6A013B83
:100C78003B623B6A002BC9DAFB690133FB61FB6904
:100C88005F2B7FF75CAF4FF0FF3318462837BD4620
:100C980080BD00BF80B588B000AF786039607B68E0
:100CA8001B68DBB2FB607B681B681A0A7B681A60EA
:100CB8007E4AFB6813441B783B613B6903F01003D1
:100CC800BB60BB68002B2ED17B681B68012B04D14D
:100CD800FFF778FC02467B681A603B6903F00F0354
:100CE8003B617B681B6803F00103002B04D03B6960
:100CF800C3F5F05301333B617B681B685A087B6876
:100D08001A607B681B681846FFF774FC0346172BAC
:100D180004D9FFF757FC02467B681A603B6801223A
:100D28001A603B69BEE07B681B681846FFF762FCE7
:100D380003461A2B04D9FFF745FC02467B681A6064
:100D48003B6903F00703FB617B681B6803F01F0224
:100D5800FB695B011344FB607B681B685A097B686D
:100D68001A607B681B68012B04D1FFF72BFC024635
:100D78007B681A604E4AFB6813441B783B613B69E9
:100D880003F02003BB60BB68002B25D13B6903F04F
:100D98001F033B617B681B6803F00103002B04D031
:100DA8003B69C3F5F05301333B617B681B685A0804
:100DB8007B681A607B681B681846FFF71BFC0346B4
:100DC800172B04D9FFF7FEFB02467B681A603B68C5
:100DD80001221A603B6965E03B6903F00F03FB6180
:100DE8000D237B6156E0FB695B001A467B681B6834
:100DF80003F001031344FB617B681B685A087B6896
:100E08001A607B681B68012B04D1FFF7DBFB0246E5
:100E18007B681A603623BB6136E0264BBA696D21C0
:100E280001FB02F17A690A4453F82230FA69D31AAD
:100E3800FB61FB69002B24DA7B681B6803F0010364
:100E4800002B05D0BB69C3F5F05301333B6101E0CA
:100E5800BB693B617B681B685A087B681A607B68C2
:100E68001B681846FFF7C6FB0346172B04D9FFF784
:100E7800A9FB02467B681A603B6800221A603B693E
:100E880010E0BB69013BBB61BB69002BC5DA7B691C
:100E980001337B617B696C2BA5DD3B6800221A60FE
:100EA8004FF0FF3318462037BD4680BD580000205C
:100EB800580100203802002090B585B000AF786056
:100EC8000023FB601FE014F01DFC0346BB60FB68B9
:100ED8009B007A68D418BB689BB21846FFF7A8FB3A
:100EE80003469BB22380FB689B0002337A68D418C0
:100EF800BB681B0C1846FFF79BFB03469BB223807D
:100F0800FB680133FB60FB687F2BDCD9786800F055
:100F1800C1F91437BD4690BD80B582B000AF786086
:100F28007868FFF7E7FB786800F0B4F90837BD4642
:100F380080BD00BF80B588B000AF78600023FB613A
:100F48002AE014F0DFFB03467B610023BB6120E04D
:100F58007B6903F001033B617B695B0803F00103D4
:100F6800FB60FB68012B05D13B69012B02D14FF4D3
:100F7800F0533B61FB695A1CFA615B007A681344C1
:100F88003A6992B21A807B699B087B61BB6901331D
:100F9800BB61BB690F2BDBD9FB69FF2BD1D9786803
:100FA80000F078F92037BD4680BD00BF80B48FB00F
:100FB80000AF786001237B636EE07B6B03F0010375
:100FC8003B637B6B5B0803F00103FB627B6B9B0855
:100FD80003F00103BB627B6BDB0803F001037B6258
:100FE8007B6B1B0903F001033B627B6B5B0903F01E
:100FF8000103FB617B6B9B0903F00103BB613B6B46
:101008005A00FB6A13445A00BB6A13445A007B6AAD
:1010180013445A003B6A13445A00FB6913445A00AC
:10102800BB6913447B617A697B6B9A4231D97B6BCC
:101038009B007A6813441B883B617B6B9B000233DF
:101048007A6813441B88FB607B6B9B007A681344A7
:101058007A69920079680A4412881A807B6B9B002F
:1010680002337A6813447A699200023279680A4432
:1010780012881A807B699B007A6813443A6992B295
:101088001A807B699B0002337A681344FA6892B22B
:101098001A807B6B01337B637B6B7F2B8DD93C374D
:1010A800BD465DF8047B704780B485B000AF7860BA
:1010B80039600023FB6010E0FB689B007A681344EA
:1010C8001A68FB689B0039680B441B689A4201D078
:1010D800002306E0FB680133FB60FB68FF2BEBDDB8
:1010E800012318461437BD465DF8047B704700BFDE
:1010F80080B493B000AF786000233B6400237B6426
:10110800BEE07B6C03F00103FB637B6C5B0803F0C0
:101118000103BB637B6C9B0803F001037B637B6C5F
:10112800DB0803F001033B637B6C1B0903F001033D
:10113800FB627B6C5B0903F00103BB627B6C9B0960
:1011480003F001037B627B6CDB0903F001033B6264
:10115800FB6B5A00BB6B13445A007B6B13445A0059
:101168003B6B13445A00FB6A13445A00BB6A13448E
:101178005A007B6A13445A003B6A1344FB617B6C38
:101188005B08BB617B6C03F001037B61FB695B0857
:101198003B61FB6903F00103FB60FA697B6C9A42CF
:1011A8006BD9FB68002B05D13B699B007A68134417
:1011B8001B883B64FB68012B06D13B699B0002330B
:1011C8007A6813441B883B64FB68002B0CD17B694D
:1011D800002B09D13B699B007A681344BA699200D5
:1011E80079680A4412881A80FB68002B0DD17B6944
:1011F800012B0AD13B699B007A681344BA699200B3
:10120800023279680A4412881A80FB68012B0DD1D2
:101218007B69002B0AD13B699B0002337A6813442F
:10122800BA69920079680A4412881A80FB68012B0F
:101238000ED17B69012B0BD13B699B0002337A6885
:101248001344BA699200023279680A4412881A80F3
:101258007B69002B06D1BB699B007A6813443A6C02
:1012680092B21A807B69012B07D1BB699B000233BC
:101278007A6813443A6C92B21A807B6C01337B64AF
:101288007B6CFF2B7FF63DAF4C37BD465DF8047B8A
:10129800704700BF90B58DB000AF78600023FB6247
:1012A80002233B62A3E0794BFA6A33F81230BB6140
:1012B800FB6A5A1C754B33F81230FB61FB6A013329
:1012C800FB620023BB628AE000237B6278E0BA6A93
:1012D8007B6A13445B007A6813441B887B61BA6A93
:1012E8007B6A134401335B007A6813441B88FA69EC
:1012F80002FB03F31846FFF79BF93861BA6A7B6A69
:101308001A443B6A13445B007A6813441B88FB60E9
:10131800BA6A7B6A1A443B6A134401335B007A68F1
:1013280013441B88FA6902FB03F31846FFF780F998
:10133800B860BA6A7B6A13445B007A68D4187A6921
:101348003B6913441846FFF773F903469BB22380A1
:10135800BA6A7B6A134401335B007A68D418FA6866
:10136800BB6813441846FFF763F903469BB2238012
:10137800BA6A7B6A1A443B6A13445B007A68D418D9
:101388007A693B69D31A1846FFF752F903469BB2AC
:101398002380BA6A7B6A1A443B6A134401335B00B0
:1013A8007A68D418FA68BB68D31A1846FFF740F968
:1013B80003469BB223803B6A5B007A6A13447B62D4
:1013C8007B6AFF2B83DDFB69BA6902FB03F3FB61D0
:1013D800F869FFF72DF9F861BB6A0233BB62BA6A94
:1013E8003B6A9A42FFF670AF3B6A5B003B623B6A1E
:1013F800802B7FF758AF41F2FE33BB6140F229439F
:10140800FB610023BB623AE0BB6A9B0002337A6847
:1014180013441B88FA6902FB03F33B613869FFF741
:1014280007F93861BB6A9B007A6813441B887B61A3
:10143800BB6A9B007A68D4187A693B6913441846DA
:10144800FFF7F6F803469BB22380BB6A9B00023382
:101458007A68D4187A693B69D31A1846FFF7E8F80E
:1014680003469BB22380FB69BA6902FB03F3FB6165
:10147800F869FFF7DDF8F861BB6A0133BB62BB6A44
:101488007F2BC1DD3437BD4690BD00BF380000203A
:1014980080B48FB000AF7860396000237B6392E03E
:1014A8007A6B4D4B1340002B03DA013B63F00103C9
:1014B80001333B637B6B5A10474B1340002B03DA15
:1014C800013B63F001030133FB627B6B9A10424BD3
:1014D8001340002B03DA013B63F001030133BB62C5
:1014E8007B6BDA103C4B1340002B03DA013B63F0B3
:1014F800010301337B627B6B1A11374B1340002BBE
:1015080003DA013B63F0010301333B627B6B5A1141
:10151800314B1340002B03DA013B63F00103013325
:10152800FB617B6B9A112C4B1340002B03DA013BB8
:1015380063F001030133BB613B6B5A00FB6A134440
:101548005A00BB6A13445A007B6A13445A003B6A28
:1015580013445A00FB6913445A00BB6913447B6166
:101568007A697B6B9A422BDD7B6B9B007A6813440C
:101578001B683B617B6B9B003A6813441B68FB60EC
:101588007B6B9B007A6813447A69920079680A44F5
:1015980012681A607B6B9B003A6813447A69920060
:1015A80039680A4412681A607B699B007A68134498
:1015B8003A691A607B699B003A681344FA681A60B2
:1015C8007B6B01337B637B6B7F2B7FF769AF3C378A
:1015D800BD465DF8047B70470100008090B58DB072
:1015E80000AF786000233B6202237B62D8E07B6A0D
:1015F800102B1BD0102B06DC042B0FD0082B11D07E
:10160800022B07D022E0402B18D0802B1AD0202B99
:1016180010D01BE04FF4F0533B6217E040F637530D
:101628003B6213E041F27C633B620FE04FF4D86306
:101638003B620BE04FF4ED533B6207E041F6A91320
:101648003B6203E041F6C9133B6200BF0123FB6123
:101658000023FB6298E00023BB6285E0BA6AFB6A5C
:1016680013449B0002337A6813441B88FA6902FB0F
:1016780003F37B617869FEF7DBFF7861BA6AFB6A7E
:1016880013449B007A6813441B883B61BA6AFB6A5F
:101698001A447B6AD90F0B445B1013449B00023336
:1016A8007A6813441B88FA6902FB03F3FB60F86845
:1016B800FEF7BEFFF860BA6AFB6A1A447B6AD90F64
:1016C8000B445B1013449B007A6813441B88BB606F
:1016D800BA6AFB6A13449B007A68D4183A697B6932
:1016E80013441846FEF7A4FF03469BB22380BA6A48
:1016F800FB6A1A447B6AD90F0B445B1013449B00A6
:101708007A68D4183A697B69D31A1846FEF790FFAD
:1017180003469BB22380BA6AFB6A13449B000233D8
:101728007A68D418BA68FB6813441846FEF780FF35
:1017380003469BB22380BA6AFB6A1A447B6AD90FB4
:101748000B445B1013449B0002337A68D418BA68C0
:10175800FB68D31A1846FEF76BFF03469BB223803B
:10176800BA6A7B6A1344BB62BB6A7F2B7FF776AF8A
:10177800FB693A6A02FB03F3FB61F869FEF758FF5D
:10178800F861FB6A0133FB627B6ADA0F13445B1072
:101798001A46FB6A9A423FF75EAF7B6A5B007B6240
:1017A8007B6A802B7FF723AF4FF434633B620123BE
:1017B800FB610023FB623EE0FB6A5B007A6813442E
:1017C8001B883B61FB6A0133FB62FB6A5B007A683A
:1017D80013441B88FA6902FB03F37B617869FEF7FF
:1017E80027FF7861FB6A03F10043013B5B007A68DD
:1017F800D4183A697B6913441846FEF719FF034663
:101808009BB22380FB6A5B007A68D4183A697B69CB
:10181800D31A1846FEF70CFF03469BB22380FB6AD7
:101828000133FB62FB693A6A02FB03F3FB61F86967
:10183800FEF7FEFEF861FB6AFF2BBDDD40F637536D
:10184800BB6140F6B1133B620123FB610023FB62DD
:1018580061E0FB6A5B007A68D418FB6A5B007A680F
:1018680013441B88FA6902FB03F31846FEF7E0FEEF
:1018780003469BB22380FB6A5B007A68D418FB6A34
:101888005B007A6813441B8841F6E35202FB03F3BA
:101898001846FEF7CDFE03469BB22380FB6A013350
:1018A800FB62FB6A5B007A68D418FB6A5B007A68A3
:1018B80013441B88BA6902FB03F31846FEF7B8FE07
:1018C80003469BB22380FB6A5B007A68D418FB6AE4
:1018D8005B007A6813441B8841F6E35202FB03F36A
:1018E8001846FEF7A5FE03469BB22380FB6A013328
:1018F800FB62FB693A6A02FB03F3FB61F869FEF7D6
:1019080097FEF861BB693A6A02FB03F3BB61B869E9
:10191800FEF78EFEB861FB6AFF2B9ADD3437BD46B1
:1019280090BD00BF80B487B000AFF860B9607A603E
:1019380000237B611EE07B699B007A6813441B6867
:101948009AB27B699B00F9680B441B689A420CD1D8
:101958007B699B007A6813441B681A0C7B699B009F
:10196800B9680B441B689A4201D0002306E07B69E2
:1019780001337B617B697F2BDDDD012318461C3732
:10198800BD465DF8047B704790B587B000AFF8603E
:10199800B9607A603B6000237B613EE07B699B0015
:1019A800FA6813447A699200F9680A4411687A69F6
:1019B80092007868024412680A441A607B699B00A6
:1019C800FA68D4187B699B00FA6813441B681846A8
:1019D800FEF72EFE034623607B699B00BA6813441A
:1019E8007A699200B9680A4411687A69920038687D
:1019F800024412680A441A607B699B00BA68D418CA
:101A08007B699B00BA6813441B681846FEF710FEF2
:101A1800034623607B6901337B617B697F2BBDDDD6
:101A28001C37BD4690BD00BF90B587B000AFF860C9
:101A3800B9607A603B6000237B6140E07B699B0072
:101A4800FA6813447A699200F9680A441268796955
:101A5800890078680144096801FB02F21A607B6911
:101A68009B00FA68D4187B699B00FA6813441B68CA
:101A78001846FEF7DDFD034623607B699B00BA68C4
:101A880013447A699200B9680A441268796989002E
:101A980038680144096801FB02F21A607B699B00FF
:101AA800BA68D4187B699B00BA6813441B68184647
:101AB800FEF7BEFD034623607B6901337B617B69CA
:101AC8007F2BBBDD1C37BD4690BD00BF90B587B0EE
:101AD80000AFF860B9607A603B6000237B613EE04C
:101AE8007B699B00FA6813447A699200F9680A4492
:101AF80011687A6992007868024412688A1A1A6032
:101B08007B699B00FA68D4187B699B00FA681344C8
:101B18001B681846FEF78CFD034623607B699B0013
:101B2800BA6813447A699200B9680A4411687A69F4
:101B380092003868024412688A1A1A607B699B000E
:101B4800BA68D4187B699B00BA6813441B681846A6
:101B5800FEF76EFD034623607B6901337B617B6979
:101B68007F2BBDDD1C37BD4690BD00BF80B485B05E
:101B780000AF786039600023FB6021E0FB689B00C0
:101B88007A6813441B689AB2FB68DB0039680B4417
:101B98001B689A4201D0002316E0FB689B007A6814
:101BA80013441B681A0CFB68DB00043339680B44C8
:101BB8001B689A4201D0002306E0FB680133FB60F2
:101BC800FB687F2BDADD012318461437BD465DF824
:101BD800047B704790B587B000AFF860B9607A6051
:101BE80000237B6118E07B695B00FA68D4187B6985
:101BF8005B00BA6813441B887A69520079680A4402
:101C0800128802FB03F31846FEF712FD03469BB247
:101C180023807B6901337B617B69FF2BE3DD1C3704
:101C2800BD4690BD90B587B000AFF860B9607A60E6
:101C380000237B6118E07B695B00FA68D4187B6934
:101C48005B00BA6813441B881A467B695B00796895
:101C58000B441B8813441846FEF7EAFC03469BB264
:101C680023807B6901337B617B69FF2BE3DD1C37B4
:101C7800BD4690BD90B587B000AFF860B9607A6096
:101C88003B6000237B6121E07B695B00BA681344F9
:101C98001B887A69520079680A44128802FB03F3A8
:101CA8003B617B695B00FA68D4187B695B003A6822
:101CB80013441B881A463B6913441846FEF7B8FCC0
:101CC80003469BB223807B6901337B617B69FF2BD1
:101CD800DADD1C37BD4690BD90B587B000AFF8601F
:101CE800B9607A6000237B6118E07B695B00FA6861
:101CF800D4187B695B00BA6813441B881A467B6951
:101D08005B0079680B441B88D31A1846FEF790FCD1
:101D180003469BB223807B6901337B617B69FF2B80
:101D2800E3DD1C37BD4690BD80B5ADF5047D00AF41
:101D380007F10C03186007F1080319603B1D1A60CE
:101D480007F10C031868FFF7B7F807F108031868DC
:101D5800FFF7E2F83B1D1868FFF7ECF807F11001F0
:101D680007F10C023B1D084611681A68FFF732FF9D
:101D780007F1080107F1080207F110030868116864
:101D88001A46FFF7A9FF3B1D1868FFF70FF907F57B
:101D98000477BD4680BD00BF90B5ADF61C0D00AF01
:101DA80007F10C04206007F108000160391D0A6082
:101DB8003A4613600023C7F8143816E0D7F81438E9
:101DC8005B003A46126813441B881A461201D31A5C
:101DD8001B0299B207F11403D7F8142823F812103C
:101DE800D7F814380133C7F81438D7F81438FF2B4C
:101DF800E4DD07F214631846FEF77CFC07F214438F
:101E08001846FEF777FC07F505731846FEF772FCCF
:101E180007F5057107F5057207F114030846114621
:101E28001A46FFF7FFFE07F214631846FFF732FA67
:101E380007F214431846FFF72DFA07F505731846FD
:101E4800FFF728FA07F1080107F10C0207F21463FB
:101E5800086811681A46FFF7BDFE07F1080107F286
:101E6800144207F10803086811461A68FFF7DAFEFA
:101E78003A1D07F214631068D7F828181A46FFF7B6
:101E8800A9FE391D07F505723B1D086811461A6839
:101E9800FFF7C8FE07F108031868FFF787F83B1D2E
:101EA8001868FFF783F807F61C07BD4690BD00BF0A
:101EB80080B584B000AFF860B9607A60F868F968F6
:101EC8007A68FFF787FEF868F968BA68FFF7AAFE2C
:101ED800F868FFF783FB1037BD4680BD90B585B025
:101EE80000AF78600023FB600EE0FB685B007A6857
:101EF800D418FEF767FB03469BB203F001039BB2BD
:101F08002380FB680133FB60FB68FF2BEDDD143792
:101F1800BD4690BD90B589B000AFF860B9607A60F1
:101F2800786813F0E7FB0023FB6138E0FEF74AFB13
:101F38000346C3F30C03BB61FEF744FB0346C3F33C
:101F48000C037B61FB699B00FA68D418B869FEF73B
:101F58006FFB03469BB22380FB699B000233FA6840
:101F6800D4187869FEF764FB03469BB22380FB69AB
:101F78009B00BA68D418B869FEF75AFB03469BB2AF
:101F88002380FB699B000233BA68D4187869FEF78E
:101F98004FFB03469BB22380FB690133FB61FB695E
:101FA8007F2BC3D92437BD4690BD00BF80B588B00C
:101FB80000AFF860B9607A60786813F09BFB7B68C3
:101FC800002B26D10023FB611FE0FB690133BB61B5
:101FD800FB6902337B61FB699B00FA681344BA69A9
:101FE80091B27A6912040A441A60FB69DB00BA6884
:101FF8001344BA691A60FB69DB000433BA681344F6
:102008007A691A60FB690133FB61FB697F2BDCD9B4
:102018002BE00023FB6125E0FEF7D4FA0346C3F367
:102028000C03BB61FEF7CEFA0346C3F30C037B61D6
:10203800FB699B00FA681344BA6991B27A69120481
:102048000A441A60FB69DB00BA681344BA691A606B
:10205800FB69DB000433BA6813447A691A60FB69C8
:102068000133FB61FB697F2BD6D92037BD4680BD84
:1020780080B485B000AF786039600023FB6018E059
:10208800FB685B003A681344FA68920079680A446E
:1020980012881A80FB6801335B003A681344FA68B7
:1020A8000132920079680A4412881A80FB68023368
:1020B800FB60FB687F2BE3DD0023FB601BE0FB6814
:1020C80080335B003A681344FA68920002327968F8
:1020D8000A4412881A80FB6881335B003A6813440B
:1020E800FA6801329200023279680A4412881A802A
:1020F800FB680233FB60FB687F2BE0DD1437BD46CD
:102108005DF8047B704700BF80B588B000AFF86009
:10211800B9607A60F86813F0EDFAFB68002B27D1F4
:102128000023FB6120E0FB695B00BB61FB695B008E
:1021380001337B61FB699B00BA681344BA6991B2A9
:102148007A6912040A441A60FB69DB007A6813444E
:10215800BA691A60FB69DB0004337A6813447A6948
:102168001A60FB690133FB61FB697F2BDBD92BE02C
:102178000023FB6125E0FEF725FA0346C3F30C03B1
:10218800BB61FEF71FFA0346C3F30C037B61FB69CF
:102198009B00BA681344BA6991B27A6912040A4476
:1021A8001A60FB69DB007A681344BA691A60FB6934
:1021B800DB0004337A6813447A691A60FB690133D7
:1021C800FB61FB697F2BD6D92037BD4680BD00BF98
:1021D8002DE9F05F83466E4A6E4DDFF8BC81DFF86B
:1021E800BC914FF0FF310EB513F08CFA40F000406F
:1021F800BDE80E40DFF8A8C1C4B24FEA102001289C
:1022080000F307800EB513F07DFA40F00040BDE8FA
:102218000E40135D5C0980F007804008C0F0A28082
:10222800A5EB030300F09EB8B0FA80F41A2C40F333
:1022380007800EB513F066FA40F00040BDE80E4086
:1022480003F0070600F01F0404EB46144FEA501091
:10225800012800F307800EB513F054FA40F000404F
:10226800BDE80E4019F804309C0980F0098003F09D
:102278001F034008C0F07680A5EB030300F072B896
:1022880003F00F064FF0000400F0010A40080AEBC3
:102298004606012800F307800EB513F033FA40F024
:1022A8000040BDE80E4058F824A04FF01703BAFAD2
:1022B8008AF707F101070AFA07FAA3EB0703013EB9
:1022C80000F14B80BAF1000F7FF4F1AF04F1010483
:1022D800082CFFF6D9AFDFF8CC9000F0010A4FEADE
:1022E80050000AEB4606012800F307800EB513F0EC
:1022F80009FA40F00040BDE80E4059F824A0BAF1B0
:10230800000F00F011804FF03703BAFA8AF707F18F
:1023180001070AFA07FAA3EB0703013E00F11B8045
:10232800BAF1000F7FF4F1AF4FF0170358F824A06B
:10233800BAFA8AF707F101070AFA07FAA3EB0703C3
:10234800013E00F10880BAF1000F7FF4F1AF04F10B
:102358000104FFF7C2BFDFF844904008C0F00280D4
:10236800A5EB0303B0FA80F6172E40F307800EB5ED
:1023780013F0C8F940F00040BDE80E4001F101013A
:102388002BF8113061457FF437AFBDE8F09F0000AE
:1023980058000020011E0000E45F002058010020C2
:1023A800FF000000646100202DE9F05F83467B4A4E
:1023B8007B4DDFF8F081DFF8F0914FF0FF310EB57B
:1023C80013F0A0F940F00040BDE80E40DFF8DCC192
:1023D800C4B24FEA1020012800F307800EB513F0AD
:1023E80091F940F00040BDE80E40135D5C0980F0B3
:1023F80007804008C0F0A480A5EB030300F0A0B854
:10240800B0FA80F41A2C40F307800EB513F07AF96D
:1024180040F00040BDE80E4003F0070600F01F043E
:1024280004EB46144FEA5010012800F307800EB55C
:1024380013F068F940F00040BDE80E4019F8043088
:102448009C0980F0098003F01F034008C0F07880E1
:10245800A5EB030300F074B803F00F064FF0000477
:1024680000F0010A40080AEB4606012800F307803D
:102478000EB513F047F940F00040BDE80E4058F89B
:1024880024A04FF01703BAFA8AF707F101070AFAEE
:1024980007FAA3EB0703013E00F14B80BAF1000FE6
:1024A8007FF4F1AF04F10104082CFFF6D9AFDFF88F
:1024B800009100F0010A4FEA50000AEB4606012895
:1024C80000F307800EB513F01DF940F00040BDE899
:1024D8000E4059F824A0BAF1000F00F011804FF017
:1024E8003703BAFA8AF707F101070AFA07FAA3EBE2
:1024F8000703013E00F11B80BAF1000F7FF4F1AF32
:102508004FF0170358F824A0BAFA8AF707F1010721
:102518000AFA07FAA3EB0703013E00F10880BAF1B3
:10252800000F7FF4F1AF04F10104FFF7C2BFDFF839
:1025380078904008C0F01B80A5EB030300F017B8A3
:10254800B0FA80F6172E40F307800EB513F0DAF8CC
:1025580040F00040BDE80E4001F101012BF81130B8
:1025680061457FF435AF0CF10100BDE8F09FB0FA8A
:1025780080F6172E40F307800EB513F0C3F840F02D
:102588000040BDE80E402BF81C30ACF1010C614551
:102598007FF41EAF0CF10100BDE8F09F5800002049
:1025A800011E0000E45F002058010020FF00000029
:1025B800646100200146DFF8DC3983FB0103DA0A95
:1025C80013019B1A02EB4323C81AF746DFF8C81910
:1025D800B0FBF1F201FB1200F746DFF8B83901460B
:1025E80083FB0103DA12B2EBE17213019B1A02EBCF
:1025F8004323C81AF7460028C0F20C800146DFF8CA
:10260800943983FB0103DA0A13019B1A02EB432373
:10261800C81AF746DFF8801990FBF1F24FF0010372
:10262800A3EB020303FB0100F746DFF86839014614
:1026380083FB0103DA12B2EBE17213019B1A02EB7E
:102648004323C81A002980F20380DFF84C19084494
:10265800F7460028C0F20C800146DFF8383983FBC2
:102668000103DA0A13019B1A02EB4323C81AF7463F
:10267800DFF8202982FB0012D212C317D21ADFF822
:1026880018194FF00103A3EB020303FB0100F746FF
:102698000028C0F20C800146DFF8F83883FB0103FC
:1026A800DA0A13019B1A02EB4323C81AF746C0F152
:1026B80000000146DFF8DC3883FB0103DA0A130166
:1026C8009B1A02EB4323C81ADFF8CC18A1EB0000D1
:1026D800F746DFF8C4180028BABF40420B4600236B
:1026E800B0FBF1F202FB1102A3EB02021046F7461F
:1026F800DFF8A4180028BABF40420B460023B0FBFD
:10270800F1F202FB1102A3EB0200F7462DE930407B
:10271800DFF8803881B2A3FB0124E20A1401A41A6D
:1027280002EB44240D1B1FFAA0F1A3FB0124E20ACB
:102738001401A41A02EB44240B1B05EB0340BDE86B
:1027480030802DE9F040DFF850784FF0000351F861
:10275800234052F8235094FA45F4A6B2BE4258BF1B
:10276800F61B4FEA1444BC4258BFE41B06EB044472
:1027780040F8234003F10103802B7FF4E8AFBDE864
:10278800F0802DE9F041DFF810884FF0000351F890
:10279800234052F8235014FB35F6B6FBF8F708FB34
:1027A800176614FB05F4B4FBF8F708FB174404EBB1
:1027B800064440F8234003F10103802B7FF4E7AF80
:1027C800BDE8F0812DE9F047DFF8CC874FF0000A2B
:1027D80051F82A4052F82A5053F82A9014FB35F63B
:1027E80006EB1946B6FBF8F708FB176614FB05F469
:1027F8001FFA89F94C44B4FBF8F708FB174404EBBB
:10280800064440F82A400AF1010ABAF1800F7FF421
:10281800DFAFBDE8F0872DE9F001DFF87C874FF0E6
:10282800000351F8234052F82350D4FA05F634B285
:10283800002CB8BF6442B4FBF8F707FB1847B8BFD1
:10284800A8EB07070FFAA6F5002DB8BF6D42B5FB38
:10285800F8F404FB1854B8BFA8EB040407EB0444CD
:1028680040F8234003F10103802B7FF4DAAFBDE881
:10287800F001F7462DE9F05FDFF81C17DFF81C3789
:1028880008B44FF0020208BC1C6803F1020308B444
:102898004FF001084FF000064FF0000706EB07095C
:1028A80050F829301FFA83FA13FB28FBBBFBF1FC15
:1028B80001FB1CBB0AEB0B0C8C4558BFACEB010CA5
:1028C800BAEB0B0E48BF8E4409EB520950F8293079
:1028D80013FB28FB9BB2BBFBF1FA01FB1ABBB3EB62
:1028E8000B0A48BF8A440EEB0A4A40F829A003EBBA
:1028F8000B0A8A4558BFAAEB010A0CEB0A4C06EBF7
:10290800070940F829C01744802FFFF6C7AF18FB06
:1029180004F8B8FBF1F901FB198806F10106B6EBDA
:10292800520F3FF5B9AF4FEA4202802A7FF7ABAFAB
:102938004FF434644FF001084FF0000950F8293083
:102948001FFA83FA13FB28FBBBFBF1FC01FB1CBB42
:102958000AEB0B0C8C4558BFACEB010CBAEB0B0E19
:1029680048BF8E440CEB0E4C40F829C018FB04F805
:10297800B8FBF1F301FB138809F10109B9F1800FE4
:10298800FFF6DCAFDFF81836DFF81846DFF8187600
:102998004FF001084FF0000950F829A01AFB08FB76
:1029A800BBFBF1FC01FB1CBB1BFB07FBBBFBF1FCEE
:1029B80001FB1CBB1AFB23FEBEFBF1FC01FB1CEE5A
:1029C8001EFB07FEBEFBF1FC01FB1CEE0BEB0E4BE6
:1029D80040F829B018FB04F8B8FBF1FA01FB1A8893
:1029E80013FB04F3B3FBF1FA01FB1A3309F10109F4
:1029F800B9F1800FFFF6D0AF08BCBDE8F09F2DE914
:102A0800F05FDFF89415DFF8A43508B44FF0020240
:102A180008BC1C681FFAA4F8A4B203F1020308B4A6
:102A28004FF000064FF0000706EB070950F8293071
:102A38001FFA83FA13FB28FBBBFBF1FC01FB1CBB51
:102A48000AEB0B0C8C4558BFACEB010CBAEB0B0E28
:102A580048BF8E4409EB520950F8293013FB28FB74
:102A68009BB2BBFBF1FA01FB1ABBB3EB0B0A48BFE5
:102A78008A440EEB0A4A40F829A003EB0B0A8A4560
:102A880058BFAAEB010A0CEB0A4C06EB070940F801
:102A980029C01744802FFFF6C7AF18FB04F8B8FB0E
:102AA800F1F901FB198806F10106B6EB520F3FF563
:102AB800B9AF4FEA4202802A7FF7AAAFDFF8F044A5
:102AC800DFF8F0844FF0000950F829301FFA83FA34
:102AD80013FB28FBBBFBF1FC01FB1CBB0AEB0B0C3B
:102AE8008C4558BFACEB010CBAEB0B0E48BF8E44BB
:102AF8000CEB0E4C40F829C018FB04F8B8FBF1F3B6
:102B080001FB138809F10109B9F1800FFFF6DCAF69
:102B180008BCBDE8F09F2DE9F05FDFF87C14DFF812
:102B28008C3408B44FF0020208BC1C681FFAA4F8E1
:102B3800A4B203F1020308B44FF000064FF00007F7
:102B480006EB070950F829301FFA83FA13FB28FB14
:102B5800BBFBF1FC01FB1CBB0AEB0B0C8C4558BF03
:102B6800ACEB010CBAEB0B0E48BF8E4409EB5209D3
:102B780050F8293013FB28FB9BB2BBFBF1FA01FB91
:102B88001ABBB3EB0B0A48BF8A440EEB0A4A40F85B
:102B980029A003EB0B0A8A4558BFAAEB010A0CEBE4
:102BA8000A4C06EB070940F829C000F5007006EB4F
:102BB800070950F829301FFA83FA13FB28FBBBFBDF
:102BC800F1FC01FB1CBB0AEB0B0C8C4558BFACEBB2
:102BD800010CBAEB0B0E48BF8E4409EB520950F8B2
:102BE800293013FB28FB9BB2BBFBF1FA01FB1ABB94
:102BF800B3EB0B0A48BF8A440EEB0A4A40F829A0F7
:102C080003EB0B0A8A4558BFAAEB010A0CEB0A4CE6
:102C180006EB070940F829C000F5007006EB070924
:102C280050F829301FFA83FA13FB28FBBBFBF1FC91
:102C380001FB1CBB0AEB0B0C8C4558BFACEB010C21
:102C4800BAEB0B0E48BF8E4409EB520950F82930F5
:102C580013FB28FB9BB2BBFBF1FA01FB1ABBB3EBDE
:102C68000B0A48BF8A440EEB0A4A40F829A003EB36
:102C78000B0A8A4558BFAAEB010A0CEB0A4C06EB73
:102C8800070940F829C0A0F580601744802FFFF697
:102C980057AF18FB04F8B8FBF1F901FB198806F1E6
:102CA8000106B6EB520F3FF549AF4FEA4202802AC0
:102CB8007FF73AAFBE4CDFF8FC824FF0000950F8BE
:102CC80029301FFA83FA13FB28FBBBFBF1FC01FB3D
:102CD8001CBB0AEB0B0C8C4558BFACEB010CBAEBD8
:102CE8000B0E48BF8E440CEB0E4C40F829C000F583
:102CF800007050F829301FFA83FA13FB28FBBBFB3E
:102D0800F1FC01FB1CBB0AEB0B0C8C4558BFACEB70
:102D1800010CBAEB0B0E48BF8E440CEB0E4C40F87E
:102D280029C000F5007050F829301FFA83FA13FB08
:102D380028FBBBFBF1FC01FB1CBB0AEB0B0C8C4515
:102D480058BFACEB010CBAEB0B0E48BF8E440CEB32
:102D58000E4C40F829C0A0F5806018FB04F8B8FBB9
:102D6800F1F301FB138809F10109B9F1800FFFF6AE
:102D7800A6AF08BCBDE8F09F2DE910404FF0010157
:102D880091FAA1F24FEA52628A4240F3088050F861
:102D9800213050F8224040F8214040F8223001F11B
:102DA80001018029FFF6ECAFBDE810802DE9F04065
:102DB800794C07464FF000050EB512F0A3FCBDE8AC
:102DC8000E4086B2B6FBF4F104FB11661FFAA0F0C0
:102DD800B0FBF4F104FB110006EB004647F8256050
:102DE80005F10105802D7FF4E7AF3846FFF707FEB0
:102DF800BDE8F0802DE9F04104464FF4F0574FF05C
:102E080000090EB512F07EFCBDE80E4000F0010688
:102E18008008C0F0028006FB07F600F00108800871
:102E2800C0F0028008FB07F806EB084644F8296062
:102E380009F1010900F001068008C0F0028006FBD4
:102E480007F600F001088008C0F0028008FB07F8C8
:102E580006EB084644F8296009F1010900F001066B
:102E68008008C0F0028006FB07F600F00108800821
:102E7800C0F0028008FB07F806EB084644F8296012
:102E880009F1010900F001068008C0F0028006FB84
:102E980007F600F001088008C0F0028008FB07F878
:102EA80006EB084644F8296009F1010900F001061B
:102EB8008008C0F0028006FB07F600F001088008D1
:102EC800C0F0028008FB07F806EB084644F82960C2
:102ED80009F1010900F001068008C0F0028006FB34
:102EE80007F600F001088008C0F0028008FB07F828
:102EF80006EB084644F8296009F1010900F00106CB
:102F08008008C0F0028006FB07F600F00108800880
:102F1800C0F0028008FB07F806EB084644F8296071
:102F280009F1010900F001068008C0F0028006FBE3
:102F380007F600F001088008C0F0028008FB07F8D7
:102F480006EB084644F8296009F10109B9F1800F38
:102F580000F00480B9F1800F7FF453AF2046FFF7EB
:102F68004EFDBDE8F081F74630B4134A4FF0000536
:102F780051F8253013FB02F413FB22F304EB03444E
:102F880040F8254005F10105802D7FF4F1AF30BCF4
:102F9800F7460000CDFD4144011E00004800002016
:102FA800370D0000B1090000E31D000038000020C3
:102FB800FE13000029040000000F000080B582B055
:102FC80000AF78607868FFF703F97868FFF717FDB6
:102FD8000837BD4680BD00BF80B5ADF5047D00AFA4
:102FE80007F10C03186007F1080319603B1D1A600C
:102FF80007F10C031868FFF7D9FE07F108031868F2
:10300800FFF7DCFF3B1D1868FFF7F4FE07F110011E
:1030180007F10C023B1D084611681A68FFF7B1FB5F
:1030280007F1080107F1080207F1100308681168A1
:103038001A46FFF7F0FB3B1D1868FFF79DFE07F5E2
:103048000477BD4680BD00BF80B584B000AFF8608E
:10305800B9607A60F868F9687A68BB68FFF7B2FB0C
:10306800F868FFF707FC1037BD4680BD90B5ADF591
:10307800057D00AF07F10C04206007F1080001602E
:10308800391D0A603A46136007F110023B461046A4
:103098001968FFF769FF1948FFF79AF81848FFF70A
:1030A80097F81848FFF794F807F1100315481549E1
:1030B8001A46FFF746FB1148FFF72DFD07F10802F6
:1030C80007F10C03106819680C4A0D4BFFF77AFBDF
:1030D8003B1D1868D7F82012084A0A4BFFF772FB05
:1030E80007F108031868FFF747FE3B1D1868FFF74C
:1030F80043FE07F50577BD4690BD00BFD06F0020A1
:10310800D0710020D073002090B585B000AF7860F2
:103118000023FB6013E0FB685B007A68D41812F0A8
:10312800F1FA0246094B1340002B03DA013B63F026
:10313800010301339BB22380FB680133FB60FB680A
:10314800FF2BE8DD1437BD4690BD00BF01000080AD
:1031580080B485B000AF786039600023FB6018E068
:10316800FB68DA0F13445B109B003A681344FA6853
:10317800920079680A44126891B2FA6801329200A2
:1031880078680244126812040A441A60FB68023321
:10319800FB60FB687F2BE3DD0023FB601AE0FB6824
:1031A800DA0F13445B1040339B003A681A44FB68FB
:1031B8009B0079680B441B68190CFB6801339B0062
:1031C800786803441B681B0C1B040B441360FB68E2
:1031D8000233FB60FB687F2BE1DD1437BD465DF8E9
:1031E800047B704780B483B000AF786039603B6877
:1031F8009AB27B681B681B0C1B041A447B681A6014
:103208000C37BD465DF8047B704700BF80B483B0BF
:1032180000AF786039603B681A047B681B689BB212
:103228001A447B681A600C37BD465DF8047B70470A
:1032380080B592B000AF786000237B640CE17A6CB3
:10324800894B1340002B03DA013B63F00103013380
:10325800FB637B6C5A10844B1340002B03DA013B51
:1032680063F001030133BB637B6C9A107E4B134000
:10327800002B03DA013B63F0010301337B637B6CB2
:10328800DA10794B1340002B03DA013B63F001039A
:1032980001333B637B6C1A11734B1340002B03DA29
:1032A800013B63F001030133FB627B6C5A116E4BE7
:1032B8001340002B03DA013B63F001030133BB62C7
:1032C8007B6C9A11684B1340002B03DA013B63F0C7
:1032D800010301337B627B6CDA11634B1340002BD3
:1032E80003DA013B63F0010301333B627B6CDA0FC5
:1032F80013445B10FB617A6C5B4B1340002B03DAC1
:10330800013B63F001030133BB61FB6B5A00BB6BEC
:1033180013445A007B6B13445A003B6B13445A0006
:10332800FB6A13445A00BB6A13445A007B6A13446D
:103338005A003B6A13447B617B69DA0F13445B10C4
:103348003B617A69484B1340002B03DA013B63F079
:1033580001030133FB607A697B6C9A4279DDFB6873
:10336800002B06D13B699B007A6813441B689BB20B
:103378003B64FB68012B06D13B699B007A681344C8
:103388001B681B0C3B64FB68002B0FD1BB69002B2F
:103398000CD13B699B007A681A44FB699B007968E9
:1033A8000B441B6810461946FFF71CFFFB68002BEF
:1033B80010D1BB69012B0DD13B699B007A681A4477
:1033C800FB699B0079680B441B681B0C1046194667
:1033D800FFF708FFFB68012B0FD1BB69002B0CD14D
:1033E8003B699B007A681A44FB699B0079680B4427
:1033F8001B6810461946FFF709FFFB68012B10D11F
:10340800BB69012B0DD13B699B007A681A44FB69A3
:103418009B0079680B441B681B0C10461946FFF784
:10342800F5FEBB69002B08D1FB699B007A681A443A
:103438003B6C10461946FFF7D5FEBB69012B08D136
:10344800FB699B007A681A443B6C10461946FFF7E3
:10345800DDFE7B6C01337B647B6CFF2B7FF7EFAE6B
:103468004837BD4680BD00BF0100008080B584B0EC
:1034780000AFF860B9607A60F868FFF7C0FAB8681A
:10348800FFF7BDFA7868F968BA68FFF77AF97868DB
:10349800FFF772FC7868FFF7EDF91037BD4680BD7D
:1034A80080B586B000AF78607868FEF77DFF7861F8
:1034B80021E0FDF797F80346DBB23B617A693B6987
:1034C8009A4218D93B695B007A6813441B88FB81D0
:1034D8003B695B007A6813447A69520079680A4448
:1034E80012881A807B695B007A681344FA891A800B
:1034F8007B6901337B617B69FF2BDADD1837BD46B9
:1035080080BD00BF80B485B000AF7860396000230B
:103518007B7204E07B681B685A1C7B681A607B68B6
:103528001B681B78FB72FB7A202BF3D0FB7A2D2BC0
:103538000AD101237B727B681B685A1C7B681A605E
:103548007B681B681B78FB72FB7A302B39D17B6850
:103558001B685A1C7B681A607B681B681B78FB72A7
:10356800FB7A202B04D83B6800221A6001236CE008
:10357800FB7A782B0BD11023BB727B681B685A1C13
:103588007B681A607B681B681B78FB7223E0FB7AF8
:10359800622B0BD10223BB727B681B685A1C7B68A9
:1035A8001A607B681B681B78FB7214E0FB7A2F2B70
:1035B80005D9FB7A392B02D80823BB720BE000230C
:1035C80043E0FB7A302B02D9FB7A392B01D900234F
:1035D8003BE00A23BB720023FB6029E0FB7A602BE7
:1035E80002D9FB7A203BFB72FB7A303BFB72FB7AF9
:1035F800102B07D9FB7A073BFB72FB7A092B01D802
:10360800002322E0FA7ABB7A9A4201D300231CE015
:10361800BB7AFA6802FB03F2FB7A1344FB607B680F
:103628001B685A1C7B681A607B681B681B78FB72D6
:10363800FB7A202BD2D87B7A002B02D0FB685B4226
:10364800FB60FA683B681A60012318461437BD46C8
:103658005DF8047B704700BF80B582B000AF0346B9
:10366800FB71FB790A2B02D10D2000F009FBFB79D5
:10367800184600F005FB0837BD4680BD80B582B00E
:1036880000AF786006E07B685A1C7A601B781846A1
:10369800FFF7E2FF7B681B78002BF4D10837BD46A3
:1036A80080BD00BF80B58CB000AFF860B9607A60AB
:1036B800002387F82E30202387F82D30002387F841
:1036C8002C30BB68002B0BDABB685B42BB60FB6825
:1036D800002B05DAFB685B42FB602D2387F82E3050
:1036E800FB68BB62BB6887F827307B68002B05DA6C
:1036F8007B685B427B60302387F82D307B68142B16
:1037080062DC97F82720BB6AB3FBF2F102FB01F2F7
:103718009B1A87F82F3097F82F30092B04D997F880
:103728002F30073387F82F3097F82F30303387F84A
:103738002F3097F82C305A1C87F82C2007F13002CC
:10374800134497F82F2003F8202C97F82730BA6AEB
:10375800B2FBF3F3BB62BB6A002BD2D197F82E30D1
:10376800002B0CD097F82C305A1C87F82C2007F126
:103778003002134497F82E2003F8202C0CE00BE0BD
:1037880097F82C305A1C87F82C2007F13002134484
:1037980097F82D2003F8202C97F82C207B689A4264
:1037A800EEDB97F82C30013B87F82C3097F82C305B
:1037B80007F13002134413F8203C1846FFF74CFF7A
:1037C80097F82C30002BECD13037BD4680BD00BFB8
:1037D8000FB480B586B000AF07F124033B60A2E0C8
:1037E8007B69252B05D07B69DBB21846FFF734FFD0
:1037F80099E03B6A5A1C3A621B787B6100237B6024
:103808007B68BB60BB683B613B69FB607B69302BB5
:1038180007D13B6A5A1C3A621B787B610123BB6063
:1038280011E010E0FA6813469B0013445B001A4647
:103838007B69303B1344FA681344FB603B6A5A1CAB
:103848003A621B787B617B692F2B02DD7B69392B00
:10385800E8DDBB68002B02D0FB685B42FB607B693C
:103868006C2B06D101237B603B6A5A1C3A621B7899
:103878007B617B69002B00D15EE07B69732B07D1EC
:103888003B681A1D3A601B681846FFF7F7FE4AE0C6
:103898007B69632B08D13B681A1D3A601B68DBB251
:1038A8001846FFF7D9FE3EE07B69752B01D10A2344
:1038B8003B617B69642B02D16FF009033B617B6933
:1038C800582B02D07B69782B01D110233B617B698F
:1038D800622B01D102233B613B69002B00D12BE015
:1038E8007B68002B09D03B681A1D3A601B68184694
:1038F8003969FA68FFF7D6FE15E03B69002B09DD48
:103908003B681A1D3A601B6818463969FA68FFF760
:10391800C9FE08E03B681A1D3A601B6818463969F9
:10392800FA68FFF7BFFE3B6A5A1C3A621B787B6154
:103938007B69002B7FF454AF1837BD46BDE8804043
:1039480004B0704780B586B000AFF860B9607A609F
:103958001F48B968FFF73CFF0023FB750AE0FB7DB1
:10396800FA6813441B781B481946FFF731FFFB7DA3
:103978000133FB75FA7D7B689A42F0DB2020FFF764
:103988006BFE0023FB7519E0FB7DFA6813441B7876
:103998001F2B05D9FB7DFA6813441B787E2B03D9AE
:1039A8002E20FFF759FE06E0FB7DFA6813441B78CA
:1039B8001846FFF751FEFB7D0133FB75FA7D7B68E6
:1039C8009A42E1DB0A20FFF747FE1837BD4680BD63
:1039D800408301084883010880B584B000AF78604F
:1039E80039600023FB6000F043F90346FB72FB7A61
:1039F8000D2B00D128E0FB7A082B10D1FB68002B97
:103A08000DD0FB68013BFB60FB7A1846FFF724FEEC
:103A18002020FFF721FEFB7A1846FFF71DFEFB7AF0
:103A28001F2B10D93B685A1EFB689A420BDDFB68B6
:103A38005A1CFA607A681344FA7A1A70FB7A1846A4
:103A4800FFF70AFECFE7CEE7FB687A681344002247
:103A58001A700A20FFF700FE1037BD4680BD00BF70
:103A680080B588B000AFF860B9607A600023FB6168
:103A780000F0F6F80346002B3ED07B681B68BB615C
:103A880000F0F6F80346FB75FB7D0D2B0AD1BB69E8
:103A9800FA68134400221A700A20FFF7DDFD01239B
:103AA800FB6126E0FB7D082B10D1BB69002B0DD0F4
:103AB800BB69013BBB61FB7D1846FFF7CDFD2020AC
:103AC800FFF7CAFDFB7D1846FFF7C6FDFB7D1F2BE0
:103AD8000FD9BB685A1EBB699A420ADDBB695A1CDA
:103AE800BA61FA681344FA7D1A70FB7D1846FFF72D
:103AF800B3FD7B68BA691A60FB6918462037BD4672
:103B080080BD00BF80B58AB000AF78601020012169
:103B18000BF086FD022001210BF00AFDC0233B6259
:103B2800022387F82430022387F82530002387F8FA
:103B38002630012387F8273007F120031C4819464F
:103B480009F080FC1A480621072209F0E9FD184807
:103B58000721072209F0E4FD7B683B610023BB8253
:103B68000023FB8200233B830023BB830C237B833E
:103B780007F110030F4819460FF0E8FF0D4840F20F
:103B88002551012210F01CFB25233B7300237B7376
:103B98000023BB730123FB7307F10C03184602F0E3
:103BA800E9F80448012110F0E7F82837BD4680BD40
:103BB800000402400010014080B582B000AF786078
:103BC800396012E000BF7B681B889BB203F040039A
:103BD800002BF8D03B681B78DBB27868194610F0E8
:103BE80049F93B685A1C3A601B783B681B78DBB282
:103BF800002BE7D10837BD4680BD00BF80B582B035
:103C080000AF144840F2255110F04EFB0346002B3C
:103C18001DD0104B9B889BB2FB71FB790A2B0FD0F0
:103C28000D4B1B780B2B0BD80B4B1B780B4AF979D8
:103C3800D154094B1B780133DAB2074B1A7006E0EE
:103C4800054B00221A7003480449FFF7B5FF0837EF
:103C5800BD4680BD00100140EC7500203476002080
:103C680080B400AF1846BD465DF8047B704700BFBE
:103C780080B400AF1846BD465DF8047B704700BFAE
:103C880080B582B000AF0346FB7100BF074B1B88AD
:103C98009BB203F04003002BF8D0FB799BB203489A
:103CA800194610F0E7F80837BD4680BD00100140FE
:103CB80080B500AF4FF41650FFF724FF80BD00BF5A
:103CC80080B586B000AFF860B9607A60BA68FB6802
:103CD800D21A3B6AD31A7B617B687A69B2FBF3F329
:103CE8003B61BB6A012B07D13B691B0A064839694E
:103CF8001A46FFF76DFD03E004483969FFF768FDD0
:103D08001837BD4680BD00BF508301087C83010879
:103D180090B5ADF62C2D04AFA84BA84AD26842F056
:103D28008072DA60A64B00225A60A54BA44A12683A
:103D380042F001021A60A24B5B68C7F8103AA04B28
:103D48005B68C7F80C3AD7F80C2AD7F8103AD31A98
:103D58001A464FF0000307F52061C1E90023D7F8A0
:103D6800003A98481946FFF733FD954B5B68C7F84A
:103D78000C3A4FF47A7011F0BDFC914B00225A6056
:103D88008F4B5B68C7F8103A0023C7F8143A09E06C
:103D980007F500631846FFF783FBD7F8143A013399
:103DA800C7F8143AD7F8143AB3F57A7FF0DB844BA6
:103DB8005B68C7F80C3A8448FFF70AFD07F52061ED
:103DC800D1E90023CDE9002301230293D7F8100A93
:103DD800D7F80C1A4FF47A72FFF772FF4FF47A7023
:103DE80011F088FC764B00225A60754B5B68C7F867
:103DF800103A0023C7F8143A09E007F5006318469B
:103E0800FEF7D2FAD7F8143A0133C7F8143AD7F8BC
:103E1800143AB3F57A7FF0DB694B5B68C7F80C3A64
:103E28006A48FFF7D5FC07F52061D1E90023CDE901
:103E3800002301230293D7F8100AD7F80C1A4FF47D
:103E48007A72FFF73DFF4FF47A7011F053FC5C4B28
:103E580000225A605A4B5B68C7F8103A0023C7F82B
:103E6800143A09E007F500631846FEF7B1F9D7F8E8
:103E7800143A0133C7F8143AD7F8143AB3F57A7FED
:103E8800F0DB4F4B5B68C7F80C3A5148FFF7A0FCD2
:103E980007F52061D1E90023CDE90023012302932E
:103EA800D7F8100AD7F80C1A4FF47A72FFF708FF00
:103EB8004FF47A7011F01EFC414B00225A60404BBF
:103EC8005B68C7F8103A0023C7F8143A0FE007F503
:103ED800006107F5C06207F58063084611461A4677
:103EE800FFF7C4FAD7F8143A0133C7F8143AD7F8E9
:103EF800143AB3F57A7FEADB314B5B68C7F80C3AC2
:103F08003448FFF765FC07F52061D1E90023CDE9C6
:103F1800002300230293D7F8100AD7F80C1A4FF49D
:103F28007A72FFF7CDFE4FF47A7011F0E3FB244B61
:103F380000225A60224B5B68C7F8103A0023C7F882
:103F4800143A10E007F5006007F5C06107F58062D4
:103F580007F500733C460094FFF788F8D7F8143A41
:103F68000133C7F8143AD7F8143AB3F57A7FE9DB86
:103F7800134B5B68C7F80C3A1748FFF729FC07F59D
:103F88002061D1E90023CDE9002300230293D7F86B
:103F9800100AD7F80C1A4FF47A72FFF791FE4FF413
:103FA8007A7011F0A7FB064B00225A60044B5B683D
:103FB800C7F8103A0023C7F8143A1FE0F0ED00E004
:103FC800001000E098830108AC830108D883010839
:103FD800F0830108008401081484010807F50061D2
:103FE80007F5C06207F58063084611461A46FFF7D1
:103FF8002BF8D7F8143A0133C7F8143AD7F8143A1B
:10400800B3F57A7FEADBB24B5B68C7F80C3AB14884
:10401800FFF7DEFB07F52061D1E90023CDE9002396
:1040280000230293D7F8100AD7F80C1A4FF47A72C3
:10403800FFF746FE4FF47A7011F05CFBA44B0022A8
:104048005A60A34B5B68C7F8103A0023C7F8143AC4
:104058000FE007F5006107F5C06207F580630846C1
:1040680011461A46FEF7B8FFD7F8143A0133C7F8D5
:10407800143AD7F8143AB3F57A7FEADB944B5B68C5
:10408800C7F80C3A9448FFF7A3FB07F52061D1E97C
:104098000023CDE9002300230293D7F8100AD7F8AC
:1040A8000C1A4FF47A72FFF70BFE4FF47A7011F086
:1040B80021FB874B00225A60854B5B68C7F8103A92
:1040C8000023C7F8143A09E007F500631846FDF71E
:1040D800E1F8D7F8143A0133C7F8143AD7F8143A84
:1040E800632BF1DD7A4B5B68C7F80C3A7B48FFF726
:1040F8006FFB07F52061D1E90023CDE900230023F8
:104108000293D7F8100AD7F80C1A6422FFF7D8FDE3
:104118004FF47A7011F0EEFA6D4B00225A606C4B36
:104128005B68C7F8103A0023C7F8143A07E06C48F0
:10413800FEF7F1FCD7F8143A0133C7F8143AD7F868
:10414800143A632BF3DD624B5B68C7F80C3A654899
:10415800FFF73EFB07F52061D1E90023CDE90023F5
:1041680000230293D7F8100AD7F80C1A6422FFF735
:10417800A7FD4FF47A7011F0BDFA554B00225A6032
:10418800534B5B68C7F8103A0023C7F8143A09E0A4
:1041980007F500631846FEF732FCD7F8143A0133E6
:1041A800C7F8143AD7F8143A632BF1DD484B5B682B
:1041B800C7F80C3A4C48FFF70BFB07F52061D1E92B
:1041C8000023CDE9002300230293D7F8100AD7F87B
:1041D8000C1A6422FFF774FD4FF47A7011F08AFA12
:1041E8003B4B00225A603A4B5B68C7F8103A0023F1
:1041F800C7F8143A09E007F500631846FEF73AFBDA
:10420800D7F8143A0133C7F8143AD7F8143A632B9D
:10421800F1DD2F4B5B68C7F80C3A3448FFF7D8FA42
:1042280007F52061D1E90023CDE90023002302939B
:10423800D7F8100AD7F80C1A6422FFF741FD4FF49B
:104248007A7011F057FA224B00225A60204B5B68B3
:10425800C7F8103A0023C7F8143A0FE007F50061D1
:1042680007F5C06207F58063084611461A46FEF74F
:1042780068FAD7F8143A0133C7F8143AD7F8143A59
:10428800632BEBDD124B5B68C7F80C3A1848FFF755
:104298009FFA07F52061D1E90023CDE90023002327
:1042A8000293D7F8100AD7F80C1A6422FFF708FD12
:1042B8004FF47A7011F01EFA054B00225A60044B35
:1042C8005B68C7F8103A0023C7F8143A22E000BF29
:1042D800001000E0248401083484010844840108A3
:1042E800D06F002050840108688401087884010890
:1042F8008884010807F5006107F5C06207F5806347
:10430800084611461A46FEF73CFAD7F8143A013324
:10431800C7F8143AD7F8143A632BEBDD0C4B5B68FB
:10432800C7F80C3A0B48FFF753FA07F52061D1E9B3
:104338000023CDE9002300230293D7F8100AD7F809
:104348000C1A6422FFF7BCFC07F61C27BD4690BD7B
:10435800001000E0A084010880B483B000AF78604A
:1043680039607B681A683B681B68D31A18460C3793
:10437800BD465DF8047B704780B483B000AF7860B9
:1043880039607B681B881A463B681B88D31A184615
:104398000C37BD465DF8047B704700BF80B485B01C
:1043A80000AF786039600023FB600DE0FB685B00BC
:1043B8003A681344FA68920079680A44126892B21B
:1043C8001A80FB680133FB60FB68FF2BEEDD1437B6
:1043D800BD465DF8047B704780B586B000AFF860D5
:1043E800B9607A6000237B6114E07B695B00FA683E
:1043F80013441A887B695B00B9680B441B889A428E
:1044080005D009487969FFF7E3F9002307E07B69DC
:1044180001337B617A697B689A42E6DB012318469F
:104428001837BD4680BD00BFB884010890B5ADF50A
:10443800F15D81B002AFC348FFF720F9C248FFF72A
:104448001DF9002307F5F05101F10C010B60002361
:1044580007F5F05202F1140213609FE007F5F053DC
:1044680003F114031A68B94B83FB02135911D317CC
:10447800CB1A642101FB03F3D31A002B02D1B448F1
:10448800FFF7A6F907F5F05202F11402136807F5D1
:10449800F05101F114010A6802FB03F3184611F008
:1044A80029F907F5E0531846FCF78CF907F5F0529F
:1044B80002F11402136807F5F05101F114010A68BA
:1044C80002FB03F3184611F015F907F5D053184607
:1044D800FCF744F907F5F05202F11402136807F5E6
:1044E800F05101F114010A6802FB03F3184611F0B8
:1044F80001F907F5C0531846FEF7D2FF07F5C05279
:1045080007F5E053104619464FF48072FFF764FF31
:104518000346012B0ED08F4807F5F05202F1140222
:104528001168FFF755F9012307F5F05101F10C0166
:104538000B603BE007F5E05318464FF48071022208
:10454800854B10F029FE07F5D05318464FF48071BB
:104558000222814B10F020FE07F5D05207F5E053F8
:10456800104619464FF48072FFF736FF0346012BB9
:1045780009D07A48FFF782F8012307F5F05202F1D3
:104588000C02136012E007F5F05101F114010B68F9
:10459800013307F5F05202F11402136007F5F051E8
:1045A80001F114010B68092B7FF758AF07F5F0529A
:1045B80002F10C021368012B03D16948FFF75EF87A
:1045C80002E06848FFF75AF86748FFF701F9002347
:1045D80007F5F05101F10C010B60002307F5F052CB
:1045E80002F11402136054E007F5F05303F11403C9
:1045F8001A68564B83FB02135911D317CB1A64213F
:1046080001FB03F3D31A002B02D15148FFF7E0F85E
:1046180007F5F05202F114021368184611F06AF80F
:1046280007F5E0531846FDF7D3FD07F5F05101F102
:1046380014010B68184611F05DF807F5D0531846B9
:10464800FCF758F807F5D05207F5E053104619461D
:104658004FF48072FFF7C0FE0346012B0ED043488B
:1046680007F5F05202F114021168FFF7B1F80123BF
:1046780007F5F05101F10C010B6011E007F5F0525C
:1046880002F114021368013307F5F05101F1140126
:104698000B6007F5F05202F114021368092BA3DD31
:1046A80007F5F05101F10C010B68012B08D13048D6
:1046B80007F5F05202F114021168FFF789F802E0D9
:1046C8002C48FFF785F8002307F5F05101F10C019C
:1046D8000B602948FFF77CF8002307F5F05202F138
:1046E8001402136055E007F5F05101F114010B684D
:1046F800184610F0FFFF07F5E0531846FEF77AFB5F
:1047080007F5F05202F114021368184610F0F2FF90
:1047180007F5D0531846FCF70DFC07F5E05207F5EE
:10472800D053104619464FF48072FFF755FE0346E2
:10473800012B23D0012307F5F05101F10C010B6087
:104748002EE000BFC0840108CC8401081F85EB510E
:10475800E4840108E8840108814300080C85010805
:10476800248501082C850108348501084485010841
:104778004C850108588501085C85010807F5F05249
:1047880002F114021368013307F5F05101F1140125
:104798000B6007F5F05202F114021368092BA2DD31
:1047A80007F5F05101F10C010B68012B08D1BC4849
:1047B80007F5F05202F114021168FFF709F802E058
:1047C800B848FFF705F8B848FEF758FF002307F583
:1047D800F05101F10C010B60012307F5F05202F1D1
:1047E800140213605BE007F5F05101F114010B6846
:1047F800184610F07FFF07F5F05202F11402136813
:104808005B0007F5805107F5E052084611461A4645
:10481800FDF780FB07F5F05101F114010B685B000F
:10482800013307F5905107F5D052084611461A464C
:10483800FDF770FB07F5A05107F5E05207F5D053D7
:10484800084611461A46FDF77CFF07F5B05107F5F3
:10485800E05207F5D053084611461A46FDF7E2F92B
:1048680007F5A05207F5B053104619464FF4807269
:10487800FFF7B2FD0346012B06D0012307F5F052DE
:1048880002F10C02136018E007F5F05101F1140170
:104898000B68013307F5F05202F11402136007F5B3
:1048A800F05101F114010B68092B06DC07F5F052F1
:1048B80002F10C021368002B95D007F5F05101F1B5
:1048C8000C010B68012B08D1784807F5F05202F16A
:1048D80014021168FEF77CFF02E07248FEF778FFC9
:1048E8007348FEF775FF002307F5F05101F10C013D
:1048F8000B60002307F5F05202F11402136069E01F
:1049080007F5F05101F114010B68184610F0F2FE9A
:1049180007F5F05303F114031A6807F61863183BF8
:1049280007F5E0511846FDF7F5FA07F5F05101F1E2
:1049380014010B68013307F5805107F5D05208467A
:1049480011461A46FDF7E6FA07F5F05202F114028D
:104958001368023307F5905107F5C052084611460F
:104968001A46FDF7D7FA07F5A05107F61863183B62
:1049780007F5805207F59054084619462346FDF777
:1049880021FF07F5B05007F5E05107F5D05207F5BC
:10499800C053FDF76FF907F5A05207F5B05310465D
:1049A80019464FF48072FFF717FD0346012B06D016
:1049B800012307F5F05101F10C010B6011E007F537
:1049C800F05202F114021368013307F5F05101F1B6
:1049D80014010B6007F5F05202F114021368092B59
:1049E8008EDD07F5F05101F10C010B68012B03D1A5
:1049F8003048FEF7EDFE02E02F48FEF7E9FE2F48AB
:104A0800FEF73CFE002307F5F05202F10C0213609A
:104A1800002307F5F05101F114010B605DE007F583
:104A2800F05303F114031A68254B83FB0213591141
:104A3800D317CB1A642101FB03F3D31A002B02D13D
:104A48002E20FEF709FE07F5F05202F11402136852
:104A580007F5E05107F5D052084611461A46FDF70A
:104A680059FA07F5E0531846FEF7E2FB07F5D0536D
:104A78001846FCF73DFB07F5E05207F5D053104602
:104A880019464FF48072FFF7A7FC0346012B19D093
:104A9800012307F5F05101F10C010B602BE000BF79
:104AA8006C85010858850108788501084C8501083E
:104AB80090850108248501082C850108A88501082E
:104AC8001F85EB5107F5F05202F114021368013308
:104AD80007F5F05101F114010B6007F5F05202F1EE
:104AE80014021368092B06DC07F5F05101F10C01DB
:104AF8000B68002B93D007F5F05202F10C021368F3
:104B0800012B08D1BD4807F5F05303F114031968C8
:104B1800FEF75EFE02E0BA48FEF75AFEB948FEF715
:104B2800ADFD002307F5F05101F10C010B600023E6
:104B380007F5F05202F11402136059E007F5F0513D
:104B480001F114010B68184610F0D4FD07F5F05276
:104B580002F11402136807F5805107F5E052084680
:104B680011461A46FDF7D6F907F5F05101F114017F
:104B78000B68013307F5905107F5D05208461146E6
:104B88001A46FDF7C7F907F5A05107F5E05207F5F2
:104B9800D053084611461A46FDF7F3FD07F5B05104
:104BA80007F5E05207F5D053084611461A46FDF7B7
:104BB80011F807F5A05207F5B053104619464FF4FF
:104BC8008072FFF709FC0346012B06D0012307F585
:104BD800F05202F10C02136018E007F5F05101F1F0
:104BE80014010B68013307F5F05202F11402136047
:104BF80007F5F05101F114010B68092B06DC07F5E4
:104C0800F05202F10C021368002B97D007F5F0510F
:104C180001F10C010B68012B08D1784807F5F05217
:104C280002F114021168FEF7D3FD02E07448FEF7A2
:104C3800CFFD7548FEF722FD002307F5F05101F17D
:104C48000C010B60002307F5F05202F11402136007
:104C580038E007F5F05101F114010B68184610F01F
:104C680049FD07F5E0531846FEF7A0F807F5F0529E
:104C780002F114021368184610F03CFD07F5D053F2
:104C88001846FCF719F907F5E05207F5D053104616
:104C980019464FF48072FFF79FFB0346012B06D09D
:104CA800012307F5F05101F10C010B6018E007F53D
:104CB800F05202F114021368013307F5F05101F1C3
:104CC80014010B6007F5F05202F114021368092B66
:104CD80006DC07F5F05101F10C010B68002BB8D088
:104CE80007F5F05202F10C021368012B08D1434872
:104CF80007F5F05303F114031968FEF769FD02E0A4
:104D08003F48FEF765FD4148FEF7B8FC002307F56C
:104D1800F05101F10C010B60072307F5F05202F185
:104D28001402136038E007F5F05101F114010B6823
:104D3800184610F0DFFC07F5E0531846FEF73EF979
:104D480007F5F05202F114021368184610F0D2FC6D
:104D580007F5D0531846FCF7DFF807F5E05207F5DA
:104D6800D053104619464FF48072FFF735FB0346BF
:104D7800012B06D0012307F5F05101F10C010B605E
:104D880018E007F5F05202F114021368013307F531
:104D9800F05101F114010B6007F5F05202F1140211
:104DA8001368092B06DC07F5F05101F10C010B68BB
:104DB800002BB8D007F5F05202F10C021368012B52
:104DC80008D10E4807F5F05303F114031968FEF7EC
:104DD800FFFC02E00A48FEF7FBFC0D48FEF74EFC1C
:104DE800002307F5F05101F10C010B60002307F5D2
:104DF800F05202F11402136066E000BF4C8501080E
:104E080058850108B8850108D0850108DC850108A6
:104E1800E885010807F5F05101F114010B681846FF
:104E280010F068FC07F5F05202F11402136807F558
:104E3800805107F5E052084611461A46FDF76AF810
:104E480007F5F05101F114010B68013307F5905192
:104E580007F5D052084611461A46FDF75BF807F5E4
:104E6800A05107F5E05207F5D053084611461A46F7
:104E7800FDF7D1FC07F5B05107F5E05207F5D0531F
:104E8800084611461A46FCF727FF07F5A05207F512
:104E9800B053104619464FF48072FFF79DFA034647
:104EA800012B06D0012307F5F05202F10C02136022
:104EB80018E007F5F05101F114010B68013307F50B
:104EC800F05202F11402136007F5F05101F11401D8
:104ED8000B68092B06DC07F5F05202F10C02136887
:104EE800002B97D007F5F05101F10C010B68012B4D
:104EF80008D1C14807F5F05202F114021168FEF713
:104F080067FC02E0BD48FEF763FCBD48FEF7B6FB50
:104F1800002307F5F05101F10C010B60002307F5A0
:104F2800F05202F11402136036E007F5F05101F176
:104F380014010B6807F5E05107F5D05208461146F1
:104F48001A46FCF7E7FF07F5E0531846FDF714FF8C
:104F580007F5D0531846FCF729F807F5E05207F58E
:104F6800D053104619464FF48072FFF735FA0346BE
:104F7800012B06D0012307F5F05202F10C02136051
:104F880018E007F5F05101F114010B68013307F53A
:104F9800F05202F11402136007F5F05101F1140107
:104FA8000B68092B06DC07F5F05202F10C021368B6
:104FB800002BBAD007F5F05101F10C010B68012B59
:104FC80008D18D4807F5F05202F114021168FEF776
:104FD800FFFB02E08948FEF7FBFB8A48FEF74EFB21
:104FE800002307F5F05101F10C010B60002307F5D0
:104FF800F05202F11402136076E007F5F05101F166
:1050080014010B6807F5E0527F4811461A46FCF771
:1050180081FF07F5F05202F11402136807F5D05228
:105028007A4811461A46FCF775FF07F5F05101F169
:1050380014010B6807F5C052754811461A46FCF76B
:1050480069FF7148FDF767FD07F5E0531846FCF75F
:1050580021F907F5D0531846FCF71CF907F5C0539A
:105068001846FCF717F907F5E053184666494FF458
:105078008072FFF7B1F90346012B06D0012307F52B
:10508800F05202F10C0213603DE007F5D0531846C8
:105098005E494FF48072FFF79FF90346012B06D053
:1050A800012307F5F05101F10C010B602BE007F526
:1050B800C053184656494FF48072FFF78DF90346DE
:1050C800012B06D0012307F5F05202F10C02136000
:1050D80019E007F5F05101F114010B68013307F5E8
:1050E800F05202F11402136007F5F05101F11401B6
:1050F8000B68092B07DC07F5F05202F10C02136864
:10510800002B3FF47AAF07F5F05101F10C010B6861
:10511800012B08D1384807F5F05202F11402116842
:10512800FEF756FB02E03548FEF752FB3948FEF71A
:10513800A5FA002307F5F05101F10C010B600023DB
:1051480007F5F05202F11402136036E007F5F0514A
:1051580001F114010B6807F5E05107F5D052084634
:1051680011461A46FCF7D6FE07F5E0531846FDF738
:1051780046FC07F5D0531846FCF78CF807F5E052C3
:1051880007F5D053104619464FF48072FFF724F9FB
:105198000346012B06D0012307F5F05202F10C0259
:1051A800136018E007F5F05101F114010B680133A1
:1051B80007F5F05202F11402136007F5F05101F1FE
:1051C80014010B68092B06DC07F5F05202F10C02FA
:1051D8001368002BBAD007F5F05101F10C010B68E8
:1051E800012B19D1044807F5F05202F11402116895
:1051F800FEF7EEFA13E000BF4C8501085885010858
:105208000086010810860108D06F0020D0710020A8
:10521800D0730020288601088848FEF7D9FA884804
:10522800FEF72CFA002307F5F05101F10C010B6091
:10523800002307F5F05202F11402136036E007F577
:10524800F05101F114010B6807F5E05107F5D05250
:10525800084611461A46FCF75DFE07F5E053184666
:10526800FDF708FB07F5D0531846FCF7B7F907F523
:10527800E05207F5D053104619464FF48072FFF7F5
:10528800ABF80346012B06D0012307F5F05202F1D3
:105298000C02136018E007F5F05101F114010B68D6
:1052A800013307F5F05202F11402136007F5F051CB
:1052B80001F114010B68092B06DC07F5F05202F125
:1052C8000C021368002BBAD007F5F05101F10C015C
:1052D8000B68012B08D15B4807F5F05202F1140264
:1052E8001168FEF775FA02E05448FEF771FA0023D8
:1052F80007F5F05101F10C010B605348FEF768FA0D
:10530800002307F5F05202F11402136071E007F56B
:10531800F05101F114010B68184610F0EBF907F68B
:105328001842183A07F61863183B07F580541046D8
:1053380019462246FDF750FE07F5F05202F1140215
:105348001368184610F0D6F907F5905107F5A052E2
:1053580007F5B053084611461A46FCF7E5FC07F670
:105368001843183B07F59052184611464FF48072BF
:10537800FFF732F80346012B06D0012307F5F05159
:1053880001F10C010B603BE007F61863183B07F5C9
:10539800A052184611464FF48072FFF71DF80346D5
:1053A800012B06D0012307F5F05202F10C0213601D
:1053B80026E007F5805207F5B053104619464FF41A
:1053C8008072FFF709F80346012B07D0012307F580
:1053D800F05101F10C010B6000BF11E007F5F0522C
:1053E80002F114021368013307F5F05101F11401B9
:1053F8000B6007F5F05202F114021368092B86DDE1
:1054080007F5F05101F10C010B68012B08D10D488B
:1054180007F5F05202F114021168FEF7D9F902E01B
:105428000648FEF7D5F90948FEF7D2F9002307F533
:10543800F05101F114010B601FE100BF588501080C
:10544800388601084C8501084886010858860108F5
:1054580007F5F05202F114021368184610F04AF9E1
:1054680007F11803183B1846FCF738FD07F5F0510B
:1054780001F114010B68184610F03CF907F50671A4
:10548800183907F58362183A07F5C363183B0846CD
:1054980011461A46FCF748FC07F5F05202F11402CF
:1054A8001368184610F026F907F50670183807F63D
:1054B8001801183907F61822183A07F11803183B8B
:1054C80007F58364183C0094FCF766FC07F5F05177
:1054D80001F114010B68184610F00CF907F618438F
:1054E800183B1846FDF710FE07F5F05202F11402BA
:1054F8001368184610F0FEF807F61863183B07F50E
:10550800805107F590521846FDF766FD07F5F051F2
:1055180001F114010B68184610F0ECF807F6186250
:10552800183A07F5A05107F5B05407F61843183B89
:1055380007F58050009010462246FDF797FD07F6C4
:105548001842183A07F11803183B104619464FF449
:105558008072FEF741FF0346012B08D05948FEF739
:1055680037F9012307F5F05202F10C02136007F630
:105578001862183A07F50673183B104619464FF497
:105588008072FEF729FF0346012B08D04E48FEF72C
:105598001FF9012307F5F05101F10C010B6007F524
:1055A800805207F58363183B104619464FF4807202
:1055B800FEF712FF0346012B08D04448FEF708F90E
:1055C800012307F5F05202F10C02136007F590521F
:1055D80007F5C363183B104619464FF48072FEF76F
:1055E800FBFE0346012B08D03948FEF7F1F80123EA
:1055F80007F5F05101F10C010B6007F5A05207F611
:105608001803183B104619464FF48072FEF7E4FE63
:105618000346012B08D02F48FEF7DAF8012307F5D7
:10562800F05202F10C02136007F5B05207F6182386
:10563800183B104619464FF48072FEF7CDFE03461C
:10564800012B08D02448FEF7C3F8012307F5F051D1
:1056580001F10C010B6007F5F05202F10C0213681E
:10566800012B12D007F5F05101F114010B68013339
:1056780007F5F05202F11402136007F5F05101F139
:1056880014010B68092B7FF7E3AE07F5F05202F11E
:105698000C021368012B08D1104807F5F05303F1E9
:1056A80014031968FEF794F802E00D48FEF790F825
:1056B8000C48FEF78DF8002307F5F05101F11401AD
:1056C8000B6038E1648601086C8601087086010861
:1056D80074860108788601087C8601084C850108D3
:1056E800588501088086010807F5F05202F1140276
:1056F800136818460FF0FEFF07F11803183B184609
:10570800FCF7ECFB07F5F05101F114010B681846A2
:105718000FF0F0FF07F50671183907F58362183A9C
:1057280007F5C363183B084611461A46FCF7FCFA0E
:1057380007F5F05202F11402136818460FF0DAFF69
:1057480007F50670183807F61801183907F61822F1
:10575800183A07F11803183B07F58364183C0094BE
:10576800FCF71AFB07F61801183907F61822183A39
:1057780007F5C363183B084611461A46FCF798FB21
:1057880007F5F05101F114010B6818460FF0B2FF4C
:1057980007F61843183B1846FDF7B6FC07F5F05214
:1057A80002F11402136818460FF0A4FF07F61863F5
:1057B800183B07F5805107F590521846FDF70CFC89
:1057C80007F5F05101F114010B6818460FF092FF2C
:1057D80007F61862183A07F5A05107F5B05407F60E
:1057E8001843183B07F58050009010462246FDF7F5
:1057F8003DFC07F5A05107F5B05207F59053084650
:1058080011461A46FDF720FC07F61842183A07F128
:105818001803183B104619464FF48072FEF7DCFD5A
:105828000346012B08D0C048FDF7D2FF012307F536
:10583800F05202F10C02136007F61862183A07F5E5
:105848000673183B104619464FF48072FEF7C4FDE4
:105858000346012B08D0B548FDF7BAFF012307F529
:10586800F05101F10C010B6007F5805207F58363D5
:10587800183B104619464FF48072FEF7ADFD0346FB
:10588800012B08D0AA48FDF7A3FF012307F5F05222
:1058980002F10C02136007F5905207F5C363183B39
:1058A800104619464FF48072FEF796FD0346012B09
:1058B80008D0A048FDF78CFF012307F5F05101F14E
:1058C8000C010B6007F5A05207F61803183B1046A9
:1058D80019464FF48072FEF77FFD0346012B08D06E
:1058E8009548FDF775FF012307F5F05202F10C0208
:1058F800136007F5B05207F61823183B10461946EF
:105908004FF48072FEF768FD0346012B08D08B48E0
:10591800FDF75EFF012307F5F05101F10C010B6063
:1059280007F5F05202F114021368013307F5F0513C
:1059380001F114010B6007F5F05202F1140213682B
:10594800092B7FF7D1AE07F5F05101F10C010B6877
:10595800012B08D17A4807F5F05202F114021168B8
:10596800FDF736FF02E07748FDF732FF002307F521
:10597800F05101F10C010B607348FDF729FF00237A
:1059880007F5F05202F114021360ADE007F5F0518B
:1059980001F114010B6818460FF0ACFE07F6184326
:1059A800183B1846FCF79AFA07F61843183B1846AE
:1059B800FBF79EFB07F61863183B07F5805107F5C0
:1059C80090521846FCF7B0F907F61862183A07F52E
:1059D800A05107F5B05407F61843183B07F5805057
:1059E800009010462246FCF7D7F907F5A05107F5B5
:1059F800B05207F59053084611461A46FCF758FA74
:105A0800002307F5F05202F11002136037E007F5A2
:105A1800A05307F5F05101F110010A6833F812306C
:105A2800B3F5F06F16D907F5A05307F5F05101F15A
:105A380010010A6833F81230B3F5B45F0AD207F5DB
:105A4800A05307F5F05101F110010A68012123F86C
:105A5800121009E007F5A05307F5F05101F1100104
:105A68000A68002123F8121007F5F05202F110021B
:105A78001368013307F5F05101F110010B6007F5C8
:105A8800F05202F110021368FF2BC0DD07F618432D
:105A9800183B1846FBF72CFB07F5A05207F5E05317
:105AA80010461946FCF7E4FA07F61843183B07F5C1
:105AB800E052184611464FF48072FEF78DFC0346FB
:105AC800012B06D0012307F5F05101F10C010B6001
