:020000040800F2
:1000000000000220E94E0108050300081103000862
:10001000190300082103000829030008000000005C
:100020000000000000000000000000003103000894
:100030003D030008000000004903000855030008C4
:10004000354F0108354F0108354F0108354F01087C
:10005000354F0108354F0108354F0108354F01086C
:10006000354F0108354F0108354F0108354F01085C
:10007000354F0108354F0108354F0108354F01084C
:10008000354F0108354F0108354F0108354F01083C
:10009000354F0108354F0108354F0108354F01082C
:1000A000354F0108354F0108354F0108354F01081C
:1000B000354F0108354F0108354F0108354F01080C
:1000C000354F0108354F0108354F0108354F0108FC
:1000D000354F0108513C0008354F0108354F0108E4
:1000E000354F0108354F0108354F0108354F0108DC
:1000F000354F0108354F0108354F0108354F0108CC
:10010000354F0108354F0108354F0108354F0108BB
:10011000354F0108354F0108354F0108354F0108AB
:10012000354F0108354F0108354F0108354F01089B
:10013000354F0108354F0108354F0108354F01088B
:10014000354F0108354F0108354F0108354F01087B
:10015000354F0108354F0108354F0108354F01086B
:10016000354F0108354F0108354F0108354F01085B
:10017000354F0108354F0108354F0108354F01084B
:08018000354F0108354F01085D
:1001880010B5054C237833B9044B13B10448AFF3C9
:1001980000800123237010BD487C0020000000006F
:1001A800A051010808B5064B1BB106480649AFF334
:1001B80000800648036813B1054B03B1984708BD92
:1001C80000000000A05101084C7C00204470002071
:1001D80000000000154B002B08BF134B9D46A3F5EC
:1001E800803A00218B460F461348144A121A14F01D
:1001F80039FD0F4B002B00D098470E4B002B00D039
:1002080098470020002104000D000D48002802D066
:100218000C4814F0F3FD14F0FDFC2000290000F058
:100228005BF814F0E7FC00BF0000080000000000C5
:100238000000000000000000487C0020787C0020BE
:10024800054E0108114E010880B483B000AF7860F4
:1002580000BF7B685A1E7A60002BFAD10C37BD4666
:100268005DF8047B704700BF80B500AF00BF012078
:100278000FF0C2FC0346002BF9D0024B9B681846CE
:1002880080BD00BF0008065080B500AF03F036FD02
:10029800402001210FF024FA01200FF069FC80BDF5
:1002A80080B584B000AF78600023FB600BE0FB688A
:1002B8009B007A6813441B680648194603F0AEFA97
:1002C800FB680133FB60FB68B3F5007FEFDB103799
:1002D800BD4680BD8C4F010880B500AFFFF7D4FF45
:1002E800044803F09BFA03F079FD034803F0ECF9A6
:1002F800FEE700BF904F01089C4F010880B400AF93
:10030800BD465DF8047B704780B400AFFEE700BFD0
:1003180080B400AFFEE700BF80B400AFFEE700BFC7
:1003280080B400AFFEE700BF80B400AFBD465DF803
:10033800047B704780B400AFBD465DF8047B70470E
:1003480080B400AFBD465DF8047B704780B400AF51
:10035800BD465DF8047B704780B500AF154B154A64
:10036800D2F8882042F47002C3F88820124B124A4F
:10037800126842F001021A600F4B00229A600E4A7E
:100388000D4B1B6823F0847323F4803313600A4BEE
:100398000A4A5A60084B084A126822F480221A60F6
:1003A800054B0022DA6000F087F8024B4FF000623C
:1003B8009A6080BD00ED00E0003802401030002453
:1003C80080B487B000AF00233B6100237B61022328
:1003D800FB600023BB6002237B60324B9B6803F009
:1003E8000C033B613B69042B07D0082B09D0002B79
:1003F8003FD12D4B2D4A1A603FE02B4B2C4A1A60F7
:100408003BE0284B5B6803F480039B0DBB60254BE6
:100418005B6803F03F037B60BB68002B0DD0244A68
:100428007B68B2FBF3F21F4B596847F6C0730B4069
:100438009B0903FB02F37B610CE01C4A7B68B2FB5F
:10044800F3F2184B596847F6C0730B409B0903FB3E
:1004580002F37B61134B5B6803F440331B0C0133DD
:100468005B00FB607A69FB68B2FBF3F20E4B1A6023
:1004780003E00D4B0D4A1A6000BF0A4B9B6803F05E
:10048800F0031B090B4AD35CDBB23B61064B1A68CD
:100498003B69DA40044B1A601C37BD465DF8047BA3
:1004A800704700BF00380240040000200024F40018
:1004B80000127A000800002080B483B000AF002347
:1004C8007B6000233B60354B344A126842F480322B
:1004D8001A60324B1B6803F400333B607B680133BE
:1004E8007B603B68002B03D17B68B3F5A06FF0D12C
:1004F8002A4B1B6803F40033002B02D001233B6016
:1005080001E000233B603B68012B42D1234B234A87
:10051800126C42F080521A64214B214A126842F44C
:1005280040421A601D4B1D4A92689A601B4B1B4A39
:10053800926842F400429A60184B184A926842F452
:10054800A0529A60154B174A5A60144B134A126806
:1005580042F080721A6000BF104B1B6803F00073F2
:10056800002BF9D0104B40F205721A600B4B0B4A66
:10057800926822F003029A60084B084A926842F097
:1005880002029A6000BF054B9B6803F00C03082B1E
:10059800F9D10C37BD465DF8047B7047003802403E
:1005A8000070004019544007003C024080B500AF7D
:1005B800FFF706FF014B1B68184680BD04000020AA
:1005C80080B582B000AF14F0BBFC03467B607B684B
:1005D80043F000437B607B6818460837BD4680BD02
:1005E80080B485B000AF78600023FB600CE0FB6846
:1005F800C3F11F037A6822FA03F3012B01D1FB68C8
:1006080006E0FB680133FB60FB681F2BEFDD20234E
:1006180018461437BD465DF8047B704780B485B032
:1006280000AF78607B68124A82FB03121213DB1753
:10063800D31ABB607B68002B08DBBB686FF44052A1
:1006480002FB03F27B681344FB600AE0BB68C3F15A
:10065800010213465B0013441B031A447B681344CE
:10066800FB60FB6818461437BD465DF8047B70478D
:10067800438E535590B585B000AF7860FFF7A0FF63
:100688000346BB600023FB6019E0FB68DB00043312
:100698007A68D41807F10803184600F0EDF9034604
:1006A8002360FB68DB007A68D41807F10803184652
:1006B80000F0E2F903462360FB680133FB60FB6846
:1006C800FF2BE2DD1437BD4690BD00BF90B585B065
:1006D80000AF7860FFF774FF0346BB600023FB6040
:1006E80019E0FB68DB0004337A68D41807F10803C3
:1006F800184600F017F803462360FB68DB007A68A9
:10070800D41807F10803184600F00CF803462360D4
:10071800FB680133FB60FB68FF2BE2DD1437BD4645
:1007280090BD00BF80B58AB000AF78607B681B6859
:10073800DBB2FB607B681B681A0A7B681A60984A00
:10074800FB6813441B78BB61BB6903F01003BB60F3
:10075800BB68002B2BD17B681B68012B04D1FFF7EA
:100768002FFF02467B681A60BB6903F00F03BB6169
:100778007B681B6803F00103002B04D0BB69C3F539
:1007880040530133BB617B681B685A087B681A6059
:100798007B681B681846FFF723FF0346172B04D90D
:1007A800FFF70EFF02467B681A60BB695FE17B6852
:1007B8001B681846FFF714FF03461A2B04D9FFF7E6
:1007C800FFFE02467B681A60BB6903F007037B6281
:1007D8007B681B6803F01F027B6A5B011344FB60A4
:1007E8007B681B685A097B681A607B681B68012B49
:1007F80004D1FFF7E5FE02467B681A60694AFB6888
:1008080013441B78BB61BB6903F02003BB60BB6862
:10081800002B22D1BB6903F01F03BB617B681B68F7
:1008280003F00103002B04D0BB69C3F54053013327
:10083800BB617B681B685A087B681A607B681B6809
:100848001846FFF7CDFE0346172B04D9FFF7B8FE6D
:1008580002467B681A60BB6909E1BB6903F00F03B4
:100868007B620023FB6156E07B6A5B001A467B686B
:100878001B6803F0010313447B627B681B685A08FA
:100888007B681A607B681B68012B04D1FFF798FE10
:1008980002467B681A60444BFA6953F822303B6180
:1008A8001F233B6231E03B69DB171A467B6A13441E
:1008B8007B623B695B003B617B6AB3F1FF3F21D1FF
:1008C8007B681B6803F00103002B05D03B6AC3F566
:1008D80040530133BB6101E03B6ABB617B681B6825
:1008E8005A087B681A607B681B681846FFF778FE11
:1008F8000346172B04D9FFF763FE02467B681A608C
:10090800BB69B4E03B6A013B3B623B6A002BCADA35
:10091800FB690133FB61FB696C2BA5DD1923FB61C6
:100928009FE0224BFA6953F822307B611E4BFA692B
:1009380053F822303B617B6A5B001A467B681B6870
:1009480003F0010313447B627B681B685A087B68C9
:100958001A607B681B68012B05D114F0F1FA034675
:100968001A467B681A6036233B623BE07B69DB17DB
:100978001A467B6A13447B627B695B007B617B6AF6
:10098800B3F1FF3F2BD17B681B6803F00103002BF9
:100998000ED03B6AC3F540530133BB610AE000BF88
:1009A8005C0000205C010020E865002068670020EA
:1009B8003B6ABB617B681B685A087B681A607B6866
:1009C8001B681846FFF70CFE0346172B05D914F0D1
:1009D800B7FA03461A467B681A60BB6947E03B6A68
:1009E800013B3B623B6A1F2BC0DC1F233B6232E0AA
:1009F8003B69DB171A467B6A13447B623B695B00E1
:100A08003B617B6AB3F1FF3F22D17B681B6803F02F
:100A18000103002B05D03B6AC3F540530133BB618A
:100A280001E03B6ABB617B681B685A087B681A60F7
:100A38007B681B681846FFF7D3FD0346172B05D9BB
:100A480014F07EFA03461A467B681A60BB690EE00A
:100A58003B6A013B3B623B6A002BC9DAFB69013305
:100A6800FB61FB695F2B7FF75CAF4FF0FF331846E4
:100A78002837BD4680BD00BF80B588B000AF78601C
:100A88007B681B68DBB2FB607B681B681A0A7B68A3
:100A98001A60794AFB6813441B783B613B6903F091
:100AA8001003BB60BB68002B2BD17B681B68012B34
:100AB80004D1FFF785FD02467B681A603B6903F0A5
:100AC8000F033B617B681B6803F00103002B04D014
:100AD8003B69C3F5405301333B617B681B685A0887
:100AE8007B681A607B681B681846FFF779FD034628
:100AF800172B04D9FFF764FD02467B681A603B692F
:100B0800B5E07B681B681846FFF76AFD03461A2B99
:100B180004D9FFF755FD02467B681A603B6903F06C
:100B28000703FB617B681B6803F01F02FB695B011D
:100B38001344FB607B681B685A097B681A607B68F2
:100B48001B68012B04D1FFF73BFD02467B681A6046
:100B58004A4AFB6813441B783B613B6903F0200356
:100B6800BB60BB68002B22D13B6903F01F033B61CC
:100B78007B681B6803F00103002B04D03B69C3F5B5
:100B8800405301333B617B681B685A087B681A60D5
:100B98007B681B681846FFF723FD0346172B04D90B
:100BA800FFF70EFD02467B681A603B695FE03B6910
:100BB80003F00F03FB610D237B6153E0FB695B00CE
:100BC8001A467B681B6803F001031344FB617B68CA
:100BD8001B685A087B681A607B681B68012B04D164
:100BE800FFF7EEFC02467B681A603623BB6133E0F0
:100BF800234BBA696D2101FB02F17A690A4453F863
:100C08002230FA69D31AFB61FB69002B21DA7B6871
:100C18001B6803F00103002B05D0BB69C3F54053E3
:100C280001333B6101E0BB693B617B681B685A0883
:100C38007B681A607B681B681846FFF7D1FC03467F
:100C4800172B04D9FFF7BCFC02467B681A603B6986
:100C58000DE0BB69013BBB61BB69002BC8DA7B694E
:100C680001337B617B696C2BA8DD4FF0FF3318469D
:100C78002037BD4680BD00BF5C0000205C0100201D
:100C88003C02002090B585B000AF78600023FB607F
:100C98001CE014F055F9B860FB68DB007A68D418DA
:100CA800BB689BB21846FFF7B9FC03462360FB6894
:100CB800DB0004337A68D418BB681B141846FFF7A6
:100CC800ADFC03462360FB680133FB60FB68FF2B28
:100CD800DFDD786800F022FA1437BD4690BD00BF0A
:100CE80080B582B000AF78607868FFF7C3FC786899
:100CF80000F014FA0837BD4680BD00BF80B588B043
:100D080000AF78600023FB6128E014F019F97861DE
:100D18000023BB611FE07B6903F001033B617B6932
:100D28005B1003F00103FB60FB68012B05D13B69F5
:100D3800012B02D14FF440533B61FB695A1CFA6105
:100D48009B007A6813443A691A607B699B107B613F
:100D5800BB690133BB61BB690F2BDCDDFB69B3F5F4
:100D6800007FD2DB786800F0D9F92037BD4680BD16
:100D780080B48FB000AF786001237B63A4E07A6B06
:100D8800564B1340002B03DA013B63F00103013398
:100D98003B637B6B5A10514B1340002B03DA013B2A
:100DA80063F001030133FB627B6B9A104B4B1340DA
:100DB800002B03DA013B63F001030133BB627B6B59
:100DC800DA10464B1340002B03DA013B63F00103B2
:100DD80001337B627B6B1A11404B1340002B03DA03
:100DE800013B63F0010301333B627B6B5A113B4BC0
:100DF8001340002B03DA013B63F001030133FB616D
:100E08007B6B9A11354B1340002B03DA013B63F0DF
:100E180001030133BB617B6BDA11304B1340002BAC
:100E280003DA013B63F0010301337B613B6B5A003A
:100E3800FB6A13445A00BB6A13445A007B6A134482
:100E48005A003B6A13445A00FB6913445A00BB69B1
:100E580013445A007B6913443B613A697B6B9A429D
:100E68002FDD7B6BDB007A6813441B68FB607B6BB0
:100E7800DB0004337A6813441B68BB607B6BDB00C0
:100E88007A6813443A69D20079680A4412681A6089
:100E98007B6BDB0004337A6813443A69D20004326E
:100EA80079680A4412681A603B69DB007A6813445F
:100EB800FA681A603B69DB0004337A681344BA683D
:100EC8001A607B6B01337B637B6BFF2B7FF757AF1C
:100ED8003C37BD465DF8047B704700BF01000080C9
:100EE80080B493B000AF786000237B640AE17A6C29
:100EF800894B1340002B03DA013B63F001030133F4
:100F0800FB637B6C5A10844B1340002B03DA013BC4
:100F180063F001030133BB637B6C9A107E4B134073
:100F2800002B03DA013B63F0010301337B637B6C25
:100F3800DA10794B1340002B03DA013B63F001030D
:100F480001333B637B6C1A11734B1340002B03DA9C
:100F5800013B63F001030133FB627B6C5A116E4B5A
:100F68001340002B03DA013B63F001030133BB623A
:100F78007B6C9A11684B1340002B03DA013B63F03A
:100F8800010301337B627B6CDA11634B1340002B46
:100F980003DA013B63F0010301333B627B6C1A12F5
:100FA8005D4B1340002B03DA013B63F0010301336F
:100FB800FB61FB6B5A00BB6B13445A007B6B1344F9
:100FC8005A003B6B13445A00FB6A13445A00BB6A2D
:100FD80013445A007B6A13445A003B6A13445A006C
:100FE800FB691344BB617B6CDA0F13445B107B61B4
:100FF8007A6C494B1340002B03DA013B63F0010381
:1010080001333B61BB69DA0F13445B10FB60BA69BB
:10101800414B1340002B03DA013B63F0010301331A
:10102800BB60BA697B6C9A4269DDBB68002B05D14D
:10103800FB68DB007A6813441B683B64BB68012BC0
:1010480006D1FB68DB0004337A6813441B683B64F1
:10105800BB68002B0CD13B69002B09D1FB68DB0076
:101068007A6813447A69D20079680A4412681A6067
:10107800BB68002B0DD13B69012B0AD1FB68DB0053
:101088007A6813447A69D200043279680A4412688B
:101098001A60BB68012B0DD13B69002B0AD1FB6894
:1010A800DB0004337A6813447A69D20079680A4409
:1010B80012681A60BB68012B0ED13B69012B0BD15A
:1010C800FB68DB0004337A6813447A69D20004327F
:1010D80079680A4412681A603B69002B05D17B695C
:1010E800DB007A6813443A6C1A603B69012B06D11D
:1010F8007B69DB0004337A6813443A6C1A607B6CB2
:1011080001337B647B6CB3F5007FFFF6F0AE4C37A0
:10111800BD465DF8047B70470100008090B58DB036
:1011280000AF78600023FB6202233B62A3E0844B9C
:10113800FA6A33F81230BB61FB6A5A1C804B33F8E9
:101148001230FB61FB6A0133FB620023BB628AE059
:1011580000237B6276E0BA6A7B6A13449B007A6854
:1011680013441B687B61BA6A7B6A134401339B0092
:101178007A6813441B68FA6902FB03F31846FFF701
:101188004DFA03463B61BA6A7B6A1A443B6A1344C8
:101198009B007A6813441B68FB60BA6A7B6A1A442E
:1011A8003B6A134401339B007A6813441B68FA694D
:1011B80002FB03F31846FFF731FA0346BB60BA6A2D
:1011C8007B6A13449B007A68D4187A693B69134494
:1011D8001846FFF723FA03462360BA6A7B6A13446A
:1011E80001339B007A68D418FA68BB681344184620
:1011F800FFF714FA03462360BA6A7B6A1A443B6A0B
:1012080013449B007A68D4187A693B69D31A184644
:10121800FFF704FA03462360BA6A7B6A1A443B6AFA
:10122800134401339B007A68D418FA68BB68D31A50
:101238001846FFF7F3F9034623603B6A5B007A6AB6
:1012480013447B627B6AB3F5007F84DBFB69BA6970
:1012580002FB03F3FB61F869FFF7E0F90346FB6162
:10126800BB6A0233BB62BA6A3B6A9A42FFF670AF46
:101278003B6A5B003B623B6AB3F5807F7FF757AF01
:1012880041F2B753BB6141F6BB23FB610023BB624C
:1012980050E0BB6ADB0004337A6813441B68FA69C0
:1012A80002FB03F33B613869FFF7B8F903463B617A
:1012B800BB6ADB007A6813441B687B61BB6ADB008E
:1012C8007A68134479693A690A441A60BB6ADB0090
:1012D8007A68D418BB6ADB007A6813441B6818461E
:1012E800FFF79CF903462360BB6ADB0004337A6886
:1012F800134479693A698A1A1A60BB6ADB000433B5
:101308007A68D418BB6ADB0004337A6813441B6814
:101318001846FFF783F903462360FB69BA6902FBA5
:1013280003F3FB61F869FFF779F90346FB61BB6AD0
:101338000133BB62BB6AFF2BABDD3437BD4690BDC2
:101348003800002080B48FB000AF78603960002387
:101358007B6392E07A6B4D4B1340002B03DA013B21
:1013680063F0010301333B637B6B5A10474B134017
:10137800002B03DA013B63F001030133FB627B6B53
:101388009A10424B1340002B03DA013B63F0010330
:101398000133BB627B6BDA103C4B1340002B03DA42
:1013A800013B63F0010301337B627B6B1A11374BFE
:1013B8001340002B03DA013B63F0010301333B6266
:1013C8007B6B5A11314B1340002B03DA013B63F05E
:1013D80001030133FB617B6B9A112C4B1340002BEB
:1013E80003DA013B63F001030133BB613B6B5A0035
:1013F800FB6A13445A00BB6A13445A007B6A1344BD
:101408005A003B6A13445A00FB6913445A00BB69EB
:1014180013447B617A697B6B9A422BDD7B6B9B0063
:101428007A6813441B683B617B6B9B003A681344E2
:101438001B68FB607B6B9B007A6813447A69920097
:1014480079680A4412681A607B6B9B003A681344F7
:101458007A69920039680A4412681A607B699B00AD
:101468007A6813443A691A607B699B003A681344A6
:10147800FA681A607B6B01337B637B6BFF2B7FF70A
:1014880069AF3C37BD465DF8047B704701000080BA
:1014980090B58DB000AF786002237B6231E17B6A42
:1014A800102B21D0102B06DC042B15D0082B17D0BD
:1014B800022B0DD02CE0402B1ED0402B02DC202B21
:1014C80016D025E0802B1BD0B3F5807F1CD01FE001
:1014D8004FF440533B621BE042F63A233B6217E06D
:1014E80041F6E7333B6213E042F6E8233B620FE044
:1014F80040F6D6533B620BE041F2D5233B6207E04E
:1015080040F292433B6203E041F27B633B6200BFDF
:101518000123FB610023FB62E7E00023BB62D3E009
:10152800BA6AFB6A1344DB0004337A6813441B6805
:10153800FA6902FB03F37B617869FFF76FF80346EA
:101548007B61BA6AFB6A1344DB007A6813441B6840
:101558003B61BA6AFB6A1A447B6AD90F0B445B1079
:101568001344DB0004337A6813441B68FA6902FBEE
:1015780003F3FB60F868FFF751F80346FB60BA6AAB
:10158800FB6A1A447B6AD90F0B445B101344DB00D7
:101598007A6813441B68BB60BA6AFB6A1344DB00B1
:1015A8007A68134439697A690A441A60BA6AFB6A24
:1015B8001344DB007A68D418BA6AFB6A1344DB0068
:1015C8007A6813441B681846FFF728F80346236017
:1015D800BA6AFB6A1A447B6AD90F0B445B1013443E
:1015E800DB007A68134439697A698A1A1A60BA6A18
:1015F800FB6A1A447B6AD90F0B445B101344DB0067
:101608007A68D418BA6AFB6A1A447B6AD90F0B4401
:101618005B101344DB007A6813441B681846FEF716
:10162800FDFF03462360BA6AFB6A1344DB000433F8
:101638007A681344B968FA680A441A60BA6AFB6A95
:101648001344DB0004337A68D418BA6AFB6A13447B
:10165800DB0004337A6813441B681846FEF7DEFF84
:1016680003462360BA6AFB6A1A447B6AD90F0B44A3
:101678005B101344DB0004337A681344B968FA68D2
:101688008A1A1A60BA6AFB6A1A447B6AD90F0B4431
:101698005B101344DB0004337A68D418BA6AFB6A17
:1016A8001A447B6AD90F0B445B101344DB000433E4
:1016B8007A6813441B681846FEF7B0FF0346236098
:1016C800BA6A7B6A1344BB62BB6AFF2B7FF728AFF9
:1016D800FB693A6A02FB03F3FB61F869FEF79EFFB8
:1016E8000346FB61FB6A0133FB627B6ADA0F134432
:1016F8005B101A46FB6A9A423FF70FAF7B6A5B00A2
:101708007B627B6AB3F5807F7FF7C9AE40F6C26320
:101718003B620123FB610023FB6258E0FB6A9B00EC
:101728007A6813441B683B61FB6A0133FB62FB6AFE
:101738009B007A6813441B68FA6902FB03F37B6118
:101748007869FEF76BFF03467B61FB6A03F1804310
:10175800013B9B007A68134439697A690A441A6024
:10176800FB6A03F18043013B9B007A68D418FB6A4B
:1017780003F18043013B9B007A6813441B681846B9
:10178800FEF74CFF03462360FB6A9B007A6813440C
:1017980039697A698A1A1A60FB6A9B007A68D418D0
:1017A800FB6A9B007A6813441B681846FEF736FFED
:1017B80003462360FB6A0133FB62FB693A6A02FB5A
:1017C80003F3FB61F869FEF729FF0346FB61FB6A37
:1017D800B3F5007FA2DB42F63A23BB6142F27F33C6
:1017E8003B620123FB610023FB6287E0FB6A9B00ED
:1017F8007A681344FA6A920079680A441268F969A7
:1018080001FB02F21A60FB6A9B007A68D418FB6A33
:101818009B007A6813441B681846FEF7FFFE0346D0
:101828002360FB6A9B007A681344FA6A920079681D
:101838000A44126842F6E97101FB02F21A60FB6A77
:101848009B007A68D418FB6A9B007A6813441B686B
:101858001846FEF7E3FE03462360FB6A0133FB628A
:10186800FB6A9B007A681344FA6A920079680A4412
:101878001268B96901FB02F21A60FB6A9B007A6878
:10188800D418FB6A9B007A6813441B681846FEF755
:10189800C5FE03462360FB6A9B007A681344FA6A14
:1018A800920079680A44126842F6E97101FB02F273
:1018B8001A60FB6A9B007A68D418FB6A9B007A68F6
:1018C80013441B681846FEF7A9FE03462360FB6A0B
:1018D8000133FB62FB693A6A02FB03F3FB61F869B7
:1018E800FEF79CFE0346FB61BB693A6A02FB03F301
:1018F800BB61B869FEF792FE0346BB61FB6AB3F5AC
:10190800007FFFF673AF3437BD4690BD80B487B013
:1019180000AFF860B9607A6000237B611EE07B69E4
:101928009B007A6813441B689AB27B699B00F9682C
:101938000B441B689A420CD17B699B007A6813445C
:101948001B681A0C7B699B00B9680B441B689A4298
:1019580001D0002306E07B6901337B617B69FF2BA3
:10196800DDDD012318461C37BD465DF8047B704752
:1019780090B587B000AFF860B9607A603B6000232B
:101988007B613EE07B699B00FA6813447A699200A8
:10199800F9680A4411687A69920078680244126802
:1019A8000A441A607B699B00FA68D4187B699B001B
:1019B800FA6813441B681846FEF730FE0346236096
:1019C8007B699B00BA6813447A699200B9680A4433
:1019D80011687A6992003868024412680A441A60E9
:1019E8007B699B00BA68D4187B699B00BA6813446A
:1019F8001B681846FEF712FE034623607B69013315
:101A08007B617B69FF2BBDDD1C37BD4690BD00BFE8
:101A180090B587B000AFF860B9607A603B6000238A
:101A28007B6140E07B699B00FA6813447A69920005
:101A3800F9680A4412687969890078680144096874
:101A480001FB02F21A607B699B00FA68D4187B6973
:101A58009B00FA6813441B681846FEF7DFFD03462F
:101A680023607B699B00BA6813447A699200B9685D
:101A78000A4412687969890038680144096801FBD9
:101A880002F21A607B699B00BA68D4187B699B00D4
:101A9800BA6813441B681846FEF7C0FD0346236066
:101AA8007B6901337B617B69FF2BBBDD1C37BD463E
:101AB80090BD00BF90B587B000AFF860B9607A609C
:101AC8003B6000237B613EE07B699B00FA6813441E
:101AD8007A699200F9680A4411687A69920078680C
:101AE800024412688A1A1A607B699B00FA68D41843
:101AF8007B699B00FA6813441B681846FEF78EFD45
:101B0800034623607B699B00BA6813447A69920094
:101B1800B9680A4411687A69920038680244126800
:101B28008A1A1A607B699B00BA68D4187B699B0083
:101B3800BA6813441B681846FEF770FD0346236015
:101B48007B6901337B617B69FF2BBDDD1C37BD469B
:101B580090BD00BF80B485B000AF786039600023C5
:101B6800FB6021E0FB689B007A6813441B689AB20B
:101B7800FB68DB0039680B441B689A4201D00023DC
:101B880016E0FB689B007A6813441B681A0CFB6814
:101B9800DB00043339680B441B689A4201D00023E8
:101BA80006E0FB680133FB60FB68FF2BDADD0123ED
:101BB80018461437BD465DF8047B704790B587B06A
:101BC80000AFF860B9607A6000237B6121E07B692F
:101BD8009B00FA6813447A699200B9680A4412684B
:101BE8007969890078680144096801FB02F21A6082
:101BF8007B699B00FA68D4187B699B00FA681344D8
:101C08001B681846FEF70AFD034623607B6901330B
:101C18007B617B69B3F5007FD9DB1C37BD4690BD7E
:101C280090B587B000AFF860B9607A6000237B6137
:101C380020E07B699B00FA6813447A699200B968CE
:101C48000A4411687A6992007868024412680A4462
:101C58001A607B699B00FA68D4187B699B00FA6854
:101C680013441B681846FEF7D9FC034623607B69BA
:101C780001337B617B69B3F5007FDADB1C37BD4636
:101C880090BD00BF90B587B000AFF860B9607A60CA
:101C98003B6000237B6131E07B699B00FA68134459
:101CA8007A699200B9680A44126879698900786883
:101CB8000144096801FB02F21A607B699B00FA681B
:101CC80013447A699200F9680A4411687A699200A3
:101CD8003868024412680A441A607B699B00FA68F3
:101CE800D4187B699B00FA6813441B681846FEF7F2
:101CF80095FC034623607B6901337B617B69B3F5FF
:101D0800007FC9DB1C37BD4690BD00BF90B587B0CA
:101D180000AFF860B9607A6000237B6120E07B69DE
:101D28009B00FA6813447A699200B9680A441168FA
:101D38007A6992007868024412688A1A1A607B6984
:101D48009B00FA68D4187B699B00FA6813441B68E7
:101D58001846FEF763FC034623607B6901337B6109
:101D68007B69B3F5007FDADB1C37BD4690BD00BF49
:101D780080B5ADF5016D00AF07F10C03186007F1F0
:101D8800080319603B1D1A6007F10C031868FEF779
:101D980079FF07F108031868FEF7A2FF3B1D1868D2
:101DA800FEF7ACFF07F1100107F10C023B1D0846D6
:101DB80011681A68FFF702FF07F1080107F1080226
:101DC80007F11003086811681A46FFF79FFF3B1DCB
:101DD8001868FEF7CDFF07F50167BD4680BD00BF57
:101DE80090B5ADF5005D87B000AF07F118040C3C65
:101DF800206007F118001038016007F11801143944
:101E08000A6007F11802183A1360002307F500501A
:101E180000F11400036025E007F5005202F11402F6
:101E280013689A0007F11803183B1B6813441A68D3
:101E380013465B001344DB02194607F11803043B01
:101E480007F5005000F11400026843F8221007F566
:101E5800005202F114021368013307F5005000F133
:101E68001400036007F5005202F114021368B3F579
:101E7800007FD1DB07F5C05303F114031846FEF7C2
:101E8800F9FB07F5805303F11803043B1846FEF7E6
:101E9800F1FB07F61803043B1846FEF7EBFB07F6C1
:101EA8001801043907F61802043A07F11803043B2D
:101EB800084611461A46FFF7B3FE07F5C05303F16B
:101EC80014031846FFF72AF907F5805303F118039E
:101ED800043B1846FFF722F907F61803043B184697
:101EE800FFF71CF907F11802103A07F118030C3B29
:101EF80007F5C05404F11404106819682246FFF766
:101F08005DFE07F11801103907F5805202F1180239
:101F1800043A07F11803103B086811461A68FFF7DE
:101F28007FFE07F11803143B07F5C05202F11402B3
:101F3800186807F5005303F128031968FFF73EFEF8
:101F480007F11801143907F61802043A07F11803C3
:101F5800143B086811461A68FFF762FE07F1180378
:101F6800103B1868FEF704FF07F11803143B1868C4
:101F7800FEF7FEFE07F500571C37BD4690BD00BFB3
:101F880080B584B000AFF860B9607A60F868F96825
:101F98007A68FFF713FEF868F968BA68FFF740FE39
:101FA800F868FFF775FA1037BD4680BD90B585B063
:101FB80000AF78600023FB600CE0FB689B007A6848
:101FC800D418FEF7FDFA034603F001032360FB680B
:101FD8000133FB60FB68B3F5007FEEDB1437BD46C9
:101FE80090BD00BF80B588B000AFF860B9607A6076
:101FF8007B68184612F09CFF7B68002B26D10023D3
:10200800FB611FE0FB690133BB61FB6902337B6144
:10201800FB699B00FA681344BA6991B27A691204A1
:102028000A441A60FB69DB00BA681344BA691A608B
:10203800FB69DB000433BA6813447A691A60FB69E8
:102048000133FB61FB69FF2BDCDD2BE00023FB6127
:1020580025E0FEF7B5FA0346C3F30C03BB61FEF7B0
:10206800AFFA0346C3F30C037B61FB699B00FA6874
:102078001344BA6991B27A6912040A441A60FB6976
:10208800DB00BA681344BA691A60FB69DB000433E1
:10209800BA6813447A691A60FB690133FB61FB690A
:1020A800FF2BD6DD2037BD4680BD00BF80B485B08C
:1020B80000AF786039600023FB6018E0FB689B0084
:1020C8003A681344FA68D20079680A4412681A60B8
:1020D800FB6801339B003A681344FA680132D20066
:1020E80079680A4412681A60FB680233FB60FB686F
:1020F800FF2BE3DD0023FB601DE0FB6803F5807325
:102108009B003A681344FA68D200043279680A449A
:1021180012681A60FB6803F201139B003A681344C3
:10212800FA680132D200043279680A4412681A60E7
:10213800FB680233FB60FB68FF2BDEDD1437BD460E
:102148005DF8047B704700BF80B588B000AFF860C9
:10215800B9607A60FB68184612F0EAFEFB68002B4B
:1021680027D10023FB6120E0FB695B00BB61FB69B1
:102178005B0001337B61FB699B00BA681344BA6951
:1021880091B27A6912040A441A60FB69DB007A6822
:102198001344BA691A60FB69DB0004337A68134494
:1021A8007A691A60FB690133FB61FB69FF2BDBDD90
:1021B8002BE00023FB6125E0FEF702FA0346C3F398
:1021C8000D03BB61FEF7FCF90346C3F30D037B6106
:1021D800FB699B00BA681344BA6991B27A69120420
:1021E8000A441A60FB69DB007A681344BA691A600A
:1021F800FB69DB0004337A6813447A691A60FB6967
:102208000133FB61FB69FF2BD6DD2037BD4680BD5E
:102218002DE9F05F8346714A714DDFF8C881DFF818
:10222800C8914FF0FF310EB512F08AFE40F0004021
:10223800BDE80E40DFF8B4C1C4B24FEA102001284F
:1022480000F307800EB512F07BFE40F00040BDE8B9
:102258000E40135D5C0980F007804008C0F0A5803F
:10226800A5EB030300F0A1B8B0FA80F41A2C40F3F0
:1022780007800EB512F064FE40F00040BDE80E4045
:1022880003F0070600F01F0404EB46144FEA501051
:10229800012800F307800EB512F052FE40F000400E
:1022A800BDE80E4019F804309C0980F0098003F05D
:1022B8001F034008C0F07980A5EB030300F075B850
:1022C80003F00F064FF0000400F0010A40080AEB83
:1022D8004606012800F307800EB512F031FE40F0E3
:1022E8000040BDE80E4058F824A04FF02003BAFA89
:1022F8008AF707F101070AFA07FAA3EB0703013E79
:1023080000F14E80BAF1000F7FF4F1AF04F101043F
:10231800192CFFF6D9AFDFF8D89000F0010A4FEA80
:1023280050000AEB4606012800F307800EB512F0AC
:1023380007FE40F00040BDE80E402E4BA4EB03031F
:1023480059F823A0BAF1000F00F011804FF03703BD
:10235800BAFA8AF707F101070AFA07FAA3EB0703A3
:10236800013E00F11B80BAF1000F7FF4F1AF4FF08E
:10237800200358F824A0BAFA8AF707F101070AFAE5
:1023880007FAA3EB0703013E00F10880BAF1000F3A
:102398007FF4F1AF04F10104FFF7BFBFDFF8489005
:1023A8004008C0F00280A5EB0303B0FA80F6172EB0
:1023B80040F307800EB512F0C3FD40F00040BDE8C1
:1023C8000E4003EB0E4E4F0838BF4BF811E001F1F9
:1023D800010161457FF430AFBDE8F09F5C0000204B
:1023E80001300000E86500205C010020FF010000CA
:1023F800E8680020190000002DE9F05F8346714A63
:10240800714DDFF8C881DFF8C8914FF0FF310EB584
:1024180012F096FD40F00040BDE80E40DFF8B4C170
:10242800C4B24FEA1020012800F307800EB512F05D
:1024380087FD40F00040BDE80E40135D5C0980F068
:1024480007804008C0F0A580A5EB030300F0A1B801
:10245800B0FA80F41A2C40F307800EB512F070FD24
:1024680040F00040BDE80E4003F0070600F01F04EE
:1024780004EB46144FEA5010012800F307800EB50C
:1024880012F05EFD40F00040BDE80E4019F804303F
:102498009C0980F0098003F01F034008C0F0798090
:1024A800A5EB030300F075B803F00F064FF0000426
:1024B80000F0010A40080AEB4606012800F30780ED
:1024C8000EB512F03DFD40F00040BDE80E4058F852
:1024D80024A04FF02003BAFA8AF707F101070AFA95
:1024E80007FAA3EB0703013E00F14E80BAF1000F93
:1024F8007FF4F1AF04F10104192CFFF6D9AFDFF82E
:10250800D89000F0010A4FEA50000AEB460601286D
:1025180000F307800EB512F013FD40F00040BDE84F
:102528000E402E4BA4EB030359F823A0BAF1000F79
:1025380000F011804FF03703BAFA8AF707F1010764
:102548000AFA07FAA3EB0703013E00F11B80BAF170
:10255800000F7FF4F1AF4FF0200358F824A0BAFA27
:102568008AF707F101070AFA07FAA3EB0703013E06
:1025780000F10880BAF1000F7FF4F1AF04F1010413
:10258800FFF7BFBFDFF848904008C0F00280A5EB16
:102598000303B0FA80F6172E40F307800EB512F049
:1025A800CFFC40F00040BDE80E4003EB0E4E4F0854
:1025B80038BF4BF811E001F1010161457FF430AFFC
:1025C800BDE8F09F5C00002001300000E8650020B5
:1025D8005C010020FF010000E868002019000000ED
:1025E8000146DFF80C3A83FB0103DA0A13019B1A50
:1025F80002EB4323C81AF746DFF8F819B0FBF1F2EB
:1026080001FB1200F746DFF8E839014683FB0103B6
:10261800DA12B2EBE17213019B1A02EB4323C81AD8
:10262800F7460028C0F20C800146DFF8C43983FB66
:102638000103DA0A13019B1A02EB4323C81AF7466F
:10264800DFF8B01990FBF1F24FF00103A3EB02039E
:1026580003FB0100F746DFF89839014683FB0103C5
:10266800DA12B2EBE17213019B1A02EB4323C81A88
:10267800002980F20380DFF87C190844F746002817
:10268800C0F20C800146DFF8683983FB0103DA0ADF
:1026980013019B1A02EB4323C81AF746DFF85029A7
:1026A80082FB0012D212C317D21ADFF848194FF072
:1026B8000103A3EB020303FB0100F7460028C0F265
:1026C8000C800146DFF8283983FB0103DA0A13017D
:1026D8009B1A02EB4323C81AF746C0F100000146D3
:1026E800DFF80C3983FB0103DA0A13019B1A02EBAA
:1026F8004323C81ADFF8FC18A1EB0000F746DFF8FF
:10270800F4180028BABF40420B460023B0FBF1F290
:1027180002FB1102A3EB02021046F746DFF8D418B9
:102728000028BABF40420B460023B0FBF1F202FB7F
:102738001102A3EB0200F7462DE93040DFF8B0386C
:1027480081B2A3FB0124E20A1401A41A02EB442477
:102758000D1B1FFAA0F1A3FB0124E20A1401A41A1D
:1027680002EB44240B1B05EB0340BDE830802DE948
:10277800F040DFF880784FF0000351F8234052F81A
:10278800235094FA45F4A6B2BE4258BFF61B4FEA4E
:102798001444BC4258BFE41B06EB044440F82340F1
:1027A80003F10103B3F5807F7FF4E7AFBDE8F08064
:1027B8002DE9F041DFF83C884FF0000351F8234041
:1027C80052F8235014FB35F6B6FBF8F708FB1766EA
:1027D80014FB05F4B4FBF8F708FB174404EB0644B4
:1027E80040F8234003F10103B3F5807F7FF4E6AF9F
:1027F800BDE8F0812DE9F047DFF8F8874FF0000ACF
:1028080051F82A4052F82A5053F82A9014FB35F60A
:1028180006EB1946B6FBF8F708FB176614FB05F438
:102828001FFA89F94C44B4FBF8F708FB174404EB8A
:10283800064440F82A400AF1010ABAF5807F7FF47D
:10284800DFAFBDE8F0872DE9F001DFF8A8874FF08A
:10285800000351F8234052F82350D4FA05F634B255
:10286800002CB8BF6442B4FBF8F707FB1847B8BFA1
:10287800A8EB07070FFAA6F5002DB8BF6D42B5FB08
:10288800F8F404FB1854B8BFA8EB040407EB04449D
:1028980040F8234003F10103B3F5807F7FF4D9AFFB
:1028A800BDE8F001F7462DE9F05FDFF84817DFF8DB
:1028B800483708B44FF0020208BC1C6803F1020351
:1028C80008B44FF001084FF000064FF0000706EB80
:1028D800070950F829301FFA83FA13FB28FBBBFBC2
:1028E800F1FC01FB1CBB0AEB0B0C8C4558BFACEB95
:1028F800010CBAEB0B0E48BF8E4409EB520950F895
:10290800293013FB28FB9BB2BBFBF1FA01FB1ABB76
:10291800B3EB0B0A48BF8A440EEB0A4A40F829A0D9
:1029280003EB0B0A8A4558BFAAEB010A0CEB0A4CC9
:1029380006EB070940F829C01744B7F5807FFFF672
:10294800C6AF18FB04F8B8FBF1F901FB198806F1CA
:102958000106B6EB520F3FF5B8AF4FEA4202B2F5A7
:10296800807F7FF7A9AFDFF894464FF001084FF05A
:10297800000950F829301FFA83FA13FB28FBBBFB28
:10298800F1FC01FB1CBB0AEB0B0C8C4558BFACEBF4
:10299800010CBAEB0B0E48BF8E440CEB0E4C40F802
:1029A80029C018FB04F8B8FBF1F301FB138809F1FF
:1029B8000109B9F5807FFFF6DCAFDFF84436DFF8B0
:1029C8004446DFF844764FF001084FF0000950F80C
:1029D80029A01AFB08FBBBFBF1FC01FB1CBB1BFB82
:1029E80007FBBBFBF1FC01FB1CBB1AFB23FEBEFB78
:1029F800F1FC01FB1CEE1EFB07FEBEFBF1FC01FB1C
:102A08001CEE0BEB0E4B40F829B018FB04F8B8FB92
:102A1800F1FA01FB1A8813FB04F3B3FBF1FA01FB8B
:102A28001A3309F10109B9F5807FFFF6D0AF08BC68
:102A3800BDE8F09F2DE9F05FDFF8B815DFF8CC3579
:102A480008B44FF0020208BC1C681FFAA4F8A4B22C
:102A580003F1020308B44FF000064FF0000706EB3D
:102A6800070950F829301FFA83FA13FB28FBBBFB30
:102A7800F1FC01FB1CBB0AEB0B0C8C4558BFACEB03
:102A8800010CBAEB0B0E48BF8E4409EB520950F803
:102A9800293013FB28FB9BB2BBFBF1FA01FB1ABBE5
:102AA800B3EB0B0A48BF8A440EEB0A4A40F829A048
:102AB80003EB0B0A8A4558BFAAEB010A0CEB0A4C38
:102AC80006EB070940F829C01744B7F5807FFFF6E1
:102AD800C6AF18FB04F8B8FBF1F901FB198806F139
:102AE8000106B6EB520F3FF5B8AF4FEA4202B2F516
:102AF800807F7FF7A8AFDFF81845DFF818854FF01B
:102B0800000950F829301FFA83FA13FB28FBBBFB96
:102B1800F1FC01FB1CBB0AEB0B0C8C4558BFACEB62
:102B2800010CBAEB0B0E48BF8E440CEB0E4C40F870
:102B380029C018FB04F8B8FBF1F301FB138809F16D
:102B48000109B9F5807FFFF6DCAF08BCBDE8F09F4E
:102B58002DE9F05FDFF89C14DFF8B03408B44FF0CB
:102B6800020208BC1C681FFAA4F8A4B203F102030D
:102B780008B44FF000064FF0000706EB070950F8BD
:102B880029301FFA83FA13FB28FBBBFBF1FC01FB7E
:102B98001CBB0AEB0B0C8C4558BFACEB010CBAEB19
:102BA8000B0E48BF8E4409EB520950F8293013FB2D
:102BB80028FB9BB2BBFBF1FA01FB1ABBB3EB0B0A78
:102BC80048BF8A440EEB0A4A40F829A003EB0B0AD7
:102BD8008A4558BFAAEB010A0CEB0A4C06EB070919
:102BE80040F829C000F5806006EB070950F8293045
:102BF8001FFA83FA13FB28FBBBFBF1FC01FB1CBB90
:102C08000AEB0B0C8C4558BFACEB010CBAEB0B0E66
:102C180048BF8E4409EB520950F8293013FB28FBB2
:102C28009BB2BBFBF1FA01FB1ABBB3EB0B0A48BF23
:102C38008A440EEB0A4A40F829A003EB0B0A8A459E
:102C480058BFAAEB010A0CEB0A4C06EB070940F83F
:102C580029C000F5806006EB070950F829301FFAF3
:102C680083FA13FB28FBBBFBF1FC01FB1CBB0AEB43
:102C78000B0C8C4558BFACEB010CBAEB0B0E48BFE4
:102C88008E4409EB520950F8293013FB28FB9BB2FC
:102C9800BBFBF1FA01FB1ABBB3EB0B0A48BF8A4432
:102CA8000EEB0A4A40F829A003EB0B0A8A4558BFE5
:102CB800AAEB010A0CEB0A4C06EB070940F829C0FD
:102CC800A0F500601744B7F5807FFFF656AF18FBF4
:102CD80004F8B8FBF1F901FB198806F10106B6EB17
:102CE800520F3FF548AF4FEA4202B2F5807F7FF7B7
:102CF80038AFC74CDFF81C834FF0000950F8293073
:102D08001FFA83FA13FB28FBBBFBF1FC01FB1CBB7E
:102D18000AEB0B0C8C4558BFACEB010CBAEB0B0E55
:102D280048BF8E440CEB0E4C40F829C000F580607B
:102D380050F829301FFA83FA13FB28FBBBFBF1FC80
:102D480001FB1CBB0AEB0B0C8C4558BFACEB010C10
:102D5800BAEB0B0E48BF8E440CEB0E4C40F829C062
:102D680000F5806050F829301FFA83FA13FB28FB1E
:102D7800BBFBF1FC01FB1CBB0AEB0B0C8C4558BFE1
:102D8800ACEB010CBAEB0B0E48BF8E440CEB0E4CAF
:102D980040F829C0A0F5006018FB04F8B8FBF1F36F
:102DA80001FB138809F10109B9F5807FFFF6A6AF89
:102DB80008BCBDE8F09F2DE910404FF0010191FAE1
:102DC800A1F24FEA12628A4240F3088050F821309B
:102DD80050F8224040F8214040F8223001F101012A
:102DE800B1F5807FFFF6EBAFBDE810802DE9F0402C
:102DF800804C07464FF000050EB512F0A1F8BDE86B
:102E08000E4086B2B6FBF4F104FB11661FFAA0F07F
:102E1800B0FBF4F104FB110006EB004647F825600F
:102E280005F10105B5F5807F7FF4E6AF3846FFF779
:102E380001FEBDE8F0802DE9F04104464FF440570B
:102E48004FF000090EB512F07BF8BDE80E4000F017
:102E580001068008C0F0028006FB07F600F00108B2
:102E68008008C0F0028008FB07F806EB084644F823
:102E7800296009F1010900F001068008C0F002800C
:102E880006FB07F600F001088008C0F0028008FB86
:102E980007F806EB084644F8296009F1010900F033
:102EA80001068008C0F0028006FB07F600F0010862
:102EB8008008C0F0028008FB07F806EB084644F8D3
:102EC800296009F1010900F001068008C0F00280BC
:102ED80006FB07F600F001088008C0F0028008FB36
:102EE80007F806EB084644F8296009F1010900F0E3
:102EF80001068008C0F0028006FB07F600F0010812
:102F08008008C0F0028008FB07F806EB084644F882
:102F1800296009F1010900F001068008C0F002806B
:102F280006FB07F600F001088008C0F0028008FBE5
:102F380007F806EB084644F8296009F1010900F092
:102F480001068008C0F0028006FB07F600F00108C1
:102F58008008C0F0028008FB07F806EB084644F832
:102F6800296009F1010900F001068008C0F002801B
:102F780006FB07F600F001088008C0F0028008FB95
:102F880007F806EB084644F8296009F10109B9F584
:102F9800807F00F00480B9F5807F7FF453AF20462E
:102FA800FFF748FDBDE8F081F74630B41A4A4FF004
:102FB800000551F8253013FB02F413FB22F304EB50
:102FC800034440F8254005F10105B5F5807F7FF4FD
:102FD800F0AF30BCF7462DE9F0404FF000064FF057
:102FE80000070E4D0E49C5FBC167BDE8F080000023
:102FF800851CA7AA013000004C000020C20E00006A
:103008003A2A00007F230000E92F00003800002042
:10301800B7150000BB1A00000018000002000100EC
:103028000400030080B582B000AF78607868FFF7CD
:10303800E3F97868FFF7FEFC0837BD4680BD00BF9E
:1030480080B5ADF5826D00AF07F10C03186007F18C
:10305800080319603B1D1A6007F10C031868FFF795
:10306800C5FE07F108031868FFF7DCFF3B1D186869
:10307800FFF7E1FE07F1100107F10C023B1D0846BE
:1030880011681A68FFF794FB07F1080107F10802B5
:1030980007F11003086811681A46FFF7D4FB3B1DB7
:1030A8001868FFF788FE07F58267BD4680BD00BF38
:1030B80080B584B000AFF860B9607A60F868F968E4
:1030C8007A68BB68FFF796FBF868FFF7ECFB1037E8
:1030D800BD4680BD90B5ADF2144D00AF07F10C04AC
:1030E800206007F108000160391D0A603A46136044
:1030F80007F110023B4610461968FFF756FF1948BA
:10310800FFF77AF91848FFF777F91848FFF774F9C5
:1031180007F11003154815491A46FFF728FB11480F
:10312800FFF716FD07F1080207F10C03106819688C
:103138000C4A0D4BFFF75EFB3B1D1868D7F82014AF
:10314800084A0A4BFFF756FB07F108031868FFF710
:1031580032FE3B1D1868FFF72EFE07F21447BD46E6
:1031680090BD00BF487000204874002048780020B7
:10317800B0B584B000AF78600023FB6029E0FB683D
:103188009B007A68D41811F0DBFE0246144B1340FA
:10319800002B03DA013B63F0010301332360FB6872
:1031A8009B007A68D418FB689B007A6813441D68F2
:1031B80011F0C6FE02460A4B1340002B03DA013B0E
:1031C80063F0010301331B042B442360FB680133C4
:1031D800FB60FB68FF2BD2DD1037BD46B0BD00BFDA
:1031E8000100008080B485B000AF786039600023AA
:1031F800FB6018E0FB68DA0F13445B109B003A6829
:103208001344FA68920079680A44126891B2FA681D
:103218000132920078680244126812040A441A6063
:10322800FB680233FB60FB68FF2BE3DD0023FB60D8
:103238001AE0FB68DA0F13445B1080339B003A688E
:103248001A44FB689B0079680B441B68190CFB68DF
:1032580001339B00786803441B681B0C1B040B4458
:103268001360FB680233FB60FB68FF2BE1DD14375A
:10327800BD465DF8047B704780B483B000AF7860CA
:1032880039603B689AB27B681B681B0C1B041A44A4
:103298007B681A600C37BD465DF8047B704700BF39
:1032A80080B483B000AF786039603B681A047B68EB
:1032B8001B689BB21A447B681A600C37BD465DF8E0
:1032C800047B704780B592B000AF786000237B64C0
:1032D8001AE17A6C904B1340002B03DA013B63F040
:1032E80001030133FB637B6C5A108B4B1340002B9B
:1032F80003DA013B63F001030133BB637B6C9A1073
:10330800854B1340002B03DA013B63F001030133C3
:103318007B637B6CDA10804B1340002B03DA013B94
:1033280063F0010301333B637B6C1A117A4B134042
:10333800002B03DA013B63F001030133FB627B6C72
:103348005A11754B1340002B03DA013B63F001035C
:103358000133BB627B6C9A116F4B1340002B03DA6D
:10336800013B63F0010301337B627B6CDA116A4B2A
:103378001340002B03DA013B63F0010301333B6286
:103388007B6CDA0F13445B10FB617A6C624B134061
:10339800002B03DA013B63F001030133BB617B6C53
:1033A8001A125D4B1340002B03DA013B63F0010353
:1033B80001337B61FB6B5A00BB6B13445A007B6B78
:1033C80013445A003B6B13445A00FB6A13445A00D7
:1033D800BB6A13445A007B6A13445A003B6A13447D
:1033E8005A007B6913443B613B69DA0F13445B1055
:1033F800FB603A69484B1340002B03DA013B63F04A
:1034080001030133BB603A697B6C9A4279DDBB6882
:10341800002B06D1FB689B007A6813441B689BB29B
:103428003B64BB68012B06D1FB689B007A68134498
:103438001B681B0C3B64BB68002B0FD1BB69002BBE
:103448000CD1FB689B007A681A44FB699B00796879
:103458000B441B6810461946FFF70EFFBB68002B8C
:1034680010D1BB69012B0DD1FB689B007A681A4407
:10347800FB699B0079680B441B681B0C10461946B6
:10348800FFF7FAFEBB68012B0FD1BB69002B0CD1EB
:10349800FB689B007A681A44FB699B0079680B44B7
:1034A8001B6810461946FFF7FBFEBB68012B10D1BD
:1034B800BB69012B0DD1FB689B007A681A44FB6934
:1034C8009B0079680B441B681B0C10461946FFF7D4
:1034D800E7FEBB69002B08D1FB699B007A681A4498
:1034E8003B6C10461946FFF7C7FEBB69012B08D194
:1034F800FB699B007A681A443B6C10461946FFF733
:10350800CFFE7B6C01337B647B6CB3F5007FFFF6E9
:10351800E0AE4837BD4680BD0100008080B584B06C
:1035280000AFF860B9607A60F868FFF783FAB868A6
:10353800FFF780FA7868F968BA68FFF739F97868A8
:10354800FFF739FC7868FFF7AEF91037BD4680BD44
:1035580080B485B000AF7860396000237B7204E0E6
:103568007B681B685A1C7B681A607B681B681B7821
:10357800FB72FB7A202BF3D0FB7A2D2B0AD1012387
:103588007B727B681B685A1C7B681A607B681B68A7
:103598001B78FB72FB7A302B39D17B681B685A1C6D
:1035A8007B681A607B681B681B78FB72FB7A202B90
:1035B80004D83B6800221A6001236CE0FB7A782B60
:1035C8000BD11023BB727B681B685A1C7B681A607E
:1035D8007B681B681B78FB7223E0FB7A622B0BD19C
:1035E8000223BB727B681B685A1C7B681A607B6865
:1035F8001B681B78FB7214E0FB7A2F2B05D9FB7A2A
:10360800392B02D80823BB720BE0002343E0FB7A76
:10361800302B02D9FB7A392B01D900233BE00A234E
:10362800BB720023FB6029E0FB7A602B02D9FB7A8E
:10363800203BFB72FB7A303BFB72FB7A102B07D9DD
:10364800FB7A073BFB72FB7A092B01D8002322E0A7
:10365800FA7ABB7A9A4201D300231CE0BB7AFA6853
:1036680002FB03F2FB7A1344FB607B681B685A1C5D
:103678007B681A607B681B681B78FB72FB7A202BBF
:10368800D2D87B7A002B02D0FB685B42FB60FA68D9
:103698003B681A60012318461437BD465DF8047B61
:1036A800704700BF80B582B000AF0346FB71FB795D
:1036B8000A2B02D10D2000F009FBFB79184600F017
:1036C80005FB0837BD4680BD80B582B000AF786085
:1036D80006E07B685A1C7A601B781846FFF7E2FF01
:1036E8007B681B78002BF4D10837BD4680BD00BF2E
:1036F80080B58CB000AFF860B9607A60002387F8B5
:103708002E30202387F82D30002387F82C30BB6813
:10371800002B0BDABB685B42BB60FB68002B05DA49
:10372800FB685B42FB602D2387F82E30FB68BB6289
:10373800BB6887F827307B68002B05DA7B685B421B
:103748007B60302387F82D307B68142B62DC97F878
:103758002720BB6AB3FBF2F102FB01F29B1A87F840
:103768002F3097F82F30092B04D997F82F300733CB
:1037780087F82F3097F82F30303387F82F3097F8A5
:103788002C305A1C87F82C2007F13002134497F884
:103798002F2003F8202C97F82730BA6AB2FBF3F3EE
:1037A800BB62BB6A002BD2D197F82E30002B0CD00D
:1037B80097F82C305A1C87F82C2007F13002134454
:1037C80097F82E2003F8202C0CE00BE097F82C300B
:1037D8005A1C87F82C2007F13002134497F82D2043
:1037E80003F8202C97F82C207B689A42EEDB97F898
:1037F8002C30013B87F82C3097F82C3007F1300239
:10380800134413F8203C1846FFF74CFF97F82C3068
:10381800002BECD13037BD4680BD00BF0FB480B55A
:1038280086B000AF07F124033B60A2E07B69252B3B
:1038380005D07B69DBB21846FFF734FF99E03B6A95
:103848005A1C3A621B787B6100237B607B68BB60F3
:10385800BB683B613B69FB607B69302B07D13B6AE6
:103868005A1C3A621B787B610123BB6011E010E0AF
:10387800FA6813469B0013445B001A467B69303B89
:103888001344FA681344FB603B6A5A1C3A621B787B
:103898007B617B692F2B02DD7B69392BE8DDBB68F7
:1038A800002B02D0FB685B42FB607B696C2B06D166
:1038B80001237B603B6A5A1C3A621B787B617B69F7
:1038C800002B00D15EE07B69732B07D13B681A1D82
:1038D8003A601B681846FFF7F7FE4AE07B69632BDE
:1038E80008D13B681A1D3A601B68DBB21846FFF71F
:1038F800D9FE3EE07B69752B01D10A233B617B69C8
:10390800642B02D16FF009033B617B69582B02D00D
:103918007B69782B01D110233B617B69622B01D134
:1039280002233B613B69002B00D12BE07B68002B15
:1039380009D03B681A1D3A601B6818463969FA684D
:10394800FFF7D6FE15E03B69002B09DD3B681A1D21
:103958003A601B6818463969FA68FFF7C9FE08E03B
:103968003B681A1D3A601B6818463969FA68FFF700
:10397800BFFE3B6A5A1C3A621B787B617B69002B4D
:103988007FF454AF1837BD46BDE8804004B0704797
:1039980080B586B000AFF860B9607A601F48B96832
:1039A800FFF73CFF0023FB750AE0FB7DFA68134430
:1039B8001B781B481946FFF731FFFB7D0133FB7568
:1039C800FA7D7B689A42F0DB2020FFF76BFE00232C
:1039D800FB7519E0FB7DFA6813441B781F2B05D98A
:1039E800FB7DFA6813441B787E2B03D92E20FFF742
:1039F80059FE06E0FB7DFA6813441B781846FFF76A
:103A080051FEFB7D0133FB75FA7D7B689A42E1DB51
:103A18000A20FFF747FE1837BD4680BDA84F0108AA
:103A2800B04F010880B584B000AF786039600023DA
:103A3800FB6000F043F90346FB72FB7A0D2B00D1C3
:103A480028E0FB7A082B10D1FB68002B0DD0FB680F
:103A5800013BFB60FB7A1846FFF724FE2020FFF7A6
:103A680021FEFB7A1846FFF71DFEFB7A1F2B10D9A3
:103A78003B685A1EFB689A420BDDFB685A1CFA60C9
:103A88007A681344FA7A1A70FB7A1846FFF70AFE26
:103A9800CFE7CEE7FB687A68134400221A700A2041
:103AA800FFF700FE1037BD4680BD00BF80B588B067
:103AB80000AFF860B9607A600023FB6100F0F6F8A7
:103AC8000346002B3ED07B681B68BB6100F0F6F80C
:103AD8000346FB75FB7D0D2B0AD1BB69FA681344BD
:103AE80000221A700A20FFF7DDFD0123FB6126E0A2
:103AF800FB7D082B10D1BB69002B0DD0BB69013BA6
:103B0800BB61FB7D1846FFF7CDFD2020FFF7CAFDFE
:103B1800FB7D1846FFF7C6FDFB7D1F2B0FD9BB6841
:103B28005A1EBB699A420ADDBB695A1CBA61FA6817
:103B38001344FA7D1A70FB7D1846FFF7B3FD7B68C6
:103B4800BA691A60FB6918462037BD4680BD00BFB8
:103B580080B58AB000AF7860102001210BF01AFE02
:103B6800022001210BF09EFDC0233B62022387F84F
:103B78002430022387F82530002387F826300123D4
:103B880087F8273007F120031C48194609F014FD6F
:103B98001A480621072209F07DFE18480721072246
:103BA80009F078FE7B683B610023BB820023FB821F
:103BB80000233B830023BB830C237B8307F1100383
:103BC8000F48194610F07CF80D4840F225510122A3
:103BD80010F0B0FB25233B7300237B730023BB73DA
:103BE8000123FB7307F10C03184602F07DF9044822
:103BF800012110F07BF92837BD4680BD0004024042
:103C08000010014080B582B000AF7860396012E0E2
:103C180000BF7B681B889BB203F04003002BF8D0E1
:103C28003B681B78DBB27868194610F0DDF93B6811
:103C38005A1C3A601B783B681B78DBB2002BE7D133
:103C48000837BD4680BD00BF80B582B000AF1448BC
:103C580040F2255110F0E2FB0346002B1DD0104B1B
:103C68009B889BB2FB71FB790A2B0FD00D4B1B78FD
:103C78000B2B0BD80B4B1B780B4AF979D154094BFA
:103C88001B780133DAB2074B1A7006E0054B0022A5
:103C98001A7003480449FFF7B5FF0837BD4680BDD1
:103CA80000100140647C0020687C002080B400AFD4
:103CB8001846BD465DF8047B704700BF80B400AF6E
:103CC8001846BD465DF8047B704700BF80B582B0DA
:103CD80000AF0346FB7100BF074B1B889BB203F084
:103CE8004003002BF8D0FB799BB20348194610F02B
:103CF8007BF90837BD4680BD0010014080B500AF94
:103D08004FF41650FFF724FF80BD00BF80B586B082
:103D180000AFF860B9607A60BA68FB68D21A3B6A8B
:103D2800D31A7B617B687A69B2FBF3F33B61034882
:103D38003969FFF773FD1837BD4680BDB84F0108D4
:103D480080B5ADF5E04D84B000AF214B204AD26874
:103D580042F08072DA601F4B00225A601D4B1D4AE8
:103D6800126842F001021A601A4B5B6807F5E041DD
:103D780001F10C010B60174B5B6807F5E04202F19B
:103D88000802136007F5E04303F108031A6807F512
:103D9800E04101F10C010B68D31A1A464FF00003F9
:103DA80007F5E041C1E9002307F5E04213680A4836
:103DB8001946FFF733FD074B5B6807F5E04101F152
:103DC80008010B6007F5E0471037BD4680BD00BF0E
:103DD800F0ED00E0001000E0D44F010890B5ADF51B
:103DE8002C4D8FB002AF5548FFF76EFC5448FFF7D3
:103DF80015FD002307F52C4000F124000360002383
:103E080007F52C4101F12C010B605BE007F52C4311
:103E180003F12C031A684B4B83FB02035911D31788
:103E2800CB1A642101FB03F3D31A002B02D14648B5
:103E3800FFF7F4FC07F52C4101F12C010B6818463B
:103E480011F076F807F5244303F104031846FEF74A
:103E5800D3FA07F52C4202F12C021368184611F028
:103E680067F807F51C4303F110030C3B1846FCF7F1
:103E780001FC07F5244202F1040207F51C4303F193
:103E880010030C3B10461946FDF764FE0346002B51
:103E98000DD12E4807F52C4303F12C031968FFF7C1
:103EA800BDFC012307F52C4000F12400036007F551
:103EB8002C4101F12C010B68013307F52C4202F16A
:103EC8002C02136007F52C4303F12C031A6842F205
:103ED8000F739A429ADD07F52C4000F1240003681D
:103EE800012B08D11A4807F52C4202F12C0211685F
:103EF800FFF794FC02E01748FFF790FC1648FFF71D
:103F0800E3FB002307F52C4000F1240003600023A5
:103F180007F52C4101F12C010B604BE107F52C4210
:103F280002F12C021368184611F002F8002307F575
:103F38002C4000F128000360E4E000BFE84F0108CE
:103F4800F44F01081F85EB5104500108085001087F
:103F5800105001081C5001082050010810F0F0FF13
:103F68000346C3F30D0307F52C4101F10C010B6067
:103F780010F0E6FF0346C3F30D0307F52C4202F1E8
:103F88000802136007F52C4000F12800036803F6C7
:103F9800FF7307F52C4101F10C010B6007F52C426A
:103FA80002F12802136803F5805307F52C4000F14D
:103FB8000800036007F52C4101F10C010B689AB267
:103FC80007F52C4000F1080003681B04D11807F519
:103FD800244303F1040307F52C4000F1280002688C
:103FE80043F8221007F5705303F130032C3B07F513
:103FF8002C4101F128010A6807F52C4000F10C005A
:10400800016843F8221007F5605303F130032C3B95
:1040180007F52C4101F128010A6807F52C4000F149
:104028000800016843F8221010F08AFF034607F5DC
:104038002C4101F10C010B6010F082FF034607F5DB
:104048002C4202F10802136007F52C4000F1280009
:10405800036803F6FF7307F52C4101F10C010B60AF
:1040680007F52C4202F12802136803F5805307F57F
:104078002C4000F10800036007F52C4101F10C0108
:104088000B689AB207F52C4000F1080003681B047E
:10409800D11807F51C4303F110030C3B07F52C401E
:1040A80000F12800026843F8221007F5505303F185
:1040B80030032C3B07F52C4101F128010A6807F56C
:1040C8002C4000F10C00016843F8221007F540531A
:1040D80003F130032C3B07F52C4101F128010A6854
:1040E80007F52C4000F10800016843F8221007F595
:1040F8002C4101F128010B68013307F52C4202F12C
:104108002802136007F52C4000F128000368FF2BF4
:104118007FF624AF07F5244101F1040107F5244295
:1041280002F1040207F51C4303F110030C3B084697
:1041380011461A46FEF71BFB07F5705000F13000D8
:104148002C3807F5605101F130012C3907F5505230
:1041580002F130022C3A07F5405303F130032C3BAF
:10416800FDF706FC07F5705202F130022C3A07F50C
:10417800605303F130032C3B07F5244404F1040495
:10418800104619462246FDF7C1FB0346002B06D10F
:10419800012307F52C4101F124010B601BE007F511
:1041A8002C4202F12C021368013307F52C4000F170
:1041B8002C00036007F52C4101F12C010A6842F23A
:1041C8000F739A4207DC07F52C4202F124021368A8
:1041D800002B3FF4A3AE07F52C4000F12400036840
:1041E800012B08D1BD4807F52C4202F12C021168B9
:1041F800FFF714FB02E0BA48FFF710FBB948FFF7D6
:104208000DFB002307F52C4000F124000360002378
:1042180007F52C4101F12C010B6083E007F52C42D6
:1042280002F12C021368184610F082FE07F13002E2
:104238002C3A07F5815303F110032C3B104619461D
:1042480007F52C4303F12C031A68FDF7CBFE07F59D
:104258002C4000F12C0003685C1C07F586622C3AA0
:1042680007F5C15303F110032C3B104619462246AB
:10427800FDF7B8FE07F52C4101F12C010B689C1CD9
:1042880007F503622C3A07F5005303F130032C3B82
:10429800104619462246FDF7A5FE07F543602C385F
:1042A80007F130012C3907F586622C3A07F50363CC
:1042B8002C3BFEF79FFA07F5205000F130002C3810
:1042C80007F5815101F110012C3907F5C15202F1AE
:1042D80010022C3A07F5005303F130032C3BFDF78D
:1042E800D1FC07F543622C3A07F5205303F130035C
:1042F8002C3B10461946FDF72DFC0346002B06D132
:10430800012307F52C4202F12402136014E007F59B
:104318002C4000F12C000368013307F52C4101F112
:104328002C010B6007F52C4303F12C031A6842F2A9
:104338000F739A427FF772AF07F52C4000F1240003
:104348000368012B03D16848FFF768FA02E0674861
:10435800FFF764FA002307F52C4101F124010B60F3
:104368006348FFF75BFA002307F52C4202F12C02A1
:10437800136040E007F52C4000F12C000368184654
:1043880010F0D6FD07F5244303F104031846FEF7A1
:1043980052FD07F52C4101F12C010B68184610F06D
:1043A800C7FD07F51C4303F110030C3B1846FCF747
:1043B800A5FC07F5244202F1040207F51C4303F1AA
:1043C80010030C3B10461946FDF7C4FB0346002BAF
:1043D80006D1012307F52C4202F12402136013E0F1
:1043E80007F52C4000F12C000368013307F52C4138
:1043F80001F12C010B6007F52C4303F12C031A681B
:1044080042F20F739A42B5DD07F52C4000F1240003
:104418000368012B03D13748FFF700FA02E0304860
:10442800FFF7FCF93448FFF74FF9002307F52C4153
:1044380001F124010B60002307F52C4202F12C0244
:1044480013606BE007F52C4303F12C031A682B4B20
:1044580083FB02035911D317CB1A642101FB03F321
:10446800D31A002B02D12E20FFF71CF907F524429E
:1044780002F1040207F51C4303F110030C3B10463C
:10448800194607F52C4303F12C031A68FDF7AAFD1A
:1044980007F5244303F104031846FEF713FF07F555
:1044A8001C4303F110030C3B1846FCF719FD07F5F4
:1044B800244202F1040207F51C4303F110030C3BEC
:1044C80010461946FDF746FB0346002B18D1012379
:1044D80007F52C4000F1240003602FE0105001087C
:1044E8001C50010838500108505001085850010864
:1044F8006050010870500108785001081F85EB5181
:104508002E20FFF7CFF807F52C4101F12C010B689D
:10451800013307F52C4202F12C02136007F52C43F6
:1045280003F12C031A6842F20F739A4206DC07F56E
:104538002C4000F124000368002B83D007F52C41A0
:1045480001F124010B68012B08D1C54807F52C425D
:1045580002F12C021168FFF761F902E0C148FFF788
:104568005DF9C148FFF7B0F8002307F52C4000F1CA
:1045780024000360002307F52C4101F12C010B6096
:104588003AE107F52C4202F12C021368184610F0A4
:10459800CFFC002307F52C4000F128000360D3E08E
:1045A80010F0CEFC0346C3F30D0307F52C4101F1CF
:1045B8000C010B6010F0C4FC0346C3F30D0307F5B0
:1045C8002C4202F10802136007F52C4000F1280084
:1045D800036803F6FF7307F52C4101F10C010B602A
:1045E80007F52C4202F12802136803F5805307F5FA
:1045F8002C4000F10800036007F52C4101F10C0183
:104608000B689AB207F52C4000F1080003681B04F8
:10461800D11807F5244303F1040307F52C4000F1F2
:104628002800026843F8221007F5705303F130039D
:104638002C3B07F52C4101F128010A6807F52C40AD
:1046480000F10C00016843F8221007F5605303F1EC
:1046580030032C3B07F52C4101F128010A6807F5C6
:104668002C4000F10800016843F8221010F068FCA3
:10467800034607F52C4101F10C010B6010F060FCBA
:10468800034607F52C4202F10802136007F52C4097
:1046980000F12800036803F6FF7307F52C4101F1C8
:1046A8000C010B6007F52C4202F12802136803F590
:1046B800805307F52C4000F10800036007F52C41F2
:1046C80001F10C010B689AB207F52C4000F10800C3
:1046D80003681B04D11807F51C4303F110030C3BB6
:1046E80007F52C4000F12800026843F8221007F56E
:1046F800505303F130032C3B07F52C4101F12801FD
:104708000A6807F52C4000F10C00016843F82210F4
:1047180007F5405303F130032C3B07F52C4101F119
:1047280028010A6807F52C4000F10800016843F8E1
:10473800221007F52C4101F128010B68013307F518
:104748002C4202F12802136007F52C4000F12800E2
:104758000368FF2B7FF624AF07F5244101F104011C
:1047680007F5244202F1040207F51C4303F1100384
:104778000C3B084611461A46FEF71AF807F5705022
:1047880000F130002C3807F5605101F130012C3967
:1047980007F5505202F130022C3A07F5405303F165
:1047A80030032C3BFDF734F907F5705202F1300263
:1047B8002C3A07F5605303F130032C3B07F52444EA
:1047C80004F10404104619462246FDF79FF80346F3
:1047D800002B06D1012307F52C4101F124010B60C0
:1047E8001BE007F52C4202F12C021368013307F590
:1047F8002C4000F12C00036007F52C4101F12C013D
:104808000A6842F20F739A4207DC07F52C4202F15C
:1048180024021368002B3FF4B4AE07F52C4000F1D6
:1048280024000368012B08D10D4807F52C4202F13A
:104838002C021168FEF7F2FF02E00A48FEF7EEFFCD
:104848000A48FEF741FF002307F52C4000F1240039
:104858000360002307F52C4101F12C010B6048E0AF
:10486800105001081C50010888500108A050010888
:1048780007F52C4202F12C021368184610F058FB79
:1048880007F5244303F104031846FEF7AFFA07F5CA
:104898002C4000F12C000368184610F049FB07F57E
:1048A8001C4303F110030C3B1846FCF7EBF907F522
:1048B800244202F1040207F51C4303F110030C3BE8
:1048C80010461946FDF746F90346002B06D1012389
:1048D80007F52C4101F124010B601AE007F52C4281
:1048E80002F12C021368013307F52C4000F12C006B
:1048F800036007F52C4101F12C010A6842F20F739D
:104908009A4206DC07F52C4202F124021368002BB8
:10491800AED007F52C4000F124000368012B08D124
:104928004F4807F52C4202F12C021168FEF776FF7A
:1049380002E04C48FEF772FF4B48FEF7C5FE002325
:1049480007F52C4000F124000360002307F52C41F3
:1049580001F12C010B6040E007F52C4202F12C021A
:104968001368184610F0E4FA07F5244303F104032A
:104978001846FEF757FB07F52C4000F12C0003689A
:10498800184610F0D5FA07F51C4303F110030C3B49
:104998001846FCF7A5F907F5244202F1040207F5C9
:1049A8001C4303F110030C3B10461946FDF7D2F8DF
:1049B8000346002B06D1012307F52C4101F1240100
:1049C8000B601AE007F52C4202F12C021368013340
:1049D80007F52C4000F12C00036007F52C4101F18C
:1049E8002C010A6842F20F739A4206DC07F52C4242
:1049F80002F124021368002BAED007F52C4000F119
:104A080024000368012B08D1154807F52C4202F150
:104A18002C021168FEF702FF02E01248FEF7FEFEC4
:104A28001248FEF751FE002307F52C4000F1240040
:104A38000360002307F52C4101F12C010B6045E1CF
:104A480007F52C4202F12C021368184610F070FA90
:104A5800002307F52C4000F128000360DEE000BFCA
:104A6800105001081C500108AC500108B85001084A
:104A780010F066FA0346C3F30D0307F52C4101F164
:104A88000C010B6010F05CFA0346C3F30D0307F545
:104A98002C4202F10802136007F52C4000F12800AF
:104AA800036803F6FF7307F52C4101F10C010B6055
:104AB80007F52C4202F12802136803F5805307F525
:104AC8002C4000F10800036007F52C4101F10C01AE
:104AD8000B689AB207F52C4000F1080003681B0424
:104AE800D11807F5244303F1040307F52C4000F11E
:104AF8002800026843F8221007F5705303F13003C9
:104B08002C3B07F52C4101F128010A6807F52C40D8
:104B180000F10C00016843F8221007F5605303F117
:104B280030032C3B07F52C4101F128010A6807F5F1
:104B38002C4000F10800016843F8221010F000FA38
:104B4800034607F52C4101F10C010B6010F0F8F950
:104B5800034607F52C4202F10802136007F52C40C2
:104B680000F1280003685B0003F6FF7307F52C418A
:104B780001F10C010B6007F52C4202F128021368C1
:104B880003F500635B0007F52C4000F108000360A3
:104B980007F52C4101F10C010B689AB207F52C407E
:104BA80000F1080003681B04D11807F51C4303F142
:104BB80010030C3B07F52C4000F12800026843F86D
:104BC800221007F5505303F130032C3B07F52C4115
:104BD80001F128010A6807F52C4000F10C00016872
:104BE80043F8221007F5405303F130032C3B07F537
:104BF8002C4101F128010A6807F52C4000F1080052
:104C0800016843F8221007F52C4101F128010B68CF
:104C1800013307F52C4202F12802136007F52C40F6
:104C280000F128000368FF2B7FF622AF07F5244127
:104C380001F1040107F5244202F1040207F51C43BF
:104C480003F110030C3B084611461A46FDF7FBFD1D
:104C580007F5705000F130002C3807F5605101F16C
:104C680030012C3907F5505202F130022C3A07F581
:104C7800405303F130032C3BFCF71CFF07F570523F
:104C880002F130022C3A07F5605303F130032C3B54
:104C980007F5244404F10404104619462246FCF79B
:104CA80035FE0346002B06D1012307F52C4101F1FF
:104CB80024010B601BE007F52C4202F12C0213685B
:104CC800013307F52C4000F12C00036007F52C4157
:104CD80001F12C010A6842F20F739A4207DC07F5CA
:104CE8002C4202F124021368002B3FF4A9AE07F509
:104CF8002C4000F124000368012B08D1C14807F5B6
:104D08002C4202F12C021168FEF788FD02E0BE4831
:104D1800FEF784FDBD48FEF7D7FC002307F52C40BD
:104D280000F124000360002307F52C4101F12C0158
:104D38000B6042E007F5244202F1040207F51C4328
:104D480003F110030C3B07F52C4101F12C01086815
:104D580011461A46FDF7F8F907F5244303F1040351
:104D68001846FEF728F807F51C4303F110030C3B1F
:104D78001846FBF7FDFF07F5244202F1040207F588
:104D88001C4303F110030C3B10461946FCF7E2FEE6
:104D98000346002B06D1012307F52C4202F1240219
:104DA80013601AE007F52C4000F12C00036801336A
:104DB80007F52C4101F12C010B6007F52C4303F199
:104DC8002C031A6842F20F739A4206DC07F52C404E
:104DD80000F124000368002BACD007F52C4101F149
:104DE80024010B68012B08D1864807F52C4202F1F3
:104DF8002C021168FEF712FD02E08348FEF70EFD53
:104E08008348FEF761FC002307F52C4000F12400DD
:104E18000360002307F52C4101F12C010B6085E0AC
:104E280007F5244303F104037A48194607F52C4390
:104E380003F12C031A68FDF7D5F807F51C4303F1B5
:104E480010030C3B7448194607F52C4303F12C0357
:104E58001A68FDF7C7F807F5144303F110030C3B74
:104E68006E48194607F52C4303F12C031A68FDF721
:104E7800B9F86848FDF76CFE07F5244303F104030D
:104E88001846FCF74BF907F51C4303F110030C3BDC
:104E98001846FCF743F907F5144303F110030C3BDC
:104EA8001846FCF73BF907F5244303F10403594876
:104EB8001946FCF74FFE0346002B06D1012307F5E0
:104EC8002C4000F12400036041E007F51C4303F186
:104ED80010030C3B50481946FCF73CFE0346002BD8
:104EE80006D1012307F52C4101F124010B602EE0C6
:104EF80007F5144303F110030C3B48481946FCF727
:104F080029FE0346002B06D1012307F52C4202F1A6
:104F1800240213601BE007F52C4000F12C00036805
:104F2800013307F52C4101F12C010B6007F52C43E7
:104F380003F12C031A6842F20F739A4207DC07F553
:104F48002C4000F124000368002B3FF469AF07F5FB
:104F58002C4101F124010B68012B08D1294807F5E0
:104F68002C4202F12C021168FEF758FC02E0264898
:104F7800FEF754FC2A48FEF7A7FB002307F52C4050
:104F880000F124000360002307F52C4101F12C01F6
:104F98000B6052E007F5244202F1040207F51C43B6
:104FA80003F110030C3B1046194607F52C4303F197
:104FB8002C031A68FDF716F807F5244303F10403D8
:104FC8001846FDF737FD07F51C4303F110030C3BAA
:104FD8001846FCF7A3F807F5244202F1040207F586
:104FE8001C4303F110030C3B10461946FCF7B2FDB5
:104FF8000346002B16D1012307F52C4000F12400AD
:1050080003602AE0105001081C500108D050010824
:10501800E0500108487000204874002048780020BB
:10502800F850010807F52C4101F12C010B680133F8
:1050380007F52C4202F12C02136007F52C4303F10B
:105048002C031A6842F20F739A4206DC07F52C40CB
:1050580000F124000368002B9CD007F52C4101F1D6
:1050680024010B68012B08D1454807F52C4202F1B1
:105078002C021168FEF7D2FB02E04248FEF7CEFB95
:105088004148FEF721FB002307F52C4000F12400DE
:105098000360002307F52C4101F12C010B6042E06D
:1050A80007F5244202F1040207F51C4303F110033B
:1050B8000C3B1046194607F52C4303F12C031A68DC
:1050C800FCF790FF07F5244303F104031846FDF7A6
:1050D800EAFB07F51C4303F110030C3B1846FCF7E9
:1050E800D7F907F5244202F1040207F51C4303F13E
:1050F80010030C3B10461946FCF72CFD0346002B09
:1051080006D1012307F52C4000F1240003601AE0C2
:1051180007F52C4101F12C010B68013307F52C42EE
:1051280002F12C02136007F52C4303F12C031A68D3
:1051380042F20F739A4206DC07F52C4000F1240076
:105148000368002BACD007F52C4101F124010B6852
:10515800012B08D10A4807F52C4202F12C021168EC
:10516800FEF75CFB02E00748FEF758FB0748FEF72E
:1051780055FB002307F52C4000F12C0003602FE1BC
:10518800105001081C500108085101081851010865
:1051980007F52C4101F12C010B6818460FF0C8FEE9
:1051A80007F5E84303F130032C3B1846FCF7FEFEF5
:1051B80007F52C4202F12C02136818460FF0B8FECE
:1051C80007F5C15101F110012C3907F5005202F120
:1051D80030022C3A07F5205303F130032C3B0846E4
:1051E80011461A46FCF7C4FD07F52C4000F12C00C7
:1051F800036818460FF09CFE07F5C15000F1100037
:105208002C3807F5D04101F130012C3907F5C0429F
:1052180002F130022C3A07F5E84303F130032C3B46
:1052280007F5005404F130042C3C0094FCF7D8FD39
:1052380007F52C4101F12C010B6818460FF078FE98
:1052480007F5E04303F130032C3B1846FDF790FFC8
:1052580007F52C4202F12C02136818460FF068FE7D
:1052680007F503612C3907F543622C3A07F581539A
:1052780003F110032C3B084611461A46FDF7E0FEE1
:1052880007F52C4000F12C00036818460FF050FE7B
:1052980007F503602C3807F5B84101F130012C39C6
:1052A80007F5B04202F130022C3A07F5E04303F16A
:1052B80030032C3B07F543642C3C0094FDF70AFFB0
:1052C80007F5E04202F130022C3A07F5E84303F112
:1052D80030032C3B10461946FCF73CFC0346002BD8
:1052E80008D1D348FEF79AFA012307F52C4101F1BA
:1052F80024010B6007F503622C3A07F5C15303F14B
:1053080010032C3B10461946FCF724FC0346002BDF
:1053180008D1C848FEF782FA012307F52C4202F1AA
:105328002402136007F543622C3A07F5005303F192
:1053380030032C3B10461946FCF70CFC0346002BA7
:1053480008D1BD48FEF76AFA012307F52C4000F1A1
:105358002400036007F5B84202F130022C3A07F541
:10536800D04303F130032C3B10461946FCF7F2FBFF
:105378000346002B08D1B148FEF750FA012307F580
:105388002C4101F124010B6007F5B04202F1300213
:105398002C3A07F5C04303F130032C3B104619465D
:1053A800FCF7D8FB0346002B08D1A548FEF736FAD0
:1053B800012307F52C4202F12402136007F52C4063
:1053C80000F124000368012B12D007F52C4101F1EC
:1053D8002C010B68013307F52C4202F12C021360F3
:1053E80007F52C4000F12C000368632B7FF7D0AE43
:1053F80007F52C4101F124010B68012B08D19148D4
:1054080007F52C4202F12C021168FEF707FA02E0B8
:105418008D48FEF703FA8D48FEF700FA002307F5DA
:105428002C4000F12C000360EAE007F52C4101F163
:105438002C010B6818460FF07BFD07F5E84303F1D4
:1054480030032C3B1846FCF7B1FD07F52C4202F15E
:105458002C02136818460FF06BFD07F50C4101F19B
:1054680030012C3907F5044202F130022C3A07F5D5
:10547800F84303F130032C3B084611461A46FCF763
:1054880077FC07F52C4000F12C00036818460FF054
:105498004FFD07F50C4000F130002C3807F5D041DE
:1054A80001F130012C3907F5C04202F130022C3AE3
:1054B80007F5E84303F130032C3B07F5044404F1F6
:1054C80030042C3C0094FCF78BFC07F5D04101F12B
:1054D80030012C3907F5C04202F130022C3A07F5A9
:1054E800F84303F130032C3B084611461A46FCF7F3
:1054F80047FD07F52C4101F12C010B6818460FF008
:1055080017FD07F50C4101F130012C3907F504426C
:1055180002F130022C3A07F5F84303F130032C3B33
:10552800084611461A46FDF78BFD07F52C4202F195
:105538002C02136818460FF0FBFC07F5E04303F153
:1055480030032C3B1846FDF713FE07F52C4000F1FD
:105558002C00036818460FF0EBFC07F50C4000F12F
:1055680030002C3807F5B84101F130012C3907F526
:10557800B04202F130022C3A07F5E04303F1300360
:105588002C3B07F5044404F130042C3C0094FDF74F
:10559800A1FD07F5B84101F130012C3907F5B042FA
:1055A80002F130022C3A07F5F84303F130032C3BA3
:1055B800084611461A46FDF77BFD07F5B84202F189
:1055C80030022C3A07F5D04303F130032C3B104648
:1055D8001946FCF7BFFA0346002B06D1012307F54D
:1055E8002C4101F124010B6012E007F52C4202F175
:1055F8002C021368013307F52C4000F12C000360DE
:1056080007F52C4101F12C010B68632B7FF70DAFD7
:1056180007F52C4202F124021368012B18D109481E
:1056280007F52C4303F12C031968FEF7F7F812E08D
:10563800245101082C510108305101083451010846
:1056480038510108105001081C5001083C5101084C
:10565800CA48FEF7E3F8002307F52C4000F12400C0
:105668000360C748FEF7DAF8002307F52C4101F17B
:105678002C010B6010E107F52C4202F12C02136893
:1056880018460FF055FC07F5E84303F130032C3BAF
:105698001846FCF78BFC07F5E84303F130032C3B75
:1056A8001846FBF71DFC07F5A04101F130012C3924
:1056B80007F5904202F130022C3A07F5804303F1D6
:1056C80030032C3B084611461A46FCF751FB07F5F8
:1056D800A04000F130002C3807F5D04101F130012D
:1056E8002C3907F5C04202F130022C3A07F5E8439D
:1056F80003F130032C3B07F5904404F130042C3CB3
:105708000094FCF76DFB07F5D04101F130012C390D
:1057180007F5C04202F130022C3A07F5804303F145
:1057280030032C3B084611461A46FCF729FC002397
:1057380007F52C4000F12800036043E007F5D0434B
:1057480003F130032C3B07F52C4101F128010A68CD
:1057580053F82230B3F5406F1CD907F5D04303F155
:1057680030032C3B07F52C4000F12800026853F861
:105778002230B3F5105F0DD207F5D04303F13003A3
:105788002C3B07F52C4101F128010A68012143F857
:1057980022100CE007F5D04303F130032C3B07F54A
:1057A8002C4000F128000268002143F8221007F578
:1057B8002C4101F128010B68013307F52C4202F155
:1057C8002802136007F52C4000F128000368B3F5A0
:1057D800007FB3D307F5E84303F130032C3B1846A9
:1057E800FBF77EFB07F5D04303F130032C3B07F5AD
:1057F800244202F1040218461146FCF757FC002324
:1058080007F52C4101F128010B602AE007F5E84370
:1058180003F130032C3B07F52C4000F12800026807
:1058280053F8222007F5244303F1040307F52C401D
:1058380000F12800016853F821309A4206D001236C
:1058480007F52C4101F124010B6012E007F52C4209
:1058580002F128021368013307F52C4000F12800F3
:10586800036007F52C4101F128010B68B3F5007FAF
:10587800CCD307F52C4202F124021368012B00D186
:1058880019E007F52C4000F12C000368013307F5F7
:105898002C4101F12C010B6007F52C4202F12C027E
:1058A8001368632B07DC07F52C4000F1240003681C
:1058B800002B3FF4E0AE07F52C4101F124010B6801
:1058C800012B08D12F4807F52C4202F12C02116850
:1058D800FDF7A4FF02E02948FDF7A0FF002307F524
:1058E8002C4000F1240003602748FDF797FF0023B0
:1058F80007F52C4101F104010B604FF000024FF055
:10590800000307F52C4000F11800C0E900234FF010
:1059180000024FF0000307F52C4101F11801C1E91D
:105928000023ECE107F52C4000F11800D0E9002332
:10593800104619464FF064024FF000030EF084FE43
:1059480052EA030102D12E20FDF7ACFE07F52C42E6
:1059580002F11802136818460FF0EAFA07F52C400E
:1059680000F11800D0E9002352EA03016ED10023A8
:1059780007F52C4202F1280213605FE01C50010871
:1059880048510108105001085451010807F52C40EE
:1059980000F1280003687F2B0ED807F5E04303F1D8
:1059A80030032C3B07F52C4101F128010A684FF020
:1059B800011143F822100CE007F5E04303F130032E
:1059C8002C3B07F52C4000F128000268002143F821
:1059D800221007F50C4303F130032C3B07F52C414B
:1059E80001F128010A684FF0011143F8221007F568
:1059F800044303F130032C3B07F52C4000F1280049
:105A080002684FF0011143F8221007F5F84303F13B
:105A180030032C3B07F52C4101F128010A684FF0AF
:105A2800011143F8221007F52C4202F128021368ED
:105A3800013307F52C4000F12800036007F52C41DD
:105A480001F128010B68FF2BA0D91BE007F5E04303
:105A580003F130032C3B1846FDF78AFB07F50C4190
:105A680001F130012C3907F5044202F130022C3AD9
:105A780007F5F84303F130032C3B084611461A4654
:105A8800FDF7DEFA07F5E04303F130032C3B184637
:105A9800FDF718FC07F50C4000F130002C3807F52D
:105AA800B84101F130012C3907F5B04202F130025A
:105AB8002C3A07F5E04303F130032C3B07F5044487
:105AC80004F130042C3C0094FDF704FB07F5B841C1
