:020000040800F2
:100000000000022049370108050300081103000819
:10001000190300082103000829030008000000005C
:100020000000000000000000000000003103000894
:100030003D030008000000004903000855030008C4
:10004000953701089537010895370108953701085C
:10005000953701089537010895370108953701084C
:10006000953701089537010895370108953701083C
:10007000953701089537010895370108953701082C
:10008000953701089537010895370108953701081C
:10009000953701089537010895370108953701080C
:1000A00095370108953701089537010895370108FC
:1000B00095370108953701089537010895370108EC
:1000C00095370108953701089537010895370108DC
:1000D00095370108ED380008953701089537010874
:1000E00095370108953701089537010895370108BC
:1000F00095370108953701089537010895370108AC
:10010000953701089537010895370108953701089B
:10011000953701089537010895370108953701088B
:10012000953701089537010895370108953701087B
:10013000953701089537010895370108953701086B
:10014000953701089537010895370108953701085B
:10015000953701089537010895370108953701084B
:10016000953701089537010895370108953701083B
:10017000953701089537010895370108953701082B
:080180009537010895370108CD
:1001880010B5054C237833B9044B13B10448AFF3C9
:1001980000800123237010BD28800020000000008B
:1001A8009866010808B5064B1BB106480649AFF327
:1001B80000800648036813B1054B03B1984708BD92
:1001C80000000000986601082C800020247400209C
:1001D80000000000154B002B08BF134B9D46A3F5EC
:1001E800803A00218B460F461348144A121A13F01E
:1001F80069F90F4B002B00D098470E4B002B00D00D
:1002080098470020002104000D000D48002802D066
:100218000C4813F023FA13F02DF92000290000F000
:100228005BF813F017F900BF000008000000000099
:10023800000000000000000028800020A0800020AE
:10024800653601087136010880B483B000AF786064
:1002580000BF7B685A1E7A60002BFAD10C37BD4666
:100268005DF8047B704700BF80B500AF00BF012078
:100278000DF04AFF0346002BF9D0024B9B68184645
:1002880080BD00BF0008065080B500AF03F084FBB6
:10029800402001210DF0ACFC01200DF0F1FE80BDE5
:1002A80080B584B000AF78600023FB600BE0FB688A
:1002B8009B007A6813441B680648194603F0FCF84B
:1002C800FB680133FB60FB68B3F5007FEFDB103799
:1002D800BD4680BD2464010880B500AFFFF7D4FF98
:1002E800044803F0E9F803F087FB034803F03AF801
:1002F800FEE700BF286401083464010880B400AF39
:10030800BD465DF8047B704780B400AFFEE700BFD0
:1003180080B400AFFEE700BF80B400AFFEE700BFC7
:1003280080B400AFFEE700BF80B400AFBD465DF803
:10033800047B704780B400AFBD465DF8047B70470E
:1003480080B400AFBD465DF8047B704780B400AF51
:10035800BD465DF8047B704780B500AF154B154A64
:10036800D2F8882042F47002C3F88820124B124A4F
:10037800126842F001021A600F4B00229A600E4A7E
:100388000D4B1B6823F0847323F4803313600A4BEE
:100398000A4A5A60084B084A126822F480221A60F6
:1003A800054B0022DA6000F087F8024B4FF000623C
:1003B8009A6080BD00ED00E0003802401030002453
:1003C80080B487B000AF00233B6100237B61022328
:1003D800FB600023BB6002237B60324B9B6803F009
:1003E8000C033B613B69042B07D0082B09D0002B79
:1003F8003FD12D4B2D4A1A603FE02B4B2C4A1A60F7
:100408003BE0284B5B6803F480039B0DBB60254BE6
:100418005B6803F03F037B60BB68002B0DD0244A68
:100428007B68B2FBF3F21F4B596847F6C0730B4069
:100438009B0903FB02F37B610CE01C4A7B68B2FB5F
:10044800F3F2184B596847F6C0730B409B0903FB3E
:1004580002F37B61134B5B6803F440331B0C0133DD
:100468005B00FB607A69FB68B2FBF3F20E4B1A6023
:1004780003E00D4B0D4A1A6000BF0A4B9B6803F05E
:10048800F0031B090B4AD35CDBB23B61064B1A68CD
:100498003B69DA40044B1A601C37BD465DF8047BA3
:1004A800704700BF00380240040000200024F40018
:1004B80000127A000800002080B483B000AF002347
:1004C8007B6000233B60354B344A126842F480322B
:1004D8001A60324B1B6803F400333B607B680133BE
:1004E8007B603B68002B03D17B68B3F5A06FF0D12C
:1004F8002A4B1B6803F40033002B02D001233B6016
:1005080001E000233B603B68012B42D1234B234A87
:10051800126C42F080521A64214B214A126842F44C
:1005280040421A601D4B1D4A92689A601B4B1B4A39
:10053800926842F400429A60184B184A926842F452
:10054800A0529A60154B174A5A60144B134A126806
:1005580042F080721A6000BF104B1B6803F00073F2
:10056800002BF9D0104B40F205721A600B4B0B4A66
:10057800926822F003029A60084B084A926842F097
:1005880002029A6000BF054B9B6803F00C03082B1E
:10059800F9D10C37BD465DF8047B7047003802403E
:1005A8000070004019544007003C024080B500AF7D
:1005B800FFF706FF014B1B68184680BD04000020AA
:1005C80080B483B000AF074B1B687B607B6843F047
:1005D80000437B607B6818460C37BD465DF8047B9A
:1005E800704700BF0808065080B400AF034B1B6873
:1005F8001846BD465DF8047B704700BF08080650E2
:1006080080B485B000AF78600023FB600CE0FB6825
:10061800C3F11F037A6822FA03F3012B01D1FB68A7
:1006280006E0FB680133FB60FB681F2BEFDD20232E
:1006380018461437BD465DF8047B704780B584B012
:1006480000AF78607B68BB60B9682A4B83FB0123E5
:100658001A13CB17D21A13465B0013441B03134417
:10066800CA1A002A0DDBB968224B83FB01231A132F
:10067800CB17D21A13465B0013441B031344CA1A40
:100688000FE0B9681B4B83FB01231A13CB17D21A4F
:1006980013465B0013441B031344CA1A02F5405265
:1006A8000132FA6004E0FB6803F540530133FB6054
:1006B800FB68002BF7DB04E0FB68A3F54053013B24
:1006C800FB60FA6843F201039A42F5DCFB68002BF1
:1006D80003DBFB68B3F5405F05DD07484921074A9E
:1006E800074B13F055F8FB689BB218461037BD4608
:1006F80080BD00BF438E53554064010864640108FF
:100708004864010890B587B000AF7860FFF758FFDC
:1007180003463B6100237B6121E07B699B007A688B
:10072800D41807F1100207F10C031046194600F01F
:1007380085FA03469BB223807B699B0002337A6863
:10074800D41807F1100207F10C031046194600F0FF
:1007580075FA03469BB223807B6901337B617B6911
:10076800FF2BDADD1C37BD4690BD00BF80B58AB0CF
:1007780000AF786000233B620023FB61FFF720FF96
:100788000346FB6000237B624EE0FF233B6107F1D9
:100798000C0207F110031046194600F04FFA034601
:1007A8007B833B69012B09D13B6A5B007A68134460
:1007B8007A8B1A803B6A01333B620DE0FA69134673
:1007C800DB079B1A5B0003F2FE337A6813447A8BCB
:1007D8001A80FB690133FB6107F10C0207F1100372
:1007E8001046194600F02AFA03467B833B69012B21
:1007F80009D13B6A5B007A6813447A8B1A803B6A9A
:1008080001333B620DE0FA691346DB079B1A5B0074
:1008180003F2FE337A6813447A8B1A80FB6901333A
:10082800FB617B6A01337B627B6AFF2BADDD29E0CC
:10083800FFF7C6FE0346C3F308037B61FB69C3F5F4
:1008480000731A467B699A421CD97B695B007A68F7
:1008580013441B887B837B695B007A681344FA69BD
:10086800C2F50072520079680A4412881A80FB693E
:10087800C3F500735B007A6813447A8B1A80FB69AE
:10088800013BFB61FB69002BD2DC2837BD4680BDEC
:1008980090B585B000AF7860FFF792FE0346BB6065
:1008A8000023FB6019E0FB68DB0004337A68D41886
:1008B80007F10803184600F017F803462360FB68A1
:1008C800DB007A68D41807F10803184600F00CF822
:1008D80003462360FB680133FB60FB68FF2BE2DD06
:1008E8001437BD4690BD00BF80B58AB000AF7860B0
:1008F8007B681B68DBB2FB607B681B681A0A7B6835
:100908001A60984AFB6813441B78BB61BB6903F003
:100918001003BB60BB68002B2BD17B681B68012BC5
:1009280004D1FFF74DFE02467B681A60BB6903F0ED
:100938000F03BB617B681B6803F00103002B04D025
:10094800BB69C3F540530133BB617B681B685A0818
:100958007B681A607B681B681846FFF751FE0346E0
:10096800172B04D9FFF72CFE02467B681A60BB6977
:100978005FE17B681B681846FFF742FE03461A2BA7
:1009880004D9FFF71DFE02467B681A60BB6903F0B5
:100998000F037B627B681B6803F01F027B6A5B01A5
:1009A8001344FB607B681B685A097B681A607B6884
:1009B8001B68012B04D1FFF703FE02467B681A600F
:1009C800694AFB6813441B78BB61BB6903F02003C9
:1009D800BB60BB68002B22D1BB6903F01F03BB615E
:1009E8007B681B6803F00103002B04D0BB69C3F5C7
:1009F80040530133BB617B681B685A087B681A60E7
:100A08007B681B681846FFF7FBFD0346172B04D9C4
:100A1800FFF7D6FD02467B681A60BB6909E1BB692E
:100A280003F00F037B620023FB6156E07B6A5B00E7
:100A38001A467B681B6803F0010313447B627B68DA
:100A48001B685A087B681A607B681B68012B04D1F5
:100A5800FFF7B6FD02467B681A60444BFA6953F803
:100A680022303B611F233B6231E03B69DB171A46AA
:100A78007B6A13447B623B695B003B617B6AB3F131
:100A8800FF3F21D17B681B6803F00103002B05D0D1
:100A98003B6AC3F540530133BB6101E03B6ABB616C
:100AA8007B681B685A087B681A607B681B68184655
:100AB800FFF7A6FD0346172B04D9FFF781FD024671
:100AC8007B681A60BB69B4E03B6A013B3B623B6AE6
:100AD800002BCADAFB690133FB61FB69692BA5DDD1
:100AE8000A23FB619FE0224BFA6953F822307B61AD
:100AF8001E4BFA6953F822303B617B6A5B001A4649
:100B08007B681B6803F0010313447B627B681B68E6
:100B18005A087B681A607B681B68012B05D112F0A4
:100B280085FE03461A467B681A6036233B623BE023
:100B38007B69DB171A467B6A13447B627B695B001F
:100B48007B617B6AB3F1FF3F2BD17B681B6803F0A5
:100B58000103002B0ED03B6AC3F540530133BB6140
:100B68000AE000BF5C0000205C0100203467002020
:100B7800B46800203B6ABB617B681B685A087B68C5
:100B88001A607B681B681846FFF73AFD0346172B67
:100B980005D912F04BFE03461A467B681A60BB69FA
:100BA80047E03B6A013B3B623B6A1F2BC0DC1F23CB
:100BB8003B6232E03B69DB171A467B6A13447B626F
:100BC8003B695B003B617B6AB3F1FF3F22D17B68E5
:100BD8001B6803F00103002B05D03B6AC3F54053A3
:100BE8000133BB6101E03B6ABB617B681B685A0843
:100BF8007B681A607B681B681846FFF701FD03468F
:100C0800172B05D912F012FE03461A467B681A60A4
:100C1800BB690EE03B6A013B3B623B6A002BC9DAC9
:100C2800FB690133FB61FB695F2B7FF75CAF4FF01A
:100C3800FF3318462837BD4680BD00BF80B588B051
:100C480000AF786039607B681B68DBB2FB607B684B
:100C58001B681A0A7B681A607E4AFB6813441B7873
:100C68003B613B6903F01003BB60BB68002B2ED1CE
:100C78007B681B68012B04D1FFF7A2FC02467B6846
:100C88001A603B6903F00F033B617B681B6803F044
:100C98000103002B04D03B69C3F5405301333B618A
:100CA8007B681B685A087B681A607B681B68184653
:100CB800FFF7A6FC0346172B04D9FFF781FC024671
:100CC8007B681A603B6801221A603B69BEE07B685A
:100CD8001B681846FFF794FC03461A2B04D9FFF744
:100CE8006FFC02467B681A603B6903F00F03FB61E7
:100CF8007B681B6803F01F02FB695B011344FB6000
:100D08007B681B685A097B681A607B681B68012B23
:100D180004D1FFF755FC02467B681A604E4AFB680F
:100D280013441B783B613B6903F02003BB60BB683D
:100D3800002B25D13B6903F01F033B617B681B68CF
:100D480003F00103002B04D03B69C3F54053013382
:100D58003B617B681B685A087B681A607B681B6864
:100D68001846FFF74DFC0346172B04D9FFF728FC5C
:100D780002467B681A603B6801221A603B6965E09D
:100D88003B6903F00F03FB610D237B6156E0FB69B0
:100D98005B001A467B681B6803F001031344FB6180
:100DA8007B681B685A087B681A607B681B68012B84
:100DB80004D1FFF705FC02467B681A603623BB6145
:100DC80036E0264BBA696A2101FB02F17A690A44C6
:100DD80053F82230FA69D31AFB61FB69002B24DA35
:100DE8007B681B6803F00103002B05D0BB69C3F5C2
:100DF800405301333B6101E0BB693B617B681B6881
:100E08005A087B681A607B681B681846FFF7F8FB6E
:100E18000346172B04D9FFF7D3FB02467B681A60F9
:100E28003B6800221A603B6910E0BB69013BBB616B
:100E3800BB69002BC5DA7B6901337B617B69692B50
:100E4800A5DD3B6800221A604FF0FF3318462037B3
:100E5800BD4680BD5C0000205C0100207C020020B3
:100E680090B585B000AF78600023FB601DE012F0FC
:100E7800DDFC0346BB60FB689B007A68D418BB683E
:100E88009BB21846FFF7DAFB03462380FB689B00FA
:100E980002337A68D418BB681B0C1846FFF7CEFBE0
:100EA80003462380FB680133FB60FB68FF2BDED918
:100EB800786800F0D1F91437BD4690BD80B582B08E
:100EC80000AF78607868FFF751FC786800F0C4F9E3
:100ED8000837BD4680BD00BF80B588B000AF7860D8
:100EE8000023FB612AE012F0A1FC03467B6100238A
:100EF800BB6120E07B6903F001033B617B695B0810
:100F080003F00103FB60FB68012B05D13B69012B52
:100F180002D14FF440533B61FB695A1CFA615B00F4
:100F28007A6813443A6992B21A807B699B087B619C
:100F3800BB690133BB61BB690F2BDBD9FB69B3F517
:100F4800007FD0D3786800F087F92037BD4680BD90
:100F580080B48FB000AF786001237B6376E07B6B51
:100F680003F001033B637B6B5B0803F00103FB6247
:100F78007B6B9B0803F00103BB627B6BDB0803F010
:100F880001037B627B6B1B0903F001033B627B6BF4
:100F98005B0903F00103FB617B6B9B0903F0010311
:100FA800BB617B6BDB0903F001037B613B6B5A0080
:100FB800FB6A13445A00BB6A13445A007B6A134401
:100FC8005A003B6A13445A00FB6913445A00BB6930
:100FD80013445A007B6913443B613A697B6B9A421C
:100FE80031D97B6B9B007A6813441B88FB607B6B51
:100FF8009B0002337A6813441B88BB607B6B9B00A1
:101008007A6813443A69920079680A4412881A8007
:101018007B6B9B0002337A6813443A699200023270
:1010280079680A4412881A803B699B007A681344DD
:10103800FA6892B21A803B699B0002337A681344BB
:10104800BA6892B21A807B6B01337B637B6BFF2B90
:1010580085D93C37BD465DF8047B704780B485B0C0
:1010680000AF786039600023FB6010E0FB689B00EC
:101078007A6813441A68FB689B0039680B441B683C
:101088009A4201D0002307E0FB680133FB60FB684C
:10109800B3F5007FEADB012318461437BD465DF837
:1010A800047B704780B493B000AF786000233B6442
:1010B80000237B64C6E07B6C03F00103FB637B6C5D
:1010C8005B0803F00103BB637B6C9B0803F001031F
:1010D8007B637B6CDB0803F001033B637B6C1B09C0
:1010E80003F00103FB627B6C5B0903F00103BB6245
:1010F8007B6C9B0903F001037B627B6CDB0903F0CB
:1011080001033B627B6C1B0A03F00103FB61FB6B71
:101118005A00BB6B13445A007B6B13445A003B6B59
:1011280013445A00FB6A13445A00BB6A13445A001A
:101138007B6A13445A003B6A13445A00FB69134400
:10114800BB617B6C5B087B617B6C03F001033B61DB
:10115800BB695B08FB60BB6903F00103BB60BA694C
:101168007B6C9A426BD9BB68002B05D1FB689B004E
:101178007A6813441B883B64BB68012B06D1FB6863
:101188009B0002337A6813441B883B64BB68002BBE
:101198000CD13B69002B09D1FB689B007A6813448A
:1011A8007A69920079680A4412881A80BB68002B11
:1011B8000DD13B69012B0AD1FB689B007A68134467
:1011C8007A699200023279680A4412881A80BB68E8
:1011D800012B0DD13B69002B0AD1FB689B00023320
:1011E8007A6813447A69920079680A4412881A80E6
:1011F800BB68012B0ED13B69012B0BD1FB689B000F
:1012080002337A6813447A699200023279680A4490
:1012180012881A803B69002B06D17B699B007A688B
:1012280013443A6C92B21A803B69012B07D17B694F
:101238009B0002337A6813443A6C92B21A807B6C32
:1012480001337B647B6CB3F5007FFFF434AF4C371C
:10125800BD465DF8047B704790B58DB000AF7860EF
:101268000023FB6202233B62A3E0794BFA6A33F85E
:101278001230BB61FB6A5A1C754B33F81230FB61A4
:10128800FB6A0133FB620023BB628AE000237B62B6
:1012980076E0BA6A7B6A13445B007A6813441B8859
:1012A8007B61BA6A7B6A134401335B007A68134432
:1012B8001B88FA6902FB03F31846FFF7BFF90346D8
:1012C8003B61BA6A7B6A1A443B6A13445B007A68DA
:1012D80013441B88FB60BA6A7B6A1A443B6A13444E
:1012E80001335B007A6813441B88FA6902FB03F335
:1012F8001846FFF7A3F90346BB60BA6A7B6A134432
:101308005B007A68D4187A693B6913441846FFF77A
:1013180095F903462380BA6A7B6A134401335B005C
:101328007A68D418FA68BB6813441846FFF786F938
:1013380003462380BA6A7B6A1A443B6A13445B00FB
:101348007A68D4187A693B69D31A1846FFF776F990
:1013580003462380BA6A7B6A1A443B6A1344013302
:101368005B007A68D418FA68BB68D31A1846FFF786
:1013780065F9034623803B6A5B007A6A13447B6203
:101388007B6AB3F5007F84DBFB69BA6902FB03F370
:10139800FB61F869FFF752F90346FB61BB6A023348
:1013A800BB62BA6A3B6A9A42FFF670AF3B6A5B005F
:1013B8003B623B6AB3F5807F7FF757AF41F2B75383
:1013C800BB6141F6BB23FB610023BB623AE0BB6A09
:1013D8009B0002337A6813441B88FA6902FB03F303
:1013E8003B613869FFF72AF903463B61BB6A9B00FA
:1013F8007A6813441B887B61BB6A9B007A68D4189F
:101408007A693B6913441846FFF718F903462380A5
:10141800BB6A9B0002337A68D4187A693B69D31A8D
:101428001846FFF70BF903462380FB69BA6902FBEC
:1014380003F3FB61F869FFF701F90346FB61BB6A37
:101448000133BB62BB6AFF2BC1DD3437BD4690BD9B
:101458003800002090B58DB000AF786000233B6263
:1014680002237B62E1E07B6A102B21D0102B06DC83
:10147800042B15D0082B17D0022B0DD02CE0402BB5
:101488001ED0402B02DC202B16D025E0802B1BD051
:10149800B3F5807F1CD01FE04FF440533B621BE044
:1014A80042F63A233B6217E041F6E7333B6213E02A
:1014B80042F6E8233B620FE040F6D6533B620BE06E
:1014C80041F2D5233B6207E040F292433B6203E0DE
:1014D80041F27B633B6200BF0123FB610023FB6297
:1014E80097E00023BB6283E0BA6AFB6A13449B005F
:1014F80002337A6813441B88FA6902FB03F37B61A1
:101508007869FFF79BF803467B61BA6AFB6A134464
:101518009B007A6813441B883B61BA6AFB6A1A44C9
:101528007B6AD90F0B445B1013449B0002337A6823
:1015380013441B88FA6902FB03F3FB60F868FFF7A2
:101548007DF80346FB60BA6AFB6A1A447B6AD90FC6
:101558000B445B1013449B007A6813441B88BB60E0
:10156800BA6AFB6A13449B007A68D4183A697B69A3
:1015780013441846FFF762F803462380BA6AFB6AE9
:101588001A447B6AD90F0B445B1013449B007A689A
:10159800D4183A697B69D31A1846FFF74FF80346FF
:1015A8002380BA6AFB6A13449B0002337A68D41812
:1015B800BA68FB6813441846FFF740F803462380CF
:1015C800BA6AFB6A1A447B6AD90F0B445B1013444E
:1015D8009B0002337A68D418BA68FB68D31A184695
:1015E800FFF72CF803462380BA6A7B6A1344BB6270
:1015F800BB6AFF2B7FF778AFFB693A6A02FB03F3FC
:10160800FB61F869FFF71AF80346FB61FB6A0133CF
:10161800FB627B6ADA0F13445B101A46FB6A9A4234
:101628003FF75FAF7B6A5B007B627B6AB3F5807FC5
:101638007FF719AF40F6C2633B620123FB610023C9
:10164800FB623EE0FB6A5B007A6813441B883B61DF
:10165800FB6A0133FB62FB6A5B007A6813441B88F0
:10166800FA6902FB03F37B617869FEF7E7FF03463B
:101678007B61FB6A03F10043013B5B007A68D41885
:101688003A697B6913441846FEF7D8FF034623805E
:10169800FB6A5B007A68D4183A697B69D31A1846E2
:1016A800FEF7CCFF03462380FB6A0133FB62FB692C
:1016B8003A6A02FB03F3FB61F869FEF7BFFF0346D2
:1016C800FB61FB6AB3F5007FBCDB42F63A23BB61E2
:1016D80042F27F333B620123FB610023FB625FE040
:1016E800FB6A5B007A68D418FB6A5B007A6813446B
:1016F8001B88FA6902FB03F31846FEF79FFF0346AF
:101708002380FB6A5B007A68D418FB6A5B007A68FE
:1017180013441B8842F6E97202FB03F31846FEF7EE
:101728008DFF03462380FB6A0133FB62FB6A5B0083
:101738007A68D418FB6A5B007A6813441B88BA6914
:1017480002FB03F31846FEF779FF03462380FB6A82
:101758005B007A68D418FB6A5B007A6813441B88BC
:1017680042F6E97202FB03F31846FEF767FF0346E9
:101778002380FB6A0133FB62FB693A6A02FB03F3CD
:10178800FB61F869FEF75AFF0346FB61BB693A6AD9
:1017980002FB03F3BB61B869FEF750FF0346BB6168
:1017A800FB6AB3F5007F9BDB3437BD4690BD00BFB5
:1017B80080B487B000AFF860B9607A6000237B61BD
:1017C8001EE07B699B007A6813441B689AB27B69A8
:1017D8009B00F9680B441B689A420CD17B699B00FB
:1017E8007A6813441B681A0C7B699B00B9680B4420
:1017F8001B689A4201D0002306E07B6901337B61B4
:101808007B69FF2BDDDD012318461C37BD465DF8DB
:10181800047B704780B485B000AF786039600023DE
:10182800FB6021E0FB689B007A6813441B689AB24E
:10183800FB68DB0039680B441B689A4201D000231F
:1018480016E0FB689B007A6813441B681A0CFB6857
:10185800DB00043339680B441B689A4201D000232B
:1018680006E0FB680133FB60FB68FF2BDADD012330
:1018780018461437BD465DF8047B704790B587B0AD
:1018880000AFF860B9607A6000237B6117E07B697C
:101898005B00FA68D4187B695B00BA6813441B883C
:1018A8007A69520079680A44128802FB03F31846E1
:1018B800FEF7C4FE034623807B6901337B617B69A5
:1018C800B3F5007FE3DB1C37BD4690BD90B587B00C
:1018D80000AFF860B9607A6000237B6117E07B692C
:1018E8005B00FA68D4187B695B00BA6813441B88EC
:1018F8001A467B695B0079680B441B8813441846B9
:10190800FEF79CFE034623807B6901337B617B697C
:10191800B3F5007FE3DB1C37BD4690BD90B587B0BB
:1019280000AFF860B9607A603B6000237B6120E01B
:101938007B695B00BA6813441B887A69520079682E
:101948000A44128802FB03F33B617B695B00FA6877
:10195800D4187B695B003A6813441B881A463B69B4
:1019680013441846FEF76AFE034623807B69013359
:101978007B617B69B3F5007FDADB1C37BD4690BD20
:1019880090B587B000AFF860B9607A6000237B61DA
:1019980017E07B695B00FA68D4187B695B00BA685A
:1019A80013441B881A467B695B0079680B441B88C3
:1019B800D31A1846FEF742FE034623807B6901339B
:1019C8007B617B69B3F5007FE3DB1C37BD4690BDC7
:1019D80080B5ADF5826D00AF07F10C03186007F113
:1019E800080319603B1D1A6007F10C031868FFF71C
:1019F80037FA07F108031868FFF760FA3B1D186803
:101A0800FFF76AFA07F1100107F10C023B1D0846BF
:101A180011681A68FFF732FF07F1080107F1080299
:101A280007F11003086811681A46FFF7A9FF3B1D64
:101A38001868FFF78DFA07F58267BD4680BD00BFBD
:101A480090B5ADF5805D87B000AF07F118040C3C88
:101A5800206007F118001038016007F118011439E7
:101A68000A6007F11802183A1360002307F580503E
:101A780000F11400036025E007F5805202F114021A
:101A880013685A0007F11803183B1B6813441B8896
:101A98001A4652001344DB0299B207F11803043BBB
:101AA80007F5805000F11400026823F8121007F5BA
:101AB800805202F114021368013307F5805000F1D7
:101AC8001400036007F5805202F114021368B3F59D
:101AD800007FD1DB07F614431846FEF747FE07F6EA
:101AE80014031846FEF742FE07F214431846FEF7A1
:101AF8003DFE07F2144107F2144207F11803043BB4
:101B0800084611461A46FFF7E1FE07F61443184641
:101B1800FFF7A2FB07F614031846FFF79DFB07F231
:101B280014431846FFF798FB07F11802103A07F11B
:101B380018030C3B07F61444106819682246FFF78F
:101B48009DFE07F11802103A07F6140107F1180371
:101B5800103B10681A68FFF7B9FE07F11803143B29
:101B680007F61442186807F5815303F1080319684A
:101B7800FFF784FE07F11802143A07F2144107F13F
:101B88001803143B10681A68FFF7A0FE07F1180342
:101B9800103B1868FFF7DCF907F11803143B1868C5
:101BA800FFF7D6F907F580571C37BD4690BD00BF33
:101BB80080B584B000AFF860B9607A60F868F968F9
:101BC8007A68FFF75BFEF868F968BA68FFF77EFE87
:101BD800F868FFF73FFC1037BD4680BD90B585B06B
:101BE80000AF78600023FB600EE0FB685B007A685A
:101BF800D418FEF7E5FC03469BB203F001039BB241
:101C08002380FB680133FB60FB68B3F5007FECDBE6
:101C18001437BD4690BD00BF90B589B000AFF860DD
:101C2800B9607A60786811F0F9FD0023FB6134E04F
:101C3800FEF7C6FC0346C3F30C03BB61FEF7C0FC0A
:101C48000346C3F30C037B61FB699B00FA68D41855
:101C5800B869FEF7F3FC03462380FB699B00023357
:101C6800FA68D4187869FEF7E9FC03462380FB6913
:101C78009B00BA68D418B869FEF7E0FC03462380D5
:101C8800FB699B000233BA68D4187869FEF7D6FC62
:101C980003462380FB690133FB61FB69FF2BC7D92E
:101CA8002437BD4690BD00BF80B588B000AFF8604E
:101CB800B9607A60786811F0B1FD7B68002B26D195
:101CC8000023FB611FE0FB690133BB61FB69023341
:101CD8007B61FB699B00FA681344BA6991B27A691F
:101CE80012040A441A60FB69DB00BA681344BA6933
:101CF8001A60FB69DB000433BA6813447A691A6016
:101D0800FB690133FB61FB69FF2BDCD92BE0002366
:101D1800FB6125E0FEF754FC0346C3F30C03BB61EB
:101D2800FEF74EFC0346C3F30C037B61FB699B0083
:101D3800FA681344BA6991B27A6912040A441A60BB
:101D4800FB69DB00BA681344BA691A60FB69DB00F7
:101D58000433BA6813447A691A60FB690133FB617A
:101D6800FB69FF2BD6D92037BD4680BD80B485B02E
:101D780000AF786039600023FB6018E0FB685B0007
:101D88003A681344FA68920079680A4412881A80FB
:101D9800FB6801335B003A681344FA680132920029
:101DA80079680A4412881A80FB680233FB60FB6872
:101DB800FF2BE3DD0023FB601DE0FB6803F5807368
:101DC8005B003A681344FA689200023279680A4460
:101DD80012881A80FB6803F201135B003A68134407
:101DE800FA6801329200023279680A4412881A802D
:101DF800FB680233FB60FB68FF2BDEDD1437BD4652
:101E08005DF8047B704700BF80B588B000AFF8600C
:101E1800B9607A60F86811F001FDFB68002B27D1E2
:101E28000023FB6120E0FB695B00BB61FB695B0091
:101E380001337B61FB699B00BA681344BA6991B2AC
:101E48007A6912040A441A60FB69DB007A68134451
:101E5800BA691A60FB69DB0004337A6813447A694B
:101E68001A60FB690133FB61FB69FF2BDBD92BE0AF
:101E78000023FB6125E0FEF7A3FB0346C3F30D0334
:101E8800BB61FEF79DFB0346C3F30D037B61FB6952
:101E98009B00BA681344BA6991B27A6912040A4479
:101EA8001A60FB69DB007A681344BA691A60FB6937
:101EB800DB0004337A6813447A691A60FB690133DA
:101EC800FB61FB69FF2BD6D92037BD4680BD00BF1B
:101ED8002DE9F05F8346644A644DDFF89481DFF8AA
:101EE80094914FF0FF316448806840F00040DFF87B
:101EF8008CC1C4B24FEA1020012800F304805E4868
:101F0800806840F00040135D5C0980F0078040085D
:101F1800C0F09680A5EB030300F092B8B0FA80F405
:101F28001A2C40F304805448806840F0004003F0C5
:101F38000F0600F01F0404EB46144FEA5010012866
:101F480000F304804C48806840F0004019F80430E1
:101F58009C0980F0098003F01F034008C0F07080DE
:101F6800A5EB030300F06CB803F00F064FF0000474
:101F780000F0010A40080AEB4606012800F3048035
:101F88003D48806840F0004058F824A04FF01B03FB
:101F9800BAFA8AF707F101070AFA07FAA3EB070367
:101FA800013E00F14880BAF1000F7FF4F1AF04F16F
:101FB80001040A2CFFF6DCAFDFF8C49000F0010A38
:101FC8004FEA50000AEB4606012800F304802A482D
:101FD800806840F0004059F824A0BAF1000F00F0E2
:101FE80011804FF03B03BAFA8AF707F101070AFAA2
:101FF80007FAA3EB0703013E00F11B80BAF1000FBB
:102008007FF4F1AF4FF01B0358F824A0BAFA8AF70F
:1020180007F101070AFA07FAA3EB0703013E00F1EB
:102028000880BAF1000F7FF4F1AF04F10104FFF763
:10203800C5BFDFF840904008C0F00280A5EB03035D
:10204800B0FA80F6172E40F30580DEBF0A48806894
:1020580040F0004001F101012BF8113061457FF497
:1020680048AFBDE8F09F00005C0000200130000090
:10207800346400205C01002000080650FF010000C5
:10208800B46500202DE9F05F8346704A704DDFF893
:10209800C481DFF8C4914FF0FF317048806840F088
:1020A8000040DFF8BCC1C4B24FEA1020012800F399
:1020B80004806A48806840F00040135D5C0980F045
:1020C80007804008C0F09880A5EB030300F094B89F
:1020D800B0FA80F41A2C40F304806048806840F01D
:1020E800004003F00F0600F01F0404EB46144FEA0B
:1020F8005010012800F304805848806840F00040E0
:1021080019F804309C0980F0098003F01F03400887
:10211800C0F07280A5EB030300F06EB803F00F0661
:102128004FF0000400F0010A40080AEB46060128B7
:1021380000F304804948806840F0004058F824A023
:102148004FF01B03BAFA8AF707F101070AFA07FAF0
:10215800A3EB0703013E00F14880BAF1000F7FF4BA
:10216800F1AF04F101040A2CFFF6DCAFDFF8F490BC
:1021780000F0010A4FEA50000AEB4606012800F376
:1021880004803648806840F0004059F824A0BAF12D
:10219800000F00F011804FF03B03BAFA8AF707F1FD
:1021A80001070AFA07FAA3EB0703013E00F11B80B7
:1021B800BAF1000F7FF4F1AF4FF01B0358F824A0D9
:1021C800BAFA8AF707F101070AFA07FAA3EB070335
:1021D800013E00F10880BAF1000F7FF4F1AF04F17D
:1021E8000104FFF7C5BFDFF870904008C0F0198000
:1021F800A5EB030300F015B8B0FA80F6172E40F3EC
:102208000580DEBF1548806840F0004001F10101FB
:102218002BF8113061457FF446AF0CF10100BDE8A1
:10222800F09FB0FA80F6172E40F30580DEBF0B480A
:10223800806840F000402BF81C30ACF1010C61457F
:102248007FF431AF0CF10100BDE8F09F5C00002085
:1022580001300000346400205C01002000080650B2
:10226800FF010000B46500200146DFF8E83983FB70
:102278000103DA0A13019B1A02EB4323C81AF74633
:10228800DFF8D419B0FBF1F201FB1200F746DFF8D2
:10229800C439014683FB0103DA12B2EBE172130180
:1022A8009B1A02EB4323C81AF7460028C0F20C8099
:1022B8000146DFF8A03983FB0103DA0A13019B1AF0
:1022C80002EB4323C81AF746DFF88C1990FBF1F2AA
:1022D8004FF00103A3EB020303FB0100F746DFF80D
:1022E8007439014683FB0103DA12B2EBE172130180
:1022F8009B1A02EB4323C81A002980F20380DFF8F7
:1023080058190844F7460028C0F20C800146DFF847
:10231800443983FB0103DA0A13019B1A02EB4323B6
:10232800C81AF746DFF82C2982FB0012D212C3170D
:10233800D21ADFF824194FF00103A3EB020303FBC1
:102348000100F7460028C0F20C800146DFF8043986
:1023580083FB0103DA0A13019B1A02EB4323C81A11
:10236800F746C0F100000146DFF8E83883FB0103B7
:10237800DA0A13019B1A02EB4323C81ADFF8D818AC
:10238800A1EB0000F746DFF8D0180028BABF40429A
:102398000B460023B0FBF1F202FB1102A3EB020291
:1023A8001046F746DFF8B0180028BABF40420B467F
:1023B8000023B0FBF1F202FB1102A3EB0200F74687
:1023C8002DE93040DFF88C3881B2A3FB0124E20A02
:1023D8001401A41A02EB44240D1B1FFAA0F1A3FB5D
:1023E8000124E20A1401A41A02EB44240B1B05EB96
:1023F8000340BDE830802DE9F040DFF85C784FF00D
:10240800000351F8234052F8235094FA45F4A6B239
:10241800BE4258BFF61B4FEA1444BC4258BFE41BE7
:1024280006EB044440F8234003F10103B3F5807F31
:102438007FF4E7AFBDE8F0802DE9F041DFF81888B8
:102448004FF0000351F8234052F8235014FB35F69F
:10245800B6FBF8F708FB176614FB05F4B4FBF8F7AE
:1024680008FB174404EB064440F8234003F101033A
:10247800B3F5807F7FF4E6AFBDE8F0812DE9F04742
:10248800DFF8D4874FF0000A51F82A4052F82A5052
:1024980053F82A9014FB35F606EB1946B6FBF8F705
:1024A80008FB176614FB05F41FFA89F94C44B4FBC2
:1024B800F8F708FB174404EB064440F82A400AF1F1
:1024C800010ABAF5807F7FF4DFAFBDE8F0872DE918
:1024D800F001DFF884874FF0000351F8234052F8E9
:1024E8002350D4FA05F634B2002CB8BF6442B4FBCA
:1024F800F8F707FB1847B8BFA8EB07070FFAA6F5C8
:10250800002DB8BF6D42B5FBF8F404FB1854B8BFF2
:10251800A8EB040407EB044440F8234003F101034B
:10252800B3F5807F7FF4D9AFBDE8F001F7462DE918
:10253800F05FDFF82417DFF8243708B44FF0020201
:1025480008BC1C6803F1020308B44FF001084FF0FF
:1025580000064FF0000706EB070950F829301FFA6C
:1025680083FA13FB28FBBBFBF1FC01FB1CBB0AEB4A
:102578000B0C8C4558BFACEB010CBAEB0B0E48BFEB
:102588008E4409EB520950F8293013FB28FB9BB203
:10259800BBFBF1FA01FB1ABBB3EB0B0A48BF8A4439
:1025A8000EEB0A4A40F829A003EB0B0A8A4558BFEC
:1025B800AAEB010A0CEB0A4C06EB070940F829C004
:1025C8001744B7F5807FFFF6C6AF18FB04F8B8FBD1
:1025D800F1F901FB198806F10106B6EB520F3FF538
:1025E800B8AF4FEA4202B2F5807F7FF7A9AFDFF8B4
:1025F80070464FF001084FF0000950F829301FFAD3
:1026080083FA13FB28FBBBFBF1FC01FB1CBB0AEBA9
:102618000B0C8C4558BFACEB010CBAEB0B0E48BF4A
:102628008E440CEB0E4C40F829C018FB04F8B8FB9C
:10263800F1F301FB138809F10109B9F5807FFFF671
:10264800DCAFDFF82036DFF82046DFF820764FF0E1
:1026580001084FF0000950F829A01AFB08FBBBFB42
:10266800F1FC01FB1CBB1BFB07FBBBFBF1FC01FBEB
:102678001CBB1AFB23FEBEFBF1FC01FB1CEE1EFB80
:1026880007FEBEFBF1FC01FB1CEE0BEB0E4B40F80A
:1026980029B018FB04F8B8FBF1FA01FB1A8813FB00
:1026A80004F3B3FBF1FA01FB1A3309F10109B9F597
:1026B800807FFFF6D0AF08BCBDE8F09F2DE9F05F42
:1026C800DFF89415DFF8A83508B44FF0020208BC0B
:1026D8001C681FFAA4F8A4B203F1020308B44FF06F
:1026E80000064FF0000706EB070950F829301FFADB
:1026F80083FA13FB28FBBBFBF1FC01FB1CBB0AEBB9
:102708000B0C8C4558BFACEB010CBAEB0B0E48BF59
:102718008E4409EB520950F8293013FB28FB9BB271
:10272800BBFBF1FA01FB1ABBB3EB0B0A48BF8A44A7
:102738000EEB0A4A40F829A003EB0B0A8A4558BF5A
:10274800AAEB010A0CEB0A4C06EB070940F829C072
:102758001744B7F5807FFFF6C6AF18FB04F8B8FB3F
:10276800F1F901FB198806F10106B6EB520F3FF5A6
:10277800B8AF4FEA4202B2F5807F7FF7A8AFDFF823
:10278800F444DFF8F4844FF0000950F829301FFAB8
:1027980083FA13FB28FBBBFBF1FC01FB1CBB0AEB18
:1027A8000B0C8C4558BFACEB010CBAEB0B0E48BFB9
:1027B8008E440CEB0E4C40F829C018FB04F8B8FB0B
:1027C800F1F301FB138809F10109B9F5807FFFF6E0
:1027D800DCAF08BCBDE8F09F2DE9F05FDFF87814A6
:1027E800DFF88C3408B44FF0020208BC1C681FFAEA
:1027F800A4F8A4B203F1020308B44FF000064FF0A6
:10280800000706EB070950F829301FFA83FA13FB73
:1028180028FBBBFBF1FC01FB1CBB0AEB0B0C8C453A
:1028280058BFACEB010CBAEB0B0E48BF8E4409EB5A
:10283800520950F8293013FB28FB9BB2BBFBF1FA75
:1028480001FB1ABBB3EB0B0A48BF8A440EEB0A4ADA
:1028580040F829A003EB0B0A8A4558BFAAEB010AE6
:102868000CEB0A4C06EB070940F829C000F580601C
:1028780006EB070950F829301FFA83FA13FB28FBE7
:10288800BBFBF1FC01FB1CBB0AEB0B0C8C4558BFD6
:10289800ACEB010CBAEB0B0E48BF8E4409EB5209A6
:1028A80050F8293013FB28FB9BB2BBFBF1FA01FB64
:1028B8001ABBB3EB0B0A48BF8A440EEB0A4A40F82E
:1028C80029A003EB0B0A8A4558BFAAEB010A0CEBB7
:1028D8000A4C06EB070940F829C000F5806006EBB2
:1028E800070950F829301FFA83FA13FB28FBBBFBB2
:1028F800F1FC01FB1CBB0AEB0B0C8C4558BFACEB85
:10290800010CBAEB0B0E48BF8E4409EB520950F884
:10291800293013FB28FB9BB2BBFBF1FA01FB1ABB66
:10292800B3EB0B0A48BF8A440EEB0A4A40F829A0C9
:1029380003EB0B0A8A4558BFAAEB010A0CEB0A4CB9
:1029480006EB070940F829C0A0F500601744B7F561
:10295800807FFFF656AF18FB04F8B8FBF1F901FBCE
:10296800198806F10106B6EB520F3FF548AF4FEA5A
:102978004202B2F5807F7FF738AFBE4CDFF8F882AD
:102988004FF0000950F829301FFA83FA13FB28FB8F
:10299800BBFBF1FC01FB1CBB0AEB0B0C8C4558BFC5
:1029A800ACEB010CBAEB0B0E48BF8E440CEB0E4C93
:1029B80040F829C000F5806050F829301FFA83FAE2
:1029C80013FB28FBBBFBF1FC01FB1CBB0AEB0B0C4C
:1029D8008C4558BFACEB010CBAEB0B0E48BF8E44CC
:1029E8000CEB0E4C40F829C000F5806050F82930F7
:1029F8001FFA83FA13FB28FBBBFBF1FC01FB1CBB92
:102A08000AEB0B0C8C4558BFACEB010CBAEB0B0E68
:102A180048BF8E440CEB0E4C40F829C0A0F500606E
:102A280018FB04F8B8FBF1F301FB138809F101095D
:102A3800B9F5807FFFF6A6AF08BCBDE8F09F2DE989
:102A480010404FF0010191FAA1F24FEA12628A4256
:102A580040F3088050F8213050F8224040F82140D7
:102A680040F8223001F10101B1F5807FFFF6EBAFAC
:102A7800BDE810802DE9F040774C07464FF000057F
:102A88007E48806886B2B6FBF4F104FB11661FFA33
:102A9800A0F0B0FBF4F104FB110006EB004647F888
:102AA800256005F10105B5F5807F7FF4E9AF38466B
:102AB800FFF704FEBDE8F0802DE9F04104464FF42D
:102AC80040574FF000096D48806800F00106800803
:102AD800C0F0028006FB07F600F001088008C0F08D
:102AE800028008FB07F806EB084644F8296009F15C
:102AF800010900F001068008C0F0028006FB07F615
:102B080000F001088008C0F0028008FB07F806EB17
:102B1800084644F8296009F1010900F00106800817
:102B2800C0F0028006FB07F600F001088008C0F03C
:102B3800028008FB07F806EB084644F8296009F10B
:102B4800010900F001068008C0F0028006FB07F6C4
:102B580000F001088008C0F0028008FB07F806EBC7
:102B6800084644F8296009F1010900F001068008C7
:102B7800C0F0028006FB07F600F001088008C0F0EC
:102B8800028008FB07F806EB084644F8296009F1BB
:102B9800010900F001068008C0F0028006FB07F674
:102BA80000F001088008C0F0028008FB07F806EB77
:102BB800084644F8296009F1010900F00106800877
:102BC800C0F0028006FB07F600F001088008C0F09C
:102BD800028008FB07F806EB084644F8296009F16B
:102BE800010900F001068008C0F0028006FB07F624
:102BF80000F001088008C0F0028008FB07F806EB27
:102C0800084644F8296009F10109B9F5807F00F008
:102C18000480B9F5807F7FF456AF2046FFF74EFD5C
:102C2800BDE8F081F74630B4154A4FF0000551F879
:102C3800253013FB02F413FB22F304EB034440F8A2
:102C4800254005F10105B5F5807F7FF4F0AF30BC74
:102C5800F7460000851CA7AA013000004C000020A0
:102C6800C20E00003A2A00007F230000E92F00006E
:102C780038000020B7150000BB1A000000080650F5
:102C88000018000080B582B000AF7860786800F066
:102C980079FA7868FFF712FD0837BD4680BD00BF96
:102CA80080B5ADF5826D00AF07F10C03186007F130
:102CB800080319603B1D1A6007F10C031868FFF739
:102CC800D9FE07F108031868FFF7DCFF3B1D1868F9
:102CD800FFF7F2FE07F1100107F10C023B1D084651
:102CE80011681A68FFF7A8FB07F1080107F1080245
:102CF80007F11003086811681A46FFF7E8FB3B1D47
:102D08001868FFF79CFE07F58267BD4680BD00BFC7
:102D180080B584B000AFF860B9607A60F868F96887
:102D28007A68BB68FFF7AAFBF868FFF700FC103762
:102D3800BD4680BD90B5ADF2144D00AF07F10C044F
:102D4800206007F108000160391D0A603A461360E7
:102D580007F110023B4610461968FFF764FF19484F
:102D680000F010FA184800F00DFA184800F00AFAB6
:102D780007F11003154815491A46FFF73CFB11489F
:102D8800FFF72AFD07F1080207F10C03106819681C
:102D98000C4A0D4BFFF772FB3B1D1868D7F820143F
:102DA800084A0A4BFFF76AFB07F108031868FFF7A0
:102DB80046FE3B1D1868FFF742FE07F21447BD4662
:102DC80090BD00BF2874002028780020287C0020AF
:102DD80090B585B000AF78600023FB6013E0FB6816
:102DE8005B007A68D41810F021FD0246094B1340A5
:102DF800002B03DA013B63F0010301339BB223800C
:102E0800FB680133FB60FB68B3F5007FE7DB143731
:102E1800BD4690BD0100008080B485B000AF7860E9
:102E280039600023FB6018E0FB68DA0F13445B107D
:102E38009B003A681344FA68920079680A44126859
:102E480091B2FA680132920078680244126812045A
:102E58000A441A60FB680233FB60FB68FF2BE3DD62
:102E68000023FB601AE0FB68DA0F13445B10803321
:102E78009B003A681A44FB689B0079680B441B68FE
:102E8800190CFB6801339B00786803441B681B0C12
:102E98001B040B441360FB680233FB60FB68FF2BC9
:102EA800E1DD1437BD465DF8047B704780B483B01C
:102EB80000AF786039603B689AB27B681B681B0C6E
:102EC8001B041A447B681A600C37BD465DF8047B06
:102ED800704700BF80B483B000AF786039603B684A
:102EE8001A047B681B689BB21A447B681A600C370B
:102EF800BD465DF8047B704780B592B000AF78603E
:102F080000237B641AE17A6C904B1340002B03DAA0
:102F1800013B63F001030133FB637B6C5A108B4B5D
:102F28001340002B03DA013B63F001030133BB6359
:102F38007B6C9A10854B1340002B03DA013B63F03E
:102F4800010301337B637B6CDA10804B1340002B49
:102F580003DA013B63F0010301333B637B6C1A1115
:102F68007A4B1340002B03DA013B63F00103013372
:102F7800FB627B6C5A11754B1340002B03DA013B43
:102F880063F001030133BB627B6C9A116F4B1340F2
:102F9800002B03DA013B63F0010301337B627B6C96
:102FA800DA116A4B1340002B03DA013B63F001038B
:102FB80001333B627B6CDA0F13445B10FB617A6C64
:102FC800624B1340002B03DA013B63F0010301332A
:102FD800BB617B6C1A125D4B1340002B03DA013B7B
:102FE80063F0010301337B61FB6B5A00BB6B134435
:102FF8005A007B6B13445A003B6B13445A00FB6A1C
:1030080013445A00BB6A13445A007B6A13445A009B
:103018003B6A13445A007B6913443B613B69DA0FEE
:1030280013445B10FB603A69484B1340002B03DAEA
:10303800013B63F001030133BB603A697B6C9A4240
:1030480079DDBB68002B06D1FB689B007A681344C6
:103058001B689BB23B64BB68012B06D1FB689B00D5
:103068007A6813441B681B0C3B64BB68002B0FD1A8
:10307800BB69002B0CD1FB689B007A681A44FB697A
:103088009B0079680B441B6810461946FFF70EFF32
:10309800BB68002B10D1BB69012B0DD1FB689B00CD
:1030A8007A681A44FB699B0079680B441B681B0CFF
:1030B80010461946FFF7FAFEBB68012B0FD1BB6912
:1030C800002B0CD1FB689B007A681A44FB699B00B3
:1030D80079680B441B6810461946FFF7FBFEBB686E
:1030E800012B10D1BB69012B0DD1FB689B007A68BD
:1030F8001A44FB699B0079680B441B681B0C10463B
:103108001946FFF7E7FEBB69002B08D1FB699B0056
:103118007A681A443B6C10461946FFF7C7FEBB692C
:10312800012B08D1FB699B007A681A443B6C104656
:103138001946FFF7CFFE7B6C01337B647B6CB3F5DC
:10314800007FFFF6E0AE4837BD4680BD0100008035
:1031580080B584B000AFF860B9607A60F868FFF7AE
:10316800ADFAB868FFF7AAFA7868F968BA68FFF79D
:1031780063F97868FFF763FC7868FFF7D8F91037C8
:10318800BD4680BD80B586B000AF78607868FEF730
:1031980079FF786122E0FDF727FA0346C3F30803B5
:1031A8003B617A693B699A4218D93B695B007A6846
:1031B80013441B88FB813B695B007A6813447A6976
:1031C800520079680A4412881A807B695B007A6821
:1031D8001344FA891A807B6901337B617B69B3F5F3
:1031E800007FD8DB1837BD4680BD00BF80B485B0EE
:1031F80000AF7860396000237B7204E07B681B684D
:103208005A1C7B681A607B681B681B78FB72FB7A08
:10321800202BF3D0FB7A2D2B0AD101237B727B68FC
:103228001B685A1C7B681A607B681B681B78FB72DA
:10323800FB7A302B39D17B681B685A1C7B681A6073
:103248007B681B681B78FB72FB7A202B04D83B68D1
:1032580000221A6001236CE0FB7A782B0BD1102333
:10326800BB727B681B685A1C7B681A607B681B688A
:103278001B78FB7223E0FB7A622B0BD10223BB7213
:103288007B681B685A1C7B681A607B681B681B7804
:10329800FB7214E0FB7A2F2B05D9FB7A392B02D865
:1032A8000823BB720BE0002343E0FB7A302B02D9E2
:1032B800FB7A392B01D900233BE00A23BB72002398
:1032C800FB6029E0FB7A602B02D9FB7A203BFB727A
:1032D800FB7A303BFB72FB7A102B07D9FB7A073B52
:1032E800FB72FB7A092B01D8002322E0FA7ABB7A19
:1032F8009A4201D300231CE0BB7AFA6802FB03F26E
:10330800FB7A1344FB607B681B685A1C7B681A6055
:103318007B681B681B78FB72FB7A202BD2D87B7AE0
:10332800002B02D0FB685B42FB60FA683B681A60BE
:10333800012318461437BD465DF8047B704700BF6B
:1033480080B582B000AF0346FB71FB790A2B02D12E
:103358000D2000F009FBFB79184600F005FB083743
:10336800BD4680BD80B582B000AF786006E07B685E
:103378005A1C7A601B781846FFF7E2FF7B681B78B7
:10338800002BF4D10837BD4680BD00BF80B58CB096
:1033980000AFF860B9607A60002387F82E302023E8
:1033A80087F82D30002387F82C30BB68002B0BDA08
:1033B800BB685B42BB60FB68002B05DAFB685B42BD
:1033C800FB602D2387F82E30FB68BB62BB6887F84B
:1033D80027307B68002B05DA7B685B427B603023F3
:1033E80087F82D307B68142B62DC97F82720BB6A9E
:1033F800B3FBF2F102FB01F29B1A87F82F3097F822
:103408002F30092B04D997F82F30073387F82F303E
:1034180097F82F30303387F82F3097F82C305A1C14
:1034280087F82C2007F13002134497F82F2003F86F
:10343800202C97F82730BA6AB2FBF3F3BB62BB6A59
:10344800002BD2D197F82E30002B0CD097F82C30C7
:103458005A1C87F82C2007F13002134497F82E20C5
:1034680003F8202C0CE00BE097F82C305A1C87F856
:103478002C2007F13002134497F82D2003F8202C54
:1034880097F82C207B689A42EEDB97F82C30013BAA
:1034980087F82C3097F82C3007F13002134413F8D2
:1034A800203C1846FFF74CFF97F82C30002BECD146
:1034B8003037BD4680BD00BF0FB480B586B000AFC1
:1034C80007F124033B60A2E07B69252B05D07B69CB
:1034D800DBB21846FFF734FF99E03B6A5A1C3A62A0
:1034E8001B787B6100237B607B68BB60BB683B61AA
:1034F8003B69FB607B69302B07D13B6A5A1C3A62F7
:103508001B787B610123BB6011E010E0FA68134669
:103518009B0013445B001A467B69303B1344FA68EE
:103528001344FB603B6A5A1C3A621B787B617B69D7
:103538002F2B02DD7B69392BE8DDBB68002B02D01D
:10354800FB685B42FB607B696C2B06D101237B60C7
:103558003B6A5A1C3A621B787B617B69002B00D15D
:103568005EE07B69732B07D13B681A1D3A601B68C4
:103578001846FFF7F7FE4AE07B69632B08D13B68E2
:103588001A1D3A601B68DBB21846FFF7D9FE3EE009
:103598007B69752B01D10A233B617B69642B02D1BE
:1035A8006FF009033B617B69582B02D07B69782B4C
:1035B80001D110233B617B69622B01D102233B615E
:1035C8003B69002B00D12BE07B68002B09D03B68BE
:1035D8001A1D3A601B6818463969FA68FFF7D6FE63
:1035E80015E03B69002B09DD3B681A1D3A601B6832
:1035F80018463969FA68FFF7C9FE08E03B681A1DE2
:103608003A601B6818463969FA68FFF7BFFE3B6ADB
:103618005A1C3A621B787B617B69002B7FF454AF9C
:103628001837BD46BDE8804004B0704780B586B005
:1036380000AFF860B9607A601F48B968FFF73CFFCF
:103648000023FB750AE0FB7DFA6813441B781B48CE
:103658001946FFF731FFFB7D0133FB75FA7D7B6867
:103668009A42F0DB2020FFF76BFE0023FB7519E080
:10367800FB7DFA6813441B781F2B05D9FB7DFA687C
:1036880013441B787E2B03D92E20FFF759FE06E042
:10369800FB7DFA6813441B781846FFF751FEFB7D43
:1036A8000133FB75FA7D7B689A42E1DB0A20FFF75C
:1036B80047FE1837BD4680BD68640108706401087C
:1036C80080B584B000AF786039600023FB6000F0FB
:1036D80043F90346FB72FB7A0D2B00D128E0FB7AF5
:1036E800082B10D1FB68002B0DD0FB68013BFB6059
:1036F800FB7A1846FFF724FE2020FFF721FEFB7A0D
:103708001846FFF71DFEFB7A1F2B10D93B685A1E7F
:10371800FB689A420BDDFB685A1CFA607A6813440E
:10372800FA7A1A70FB7A1846FFF70AFECFE7CEE757
:10373800FB687A68134400221A700A20FFF700FE1B
:103748001037BD4680BD00BF80B588B000AFF860B7
:10375800B9607A600023FB6100F0F6F80346002B9D
:103768003ED07B681B68BB6100F0F6F80346FB752A
:10377800FB7D0D2B0AD1BB69FA68134400221A702D
:103788000A20FFF7DDFD0123FB6126E0FB7D082B06
:1037980010D1BB69002B0DD0BB69013BBB61FB7D20
:1037A8001846FFF7CDFD2020FFF7CAFDFB7D184620
:1037B800FFF7C6FDFB7D1F2B0FD9BB685A1EBB69DF
:1037C8009A420ADDBB695A1CBA61FA681344FA7D49
:1037D8001A70FB7D1846FFF7B3FD7B68BA691A605B
:1037E800FB6918462037BD4680BD00BF80B58AB04A
:1037F80000AF7860102001210AF054FA022001215C
:103808000AF0D8F9C0233B62022387F82430022348
:1038180087F82530002387F82630012387F82730DA
:1038280007F120031C48194608F04EF91A480621EA
:10383800072208F0B7FA18480721072208F0B2FA59
:103848007B683B610023BB820023FB8200233B8310
:103858000023BB830C237B8307F110030F48194611
:103868000EF0B6FC0D4840F2255101220EF0EAFF99
:1038780025233B7300237B730023BB730123FB7356
:1038880007F10C03184600F0B7FD044801210EF0BB
:10389800B5FD2837BD4680BD000402400010014038
:1038A80080B582B000AF7860396012E000BF7B68F5
:1038B8001B889BB203F04003002BF8D03B681B78B1
:1038C800DBB2786819460EF017FE3B685A1C3A605E
:1038D8001B783B681B78DBB2002BE7D10837BD4665
:1038E80080BD00BF80B582B000AF144840F22551BA
:1038F8000FF01CF80346002B1DD0104B9B889BB281
:10390800FB71FB790A2B0FD00D4B1B780B2B0BD8B7
:103918000B4B1B780B4AF979D154094B1B780133AF
:10392800DAB2074B1A7006E0054B00221A700348FA
:103938000449FFF7B5FF0837BD4680BD00100140B8
:10394800448000208C80002080B400AF1846BD461B
:103958005DF8047B704700BF80B400AF1846BD46D1
:103968005DF8047B704700BF80B582B000AF0346A6
:10397800FB7100BF074B1B889BB203F04003002B71
:10398800F8D0FB799BB2034819460EF0B5FD08370D
:10399800BD4680BD0010014080B500AF4FF4165001
:1039A800FFF724FF80BD00BF80B586B000AFF86088
:1039B800B9607A60BA68FB68D21A3B6AD31A7B612D
:1039C8007B687A69B2FBF3F33B61BB6A012B07D1D1
:1039D8003B695B0A064839691A46FFF76DFD03E043
:1039E80004483969FFF768FD1837BD4680BD00BF38
:1039F80078640108A464010890B5ADF5A15D83B0B1
:103A080004AF9B4B9A4AD26842F08072DA60994BB5
:103A180000225A60974B974A126842F001021A60D6
:103A2800944B5B6807F5A05101F110010B60914BB5
:103A38005B6807F5A05202F10C02136007F5A0536A
:103A480003F10C031A6807F5A05101F110010B6886
:103A5800D31A1A464FF0000307F5A051C1E9002315
:103A680007F5A052136884481946FFF725FD814BD6
:103A78005B6807F5A05101F10C010B604FF47A70F7
:103A88000FF0CCFE7B4B00225A607A4B5B6807F53F
:103A9800A05202F110021360002307F5A05101F1B2
:103AA80014010B600FE007F580531846FFF76AFB17
:103AB80007F5A05202F114021368013307F5A0516B
:103AC80001F114010B6007F5A05303F114031A6800
:103AD8006A4B9A42E7DD674B5B6807F5A05101F135
:103AE8000C010B606648FFF7E7FC07F5A051D1E928
:103AF8000023CDE900230123029307F5A05202F128
:103B08001002106807F5A05303F10C0319685D4A09
:103B1800FFF74AFF4FF47A700FF080FE554B0022F2
:103B28005A60544B5B6807F5A05101F110010B6016
:103B3800002307F5A05202F1140213600FE007F505
:103B480080531846FEF79EFA07F5A05101F11401BB
:103B58000B68013307F5A05202F11402136007F550
:103B6800A05303F114031A68444B9A42E7DD414B12
:103B78005B6807F5A05101F10C010B604248FFF7A3
:103B88009BFC07F5A051D1E90023CDE900230123CF
:103B9800029307F5A05202F11002106807F5A0532E
:103BA80003F10C031968374AFFF7FEFE4FF47A70E9
:103BB8000FF034FE2F4B00225A602E4B5B6807F53E
:103BC800A05101F110010B60002307F5A05202F18A
:103BD800140213600FE007F580531846FEF778F9D2
:103BE80007F5A05101F114010B68013307F5A05244
:103BF80002F11402136007F5A05303F114031A68C5
:103C08001E4B9A42E7DD1B4B5B6807F5A05101F19B
:103C18000C010B601D48FFF74FFC07F5A051D1E9D7
:103C28000023CDE900230123029307F5A05202F1F6
:103C38001002106807F5A05303F10C031968114A24
:103C4800FFF7B2FE4FF47A700FF0E8FD094B00223F
:103C58005A60084B5B6807F5A05101F110010B6031
:103C6800002307F5A05202F11402136026E000BFFA
:103C7800F0ED00E0001000E0C06401089F8601003C
:103C8800D4640108A08601000065010818650108D0
:103C980007F5805107F5406207F5006308461146AD
:103CA8001A46FFF755FA07F5A05101F114010B6800
:103CB800013307F5A05202F11402136007F5A0536F
:103CC80003F114031A68BE4B9A42E1DDBD4B5B68F1
:103CD80007F5A05101F10C010B60BB48FFF7ECFBA5
:103CE80007F5A051D1E90023CDE900230023029371
:103CF80007F5A05202F11002106807F5A05303F16E
:103D08000C031968B14AFFF74FFE4FF47A700FF0B1
:103D180085FDAC4B00225A60AA4B5B6807F5A051A1
:103D280001F110010B60002307F5A05202F1140203
:103D380013601AE007F5805007F5406107F5006445
:103D480007F58363183B07F11802183A00922246D8
:103D5800FEF7F0FF07F5A05101F114010B680133DC
:103D680007F5A05202F11402136007F5A05303F1FE
:103D780014031A68924B9A42DCDD924B5B6807F594
:103D8800A05101F10C010B609148FFF795FB07F575
:103D9800A051D1E90023CDE900230023029307F5C0
:103DA800A05202F11002106807F5A05303F10C03AA
:103DB8001968864AFFF7F8FD4FF47A700FF02EFD68
:103DC800804B00225A607F4B5B6807F5A05101F1D8
:103DD80010010B60002307F5A05202F114021360D2
:103DE80015E007F5805107F5406207F500630846BE
:103DF80011461A46FEF78CFF07F5A05101F1140190
:103E08000B68013307F5A05202F11402136007F59D
:103E1800A05303F114031A68694B9A42E1DD694B18
:103E28005B6807F5A05101F10C010B606948FFF7C9
:103E380043FB07F5A051D1E90023CDE90023002376
:103E4800029307F5A05202F11002106807F5A0537B
:103E580003F10C0319685D4AFFF7A6FD4FF47A7069
:103E68000FF0DCFC574B00225A60564B5B6807F595
:103E7800A05101F110010B60002307F5A05202F1D7
:103E88001402136015E007F5805107F5406207F545
:103E98000063084611461A46FEF702FF07F5A051CF
:103EA80001F114010B68013307F5A05202F1140265
:103EB800136007F5A05303F114031A68404B9A42A4
:103EC800E1DD404B5B6807F5A05101F10C010B6087
:103ED8004148FFF7F1FA07F5A051D1E90023CDE9F0
:103EE80000230023029307F5A05202F11002106884
:103EF80007F5A05303F10C031968344AFFF754FD82
:103F08004FF47A700FF08AFC2E4B00225A602D4B2A
:103F18005B6807F5A05101F110010B60002307F55C
:103F2800A05202F1140213600FE007F580531846FF
:103F3800FDF792F907F5A05101F114010B6801335F
:103F480007F5A05202F11402136007F5A05101F120
:103F580014010B68632BE8DD1A4B5B6807F5A05268
:103F680002F10C0213601D48FFF7A6FA07F5A051ED
:103F7800D1E90023CDE900230023029307F5A052DD
:103F880002F11002106807F5A05303F10C03196839
:103F98006422FFF709FD4FF47A700FF03FFC094BDC
:103FA80000225A60074B5B6807F5A05101F1100128
:103FB8000B60002307F5A05202F1140213601DE004
:103FC8009F860100001000E028650108A086010016
:103FD8003C6501084C6501085C6501086C650108D1
:103FE800B848FEF7F9FB07F5A05101F114010B6879
:103FF800013307F5A05202F11402136007F5A0512E
:1040080001F114010B68632BEADDAF4B5B6807F520
:10401800A05202F10C021360AC48FFF74DFA07F505
:10402800A051D1E90023CDE900230023029307F52D
:10403800A05202F11002106807F5A05303F10C0317
:1040480019686422FFF7B0FC4FF47A700FF0E6FBB2
:104058009D4B00225A609C4B5B6807F5A05101F10B
:1040680010010B60002307F5A05202F1140213603F
:104078000FE007F580531846FEF720FB07F5A0511F
:1040880001F114010B68013307F5A05202F1140283
:10409800136007F5A05101F114010B68632BE8DDEB
:1040A800894B5B6807F5A05202F10C02136088483F
:1040B800FFF702FA07F5A051D1E90023CDE9002363
:1040C8000023029307F5A05202F11002106807F5C9
:1040D800A05303F10C0319686422FFF765FC4FF441
:1040E8007A700FF09BFB784B00225A60764B5B6826
:1040F80007F5A05101F110010B60002307F5A0524C
:1041080002F1140213600FE007F580531846FEF71A
:104118000EFA07F5A05101F114010B68013307F5F8
:10412800A05202F11402136007F5A05101F1140125
:104138000B68632BE8DD644B5B6807F5A05202F15E
:104148000C0213606348FFF7B7F907F5A051D1E9EE
:104158000023CDE900230023029307F5A05202F1C2
:104168001002106807F5A05303F10C0319686422C4
:10417800FFF71AFC4FF47A700FF050FB524B0022F5
:104188005A60514B5B6807F5A05101F110010B60B3
:10419800002307F5A05202F11402136015E007F599
:1041A800805107F5406207F50063084611461A4634
:1041B800FEF721F907F5A05101F114010B6801334D
:1041C80007F5A05202F11402136007F5A05101F19E
:1041D80014010B68632BE2DD3B4B5B6807F5A052CB
:1041E80002F10C0213603C48FFF766F907F5A0518D
:1041F800D1E90023CDE900230023029307F5A0525B
:1042080002F11002106807F5A05303F10C031968B6
:104218006422FFF7C9FB4FF47A700FF0FFFA2A4BBC
:1042280000225A60284B5B6807F5A05101F1100184
:104238000B60002307F5A05202F11402136015E089
:1042480007F5805107F5406207F5006308461146F7
:104258001A46FEF7F1F807F5A05101F114010B68B1
:10426800013307F5A05202F11402136007F5A051BB
:1042780001F114010B68632BE2DD134B5B6807F552
:10428800A05202F10C0213601448FFF715F907F564
:10429800A051D1E90023CDE900230023029307F5BB
:1042A800A05202F11002106807F5A05303F10C03A5
:1042B80019686422FFF778FB07F5A0571C37BD463D
:1042C80090BD00BF28740020001000E07865010848
:1042D80090650108A0650108B0650108C865010876
:1042E80080B483B000AF786039607B681A683B6837
:1042F8001B68D31A18460C37BD465DF8047B704717
:1043080080B483B000AF786039607B681B881A4638
:104318003B681B88D31A18460C37BD465DF8047BEA
:10432800704700BF80B485B000AF78603960002363
:10433800FB600DE0FB685B003A681344FA68920082
:1043480079680A44126892B21A80FB680133FB60EC
:10435800FB68B3F5007FEDDB1437BD465DF8047BE1
:10436800704700BF80B586B000AFF860B9607A606A
:1043780000237B6114E07B695B00FA6813441A88A8
:104388007B695B00B9680B441B889A4205D00948D1
:104398007969FFF791F8002307E07B6901337B61B6
:1043A8007A697B689A42E6DB012318461837BD46CE
:1043B80080BD00BFE065010880B5ADF5406D00AF78
:1043C8000348FEF7CFFF07F54067BD4680BD00BF35
:1043D800E865010880B483B000AF7860054A7B685F
:1043E80043F0BF6343F40033D3600C37BD465DF838
:1043F800047B704700ED00E080B485B000AF7860C2
:104408000023FB730023BB730F237B737B68DB786C
:10441800002B37D0254BDB68DB4303F4E0631B0A32
:10442800FB73FB7BC3F10403BB737A7BFB7B42FA10
:1044380003F37B737B685B781A46BB7B02FA03F352
:10444800FB737B689A787B7B1340DAB2FB7B134360
:10445800FB73FB7B1B01FB73154A7B681B781344BA
:10446800FA7B83F80023124B7A6812785209D2B289
:104478007968097801F01F01012000FA01F143F879
:1044880022100EE00A4B7A6812785209D2B2796883
:10449800097801F01F01012000FA01F1203243F8E8
:1044A80022101437BD465DF8047B704700ED00E02C
:1044B80000E100E080B483B000AF78603960074A5B
:1044C8003B6823F0604323F07F0379680B439360D4
:1044D8000C37BD465DF8047B704700BF00ED00E077
:1044E80080B483B000AF02460B46FA71BB71BB794A
:1044F800002B06D0094B094A1169FA790A431A6157
:1045080006E0064B054A1169FA79D2430A401A6156
:104518000C37BD465DF8047B704700BF00ED00E036
:1045280080B483B000AF78607B68042B06D1094B58
:10453800084A126842F004021A6005E0054B054A71
:10454800126822F004021A600C37BD465DF8047B3D
:10455800704700BF10E000E080B500AF4FF48070F6
:10456800012109F035FC4FF48070002109F030FC7E
:1045780080BD00BF80B485B000AF7860396000238B
:10458800FB600023FB727B685B68FB60FB6823F0C1
:10459800407323F48073FB603B681B791A023B6805
:1045A8001B681343FA681343FB607B68FA685A6018
:1045B8007B689B68FB60FA68174B1340FB603B689D
:1045C8001A693B68DB681A433B689B681A433B6877
:1045D8005B795B001343FA681343FB607B68FA68F6
:1045E8009A607B68DB6AFB60FB6823F47003FB60FE
:1045F8003B681B7D013BDAB2FB7A1343FB72FB7A03
:104608001B05FA681343FB607B68FA68DA621437A3
:10461800BD465DF8047B7047FDF7FFC080B483B0EA
:1046280000AF78607B6800221A607B6800221A71EC
:104638007B6800225A717B6800229A607B6800229E
:10464800DA607B6800221A617B6801221A750C37D0
:10465800BD465DF8047B704780B485B000AF7860D4
:104668000023FB600E4B5B68FB60FA680D4B134040
:10467800FB607B681A687B685B681A437B689B6889
:104688001A437B68DB681343FA681343FB60044BE7
:10469800FA685A601437BD465DF8047B704700BF5E
:1046A80000230140E030FCFF80B483B000AF7860A5
:1046B8007B6800221A607B6800225A607B680022AF
:1046C8009A607B680022DA600C37BD465DF8047B8F
:1046D800704700BF80B483B000AF78600B46FB70B2
:1046E800FB78002B06D07B689B6843F001027B684F
:1046F8009A6005E07B689B6823F001027B689A60FA
:104708000C37BD465DF8047B704700BF80B485B0A8
:1047180000AF786039600023FB607B685B68FB60F2
:10472800FB6823F4400323F40073FB60FA683B68DA
:104738001343FB607B68FA685A601437BD465DF81E
:10474800047B704780B483B000AF786013460A4694
:104758007A803B807A887B685A623A887B689A625A
:104768000C37BD465DF8047B704700BF80B485B048
:1047780000AF78600B46FB700023FB607B685B68CA
:10478800FB60FB6823F01F03FB60FB78FA681343A8
:10479800FB607B68FA685A601437BD465DF8047B95
:1047A800704700BF80B483B000AF0346FB71FB794C
:1047B800002B06D0084B084A526842F400025A609F
:1047C80005E0054B044A526822F400025A600C378F
:1047D800BD465DF8047B70470023014080B483B078
:1047E80000AF0346FB71FB79002B06D0084B084A43
:1047F800526842F480025A6005E0054B044A526848
:1048080022F480025A600C37BD465DF8047B70477D
:104818000023014080B485B000AF7860F970BA70A9
:104828007B700023FB600023BB60FB78092B23D936
:104838007B68DB68FB60FB78A3F10A0213465B0028
:104848001344072202FA03F3BB60BB68DB43FA6830
:104858001340FB607978FB78A3F10A0213465B00EA
:10486800134401FA03F3BB60FA68BB681343FB60A7
:104878007B68FA68DA601EE07B681B69FB60FA787F
:1048880013465B001344072202FA03F3BB60BB68BC
:10489800DB43FA681340FB607978FA7813465B00CB
:1048A800134401FA03F3BB60FA68BB681343FB6067
:1048B8007B68FA681A61BB78062B21D87B685B6B2A
:1048C800FB60BB785A1E13469B0013441F2202FA52
:1048D80003F3BB60BB68DB43FA681340FB60F978FD
:1048E800BB785A1E13469B00134401FA03F3BB60BE
:1048F800FA68BB681343FB607B68FA685A6347E051
:10490800BB780C2B21D87B681B6BFB60BB78DA1F4C
:1049180013469B0013441F2202FA03F3BB60BB68D3
:10492800DB43FA681340FB60F978BB78DA1F13465B
:104938009B00134401FA03F3BB60FA68BB68134396
:10494800FB607B68FA681A6322E07B68DB6AFB60BD
:10495800BB78A3F10D0213469B0013441F2202FAF1
:1049680003F3BB60BB68DB43FA681340FB60F9786C
:10497800BB78A3F10D0213469B00134401FA03F31D
:10498800BB60FA68BB681343FB607B68FA68DA624D
:104998001437BD465DF8047B704700BF80B483B010
:1049A80000AF78607B689B6843F080427B689A60C0
:1049B8000C37BD465DF8047B704700BF80B485B0F6
:1049C80000AF78600023FB737B689B6803F4800367
:1049D800002B02D00123FB7301E00023FB73FB7B58
:1049E80018461437BD465DF8047B704780B483B021
:1049F80000AF78600B46FB70FB78002B06D07B6815
:104A08009B6843F480627B689A6005E07B689B68DA
:104A180023F480627B689A600C37BD465DF8047B9E
:104A2800704700BF80B483B000AF78600B46FB705E
:104A3800FB78002B06D07B689B6843F002027B68FA
:104A48009A6005E07B689B6823F002027B689A60A5
:104A58000C37BD465DF8047B704700BF80B485B055
:104A680000AF78600B46FB700023FB600023BB603F
:104A78007B685B68FB60FB6823F46043FB60FB7842
:104A8800013BBB60BB685B03FA681343FB607B6850
:104A9800FA685A601437BD465DF8047B704700BF5A
:104AA80080B483B000AF78600B46FB70FB78002BB6
:104AB80006D07B685B6843F400627B685A6005E057
:104AC8007B685B6823F400627B685A600C37BD46DC
:104AD8005DF8047B704700BF80B483B000AF786096
:104AE8007B68DB6C9BB218460C37BD465DF8047BCF
:104AF800704700BF80B400AF034B1B681846BD4623
:104B08005DF8047B704700BF0823014080B483B080
:104B180000AF78600B46FB70FB78002B06D07B68F3
:104B28009B6843F480727B689A6005E07B689B68A9
:104B380023F480727B689A600C37BD465DF8047B6D
:104B4800704700BF80B483B000AF78600B46FB703D
:104B5800FB78002B06D07B689B6843F400727B6867
:104B68009A6005E07B689B6823F400727B689A6012
:104B78000C37BD465DF8047B704700BF80B483B036
:104B880000AF0346FB71FB79002B06D0084B084A9F
:104B9800526842F400525A6005E0054B044A5268D4
:104BA80022F400525A600C37BD465DF8047B70470A
:104BB8000023014080B487B000AF7860F970BA7004
:104BC8007B7000237B6100233B610023FB60FB7843
:104BD800092B23D97B68DB687B61FB78A3F10A0288
:104BE80013465B001344072202FA03F33B613B6957
:104BF800DB437A6913407B617978FB78A3F10A0279
:104C080013465B00134401FA03F33B617A693B697D
:104C180013437B617B687A69DA601EE07B681B69F5
:104C28007B61FA7813465B001344072202FA03F308
:104C38003B613B69DB437A6913407B617978FA7899
:104C480013465B00134401FA03F33B617A693B693D
:104C580013437B617B687A691A617B689B6B7B6114
:104C68007B6903F440131B0DFB60FB68DBB2BA7869
:104C7800D31ADBB20233DBB21A4613469B00134445
:104C88001F2202FA03F33B613B69DB437A69134055
:104C98007B61F978FB68DBB2BA78D31ADBB20233EE
:104CA800DBB21A4613469B00134401FA03F33B6137
:104CB8007A693B6913437B617B687A699A631C371D
:104CC800BD465DF8047B704780B485B000AF78605E
:104CD8000B46FB700023FB600023BB607B689B6B6B
:104CE800FB60FB6823F44013FB60FB78013BBB606F
:104CF800BB681B05FA681343FB607B68FA689A6314
:104D08001437BD465DF8047B704700BF80B485B09A
:104D180000AF786013460A46FA703B800023FB60B8
:104D28007B68FB60FA78FB681344FB60FB683A8891
:104D38001A601437BD465DF8047B704780B485B0AF
:104D480000AF786039600023FB607B689B68FB607C
:104D5800FB6823F47023FB60FA683B681343FB602D
:104D68007B68FA689A601437BD465DF8047B704723
:104D780080B485B000AF786039600023FB607B6841
:104D88009B68FB60FB6823F44013FB60FA683B6890
:104D98001343FB607B68FA689A601437BD465DF878
:104DA800047B704780B483B000AF78607B689B68F1
:104DB80043F480027B689A600C37BD465DF8047B3B
:104DC800704700BF80B485B000AF78600023FB73E4
:104DD8007B689B6803F48003002B02D00123FB73DC
:104DE80001E00023FB73FB7B18461437BD465DF8D2
:104DF800047B704780B483B000AF78600B46FB70CB
:104E0800FB78002B06D07B685B6843F480627B6884
:104E18005A6005E07B685B6823F480627B685A60AF
:104E28000C37BD465DF8047B704700BF80B483B083
:104E380000AF78600B46FB70FB78002B06D07B68D0
:104E48005B6843F480527B685A6005E07B685B6866
:104E580023F480527B685A600C37BD465DF8047BAA
:104E6800704700BF80B485B000AF78600B46FB7018
:104E78000023FB607B68FB60FA78FB6813442833E7
:104E8800FB60FB681B689BB218461437BD465DF88B
:104E9800047B704780B485B000AF786013460A463B
:104EA8007A807B700023FB607B88DBB2FB60FB6849
:104EB800012202FA03F3FB607B78002B06D07B68A3
:104EC8005A68FB681A437B685A6006E07B685A6830
:104ED800FB68DB431A407B685A601437BD465DF8AF
:104EE800047B704780B485B000AF78600B46FB70D8
:104EF8000023FB737B681A68FB781340002B02D0F1
:104F08000123FB7301E00023FB73FB7B1846143776
:104F1800BD465DF8047B704780B483B000AF78600D
:104F28000B46FB70FB78DA437B681A600C37BD468A
:104F38005DF8047B704700BF80B487B000AF78602D
:104F48000B467B800023FB7500233B610023FB603D
:104F58007B881B0A9BB23B617B685A687B88DBB203
:104F6800012101FA03F31340FB607B681A683B696F
:104F78001340002B05D0FB68002B02D00123FB75E2
:104F880001E00023FB75FB7D18461C37BD465DF824
:104F9800047B704780B485B000AF78600B467B8097
:104FA8000023FB737B881B0A9BB2FB73FB7BDA43F2
:104FB8007B681A601437BD465DF8047B704700BFF4
:104FC80080B582B000AF78607A680D4B9A420AD1FA
:104FD8004FF00070012108F0DDFE4FF00070002155
:104FE80008F0D8FE09E04FF08060012108F0D2FEF9
:104FF8004FF08060002108F0CDFE0837BD4680BD27
:105008000064004080B485B000AF78603960002348
:10501800FB730023BB607B681B6823F002027B687C
:105028001A607B681B6843F001027B681A6002E023
:10503800BB680133BB607B685B6803F00103002B2E
:1050480004D1BA684FF6FF739A42F1D17B685B6866
:1050580003F00103002B02D10023FB739CE03B68A3
:105068009B79012B06D17B681B6843F080027B6823
:105078001A6005E07B681B6823F080027B681A6071
:105088003B68DB79012B06D17B681B6843F0400243
:105098007B681A6005E07B681B6823F040027B6828
:1050A8001A603B681B7A012B06D17B681B6843F0AA
:1050B80020027B681A6005E07B681B6823F02002E9
:1050C8007B681A603B685B7A012B06D17B681B689A
:1050D80043F010027B681A6005E07B681B6823F0C8
:1050E80010027B681A603B689B7A012B06D17B68AB
:1050F8001B6843F008027B681A6005E07B681B6840
:1051080023F008027B681A603B68DB7A012B06D122
:105118007B681B6843F004027B681A6005E07B68C3
:105128001B6823F004027B681A603B689B789A0727
:105138003B68DB781B061A433B681B791B041A4340
:105148003B685B791B051A433B681B88013B1A4384
:105158007B68DA617B681B6823F001027B681A6050
:105168000023BB6002E0BB680133BB607B685B68FF
:1051780003F00103002B04D0BA684FF6FF739A427C
:10518800F1D17B685B6803F00103002B02D0002398
:10519800FB7301E00123FB73FB7B18461437BD4604
:1051A8005DF8047B704700BF80B485B000AF7860BD
:1051B8000023FB607B689B7A012202FA03F3FB6001
:1051C800514B514AD2F8002242F00102C3F80022A2
:1051D8004D4B4D4AD2F81C12FA68D2430A40C3F824
:1051E8001C227B681B7B002B21D1474B464AD2F8F7
:1051F8000C12FA68D2430A40C3F80C22424B7A6870
:10520800927A7968C98808047968498801434832DC
:1052180043F832103C497B689B7A7A68928810047C
:105228007A68128802434833DB000B445A607B6873
:105238001B7B012B20D1344B334AD2F80C12FA686D
:105248000A43C3F80C22304B7A68927A7968098845
:105258000804796849880143483243F832102A49DA
:105268007B689B7A7A68928810047A68D2880243AD
:105278004833DB000B445A607B68DB7A002B09D18A
:10528800214B214AD2F80412FA68D2430A40C3F8E3
:10529800042207E01C4B1C4AD2F80412FA680A439D
:1052A800C3F804227B681B89002B08D1164B164AC9
:1052B800D2F81412FA68D2430A40C3F814227B6861
:1052C8001B89012B07D1104B0F4AD2F81412FA6828
:1052D8000A43C3F814227B685B7B012B07D10A4B76
:1052E800094AD2F81C12FA680A43C3F81C22064B72
:1052F800054AD2F8002222F00102C3F8002214372E
:10530800BD465DF8047B70470064004080B483B0FC
:1053180000AF78607B6800229A717B680022DA719E
:105328007B6800221A727B6800225A727B6800220E
:105338009A727B680022DA727B6800229A707B6816
:105348000022DA707B6803221A717B6802225A7184
:105358007B6801221A800C37BD465DF8047B7047D4
:1053680080B483B000AF0346FB71144B134AD2F8E4
:10537800002242F00102C3F80022104A0F4BD3F872
:10538800003223F47C5323F00E03C2F800320B4B97
:105398000A4AD2F80012FA7912020A43C3F8002224
:1053A800064B064AD2F8002222F00102C3F8002276
:1053B8000C37BD465DF8047B704700BF00640040B1
:1053C80080B483B000AF78600B46FB70FB78002B8D
:1053D80006D07B681B6843F480327B681A6005E05E
:1053E8007B681B6823F480327B681A600C37BD46E3
:1053F8005DF8047B704700BF80B483B000AF78606D
:105408000B46FB70FB78002B1ED07B681B6843F0B3
:1054180080027B681A607B68D3F8843143F4807219
:105428007B68C3F884217B68D3F8943143F4807295
:105438007B68C3F894217B68D3F8A43143F4807265
:105448007B68C3F8A4211DE07B681B6823F08002F9
:105458007B681A607B68D3F8843123F480727B6898
:10546800C3F884217B68D3F8943123F480727B6875
:10547800C3F894217B68D3F8A43123F480727B6845
:10548800C3F8A4210C37BD465DF8047B704700BF04
:1054980080B485B000AF786039600023FB737B6807
:1054A8009B6803F08063002B02D00023FB7313E09A
:1054B8007B689B6803F00063002B02D00123FB7319
:1054C8000AE07B689B6803F08053002B02D002231C
:1054D800FB7301E00423FB73FB7B042B00F0988033
:1054E800FB7BFA7B7968183212010A44126802F0D1
:1054F8000102796818331B010B441A603B681B7A58
:10550800002B13D1FB7BFA7B7968183212010A440D
:1055180011683A68126850053A68527A02430A4399
:10552800796818331B010B441A6015E0FB7BFA7B82
:105538007968183212010A4411683A685268D00032
:105548003A68127A10433A68527A02430A437968F1
:1055580018331B010B441A603B689B7A03F00F0356
:10556800DAB23B689A72FB7BFA7B796818321201CF
:105578000A44526822F00F02796818331B010B4461
:105588005A60FB7BFA7B7968183212010A44516829
:105598003A68927A0A43796818331B010B445A60B7
:1055A800FB7B3A68927B11063A68527B12041143DE
:1055B8003A68127B120211433A68D27A0A43796830
:1055C8001B010B4403F5C4731A60FB7B3A68927C99
:1055D80011063A68527C120411433A68127C12028E
:1055E80011433A68D27B0A4379681B010B4403F5DF
:1055F800C4735A60FB7BFA7B7968183212010A443B
:10560800126842F00102796818331B010B441A60D2
:10561800FB7B18461437BD465DF8047B704700BF16
:1056280080B485B000AF78600B46FB700023FB6048
:10563800FB78012B09D0022B0DD0002B11D17B68F0
:105648009A68264B1340FB600EE07B689A68244BEF
:105658001340FB6008E07B689A68224B1340FB60AC
:1056680002E00023FB6000BFFB681F4A93421BD087
:105678001D4A934208D81D4A934212D0174A9342B2
:1056880018D0002B0AD01EE0194A93420FD0154AB1
:10569800934215D0124A93420FD014E00223FB60C4
:1056A80014E00023FB6011E00023FB600EE0002300
:1056B800FB600BE00123FB6008E00123FB6005E0D1
:1056C8000123FB6002E00023FB6000BFFB68DBB244
:1056D80018461437BD465DF8047B70470300000484
:1056E8000003000800000310000100080100000486
:1056F8000000011080B483B000AF78600B46FB70E7
:10570800FB78012B0BD0022B10D0002B00D014E01B
:105718007B689B6843F080027B689A600DE07B6839
:105728009B6843F400427B689A6006E07B689B684C
:1057380043F400027B689A6000BF0C37BD465DF8F1
:10574800047B704780B485B000AFF8600B467A6080
:10575800FB72FB7AFA681B331B0113441B68DBB22C
:1057680003F00403DAB27B681A727B681B7A002B99
:1057780009D1FB7AFA681B331B0113441B685A0DC5
:105788007B681A6008E0FB7AFA681B331B01134434
:105798001B68DA087B685A60FB7AFA681B331B01BE
:1057A80013441B68DBB203F00203DAB27B685A7257
:1057B800FB7AFA681B331B0113445B68DBB203F006
:1057C8000F03DAB27B689A72FB7AFA681B331B0103
:1057D80013445B681B0ADAB27B68DA74FB7AFA68EE
:1057E8001B01134403F5DC731B68DAB27B68DA72B9
:1057F800FB7AFA681B01134403F5DC731B681B0A68
:10580800DAB27B681A73FB7AFA681B01134403F552
:10581800DC731B681B0CDAB27B685A73FB7AFA6874
:105828001B01134403F5DC731B681B0EDAB27B689B
:105838009A73FB7AFA681B01134403F5DC735B68FF
:10584800DAB27B68DA73FB7AFA681B01134403F552
:10585800DC735B681B0ADAB27B681A74FB7AFA6835
:105868001B01134403F5DC735B681B0CDAB27B681D
:105878005A74FB7AFA681B01134403F5DC735B68FE
:105888001B0EDAB27B689A74FB7A002B06D1FB6890
:10589800DB6843F02002FB68DA6005E0FB681B69FF
:1058A80043F02002FB681A611437BD465DF8047B9B
:1058B800704700BF80B483B000AF78600B46FB70C0
:1058C800FB78002B06D17B68DB6843F020027B68FD
:1058D800DA6005E07B681B6943F020027B681A6187
:1058E8000C37BD465DF8047B704700BF80B485B0B7
:1058F80000AF78600B46FB700023FB73FB78002B2E
:1059080006D17B68DB68DBB203F00303FB730BE0B3
:10591800FB78012B06D17B681B69DBB203F003031C
:10592800FB7301E00023FB73FB7B18461437BD466D
:105938005DF8047B704700BF80B485B000AF786025
:105948000B46FB700023FB734FF6FF73BB60FB78BD
:10595800002B20D17B681B6823F0030343F001026E
:105968007B681A6002E0BB68013BBB607B685B68D0
:1059780003F00303012B02D0BB68002BF3D17B6833
:105988005B6803F00303012B02D00023FB734AE09A
:105998000123FB7347E0FB78012B1ED17B681B6852
:1059A80023F003027B681A6002E0BB68013BBB601E
:1059B8007B685B6803F00303002B02D0BB68002BF5
:1059C800F3D17B685B6803F00303002B02D000234C
:1059D800FB7328E00123FB7325E0FB78022B20D121
:1059E8007B681B6823F0030343F002027B681A609C
:1059F80002E0BB68013BBB607B685B6803F00303A4
:105A0800022B02D0BB68002BF3D17B685B6803F0E4
:105A18000303022B02D00023FB7304E00123FB7372
:105A280001E00023FB73FB7B18461437BD465DF885
:105A3800047B704780B485B000AF78600023FB73A7
:105A48007B681B6823F0030343F002027B681A603B
:105A58007B685B6803F00303022B01D10123FB730E
:105A6800FB7B18461437BD465DF8047B704700BFC2
:105A780080B485B000AF78604FF6FF73FB600023F9
:105A8800FB727B681B6823F002027B681A6002E0E5
:105A9800FB68013BFB607B685B6803F00203002B3B
:105AA80002D0FB68002BF3D17B685B6803F002032C
:105AB800002B01D10123FB72FB7A18461437BD462F
:105AC8005DF8047B704700BF80B485B000AF786094
