:020000040800F2
:1000000000000220E95A010895030008A103000836
:10001000A9030008B1030008B903000800000000AC
:10002000000000000000000000000000C103000804
:10003000CD03000800000000D9030008E503000814
:10004000355B0108355B0108355B0108355B01084C
:10005000355B0108355B0108355B0108355B01083C
:10006000355B0108355B0108355B0108355B01082C
:10007000355B0108355B0108355B0108355B01081C
:10008000355B0108355B0108355B0108355B01080C
:10009000355B0108355B0108355B0108355B0108FC
:1000A000355B0108355B0108355B0108355B0108EC
:1000B000355B0108355B0108355B0108355B0108DC
:1000C000355B0108355B0108355B0108355B0108CC
:1000D000355B0108713E0008355B0108355B01089E
:1000E000355B0108355B0108355B0108355B0108AC
:1000F000355B0108355B0108355B0108355B01089C
:10010000355B0108355B0108355B0108355B01088B
:10011000355B0108355B0108355B0108355B01087B
:10012000355B0108355B0108355B0108355B01086B
:10013000355B0108355B0108355B0108355B01085B
:10014000355B0108355B0108355B0108355B01084B
:10015000355B0108355B0108355B0108355B01083B
:10016000355B0108355B0108355B0108355B01082B
:10017000355B0108355B0108355B0108355B01081B
:08018000355B0108355B010845
:1001880010B5054C237833B9044B13B10448AFF3C9
:1001980000800123237010BDD87E002000000000DD
:1001A800E090010808B5064B1BB106480649AFF3B5
:1001B80000800648036813B1054B03B1984708BD92
:1001C80000000000E0900108DC7E0020D4720020CE
:1001D80000000000154B002B08BF134B9D46A3F5EC
:1001E800803A00218B460F461348144A121A15F01C
:1001F80039FB0F4B002B00D098470E4B002B00D03B
:1002080098470020002104000D000D48002802D066
:100218000C4815F0F3FB15F0FDFA2000290000F05A
:100228005BF815F0E7FA00BF0000080000000000C6
:100238000000000000000000D87E0020507F002051
:10024800055A0108115A010880B483B000AF7860DC
:1002580000BF7B685A1E7A60002BFAD10C37BD4666
:100268005DF8047B704700BF80B500AF00BF012078
:1002780010F01AF90346002BF9D0024B9B68184678
:1002880080BD00BF0008065080B500AF03F046FEF1
:10029800402001210FF07CFE012010F0C1F880BD44
:1002A80080B584B000AF78600023FB600BE0FB688A
:1002B8009B007A6813441B680648194603F0BEFB86
:1002C800FB680133FB60FB68B3F5007FEFDB103799
:1002D800BD4680BD208D010880B582B000AFFFF714
:1002E800D3FF0D4803F0AAFB00237B6009E000F070
:1002F800AFF903460948194603F0A0FB7B680133B0
:100308007B607B68092BF2DD04F0E6F803F028FE39
:10031800034803F0E9FAFEE7248D0108308D01084F
:100328003C8D010880B586B000AF7860786802F02F
:100338005BF9786122E000F08BF90346C3F3080308
:100348003B617A693B699A4218D93B695B007A68D4
:1003580013441B88FB813B695B007A6813447A6904
:10036800520079680A4412881A807B695B007A68AF
:100378001344FA891A807B6901337B617B69B3F581
:10038800007FD8DB1837BD4680BD00BF80B400AF02
:10039800BD465DF8047B704780B400AFFEE700BF40
:1003A80080B400AFFEE700BF80B400AFFEE700BF37
:1003B80080B400AFFEE700BF80B400AFBD465DF873
:1003C800047B704780B400AFBD465DF8047B70477E
:1003D80080B400AFBD465DF8047B704780B400AFC1
:1003E800BD465DF8047B704780B500AF154B154AD4
:1003F800D2F8882042F47002C3F88820124B124ABF
:10040800126842F001021A600F4B00229A600E4AED
:100418000D4B1B6823F0847323F4803313600A4B5D
:100428000A4A5A60084B084A126822F480221A6065
:10043800054B0022DA6000F087F8024B4FF00062AB
:100448009A6080BD00ED00E00038024010300024C2
:1004580080B487B000AF00233B6100237B61022397
:10046800FB600023BB6002237B60324B9B6803F078
:100478000C033B613B69042B07D0082B09D0002BE8
:100488003FD12D4B2D4A1A603FE02B4B2C4A1A6066
:100498003BE0284B5B6803F480039B0DBB60254B56
:1004A8005B6803F03F037B60BB68002B0DD0244AD8
:1004B8007B68B2FBF3F21F4B596847F6C0730B40D9
:1004C8009B0903FB02F37B610CE01C4A7B68B2FBCF
:1004D800F3F2184B596847F6C0730B409B0903FBAE
:1004E80002F37B61134B5B6803F440331B0C01334D
:1004F8005B00FB607A69FB68B2FBF3F20E4B1A6093
:1005080003E00D4B0D4A1A6000BF0A4B9B6803F0CD
:10051800F0031B090B4AD35CDBB23B61064B1A683C
:100528003B69DA40044B1A601C37BD465DF8047B12
:10053800704700BF00380240040000200024F40087
:1005480000127A000800002080B483B000AF0023B6
:100558007B6000233B60354B344A126842F480329A
:100568001A60324B1B6803F400333B607B6801332D
:100578007B603B68002B03D17B68B3F5A06FF0D19B
:100588002A4B1B6803F40033002B02D001233B6085
:1005980001E000233B603B68012B42D1234B234AF7
:1005A800126C42F080521A64214B214A126842F4BC
:1005B80040421A601D4B1D4A92689A601B4B1B4AA9
:1005C800926842F400429A60184B184A926842F4C2
:1005D800A0529A60154B174A5A60144B134A126876
:1005E80042F080721A6000BF104B1B6803F0007362
:1005F800002BF9D0104B40F205721A600B4B0B4AD6
:10060800926822F003029A60084B084A926842F006
:1006180002029A6000BF054B9B6803F00C03082B8D
:10062800F9D10C37BD465DF8047B704700380240AD
:100638000070004019544007003C024080B500AFEC
:10064800FFF706FF014B1B68184680BD0400002019
:1006580080B582B000AF15F067FD03467B607B680C
:1006680043F000437B607B6818460837BD4680BD71
:1006780080B485B000AF78600023FB600CE0FB68B5
:10068800C3F11F037A6822FA03F3012B01D1FB6837
:1006980006E0FB680133FB60FB681F2BEFDD2023BE
:1006A80018461437BD465DF8047B704780B584B0A2
:1006B80000AF78607B68BB60B968294B83FB012376
:1006C8001A13CB17D21A13465B0013441B031344A7
:1006D800CA1A002A0DDBB968214B83FB01231A13C0
:1006E800CB17D21A13465B0013441B031344CA1AD0
:1006F8000FE0B9681A4B83FB01231A13CB17D21AE0
:1007080013465B0013441B031344CA1A02F54052F4
:100718000132FA6004E0FB6803F540530133FB60E3
:10072800FB68002BF7DB04E0FB68A3F54053013BB3
:10073800FB60FA6843F201039A42F5DCFB68002B80
:1007480003DBFB68B3F5405F05DD06483E21064A3A
:10075800064B15F0EDF9FB6818461037BD4680BD0D
:10076800438E5355488D01086C8D0108508D010842
:1007780090B587B000AF7860FFF76AFF03463B612A
:1007880000237B611FE07B69DB0004337A68D4189F
:1007980007F1100207F10C031046194600F0B6FAEB
:1007A800034623607B69DB007A68D41807F11002DE
:1007B80007F10C031046194600F0A8FA0346236017
:1007C8007B6901337B617B69FF2BDCDD1C37BD4610
:1007D80090BD00BF90B587B000AF7860FFF738FFD5
:1007E80003463B6100237B6121E07B699B007A68BB
:1007F800D41807F1100207F10C031046194600F04F
:1008080085FA03469BB223807B699B0002337A6892
:10081800D41807F1100207F10C031046194600F02E
:1008280075FA03469BB223807B6901337B617B6940
:10083800FF2BDADD1C37BD4690BD00BF80B58AB0FE
:1008480000AF786000233B620023FB61FFF700FFE5
:100858000346FB6000237B624EE0FF233B6107F108
:100868000C0207F110031046194600F04FFA034630
:100878007B833B69012B09D13B6A5B007A6813448F
:100888007A8B1A803B6A01333B620DE0FA691346A2
:10089800DB079B1A5B0003F2FE337A6813447A8BFA
:1008A8001A80FB690133FB6107F10C0207F11003A1
:1008B8001046194600F02AFA03467B833B69012B50
:1008C80009D13B6A5B007A6813447A8B1A803B6AC9
:1008D80001333B620DE0FA691346DB079B1A5B00A4
:1008E80003F2FE337A6813447A8B1A80FB6901336A
:1008F800FB617B6A01337B627B6AFF2BADDD29E0FC
:10090800FFF7A6FE0346C3F308037B61FB69C3F543
:1009180000731A467B699A421CD97B695B007A6826
:1009280013441B887B837B695B007A681344FA69EC
:10093800C2F50072520079680A4412881A80FB696D
:10094800C3F500735B007A6813447A8B1A80FB69DD
:10095800013BFB61FB69002BD2DC2837BD4680BD1B
:1009680090B585B000AF7860FFF772FE0346BB60B4
:100978000023FB6019E0FB68DB0004337A68D418B5
:1009880007F10803184600F017F803462360FB68D0
:10099800DB007A68D41807F10803184600F00CF851
:1009A80003462360FB680133FB60FB68FF2BE2DD35
:1009B8001437BD4690BD00BF80B58AB000AF7860DF
:1009C8007B681B68DBB2FB607B681B681A0A7B6864
:1009D8001A60984AFB6813441B78BB61BB6903F033
:1009E8001003BB60BB68002B2BD17B681B68012BF5
:1009F80004D1FFF72DFE02467B681A60BB6903F03D
:100A08000F03BB617B681B6803F00103002B04D054
:100A1800BB69C3F540530133BB617B681B685A0847
:100A28007B681A607B681B681846FFF721FE03463F
:100A3800172B04D9FFF70CFE02467B681A60BB69C6
:100A48005FE17B681B681846FFF712FE03461A2B06
:100A580004D9FFF7FDFD02467B681A60BB6903F005
:100A680007037B627B681B6803F01F027B6A5B01DC
:100A78001344FB607B681B685A097B681A607B68B3
:100A88001B68012B04D1FFF7E3FD02467B681A605F
:100A9800694AFB6813441B78BB61BB6903F02003F8
:100AA800BB60BB68002B22D1BB6903F01F03BB618D
:100AB8007B681B6803F00103002B04D0BB69C3F5F6
:100AC80040530133BB617B681B685A087B681A6016
:100AD8007B681B681846FFF7CBFD0346172B04D924
:100AE800FFF7B6FD02467B681A60BB6909E1BB697E
:100AF80003F00F037B620023FB6156E07B6A5B0017
:100B08001A467B681B6803F0010313447B627B6809
:100B18001B685A087B681A607B681B68012B04D124
:100B2800FFF796FD02467B681A60444BFA6953F852
:100B380022303B611F233B6231E03B69DB171A46D9
:100B48007B6A13447B623B695B003B617B6AB3F160
:100B5800FF3F21D17B681B6803F00103002B05D000
:100B68003B6AC3F540530133BB6101E03B6ABB619B
:100B78007B681B685A087B681A607B681B68184684
:100B8800FFF776FD0346172B04D9FFF761FD0246F0
:100B98007B681A60BB69B4E03B6A013B3B623B6A15
:100BA800002BCADAFB690133FB61FB696C2BA5DDFD
:100BB8001923FB619FE0224BFA6953F822307B61CD
:100BC8001E4BFA6953F822303B617B6A5B001A4678
:100BD8007B681B6803F0010313447B627B681B6816
:100BE8005A087B681A607B681B68012B05D115F0D1
:100BF8009BFA03461A467B681A6036233B623BE041
:100C08007B69DB171A467B6A13447B627B695B004E
:100C18007B617B6AB3F1FF3F2BD17B681B6803F0D4
:100C28000103002B0ED03B6AC3F540530133BB616F
:100C38000AE000BF5C0000205C010020E86500209D
:100C4800686700203B6ABB617B681B685A087B6841
:100C58001A607B681B681846FFF70AFD0346172BC6
:100C680005D915F061FA03461A467B681A60BB6914
:100C780047E03B6A013B3B623B6A1F2BC0DC1F23FA
:100C88003B6232E03B69DB171A467B6A13447B629E
:100C98003B695B003B617B6AB3F1FF3F22D17B6814
:100CA8001B6803F00103002B05D03B6AC3F54053D2
:100CB8000133BB6101E03B6ABB617B681B685A0872
:100CC8007B681A607B681B681846FFF7D1FC0346EF
:100CD800172B05D915F028FA03461A467B681A60BF
:100CE800BB690EE03B6A013B3B623B6A002BC9DAF9
:100CF800FB690133FB61FB695F2B7FF75CAF4FF04A
:100D0800FF3318462837BD4680BD00BF80B588B080
:100D180000AF786039607B681B68DBB2FB607B687A
:100D28001B681A0A7B681A607E4AFB6813441B78A2
:100D38003B613B6903F01003BB60BB68002B2ED1FD
:100D48007B681B68012B04D1FFF782FC02467B6895
:100D58001A603B6903F00F033B617B681B6803F073
:100D68000103002B04D03B69C3F5405301333B61B9
:100D78007B681B685A087B681A607B681B68184682
:100D8800FFF776FC0346172B04D9FFF761FC0246F0
:100D98007B681A603B6801221A603B69BEE07B6889
:100DA8001B681846FFF764FC03461A2B04D9FFF7A3
:100DB8004FFC02467B681A603B6903F00703FB613E
:100DC8007B681B6803F01F02FB695B011344FB602F
:100DD8007B681B685A097B681A607B681B68012B53
:100DE80004D1FFF735FC02467B681A604E4AFB685F
:100DF80013441B783B613B6903F02003BB60BB686D
:100E0800002B25D13B6903F01F033B617B681B68FE
:100E180003F00103002B04D03B69C3F540530133B1
:100E28003B617B681B685A087B681A607B681B6893
:100E38001846FFF71DFC0346172B04D9FFF708FCDB
:100E480002467B681A603B6801221A603B6965E0CC
:100E58003B6903F00F03FB610D237B6156E0FB69DF
:100E68005B001A467B681B6803F001031344FB61AF
:100E78007B681B685A087B681A607B681B68012BB3
:100E880004D1FFF7E5FB02467B681A603623BB6195
:100E980036E0264BBA696D2101FB02F17A690A44F2
:100EA80053F82230FA69D31AFB61FB69002B24DA64
:100EB8007B681B6803F00103002B05D0BB69C3F5F1
:100EC800405301333B6101E0BB693B617B681B68B0
:100ED8005A087B681A607B681B681846FFF7C8FBCE
:100EE8000346172B04D9FFF7B3FB02467B681A6049
:100EF8003B6800221A603B6910E0BB69013BBB619B
:100F0800BB69002BC5DA7B6901337B617B696C2B7C
:100F1800A5DD3B6800221A604FF0FF3318462037E2
:100F2800BD4680BD5C0000205C0100203C02002022
:100F380090B585B000AF78600023FB601DE015F028
:100F4800F3F80346BB60FB68DB007A68D418BB681B
:100F58009BB21846FFF7AAFB03462360FB68DB0039
:100F680004337A68D418BB681B0C1846FFF79EFB3D
:100F780003462360FB680133FB60FB68FF2BDED967
:100F8800786800F0CDF91437BD4690BD80B582B0C1
:100F980000AF78607868FFF7EBFB786800F0C0F97D
:100FA8000837BD4680BD00BF80B588B000AF786007
:100FB8000023FB6129E015F0B7F803467B610023A5
:100FC800BB611FE07B6903F001033B617B695B0840
:100FD80003F00103FB60FB68012B05D13B69012B82
:100FE80002D14FF440533B61FB695A1CFA619B00E4
:100FF8007A6813443A691A607B699B087B61BB690C
:101008000133BB61BB690F2BDCD9FB69B3F5007FEA
:10101800D1D3786800F084F92037BD4680BD00BF81
:1010280080B48FB000AF786001237B6374E07B6B82
:1010380003F001033B637B6B5B0803F00103FB6276
:101048007B6B9B0803F00103BB627B6BDB0803F03F
:1010580001037B627B6B1B0903F001033B627B6B23
:101068005B0903F00103FB617B6B9B0903F0010340
:10107800BB617B6BDB0903F001037B613B6B5A00AF
:10108800FB6A13445A00BB6A13445A007B6A134430
:101098005A003B6A13445A00FB6913445A00BB695F
:1010A80013445A007B6913443B613A697B6B9A424B
:1010B8002FD97B6BDB007A6813441B68FB607B6B62
:1010C800DB0004337A6813441B68BB607B6BDB006E
:1010D8007A6813443A69D20079680A4412681A6037
:1010E8007B6BDB0004337A6813443A69D20004321C
:1010F80079680A4412681A603B69DB007A6813440D
:10110800FA681A603B69DB0004337A681344BA68EA
:101118001A607B6B01337B637B6BFF2B87D93C3772
:10112800BD465DF8047B704780B485B000AF786039
:1011380039600023FB6010E0FB689B007A68134469
:101148001A68FB689B0039680B441B689A4201D0F7
:10115800002307E0FB680133FB60FB68B3F5007F01
:10116800EADB012318461437BD465DF8047B704757
:1011780080B493B000AF786000233B6400237B64A5
:10118800C4E07B6C03F00103FB637B6C5B0803F03A
:101198000103BB637B6C9B0803F001037B637B6CDF
:1011A800DB0803F001033B637B6C1B0903F00103BD
:1011B800FB627B6C5B0903F00103BB627B6C9B09E0
:1011C80003F001037B627B6CDB0903F001033B62E4
:1011D8007B6C1B0A03F00103FB61FB6B5A00BB6BC2
:1011E80013445A007B6B13445A003B6B13445A0058
:1011F800FB6A13445A00BB6A13445A007B6A1344BF
:101208005A003B6A13445A00FB691344BB617B6C68
:101218005B087B617B6C03F001033B61BB695B0886
:10122800FB60BB6903F00103BB60BA697B6C9A423F
:1012380069D9BB68002B05D1FB68DB007A681344C9
:101248001B683B64BB68012B06D1FB68DB000433D9
:101258007A6813441B683B64BB68002B0CD13B695C
:10126800002B09D1FB68DB007A6813447A69D20045
:1012780079680A4412681A60BB68002B0DD13B6973
:10128800012B0AD1FB68DB007A6813447A69D20023
:10129800043279680A4412681A60BB68012B0DD1C0
:1012A8003B69002B0AD1FB68DB0004337A681344DE
:1012B8007A69D20079680A4412681A60BB68012BFF
:1012C8000ED13B69012B0BD1FB68DB0004337A6834
:1012D80013447A69D200043279680A4412681A60A1
:1012E8003B69002B05D17B69DB007A6813443A6CB3
:1012F8001A603B69012B06D17B69DB0004337A68ED
:1013080013443A6C1A607B6C01337B647B6CB3F5D5
:10131800007FFFF436AF4C37BD465DF8047B70475D
:1013280090B58DB000AF78600023FB6202233B626A
:10133800A0E0824BFA6A33F81230BB61FB6A5A1C90
:101348007E4B33F81230FB61FB6A0133FB620023EA
:10135800BB6287E000237B6274E0BA6A7B6A13444D
:101368009B007A6813441B687B61BA6A7B6A1344E2
:1013780001339B007A6813441B68FA6902FB03F384
:101388001846FFF793F93861BA6A7B6A1A443B6AD0
:1013980013449B007A6813441B68FB60BA6A7B6A33
:1013A8001A443B6A134401339B007A6813441B6850
:1013B800FA6902FB03F31846FFF778F9B860BA6ACE
:1013C8007B6A13449B007A68D4187A693B69134492
:1013D8001846FFF76BF903462360BA6A7B6A134421
:1013E80001339B007A68D418FA68BB68134418461E
:1013F800FFF75CF903462360BA6A7B6A1A443B6AC2
:1014080013449B007A68D4187A693B69D31A184642
:10141800FFF74CF903462360BA6A7B6A1A443B6AB1
:10142800134401339B007A68D418FA68BB68D31A4E
:101438001846FFF73BF9034623603B6A5B007A6A6C
:1014480013447B627B6AB3F5007F86DBFB69BA696C
:1014580002FB03F3FB61F869FFF728F9F861BB6A3F
:101468000233BB62BA6A3B6A9A42FFF673AF3B6AC1
:101478005B003B623B6AB3F5807F7FF75AAF41F26E
:10148800B753BB6141F6BB23FB610023BB624EE04F
:10149800BB6ADB0004337A6813441B68FA6902FBF1
:1014A80003F33B613869FFF701F93861BB6ADB0078
:1014B8007A6813441B687B61BB6ADB007A68134453
:1014C80079693A690A441A60BB6ADB007A68D418F9
:1014D800BB6ADB007A6813441B681846FFF7E6F816
:1014E80003462360BB6ADB0004337A6813447969D6
:1014F8003A698A1A1A60BB6ADB0004337A68D4181E
:10150800BB6ADB0004337A6813441B681846FFF78C
:10151800CDF803462360FB69BA6902FB03F3FB615C
:10152800F869FFF7C3F8F861BB6A0133BB62BB6AAD
:10153800FF2BADDD3437BD4690BD00BF380000201D
:1015480080B48FB000AF7860396000237B6392E08D
:101558007A6B4D4B1340002B03DA013B63F0010318
:1015680001333B637B6B5A10474B1340002B03DA64
:10157800013B63F001030133FB627B6B9A10424B22
:101588001340002B03DA013B63F001030133BB6214
:101598007B6BDA103C4B1340002B03DA013B63F002
:1015A800010301337B627B6B1A11374B1340002B0D
:1015B80003DA013B63F0010301333B627B6B5A1191
:1015C800314B1340002B03DA013B63F00103013375
:1015D800FB617B6B9A112C4B1340002B03DA013B08
:1015E80063F001030133BB613B6B5A00FB6A134490
:1015F8005A00BB6A13445A007B6A13445A003B6A78
:1016080013445A00FB6913445A00BB6913447B61B5
:101618007A697B6B9A422BDD7B6B9B007A6813445B
:101628001B683B617B6B9B003A6813441B68FB603B
:101638007B6B9B007A6813447A69920079680A4444
:1016480012681A607B6B9B003A6813447A699200AF
:1016580039680A4412681A607B699B007A681344E7
:101668003A691A607B699B003A681344FA681A6001
:101678007B6B01337B637B6BFF2B7FF769AF3C3759
:10168800BD465DF8047B70470100008090B58DB0C1
:1016980000AF786000233B6202237B622EE17B6A05
:1016A800102B21D0102B06DC042B15D0082B17D0BB
:1016B800022B0DD02CE0402B1ED0402B02DC202B1F
:1016C80016D025E0802B1BD0B3F5807F1CD01FE0FF
:1016D8004FF440533B621BE042F63A233B6217E06B
:1016E80041F6E7333B6213E042F6E8233B620FE042
:1016F80040F6D6533B620BE041F2D5233B6207E04C
:1017080040F292433B6203E041F27B633B6200BFDD
:101718000123FB610023FB62E4E00023BB62D1E00C
:10172800BA6AFB6A1344DB0004337A6813441B6803
:10173800FA6902FB03F37B617869FEF7B7FF78610A
:10174800BA6AFB6A1344DB007A6813441B683B617E
:10175800BA6AFB6A1A447B6AD90F0B445B101344BC
:10176800DB0004337A6813441B68FA6902FB03F34D
:10177800FB60F868FEF79AFFF860BA6AFB6A1A44D9
:101788007B6AD90F0B445B101344DB007A6813445F
:101798001B68BB60BA6AFB6A1344DB007A681344AF
:1017A80039697A690A441A60BA6AFB6A1344DB0029
:1017B8007A68D418BA6AFB6A1344DB007A6813445F
:1017C8001B681846FEF772FF03462360BA6AFB6A75
:1017D8001A447B6AD90F0B445B101344DB007A6808
:1017E800134439697A698A1A1A60BA6AFB6A1A4410
:1017F8007B6AD90F0B445B101344DB007A68D4185A
:10180800BA6AFB6A1A447B6AD90F0B445B1013440B
:10181800DB007A6813441B681846FEF747FF034647
:101828002360BA6AFB6A1344DB0004337A68134402
:10183800B968FA680A441A60BA6AFB6A1344DB009A
:1018480004337A68D418BA6AFB6A1344DB00043399
:101858007A6813441B681846FEF728FF034623607E
:10186800BA6AFB6A1A447B6AD90F0B445B101344AB
:10187800DB0004337A681344B968FA688A1A1A6074
:10188800BA6AFB6A1A447B6AD90F0B445B1013448B
:10189800DB0004337A68D418BA6AFB6A1A447B6A94
:1018A800D90F0B445B101344DB0004337A681344EC
:1018B8001B681846FEF7FAFE03462360BA6A7B6A7D
:1018C8001344BB62BB6AFF2B7FF72AAFFB693A6AF6
:1018D80002FB03F3FB61F869FEF7E8FEF861FB6AB7
:1018E8000133FB627B6ADA0F13445B101A46FB6A0A
:1018F8009A423FF712AF7B6A5B007B627B6AB3F563
:10190800807F7FF7CCAE40F6C2633B620123FB6168
:101918000023FB6256E0FB6A9B007A6813441B684D
:101928003B61FB6A0133FB62FB6A9B007A681344E4
:101938001B68FA6902FB03F37B617869FEF7B6FE60
:101948007861FB6A03F18043013B9B007A6813448A
:1019580039697A690A441A60FB6A03F18043013BDA
:101968009B007A68D418FB6A03F18043013B9B0013
:101978007A6813441B681846FEF798FE03462360EE
:10198800FB6A9B007A68134439697A698A1A1A6073
:10199800FB6A9B007A68D418FB6A9B007A68134438
:1019A8001B681846FEF782FE03462360FB6A013374
:1019B800FB62FB693A6A02FB03F3FB61F869FEF715
:1019C80075FEF861FB6AB3F5007FA4DB42F63A23A3
:1019D800BB6142F27F333B620123FB610023FB6260
:1019E80085E0FB6A9B007A681344FA6A920079687A
:1019F8000A441268F96901FB02F21A60FB6A9B004B
:101A08007A68D418FB6A9B007A6813441B681846E6
:101A1800FEF74CFE03462360FB6A9B007A6813447A
:101A2800FA6A920079680A44126842F6E97101FB81
:101A380002F21A60FB6A9B007A68D418FB6A9B0062
:101A48007A6813441B681846FEF730FE0346236085
:101A5800FB6A0133FB62FB6A9B007A681344FA6AEB
:101A6800920079680A441268B96901FB02F21A60A7
:101A7800FB6A9B007A68D418FB6A9B007A68134457
:101A88001B681846FEF712FE03462360FB6A9B009C
:101A98007A681344FA6A920079680A44126842F62E
:101AA800E97101FB02F21A60FB6A9B007A68D4189C
:101AB800FB6A9B007A6813441B681846FEF7F6FD1C
:101AC80003462360FB6A0133FB62FB693A6A02FB47
:101AD80003F3FB61F869FEF7E9FDF861BB693A6A4F
:101AE80002FB03F3BB61B869FEF7E0FDB861FB6A6E
:101AF800B3F5007FFFF675AF3437BD4690BD00BF24
:101B080080B487B000AFF860B9607A6000237B6169
:101B18001EE07B699B007A6813441B689AB27B6954
:101B28009B00F9680B441B689A420CD17B699B00A7
:101B38007A6813441B681A0C7B699B00B9680B44CC
:101B48001B689A4201D0002306E07B6901337B6160
:101B58007B69FF2BDDDD012318461C37BD465DF888
:101B6800047B704790B587B000AFF860B9607A60C1
:101B78003B6000237B613EE07B699B00FA6813446D
:101B88007A699200F9680A4411687A69920078685B
:101B9800024412680A441A607B699B00FA68D418E8
:101BA8007B699B00FA6813441B681846FEF77EFDA4
:101BB800034623607B699B00BA6813447A699200E4
:101BC800B9680A4411687A69920038680244126850
:101BD8000A441A607B699B00BA68D4187B699B0029
:101BE800BA6813441B681846FEF760FD0346236075
:101BF8007B6901337B617B69FF2BBDDD1C37BD46EB
:101C080090BD00BF90B587B000AFF860B9607A604A
:101C18003B6000237B6140E07B699B00FA681344CA
:101C28007A699200F9680A441268796989007868C3
:101C38000144096801FB02F21A607B699B00FA689B
:101C4800D4187B699B00FA6813441B681846FEF792
:101C58002DFD034623607B699B00BA6813447A69AB
:101C68009200B9680A4412687969890038680144A1
:101C7800096801FB02F21A607B699B00BA68D418F4
:101C88007B699B00BA6813441B681846FEF70EFD73
:101C9800034623607B6901337B617B69FF2BBBDDD6
:101CA8001C37BD4690BD00BF90B587B000AFF86047
:101CB800B9607A603B6000237B613EE07B699B00F2
:101CC800FA6813447A699200F9680A4411687A69D3
:101CD80092007868024412688A1A1A607B699B002D
:101CE800FA68D4187B699B00FA6813441B68184685
:101CF800FEF7DCFC034623607B699B00BA6813444B
:101D08007A699200B9680A4411687A699200386859
:101D1800024412688A1A1A607B699B00BA68D41850
:101D28007B699B00BA6813441B681846FEF7BEFC23
:101D3800034623607B6901337B617B69FF2BBDDD33
:101D48001C37BD4690BD00BF80B485B000AF786039
:101D580039600023FB6021E0FB689B007A6813442C
:101D68001B689AB2FB68DB0039680B441B689A420F
:101D780001D0002316E0FB689B007A6813441B68B7
:101D88001A0CFB68DB00043339680B441B689A4261
:101D980001D0002306E0FB680133FB60FB68FF2BE2
:101DA800DADD012318461437BD465DF8047B704719
:101DB80090B587B000AFF860B9607A6000237B61A6
:101DC80021E07B699B00FA6813447A699200B9683C
:101DD8000A4412687969890078680144096801FB36
:101DE80002F21A607B699B00FA68D4187B699B0031
:101DF800FA6813441B681846FEF758FC034623602C
:101E08007B6901337B617B69B3F5007FD9DB1C37C4
:101E1800BD4690BD90B587B000AFF860B9607A60F4
:101E280000237B6120E07B699B00FA6813447A6990
:101E38009200B9680A4411687A6992007868024485
:101E480012680A441A607B699B00FA68D4187B6997
:101E58009B00FA6813441B681846FEF727FC0346E4
:101E680023607B6901337B617B69B3F5007FDADB33
:101E78001C37BD4690BD00BF90B587B000AFF86075
:101E8800B9607A603B6000237B6131E07B699B002D
:101E9800FA6813447A699200B9680A441268796941
:101EA800890078680144096801FB02F21A607B69BD
:101EB8009B00FA6813447A699200F9680A44116829
:101EC8007A6992003868024412680A441A607B6989
:101ED8009B00FA68D4187B699B00FA6813441B6856
:101EE8001846FEF7E3FB034623607B6901337B61F9
:101EF8007B69B3F5007FC9DB1C37BD4690BD00BFC9
:101F080090B587B000AFF860B9607A6000237B6154
:101F180020E07B699B00FA6813447A699200B968EB
:101F28000A4411687A6992007868024412688A1A29
:101F38001A607B699B00FA68D4187B699B00FA6871
:101F480013441B681846FEF7B1FB034623607B6900
:101F580001337B617B69B3F5007FDADB1C37BD4653
:101F680090BD00BF80B5ADF5016D00AF07F10C0362
:101F7800186007F1080319603B1D1A6007F10C038C
:101F88001868FEF7D5FF07F108031868FEF7FEFF8B
:101F98003B1D1868FFF708F807F1100107F10C025C
:101FA8003B1D084611681A68FFF702FF07F1080190
:101FB80007F1080207F11003086811681A46FFF7CD
:101FC8009FFF3B1D1868FFF72BF807F50167BD4613
:101FD80080BD00BF90B5ADF5005D87B000AF07F1DB
:101FE80018040C3C206007F118001038016007F154
:101FF800180114390A6007F11802183A136000230F
:1020080007F5005000F11400036025E007F50052C1
:1020180002F1140213689A0007F11803183B1B68B1
:1020280013441A6813465B001344DB02194607F190
:102038001803043B07F5005000F11400026843F848
:10204800221007F5005202F114021368013307F554
:10205800005000F11400036007F5005202F1140269
:102068001368B3F5007FD1DB07F5C05303F1140300
:102078001846FEF77DFB07F5805303F11803043B70
:102088001846FEF775FB07F61803043B1846FEF7DB
:102098006FFB07F61801043907F61802043A07F12E
:1020A8001803043B084611461A46FFF7B3FE07F526
:1020B800C05303F114031846FFF732F907F58053AC
:1020C80003F11803043B1846FFF72AF907F618032B
:1020D800043B1846FFF724F907F11802103A07F1F4
:1020E80018030C3B07F5C05404F114041068196870
:1020F8002246FFF75DFE07F11801103907F58052F7
:1021080002F11802043A07F11803103B0868114657
:102118001A68FFF77FFE07F11803143B07F5C05252
:1021280002F11402186807F5005303F1280319682F
:10213800FFF73EFE07F11801143907F61802043AB2
:1021480007F11803143B086811461A68FFF762FE86
:1021580007F11803103B1868FEF762FF07F1180330
:10216800143B1868FEF75CFF07F500571C37BD469F
:1021780090BD00BF80B584B000AFF860B9607A60E8
:10218800F868F9687A68FFF713FEF868F968BA68BA
:10219800FFF740FEF868FFF779FA1037BD4680BDB3
:1021A80090B585B000AF78600023FB600CE0FB6859
:1021B8009B007A68D418FEF74BFA034603F0010334
:1021C8002360FB680133FB60FB68B3F5007FEEDB3F
:1021D8001437BD4690BD00BF80B588B000AFF86029
:1021E800B9607A60786813F097FF7B68002B26D176
:1021F8000023FB611FE0FB690133BB61FB6902330C
:102208007B61FB699B00FA681344BA6991B27A69E9
:1022180012040A441A60FB69DB00BA681344BA69FD
:102228001A60FB69DB000433BA6813447A691A60E0
:10223800FB690133FB61FB69FF2BDCD92BE0002331
:10224800FB6125E0FEF704FA0346C3F30C03BB6108
:10225800FEF7FEF90346C3F30C037B61FB699B00A1
:10226800FA681344BA6991B27A6912040A441A6086
:10227800FB69DB00BA681344BA691A60FB69DB00C2
:102288000433BA6813447A691A60FB690133FB6145
:10229800FB69FF2BD6D92037BD4680BD80B485B0F9
:1022A80000AF786039600023FB6018E0FB689B0092
:1022B8003A681344FA68D20079680A4412681A60C6
:1022C800FB6801339B003A681344FA680132D20074
:1022D80079680A4412681A60FB680233FB60FB687D
:1022E800FF2BE3DD0023FB601DE0FB6803F5807333
:1022F8009B003A681344FA68D200043279680A44A9
:1023080012681A60FB6803F201139B003A681344D1
:10231800FA680132D200043279680A4412681A60F5
:10232800FB680233FB60FB68FF2BDEDD1437BD461C
:102338005DF8047B704700BF80B588B000AFF860D7
:10234800B9607A60F86813F0E7FEFB68002B27D1C4
:102358000023FB6120E0FB695B00BB61FB695B005C
:1023680001337B61FB699B00BA681344BA6991B277
:102378007A6912040A441A60FB69DB007A6813441C
:10238800BA691A60FB69DB0004337A6813447A6916
:102398001A60FB690133FB61FB69FF2BDBD92BE07A
:1023A8000023FB6125E0FEF753F90346C3F30D0351
:1023B800BB61FEF74DF90346C3F30D037B61FB696F
:1023C8009B00BA681344BA6991B27A6912040A4444
:1023D8001A60FB69DB007A681344BA691A60FB6902
:1023E800DB0004337A6813447A691A60FB690133A5
:1023F800FB61FB69FF2BD6D92037BD4680BD00BFE6
:102408002DE9F05F8346714A714DDFF8C881DFF826
:10241800C8914FF0FF310EB513F086FE40F0004032
:10242800BDE80E40DFF8B4C1C4B24FEA102001285D
:1024380000F307800EB513F077FE40F00040BDE8CA
:102448000E40135D5C0980F007804008C0F0A5804D
:10245800A5EB030300F0A1B8B0FA80F41A2C40F3FE
:1024680007800EB513F060FE40F00040BDE80E4056
:1024780003F0070600F01F0404EB46144FEA50105F
:10248800012800F307800EB513F04EFE40F000401F
:10249800BDE80E4019F804309C0980F0098003F06B
:1024A8001F034008C0F07980A5EB030300F075B85E
:1024B80003F00F064FF0000400F0010A40080AEB91
:1024C8004606012800F307800EB513F02DFE40F0F4
:1024D8000040BDE80E4058F824A04FF02003BAFA97
:1024E8008AF707F101070AFA07FAA3EB0703013E87
:1024F80000F14E80BAF1000F7FF4F1AF04F101044E
:10250800192CFFF6D9AFDFF8D89000F0010A4FEA8E
:1025180050000AEB4606012800F307800EB513F0B9
:1025280003FE40F00040BDE80E402E4BA4EB030331
:1025380059F823A0BAF1000F00F011804FF03703CB
:10254800BAFA8AF707F101070AFA07FAA3EB0703B1
:10255800013E00F11B80BAF1000F7FF4F1AF4FF09C
:10256800200358F824A0BAFA8AF707F101070AFAF3
:1025780007FAA3EB0703013E00F10880BAF1000F48
:102588007FF4F1AF04F10104FFF7BFBFDFF8489013
:102598004008C0F00280A5EB0303B0FA80F6172EBE
:1025A80040F307800EB513F0BFFD40F00040BDE8D2
:1025B8000E4003EB0E4E4F0838BF4BF811E001F107
:1025C800010161457FF430AFBDE8F09F5C00002059
:1025D80001300000E86500205C010020FF010000D8
:1025E800E8680020190000002DE9F05F83467D4A65
:1025F8007D4DDFF8F881DFF8F8914FF0FF310EB527
:1026080013F092FD40F00040BDE80E40DFF8E4C151
:10261800C4B24FEA1020012800F307800EB513F06A
:1026280083FD40F00040BDE80E40135D5C0980F07A
:1026380007804008C0F0A780A5EB030300F0A3B80B
:10264800B0FA80F41A2C40F307800EB513F06CFD35
:1026580040F00040BDE80E4003F0070600F01F04FC
:1026680004EB46144FEA5010012800F307800EB51A
:1026780013F05AFD40F00040BDE80E4019F8043050
:102688009C0980F0098003F01F034008C0F07B809C
:10269800A5EB030300F077B803F00F064FF0000432
:1026A80000F0010A40080AEB4606012800F30780FB
:1026B8000EB513F039FD40F00040BDE80E4058F863
:1026C80024A04FF02003BAFA8AF707F101070AFAA3
:1026D80007FAA3EB0703013E00F14E80BAF1000FA1
:1026E8007FF4F1AF04F10104192CFFF6D9AFDFF83C
:1026F800089100F0010A4FEA50000AEB460601284B
:1027080000F307800EB513F00FFD40F00040BDE860
:102718000E403A4BA4EB030359F823A0BAF1000F7B
:1027280000F011804FF03703BAFA8AF707F1010772
:102738000AFA07FAA3EB0703013E00F11B80BAF17E
:10274800000F7FF4F1AF4FF0200358F824A0BAFA35
:102758008AF707F101070AFA07FAA3EB0703013E14
:1027680000F10880BAF1000F7FF4F1AF04F1010421
:10277800FFF7BFBFDFF878904008C0F01B80A5EBDB
:10278800030300F017B8B0FA80F6172E40F307805D
:102798000EB513F0C9FC40F00040BDE80E4001F151
:1027A80001012BF8113061457FF432AF0CF10100C3
:1027B800BDE8F09FB0FA80F6172E40F307800EB5FB
:1027C80013F0B2FC40F00040BDE80E402BF81C307E
:1027D800ACF1010C61457FF41BAF0CF10100BDE8C1
:1027E800F09F00005C00002001300000E865002038
:1027F8005C010020FF010000E868002019000000CB
:102808000146DFF80C3A83FB0103DA0A13019B1A2D
:1028180002EB4323C81AF746DFF8F819B0FBF1F2C8
:1028280001FB1200F746DFF8E839014683FB010394
:10283800DA12B2EBE17213019B1A02EB4323C81AB6
:10284800F7460028C0F20C800146DFF8C43983FB44
:102858000103DA0A13019B1A02EB4323C81AF7464D
:10286800DFF8B01990FBF1F24FF00103A3EB02037C
:1028780003FB0100F746DFF89839014683FB0103A3
:10288800DA12B2EBE17213019B1A02EB4323C81A66
:10289800002980F20380DFF87C190844F7460028F5
:1028A800C0F20C800146DFF8683983FB0103DA0ABD
:1028B80013019B1A02EB4323C81AF746DFF8502985
:1028C80082FB0012D212C317D21ADFF848194FF050
:1028D8000103A3EB020303FB0100F7460028C0F243
:1028E8000C800146DFF8283983FB0103DA0A13015B
:1028F8009B1A02EB4323C81AF746C0F100000146B1
:10290800DFF80C3983FB0103DA0A13019B1A02EB87
:102918004323C81ADFF8FC18A1EB0000F746DFF8DC
:10292800F4180028BABF40420B460023B0FBF1F26E
:1029380002FB1102A3EB02021046F746DFF8D41897
:102948000028BABF40420B460023B0FBF1F202FB5D
:102958001102A3EB0200F7462DE93040DFF8B0384A
:1029680081B2A3FB0124E20A1401A41A02EB442455
:102978000D1B1FFAA0F1A3FB0124E20A1401A41AFB
:1029880002EB44240B1B05EB0340BDE830802DE926
:10299800F040DFF880784FF0000351F8234052F8F8
:1029A800235094FA45F4A6B2BE4258BFF61B4FEA2C
:1029B8001444BC4258BFE41B06EB044440F82340CF
:1029C80003F10103B3F5807F7FF4E7AFBDE8F08042
:1029D8002DE9F041DFF83C884FF0000351F823401F
:1029E80052F8235014FB35F6B6FBF8F708FB1766C8
:1029F80014FB05F4B4FBF8F708FB174404EB064492
:102A080040F8234003F10103B3F5807F7FF4E6AF7C
:102A1800BDE8F0812DE9F047DFF8F8874FF0000AAC
:102A280051F82A4052F82A5053F82A9014FB35F6E8
:102A380006EB1946B6FBF8F708FB176614FB05F416
:102A48001FFA89F94C44B4FBF8F708FB174404EB68
:102A5800064440F82A400AF1010ABAF5807F7FF45B
:102A6800DFAFBDE8F0872DE9F001DFF8A8874FF068
:102A7800000351F8234052F82350D4FA05F634B233
:102A8800002CB8BF6442B4FBF8F707FB1847B8BF7F
:102A9800A8EB07070FFAA6F5002DB8BF6D42B5FBE6
:102AA800F8F404FB1854B8BFA8EB040407EB04447B
:102AB80040F8234003F10103B3F5807F7FF4D9AFD9
:102AC800BDE8F001F7462DE9F05FDFF84817DFF8B9
:102AD800483708B44FF0020208BC1C6803F102032F
:102AE80008B44FF001084FF000064FF0000706EB5E
:102AF800070950F829301FFA83FA13FB28FBBBFBA0
:102B0800F1FC01FB1CBB0AEB0B0C8C4558BFACEB72
:102B1800010CBAEB0B0E48BF8E4409EB520950F872
:102B2800293013FB28FB9BB2BBFBF1FA01FB1ABB54
:102B3800B3EB0B0A48BF8A440EEB0A4A40F829A0B7
:102B480003EB0B0A8A4558BFAAEB010A0CEB0A4CA7
:102B580006EB070940F829C01744B7F5807FFFF650
:102B6800C6AF18FB04F8B8FBF1F901FB198806F1A8
:102B78000106B6EB520F3FF5B8AF4FEA4202B2F585
:102B8800807F7FF7A9AFDFF894464FF001084FF038
:102B9800000950F829301FFA83FA13FB28FBBBFB06
:102BA800F1FC01FB1CBB0AEB0B0C8C4558BFACEBD2
:102BB800010CBAEB0B0E48BF8E440CEB0E4C40F8E0
:102BC80029C018FB04F8B8FBF1F301FB138809F1DD
:102BD8000109B9F5807FFFF6DCAFDFF84436DFF88E
:102BE8004446DFF844764FF001084FF0000950F8EA
:102BF80029A01AFB08FBBBFBF1FC01FB1CBB1BFB60
:102C080007FBBBFBF1FC01FB1CBB1AFB23FEBEFB55
:102C1800F1FC01FB1CEE1EFB07FEBEFBF1FC01FBF9
:102C28001CEE0BEB0E4B40F829B018FB04F8B8FB70
:102C3800F1FA01FB1A8813FB04F3B3FBF1FA01FB69
:102C48001A3309F10109B9F5807FFFF6D0AF08BC46
:102C5800BDE8F09F2DE9F05FDFF8B815DFF8CC3557
:102C680008B44FF0020208BC1C681FFAA4F8A4B20A
:102C780003F1020308B44FF000064FF0000706EB1B
:102C8800070950F829301FFA83FA13FB28FBBBFB0E
:102C9800F1FC01FB1CBB0AEB0B0C8C4558BFACEBE1
:102CA800010CBAEB0B0E48BF8E4409EB520950F8E1
:102CB800293013FB28FB9BB2BBFBF1FA01FB1ABBC3
:102CC800B3EB0B0A48BF8A440EEB0A4A40F829A026
:102CD80003EB0B0A8A4558BFAAEB010A0CEB0A4C16
:102CE80006EB070940F829C01744B7F5807FFFF6BF
:102CF800C6AF18FB04F8B8FBF1F901FB198806F117
:102D08000106B6EB520F3FF5B8AF4FEA4202B2F5F3
:102D1800807F7FF7A8AFDFF81845DFF818854FF0F8
:102D2800000950F829301FFA83FA13FB28FBBBFB74
:102D3800F1FC01FB1CBB0AEB0B0C8C4558BFACEB40
:102D4800010CBAEB0B0E48BF8E440CEB0E4C40F84E
:102D580029C018FB04F8B8FBF1F301FB138809F14B
:102D68000109B9F5807FFFF6DCAF08BCBDE8F09F2C
:102D78002DE9F05FDFF89C14DFF8B03408B44FF0A9
:102D8800020208BC1C681FFAA4F8A4B203F10203EB
:102D980008B44FF000064FF0000706EB070950F89B
:102DA80029301FFA83FA13FB28FBBBFBF1FC01FB5C
:102DB8001CBB0AEB0B0C8C4558BFACEB010CBAEBF7
:102DC8000B0E48BF8E4409EB520950F8293013FB0B
:102DD80028FB9BB2BBFBF1FA01FB1ABBB3EB0B0A56
:102DE80048BF8A440EEB0A4A40F829A003EB0B0AB5
:102DF8008A4558BFAAEB010A0CEB0A4C06EB0709F7
:102E080040F829C000F5806006EB070950F8293022
:102E18001FFA83FA13FB28FBBBFBF1FC01FB1CBB6D
:102E28000AEB0B0C8C4558BFACEB010CBAEB0B0E44
:102E380048BF8E4409EB520950F8293013FB28FB90
:102E48009BB2BBFBF1FA01FB1ABBB3EB0B0A48BF01
:102E58008A440EEB0A4A40F829A003EB0B0A8A457C
:102E680058BFAAEB010A0CEB0A4C06EB070940F81D
:102E780029C000F5806006EB070950F829301FFAD1
:102E880083FA13FB28FBBBFBF1FC01FB1CBB0AEB21
:102E98000B0C8C4558BFACEB010CBAEB0B0E48BFC2
:102EA8008E4409EB520950F8293013FB28FB9BB2DA
:102EB800BBFBF1FA01FB1ABBB3EB0B0A48BF8A4410
:102EC8000EEB0A4A40F829A003EB0B0A8A4558BFC3
:102ED800AAEB010A0CEB0A4C06EB070940F829C0DB
:102EE800A0F500601744B7F5807FFFF656AF18FBD2
:102EF80004F8B8FBF1F901FB198806F10106B6EBF5
:102F0800520F3FF548AF4FEA4202B2F5807F7FF794
:102F180038AFC74CDFF81C834FF0000950F8293050
:102F28001FFA83FA13FB28FBBBFBF1FC01FB1CBB5C
:102F38000AEB0B0C8C4558BFACEB010CBAEB0B0E33
:102F480048BF8E440CEB0E4C40F829C000F5806059
:102F580050F829301FFA83FA13FB28FBBBFBF1FC5E
:102F680001FB1CBB0AEB0B0C8C4558BFACEB010CEE
:102F7800BAEB0B0E48BF8E440CEB0E4C40F829C040
:102F880000F5806050F829301FFA83FA13FB28FBFC
:102F9800BBFBF1FC01FB1CBB0AEB0B0C8C4558BFBF
:102FA800ACEB010CBAEB0B0E48BF8E440CEB0E4C8D
:102FB80040F829C0A0F5006018FB04F8B8FBF1F34D
:102FC80001FB138809F10109B9F5807FFFF6A6AF67
:102FD80008BCBDE8F09F2DE910404FF0010191FABF
:102FE800A1F24FEA12628A4240F3088050F8213079
:102FF80050F8224040F8214040F8223001F1010108
:10300800B1F5807FFFF6EBAFBDE810802DE9F04009
:10301800804C07464FF000050EB513F085F8BDE863
:103028000E4086B2B6FBF4F104FB11661FFAA0F05D
:10303800B0FBF4F104FB110006EB004647F82560ED
:1030480005F10105B5F5807F7FF4E6AF3846FFF757
:1030580001FEBDE8F0802DE9F04104464FF44057E9
:103068004FF000090EB513F05FF8BDE80E4000F010
:1030780001068008C0F0028006FB07F600F0010890
:103088008008C0F0028008FB07F806EB084644F801
:10309800296009F1010900F001068008C0F00280EA
:1030A80006FB07F600F001088008C0F0028008FB64
:1030B80007F806EB084644F8296009F1010900F011
:1030C80001068008C0F0028006FB07F600F0010840
:1030D8008008C0F0028008FB07F806EB084644F8B1
:1030E800296009F1010900F001068008C0F002809A
:1030F80006FB07F600F001088008C0F0028008FB14
:1031080007F806EB084644F8296009F1010900F0C0
:1031180001068008C0F0028006FB07F600F00108EF
:103128008008C0F0028008FB07F806EB084644F860
:10313800296009F1010900F001068008C0F0028049
:1031480006FB07F600F001088008C0F0028008FBC3
:1031580007F806EB084644F8296009F1010900F070
:1031680001068008C0F0028006FB07F600F001089F
:103178008008C0F0028008FB07F806EB084644F810
:10318800296009F1010900F001068008C0F00280F9
:1031980006FB07F600F001088008C0F0028008FB73
:1031A80007F806EB084644F8296009F10109B9F562
:1031B800807F00F00480B9F5807F7FF453AF20460C
:1031C800FFF748FDBDE8F081F74630B41A4A4FF0E2
:1031D800000551F8253013FB02F413FB22F304EB2E
:1031E800034440F8254005F10105B5F5807F7FF4DB
:1031F800F0AF30BCF7462DE9F0404FF000064FF035
:1032080000070E4D0E49C5FBC167BDE8F080000000
:10321800851CA7AA013000004C000020C20E000047
:103228003A2A00007F230000E92F00003800002020
:10323800B7150000BB1A00000018000002000100CA
:103248000400030080B582B000AF78607868FFF7AB
:10325800D7F87868FFF7FEFC0837BD4680BD00BF89
:1032680080B5ADF5826D00AF07F10C03186007F16A
:10327800080319603B1D1A6007F10C031868FFF773
:10328800C5FE07F108031868FFF7DCFF3B1D186847
:10329800FFF7E1FE07F1100107F10C023B1D08469C
:1032A80011681A68FFF794FB07F1080107F1080293
:1032B80007F11003086811681A46FFF7D4FB3B1D95
:1032C8001868FFF788FE07F58267BD4680BD00BF16
:1032D80080B584B000AFF860B9607A60F868F968C2
:1032E8007A68BB68FFF796FBF868FFF7ECFB1037C6
:1032F800BD4680BD90B5ADF2144D00AF07F10C048A
:10330800206007F108000160391D0A603A46136021
:1033180007F110023B4610461968FFF756FF194897
:10332800FFF76EF81848FFF76BF81848FFF768F8CA
:1033380007F11003154815491A46FFF728FB1148ED
:10334800FFF716FD07F1080207F10C03106819686A
:103358000C4A0D4BFFF75EFB3B1D1868D7F820148D
:10336800084A0A4BFFF756FB07F108031868FFF7EE
:1033780032FE3B1D1868FFF72EFE07F21447BD46C4
:1033880090BD00BFD8720020D8760020D87A0020DF
:10339800B0B584B000AF78600023FB6029E0FB681B
:1033A8009B007A68D41812F0BFFE0246144B1340F3
:1033B800002B03DA013B63F0010301332360FB6850
:1033C8009B007A68D418FB689B007A6813441D68D0
:1033D80012F0AAFE02460A4B1340002B03DA013B07
:1033E80063F0010301331B042B442360FB680133A2
:1033F800FB60FB68FF2BD2DD1037BD46B0BD00BFB8
:103408000100008080B485B000AF78603960002387
:10341800FB6018E0FB68DA0F13445B109B003A6806
:103428001344FA68920079680A44126891B2FA68FB
:103438000132920078680244126812040A441A6041
:10344800FB680233FB60FB68FF2BE3DD0023FB60B6
:103458001AE0FB68DA0F13445B1080339B003A686C
:103468001A44FB689B0079680B441B68190CFB68BD
:1034780001339B00786803441B681B0C1B040B4436
:103488001360FB680233FB60FB68FF2BE1DD143738
:10349800BD465DF8047B704780B483B000AF7860A8
:1034A80039603B689AB27B681B681B0C1B041A4482
:1034B8007B681A600C37BD465DF8047B704700BF17
:1034C80080B483B000AF786039603B681A047B68C9
:1034D8001B689BB21A447B681A600C37BD465DF8BE
:1034E800047B704780B592B000AF786000237B649E
:1034F8001AE17A6C904B1340002B03DA013B63F01E
:1035080001030133FB637B6C5A108B4B1340002B78
:1035180003DA013B63F001030133BB637B6C9A1050
:10352800854B1340002B03DA013B63F001030133A1
:103538007B637B6CDA10804B1340002B03DA013B72
:1035480063F0010301333B637B6C1A117A4B134020
:10355800002B03DA013B63F001030133FB627B6C50
:103568005A11754B1340002B03DA013B63F001033A
:103578000133BB627B6C9A116F4B1340002B03DA4B
:10358800013B63F0010301337B627B6CDA116A4B08
:103598001340002B03DA013B63F0010301333B6264
:1035A8007B6CDA0F13445B10FB617A6C624B13403F
:1035B800002B03DA013B63F001030133BB617B6C31
:1035C8001A125D4B1340002B03DA013B63F0010331
:1035D80001337B61FB6B5A00BB6B13445A007B6B56
:1035E80013445A003B6B13445A00FB6A13445A00B5
:1035F800BB6A13445A007B6A13445A003B6A13445B
:103608005A007B6913443B613B69DA0F13445B1032
:10361800FB603A69484B1340002B03DA013B63F027
:1036280001030133BB603A697B6C9A4279DDBB6860
:10363800002B06D1FB689B007A6813441B689BB279
:103648003B64BB68012B06D1FB689B007A68134476
:103658001B681B0C3B64BB68002B0FD1BB69002B9C
:103668000CD1FB689B007A681A44FB699B00796857
:103678000B441B6810461946FFF70EFFBB68002B6A
:1036880010D1BB69012B0DD1FB689B007A681A44E5
:10369800FB699B0079680B441B681B0C1046194694
:1036A800FFF7FAFEBB68012B0FD1BB69002B0CD1C9
:1036B800FB689B007A681A44FB699B0079680B4495
:1036C8001B6810461946FFF7FBFEBB68012B10D19B
:1036D800BB69012B0DD1FB689B007A681A44FB6912
:1036E8009B0079680B441B681B0C10461946FFF7B2
:1036F800E7FEBB69002B08D1FB699B007A681A4476
:103708003B6C10461946FFF7C7FEBB69012B08D171
:10371800FB699B007A681A443B6C10461946FFF710
:10372800CFFE7B6C01337B647B6CB3F5007FFFF6C7
:10373800E0AE4837BD4680BD0100008080B584B04A
:1037480000AFF860B9607A60F868FFF783FAB86884
:10375800FFF780FA7868F968BA68FFF739F9786886
:10376800FFF739FC7868FFF7AEF91037BD4680BD22
:1037780080B485B000AF7860396000237B7204E0C4
:103788007B681B685A1C7B681A607B681B681B78FF
:10379800FB72FB7A202BF3D0FB7A2D2B0AD1012365
:1037A8007B727B681B685A1C7B681A607B681B6885
:1037B8001B78FB72FB7A302B39D17B681B685A1C4B
:1037C8007B681A607B681B681B78FB72FB7A202B6E
:1037D80004D83B6800221A6001236CE0FB7A782B3E
:1037E8000BD11023BB727B681B685A1C7B681A605C
:1037F8007B681B681B78FB7223E0FB7A622B0BD17A
:103808000223BB727B681B685A1C7B681A607B6842
:103818001B681B78FB7214E0FB7A2F2B05D9FB7A07
:10382800392B02D80823BB720BE0002343E0FB7A54
:10383800302B02D9FB7A392B01D900233BE00A232C
:10384800BB720023FB6029E0FB7A602B02D9FB7A6C
:10385800203BFB72FB7A303BFB72FB7A102B07D9BB
:10386800FB7A073BFB72FB7A092B01D8002322E085
:10387800FA7ABB7A9A4201D300231CE0BB7AFA6831
:1038880002FB03F2FB7A1344FB607B681B685A1C3B
:103898007B681A607B681B681B78FB72FB7A202B9D
:1038A800D2D87B7A002B02D0FB685B42FB60FA68B7
:1038B8003B681A60012318461437BD465DF8047B3F
:1038C800704700BF80B582B000AF0346FB71FB793B
:1038D8000A2B02D10D2000F009FBFB79184600F0F5
:1038E80005FB0837BD4680BD80B582B000AF786063
:1038F80006E07B685A1C7A601B781846FFF7E2FFDF
:103908007B681B78002BF4D10837BD4680BD00BF0B
:1039180080B58CB000AFF860B9607A60002387F892
:103928002E30202387F82D30002387F82C30BB68F1
:10393800002B0BDABB685B42BB60FB68002B05DA27
:10394800FB685B42FB602D2387F82E30FB68BB6267
:10395800BB6887F827307B68002B05DA7B685B42F9
:103968007B60302387F82D307B68142B62DC97F856
:103978002720BB6AB3FBF2F102FB01F29B1A87F81E
:103988002F3097F82F30092B04D997F82F300733A9
:1039980087F82F3097F82F30303387F82F3097F883
:1039A8002C305A1C87F82C2007F13002134497F862
:1039B8002F2003F8202C97F82730BA6AB2FBF3F3CC
:1039C800BB62BB6A002BD2D197F82E30002B0CD0EB
:1039D80097F82C305A1C87F82C2007F13002134432
:1039E80097F82E2003F8202C0CE00BE097F82C30E9
:1039F8005A1C87F82C2007F13002134497F82D2021
:103A080003F8202C97F82C207B689A42EEDB97F875
:103A18002C30013B87F82C3097F82C3007F1300216
:103A2800134413F8203C1846FFF74CFF97F82C3046
:103A3800002BECD13037BD4680BD00BF0FB480B538
:103A480086B000AF07F124033B60A2E07B69252B19
:103A580005D07B69DBB21846FFF734FF99E03B6A73
:103A68005A1C3A621B787B6100237B607B68BB60D1
:103A7800BB683B613B69FB607B69302B07D13B6AC4
:103A88005A1C3A621B787B610123BB6011E010E08D
:103A9800FA6813469B0013445B001A467B69303B67
:103AA8001344FA681344FB603B6A5A1C3A621B7859
:103AB8007B617B692F2B02DD7B69392BE8DDBB68D5
:103AC800002B02D0FB685B42FB607B696C2B06D144
:103AD80001237B603B6A5A1C3A621B787B617B69D5
:103AE800002B00D15EE07B69732B07D13B681A1D60
:103AF8003A601B681846FFF7F7FE4AE07B69632BBC
:103B080008D13B681A1D3A601B68DBB21846FFF7FC
:103B1800D9FE3EE07B69752B01D10A233B617B69A5
:103B2800642B02D16FF009033B617B69582B02D0EB
:103B38007B69782B01D110233B617B69622B01D112
:103B480002233B613B69002B00D12BE07B68002BF3
:103B580009D03B681A1D3A601B6818463969FA682B
:103B6800FFF7D6FE15E03B69002B09DD3B681A1DFF
:103B78003A601B6818463969FA68FFF7C9FE08E019
:103B88003B681A1D3A601B6818463969FA68FFF7DE
:103B9800BFFE3B6A5A1C3A621B787B617B69002B2B
:103BA8007FF454AF1837BD46BDE8804004B0704775
:103BB80080B586B000AFF860B9607A601F48B96810
:103BC800FFF73CFF0023FB750AE0FB7DFA6813440E
:103BD8001B781B481946FFF731FFFB7D0133FB7546
:103BE800FA7D7B689A42F0DB2020FFF76BFE00230A
:103BF800FB7519E0FB7DFA6813441B781F2B05D968
:103C0800FB7DFA6813441B787E2B03D92E20FFF71F
:103C180059FE06E0FB7DFA6813441B781846FFF747
:103C280051FEFB7D0133FB75FA7D7B689A42E1DB2F
:103C38000A20FFF747FE1837BD4680BD708D010882
:103C4800788D010880B584B000AF786039600023B2
:103C5800FB6000F043F90346FB72FB7A0D2B00D1A1
:103C680028E0FB7A082B10D1FB68002B0DD0FB68ED
:103C7800013BFB60FB7A1846FFF724FE2020FFF784
:103C880021FEFB7A1846FFF71DFEFB7A1F2B10D981
:103C98003B685A1EFB689A420BDDFB685A1CFA60A7
:103CA8007A681344FA7A1A70FB7A1846FFF70AFE04
:103CB800CFE7CEE7FB687A68134400221A700A201F
:103CC800FFF700FE1037BD4680BD00BF80B588B045
:103CD80000AFF860B9607A600023FB6100F0F6F885
:103CE8000346002B3ED07B681B68BB6100F0F6F8EA
:103CF8000346FB75FB7D0D2B0AD1BB69FA6813449B
:103D080000221A700A20FFF7DDFD0123FB6126E07F
:103D1800FB7D082B10D1BB69002B0DD0BB69013B83
:103D2800BB61FB7D1846FFF7CDFD2020FFF7CAFDDC
:103D3800FB7D1846FFF7C6FDFB7D1F2B0FD9BB681F
:103D48005A1EBB699A420ADDBB695A1CBA61FA68F5
:103D58001344FA7D1A70FB7D1846FFF7B3FD7B68A4
:103D6800BA691A60FB6918462037BD4680BD00BF96
:103D780080B58AB000AF7860102001210CF062F99C
:103D8800022001210CF0E6F8C0233B62022387F8E9
:103D98002430022387F82530002387F826300123B2
:103DA80087F8273007F120031C4819460AF05CF809
:103DB8001A48062107220AF0C5F9184807210722E0
:103DC8000AF0C0F97B683B610023BB820023FB82B9
:103DD80000233B830023BB830C237B8307F1100361
:103DE8000F48194610F0C4FB0D4840F22551012236
:103DF80010F0F8FE25233B7300237B730023BB736D
:103E08000123FB7307F10C03184602F0C5FC0448B4
:103E1800012110F0C3FC2837BD4680BD00040240D4
:103E28000010014080B582B000AF7860396012E0C0
:103E380000BF7B681B889BB203F04003002BF8D0BF
:103E48003B681B78DBB27868194610F025FD3B68A3
:103E58005A1C3A601B783B681B78DBB2002BE7D111
:103E68000837BD4680BD00BF80B582B000AF14489A
:103E780040F2255110F02AFF0346002B1DD0104BAD
:103E88009B889BB2FB71FB790A2B0FD00D4B1B78DB
:103E98000B2B0BD80B4B1B780B4AF979D154094BD8
:103EA8001B780133DAB2074B1A7006E0054B002283
:103EB8001A7003480449FFF7B5FF0837BD4680BDAF
:103EC80000100140F47E00203C7F002080B400AF49
:103ED8001846BD465DF8047B704700BF80B400AF4C
:103EE8001846BD465DF8047B704700BF80B582B0B8
:103EF80000AF0346FB7100BF074B1B889BB203F062
:103F08004003002BF8D0FB799BB20348194610F008
:103F1800C3FC0837BD4680BD0010014080B500AF26
:103F28004FF41650FFF724FF80BD00BF80B586B060
:103F380000AFF860B9607A60BA68FB68D21A3B6A69
:103F4800D31A7B617B687A69B2FBF3F33B61034860
:103F58003969FFF773FD1837BD4680BD808D0108AC
:103F680090B5ADF5E84D89B002AFA84BA74AD26825
:103F780042F08072DA60A64B00225A60A44BA44A31
:103F8800126842F001021A60A14B5B6807F5E8412C
:103F980001F110010B609E4B5B6807F5E84202F1E6
:103FA8000C02136007F5E84303F10C031A6807F5E0
:103FB800E84101F110010B68D31A1A464FF00003CB
:103FC80007F5E841C1E9002307F5E842136891487D
:103FD8001946FFF733FD8E4B5B6807F5E84101F1A1
:103FE8000C010B604FF47A7012F096F8884B00229F
:103FF8005A60874B5B6807F5E84202F110021360CC
:10400800002307F5E84101F114010B6010E007F106
:104018001803183B1846FCF785F907F5E84202F142
:1040280014021368013307F5E84101F114010B602C
:1040380007F5E84202F114021368632BE7DD744BBD
:104048005B6807F5E84101F10C010B607248FFF766
:10405800F5FC07F5E841D1E90023CDE9002307F590
:10406800E84202F11002106807F5E84303F10C0377
:1040780019686422FFF75AFF4FF47A7012F04CF86F
:10408800634B00225A60624B5B6807F5E84101F117
:1040980010010B60002307F5E84202F114021360D7
:1040A8001BE007F5D84107F5C84202F11802183A93
:1040B80007F5B84303F11803183B084611461A469A
:1040C800FFF73CFB07F5E84101F114010B680133E8
:1040D80007F5E84202F11402136007F5E84101F11F
:1040E80014010B68632BDCDD494B5B6807F5E8427C
:1040F80002F10C0213604948FFF7A0FC07F5E841FC
:10410800D1E90023CDE9002307F5E84202F11002C6
:10411800106807F5E84303F10C0319686422FFF7F8
:1041280005FF4FF47A7011F0F7FF394B00225A60FF
:10413800374B5B6807F5E84101F110010B6000237C
:1041480007F5E84202F11402136026E007F5A840DB
:1041580000F11800183807F5E05101F11801183975
:1041680007F5A05202F11802183A07F5505303F167
:104178001803183B07F5984404F11804183C0094F8
:10418800FFF7B8F807F5E84101F114010B680133AE
:1041980007F5E84202F11402136007F5E84101F15E
:1041A80014010B68632BD1DD194B5B6807F5E842F6
:1041B80002F10C0213601A48FFF740FC07F5E841CA
:1041C800D1E90023CDE9002307F5E84202F1100206
:1041D800106807F5E84303F10C0319686422FFF738
:1041E800A5FE4FF47A7011F097FF094B00225A6030
:1041F800074B5B6807F5E84101F110010B600023EC
:1042080007F5E84202F1140213602AE0F0ED00E03D
:10421800001000E09C8D0108B08D0108DC8D0108BC
:10422800F08D010807F5E05101F11801183907F57B
:10423800A05202F11802183A07F5884303F118034F
:10424800183B084611461A46FFF742F807F5E841B9
:1042580001F114010B68013307F5E84202F1140279
:10426800136007F5E84101F114010B68632BD9DDF0
:104278005F4B5B6807F5E84202F10C0213605D488A
:10428800FFF7DCFB07F5E841D1E90023CDE900237E
:1042980007F5E84202F11002106807F5E84303F158
:1042A8000C0319686422FFF741FE4FF47A7011F08D
:1042B80033FF4F4B00225A604D4B5B6807F5E841CE
:1042C80001F110010B60002307F5E84202F1140226
:1042D80013601BE007F5D84107F5C84202F1180240
:1042E800183A07F5B84303F11803183B0846114676
:1042F8001A46FEF7B5FF07F5E84101F114010B680E
:10430800013307F5E84202F11402136007F5E841AA
:1043180001F114010B68632BDCDD354B5B6807F595
:10432800E84202F10C0213603348FFF787FB07F5F8
:10433800E841D1E90023CDE9002307F5E84202F17D
:104348001002106807F5E84303F10C0319686422AA
:10435800FFF7ECFD4FF47A7011F0DEFE244B0022DB
:104368005A60234B5B6807F5E84101F110010B60C7
:10437800002307F5E84202F1140213600FE007F585
:10438800D8431846FEF73CF807F5E84101F1140157
:104398000B68013307F5E84202F11402136007F5D0
:1043A800E84101F114010B68632BE8DD104B5B68F1
:1043B80007F5E84202F10C0213601048FFF73EFBD4
:1043C80007F5E841D1E90023CDE9002307F5E842E4
:1043D80002F11002106807F5E84303F10C031968AD
:1043E8006422FFF7A3FD07F5E8471C37BD4690BDDB
:1043F800001000E0008E0108108E0108208E0108D0
:1044080080B483B000AF786039607B681A683B6815
:104418001B68D31A18460C37BD465DF8047B7047F5
:1044280080B483B000AF786039607B681B881A4617
:104438003B681B88D31A18460C37BD465DF8047BC9
:10444800704700BF80B485B000AF78603960002342
:10445800FB600DE0FB685B003A681344FA68920061
:1044680079680A44126892B21A80FB680133FB60CB
:10447800FB68B3F5007FEDDB1437BD465DF8047BC0
:10448800704700BF80B586B000AFF860B9607A6049
:1044980000237B6114E07B695B00FA6813441A8887
:1044A8007B695B00B9680B441B889A4205D00948B0
:1044B8007969FFF7C3FA002307E07B6901337B6161
:1044C8007A697B689A42E6DB012318461837BD46AD
:1044D80080BD00BF308E010890B5ADF52C4D8FB072
:1044E80002AFC548FFF700FAC448FFF7FDF90023FB
:1044F80007F52C4000F124000360002307F52C4148
:1045080001F12C010B60BBE007F52C4303F12C03F0
:104518001A68BB4B83FB02035911D317CB1A6421CA
:1045280001FB03F3D31A002B02D1B648FFF786FA32
:1045380007F52C4101F12C010B6807F52C4000F11F
:104548002C00026802FB03F3184611F0E5FD07F59D
:10455800C15303F110032C3B1846FCF76FF907F51C
:104568002C4101F12C010B6807F52C4000F12C00BF
:10457800026802FB03F3184611F0CEFD07F500535D
:1045880003F130032C3B1846FCF724F907F52C41BE
:1045980001F12C010B6807F52C4000F12C00026892
:1045A80002FB03F3184611F0B7FD07F5205303F19A
:1045B80030032C3B1846FBF7B5FE07F5205202F1F5
:1045C80030022C3A07F5C15303F110032C3B104677
:1045D80019464FF40072FFF755FF0346012B0ED022
:1045E800894807F52C4202F12C021168FFF726FAD8
:1045F800012307F52C4000F12400036048E007F58B
:10460800C15303F110032C3B18464FF400710222EA
:104618007E4B11F0D3FA07F5005303F130032C3B1E
:1046280018464FF400710222784B11F0C7FA07F5CB
:10463800005202F130022C3A07F5C15303F110037E
:104648002C3B104619464FF40072FFF71BFF034638
:10465800012B0AD06E48FFF747F9012307F52C41D3
:1046680001F124010B6000BF12E007F52C4202F1B2
:104678002C021368013307F52C4000F12C0003606D
:1046880007F52C4101F12C010B68632B7FF73CAF38
:1046980007F52C4202F124021368012B03D15D486F
:1046A800FFF722F902E05C48FFF71EF95B48FFF7C5
:1046B800C5F9002307F52C4000F12400036000230E
:1046C80007F52C4101F12C010B605BE007F52C4349
:1046D80003F12C031A684A4B83FB02035911D317C1
:1046E800CB1A642101FB03F3D31A002B02D14548EE
:1046F800FFF7A4F907F52C4101F12C010B681846C6
:1047080011F00AFD07F5244303F104031846FDF7E9
:1047180077FE07F52C4202F12C021368184611F0B7
:10472800FBFC07F51C4303F110030C3B1846FCF790
:104738001FF807F5244202F1040207F51C4303F1B0
:1047480010030C3B10461946FDF7FEFA0346002BF2
:104758000DD1334807F52C4303F12C031968FFF7F3
:104768006DF9012307F52C4000F12400036007F5DB
:104778002C4101F12C010B68013307F52C4202F1A1
:104788002C02136007F52C4000F12C000368632B02
:104798009CDD07F52C4101F124010B68012B08D1A0
:1047A800204807F52C4202F12C021168FFF746F960
:1047B80002E01D48FFF742F91C48FFF795F800236F
:1047C80007F52C4000F124000360002307F52C4175
:1047D80001F12C010B6057E107F52C4202F12C0284
:1047E8001368184611F098FC002307F52C4000F1D7
:1047F80028000360F0E000BF388E0108448E0108ED
:104808001F85EB515C8E0108608E01082944000861
:10481800848E01089C8E0108A48E0108AC8E0108C4
:10482800BC8E0108C48E0108D08E0108D48E010800
:1048380011F07AFC0346C3F30D0307F52C4101F18F
:104848000C010B6011F070FC0346C3F30D0307F570
:104858002C4202F10802136007F52C4000F12800F1
:10486800036803F6FF7307F52C4101F10C010B6097
:1048780007F52C4202F12802136803F5805307F567
:104888002C4000F10800036007F52C4101F10C01F0
:104898000B689AB207F52C4000F1080003681B0466
:1048A800D11807F5244303F1040307F52C4000F160
:1048B8002800026843F8221007F5705303F130030B
:1048C8002C3B07F52C4101F128010A6807F52C401B
:1048D80000F10C00016843F8221007F5605303F15A
:1048E80030032C3B07F52C4101F128010A6807F534
:1048F8002C4000F10800016843F8221011F014FC64
:10490800034607F52C4101F10C010B6011F00CFC7A
:10491800034607F52C4202F10802136007F52C4004
:1049280000F12800036803F6FF7307F52C4101F135
:104938000C010B6007F52C4202F12802136803F5FD
:10494800805307F52C4000F10800036007F52C415F
:1049580001F10C010B689AB207F52C4000F1080030
:1049680003681B04D11807F51C4303F110030C3B23
:1049780007F52C4000F12800026843F8221007F5DB
:10498800505303F130032C3B07F52C4101F128016A
:104998000A6807F52C4000F10C00016843F8221062
:1049A80007F5405303F130032C3B07F52C4101F187
:1049B80028010A6807F52C4000F10800016843F84F
:1049C800221007F52C4101F128010B68013307F586
:1049D8002C4202F12802136007F52C4000F1280050
:1049E8000368FF2B7FF624AF07F5244101F104018A
:1049F80007F5244202F1040207F51C4303F11003F2
:104A08000C3B084611461A46FDF7C1FF07F57050E2
:104A180000F130002C3807F5605101F130012C39D4
:104A280007F5505202F130022C3A07F5405303F1D2
:104A380030032C3BFDF796F807F5705202F130026F
:104A48002C3A07F5605303F130032C3B07F5244457
:104A580004F10404104619462246FDF751F80346AE
:104A6800002B06D1012307F52C4101F124010B602D
:104A780019E007F52C4202F12C021368013307F5FF
:104A88002C4000F12C00036007F52C4101F12C01AA
:104A98000B68632B07DC07F52C4202F1240213682C
:104AA800002B3FF499AE07F52C4000F12400036871
:104AB800012B08D1BD4807F52C4202F12C021168E0
:104AC800FEF7BCFF02E0BA48FEF7B8FFB948FEF7A8
:104AD800B5FF002307F52C4000F1240003600023F4
:104AE80007F52C4101F12C010B6086E007F52C42FB
:104AF80002F12C021368184611F00EFB07F52C433F
:104B080003F12C031C6807F130022C3A07F5815396
:104B180003F110032C3B104619462246FDF75CFBB7
:104B280007F52C4000F12C00036801331C4607F5FB
:104B380086622C3A07F5C15303F110032C3B10464B
:104B480019462246FDF748FB07F52C4101F12C01D7
:104B58000B6802331C4607F503622C3A07F500532D
:104B680003F130032C3B104619462246FDF734FB6F
:104B780007F543602C3807F130012C3907F58662B8
:104B88002C3A07F503632C3BFDF744FF07F520504B
:104B980000F130002C3807F5815101F110012C3952
:104BA80007F5C15202F110022C3A07F5005303F140
:104BB80030032C3BFDF760F907F543622C3A07F503
:104BC800205303F130032C3B10461946FDF7BCF87F
:104BD8000346002B06D1012307F52C4202F12402DB
:104BE800136012E007F52C4000F12C000368013334
:104BF80007F52C4101F12C010B6007F52C4202F15D
:104C08002C021368632B7FF771AF07F52C4000F176
:104C180024000368012B03D16748FEF70FFF02E069
:104C28006648FEF70BFF002307F52C4101F124012C
:104C38000B606348FEF702FF002307F52C4202F1E0
:104C48002C02136040E007F52C4000F12C000368AB
:104C5800184611F061FA07F5244303F104031846D6
:104C6800FEF7F9F907F52C4101F12C010B681846FC
:104C780011F052FA07F51C4303F110030C3B1846D8
:104C8800FCF792F907F5244202F1040207F51C43E8
:104C980003F110030C3B10461946FDF755F803467F
:104CA800002B06D1012307F52C4202F124021360E0
:104CB80011E007F52C4000F12C000368013307F5DB
:104CC8002C4101F12C010B6007F52C4202F12C025A
:104CD8001368632BB7DD07F52C4000F12400036847
:104CE800012B03D13748FEF7A9FE02E03048FEF752
:104CF800A5FE3548FEF7F8FD002307F52C4101F124
:104D080024010B60002307F52C4202F12C021360EA
:104D18006CE007F52C4303F12C031A682B4B83FB3B
:104D280002035911D317CB1A642101FB03F3D31AD9
:104D3800002B02D12E20FEF7C5FD07F52C4101F10D
:104D48002C010A6807F5244101F1040107F51C4309
:104D580003F110030C3B08461946FDF73DFA07F529
:104D6800244303F104031846FEF7BCFB07F51C4374
:104D780003F110030C3B1846FCF7FAF907F5244237
:104D880002F1040207F51C4303F110030C3B104623
:104D98001946FCF7D9FF0346002B19D1012307F563
:104DA8002C4202F1240213602EE000BFC48E0108D9
:104DB800D08E0108EC8E01089C8E0108A48E010893
:104DC800048F0108148F01081C8F01081F85EB51FF
:104DD8002E20FEF777FD07F52C4000F12C00036824
:104DE800013307F52C4101F12C010B6007F52C422A
:104DF80002F12C021368632B06DC07F52C4000F146
:104E080024000368002B84D007F52C4101F124010C
:104E18000B68012B08D1C44807F52C4202F12C027B
:104E28001168FEF70BFE02E0C048FEF707FEC04817
:104E3800FEF75AFD002307F52C4000F1240003601B
:104E4800002307F52C4101F12C010B603AE107F52D
:104E58002C4202F12C021368184611F05DF9002368
:104E680007F52C4000F128000360D3E011F05CF94D
:104E78000346C3F30D0307F52C4101F10C010B6048
:104E880011F052F90346C3F30D0307F52C4202F162
:104E98000802136007F52C4000F12800036803F6A8
:104EA800FF7307F52C4101F10C010B6007F52C424B
:104EB80002F12802136803F5805307F52C4000F12E
:104EC8000800036007F52C4101F10C010B689AB248
:104ED80007F52C4000F1080003681B04D11807F5FA
:104EE800244303F1040307F52C4000F1280002686D
:104EF80043F8221007F5705303F130032C3B07F5F4
:104F08002C4101F128010A6807F52C4000F10C003A
:104F1800016843F8221007F5605303F130032C3B76
:104F280007F52C4101F128010A6807F52C4000F12A
:104F38000800016843F8221011F0F6F8034607F557
:104F48002C4101F10C010B6011F0EEF8034607F556
:104F58002C4202F10802136007F52C4000F12800EA
:104F6800036803F6FF7307F52C4101F10C010B6090
:104F780007F52C4202F12802136803F5805307F560
:104F88002C4000F10800036007F52C4101F10C01E9
:104F98000B689AB207F52C4000F1080003681B045F
:104FA800D11807F51C4303F110030C3B07F52C40FF
:104FB80000F12800026843F8221007F5505303F166
:104FC80030032C3B07F52C4101F128010A6807F54D
:104FD8002C4000F10C00016843F8221007F54053FB
:104FE80003F130032C3B07F52C4101F128010A6835
:104FF80007F52C4000F10800016843F8221007F576
:105008002C4101F128010B68013307F52C4202F10C
:105018002802136007F52C4000F128000368FF2BD5
:105028007FF624AF07F5244101F1040107F5244276
:1050380002F1040207F51C4303F110030C3B084678
:1050480011461A46FDF7C4FC07F5705000F1300010
:105058002C3807F5605101F130012C3907F5505211
:1050680002F130022C3A07F5405303F130032C3B90
:10507800FCF7C8FD07F5705202F130022C3A07F52B
:10508800605303F130032C3B07F5244404F1040476
:10509800104619462246FCF733FD0346002B06D17D
:1050A800012307F52C4101F124010B6019E007F5F4
:1050B8002C4202F12C021368013307F52C4000F151
:1050C8002C00036007F52C4101F12C010B68632BC0
:1050D80007DC07F52C4202F124021368002B3FF489
:1050E800B6AE07F52C4000F124000368012B08D167
:1050F8000D4807F52C4202F12C021168FEF79EFCC0
:1051080002E00A48FEF79AFC0A48FEF7EDFB002386
:1051180007F52C4000F124000360002307F52C411B
:1051280001F12C010B6048E0C48E0108D08E010803
:105138002C8F0108448F010807F52C4202F12C023C
:105148001368184610F0E8FF07F5244303F1040339
:105158001846FDF75BFF07F52C4000F12C000368AB
:10516800184610F0D9FF07F51C4303F110030C3B58
:105178001846FBF7DDFE07F5244202F1040207F5A5
:105188001C4303F110030C3B10461946FCF7DCFDE9
:105198000346002B06D1012307F52C4101F1240118
:1051A8000B6018E007F52C4202F12C02136801335A
:1051B80007F52C4000F12C00036007F52C4101F1A4
:1051C8002C010B68632B06DC07F52C4202F1240244
:1051D8001368002BB0D007F52C4000F124000368B9
:1051E800012B08D14E4807F52C4202F12C02116818
:1051F800FEF724FC02E04B48FEF720FC4A48FEF785
:1052080073FB002307F52C4000F124000360002302
:1052180007F52C4101F12C010B6040E007F52C4209
:1052280002F12C021368184610F076FF07F52443A4
:1052380003F104031846FEF705F807F52C4000F1C2
:105248002C000368184610F067FF07F51C4303F1AC
:1052580010030C3B1846FBF799FE07F5244202F1B0
:10526800040207F51C4303F110030C3B10461946D2
:10527800FCF76AFD0346002B06D1012307F52C41F4
:1052880001F124010B6018E007F52C4202F12C0211
:105298001368013307F52C4000F12C00036007F573
:1052A8002C4101F12C010B68632B06DC07F52C421D
:1052B80002F124021368002BB0D007F52C4000F14E
:1052C80024000368012B08D1154807F52C4202F188
:1052D8002C021168FEF7B2FB02E01248FEF7AEFBA3
:1052E8001248FEF701FB002307F52C4000F12400CB
:1052F8000360002307F52C4101F12C010B6045E107
:1053080007F52C4202F12C021368184610F004FF2E
:10531800002307F52C4000F128000360DEE000BF01
:10532800C48E0108D08E0108508F01085C8F0108D7
:1053380010F0FAFE0346C3F30D0307F52C4101F103
:105348000C010B6010F0F0FE0346C3F30D0307F5E4
:105358002C4202F10802136007F52C4000F12800E6
:10536800036803F6FF7307F52C4101F10C010B608C
:1053780007F52C4202F12802136803F5805307F55C
:105388002C4000F10800036007F52C4101F10C01E5
:105398000B689AB207F52C4000F1080003681B045B
:1053A800D11807F5244303F1040307F52C4000F155
:1053B8002800026843F8221007F5705303F1300300
:1053C8002C3B07F52C4101F128010A6807F52C4010
:1053D80000F10C00016843F8221007F5605303F14F
:1053E80030032C3B07F52C4101F128010A6807F529
:1053F8002C4000F10800016843F8221010F094FED8
:10540800034607F52C4101F10C010B6010F08CFEEE
:10541800034607F52C4202F10802136007F52C40F9
:1054280000F1280003685B0003F6FF7307F52C41C1
:1054380001F10C010B6007F52C4202F128021368F8
:1054480003F500635B0007F52C4000F108000360DA
:1054580007F52C4101F10C010B689AB207F52C40B5
:1054680000F1080003681B04D11807F51C4303F179
:1054780010030C3B07F52C4000F12800026843F8A4
:10548800221007F5505303F130032C3B07F52C414C
:1054980001F128010A6807F52C4000F10C000168A9
:1054A80043F8221007F5405303F130032C3B07F56E
:1054B8002C4101F128010A6807F52C4000F1080089
:1054C800016843F8221007F52C4101F128010B6807
:1054D800013307F52C4202F12802136007F52C402E
:1054E80000F128000368FF2B7FF622AF07F524415F
:1054F80001F1040107F5244202F1040207F51C43F7
:1055080003F110030C3B084611461A46FDF7ABFAA7
:1055180007F5705000F130002C3807F5605101F1A3
:1055280030012C3907F5505202F130022C3A07F5B8
:10553800405303F130032C3BFCF7B6FB07F57052E0
:1055480002F130022C3A07F5605303F130032C3B8B
:1055580007F5244404F10404104619462246FCF7D2
:10556800CFFA0346002B06D1012307F52C4101F1A0
:1055780024010B6019E007F52C4202F12C02136894
:10558800013307F52C4000F12C00036007F52C418E
:1055980001F12C010B68632B07DC07F52C4202F1A3
:1055A80024021368002B3FF4ABAE07F52C4000F142
:1055B80024000368012B08D1C04807F52C4202F1EA
:1055C8002C021168FEF73AFA02E0BD48FEF736FAF7
:1055D800BC48FEF789F9002307F52C4000F12400A8
:1055E8000360002307F52C4101F12C010B6043E017
:1055F80007F52C4202F12C02116807F5244202F14A
:10560800040207F51C4303F110030C3B084611463E
:105618001A46FCF791FE07F5244303F104031846E4
:10562800FDF7D9FC07F51C4303F110030C3B1846A2
:10563800FBF7F6FC07F5244202F1040207F51C43C8
:1056480003F110030C3B10461946FCF77DFB03469B
:10565800002B06D1012307F52C4000F1240003603C
:1056680018E007F52C4101F12C010B68013307F50F
:105678002C4202F12C02136007F52C4000F12C009B
:105688000368632B06DC07F52C4101F124010B6844
:10569800002BADD007F52C4202F124021368012B30
:1056A80008D1864807F52C4303F12C031968FEF747
:1056B800C5F902E08248FEF7C1F98348FEF714F9FC
:1056C800002307F52C4000F124000360002307F5B0
:1056D8002C4101F12C010B6086E007F52C4202F108
:1056E8002C02136807F5244202F104027748114698
:1056F8001A46FCF771FD07F52C4303F12C031A68D1
:1057080007F51C4303F110030C3B71481946FCF7DD
:1057180063FD07F52C4000F12C00026807F51443DF
:1057280003F110030C3B6B481946FCF755FD67481D
:10573800FDF71EFB07F5244303F104031846FBF7A6
:10574800EFFD07F51C4303F110030C3B1846FBF76C
:10575800E7FD07F5144303F110030C3B1846FBF76C
:10576800DFFD07F5244303F1040358481946FCF705
:10577800EBFA0346002B06D1012307F52C4101F172
:1057880024010B603FE007F51C4303F110030C3BB9
:105798004F481946FCF7D8FA0346002B06D10123D7
:1057A80007F52C4202F1240213602CE007F514439C
:1057B80003F110030C3B47481946FCF7C5FA0346AA
:1057C800002B06D1012307F52C4000F124000360CB
:1057D80019E007F52C4101F12C010B68013307F59D
:1057E8002C4202F12C02136007F52C4000F12C002A
:1057F8000368632B07DC07F52C4101F124010B68D2
:10580800002B3FF46AAF07F52C4202F1240213681B
:10581800012B08D1294807F52C4303F12C031968FB
:10582800FEF70CF902E02648FEF708F92A48FEF7C9
:105838005BF8002307F52C4000F1240003600023E7
:1058480007F52C4101F12C010B6052E007F52C43C0
:1058580003F12C031A6807F5244101F1040107F547
:105868001C4303F110030C3B08461946FCF7B4FC33
:1058780007F5244303F104031846FDF7EBF907F590
:105888001C4303F110030C3B1846FBF749FD07F5D1
:10589800244202F1040207F51C4303F110030C3BF8
:1058A80010461946FCF750FA0346002B16D101237F
:1058B80007F52C4000F12400036028E0C48E01089D
:1058C800D08E0108748F0108848F0108D8720020D7
:1058D800D8760020D87A00209C8F010807F52C4143
:1058E80001F12C010B68013307F52C4202F12C025F
:1058F800136007F52C4000F12C000368632B06DCCD
:1059080007F52C4101F124010B68002B9ED007F507
:105918002C4202F124021368012B08D1444807F5F0
:105928002C4303F12C031968FEF788F802E041487C
:10593800FEF784F84048FDF7D7FF002307F52C4011
:1059480000F124000360002307F52C4101F12C012C
:105958000B6042E007F52C4303F12C031A6807F5A6
:10596800244101F1040107F51C4303F110030C3B2A
:1059780008461946FCF730FC07F5244303F10403F5
:105988001846FDF7A0F807F51C4303F110030C3B7C
:105998001846FBF77BFE07F5244202F1040207F5DF
:1059A8001C4303F110030C3B10461946FCF7CCF9D5
:1059B8000346002B06D1012307F52C4000F12400F3
:1059C800036018E007F52C4101F12C010B68013345
:1059D80007F52C4202F12C02136007F52C4000F168
:1059E8002C000368632B06DC07F52C4101F1240128
:1059F8000B68002BAED007F52C4202F12402136885
:105A0800012B08D10A4807F52C4303F12C03196828
:105A1800FEF714F802E00748FEF710F80748FEF70B
:105A28000DF8002307F52C4000F12C0003602FE14E
:105A3800C48E0108D08E0108AC8F0108BC8F010804
:105A480007F52C4101F12C010B68184610F064FB96
:105A580007F5E84303F130032C3B1846FCF7A0FB9D
:105A680007F52C4202F12C021368184610F054FB7B
:105A780007F5C15101F110012C3907F5005202F167
:105A880030022C3A07F5205303F130032C3B08462B
:105A980011461A46FCF766FA07F52C4000F12C006F
:105AA8000368184610F038FB07F5C15000F11000E4
:105AB8002C3807F5D04101F130012C3907F5C042E7
:105AC80002F130022C3A07F5E84303F130032C3B8E
