:020000040800F2
:1000000000000220556001080503000811030008E4
:10001000190300082103000829030008000000005C
:100020000000000000000000000000003103000894
:100030003D030008000000004903000855030008C4
:10004000A1600108A1600108A1600108A160010888
:10005000A1600108A1600108A1600108A160010878
:10006000A1600108A1600108A1600108A160010868
:10007000A1600108A1600108A1600108A160010858
:10008000A1600108A1600108A1600108A160010848
:10009000A1600108A1600108A1600108A160010838
:1000A000A1600108A1600108A1600108A160010828
:1000B000A1600108A1600108A1600108A160010818
:1000C000A1600108A1600108A1600108A160010808
:1000D000A1600108993D0008A1600108A160010824
:1000E000A1600108A1600108A1600108A1600108E8
:1000F000A1600108A1600108A1600108A1600108D8
:10010000A1600108A1600108A1600108A1600108C7
:10011000A1600108A1600108A1600108A1600108B7
:10012000A1600108A1600108A1600108A1600108A7
:10013000A1600108A1600108A1600108A160010897
:10014000A1600108A1600108A1600108A160010887
:10015000A1600108A1600108A1600108A160010877
:10016000A1600108A1600108A1600108A160010867
:10017000A1600108A1600108A1600108A160010857
:08018000A1600108A160010863
:1001880010B5054C237833B9044B13B10448AFF3C9
:1001980000800123237010BDD87E002000000000DD
:1001A8007CC6010808B5064B1BB106480649AFF3E3
:1001B80000800648036813B1054B03B1984708BD92
:1001C800000000007CC60108DC7E0020D4720020FC
:1001D80000000000154B002B08BF134B9D46A3F5EC
:1001E800803A00218B460F461348144A121A15F01C
:1001F800EFFD0F4B002B00D098470E4B002B00D083
:1002080098470020002104000D000D48002802D066
:100218000C4815F0A9FE15F0B3FD2000290000F0E8
:100228005BF815F09DFD00BF00000800000000000D
:100238000000000000000000D87E0020507F002051
:10024800715F01087D5F010880B483B000AF7860FA
:1002580000BF7B685A1E7A60002BFAD10C37BD4666
:100268005DF8047B704700BF80B500AF00BF012078
:100278000FF056FF0346002BF9D0024B9B68184637
:1002880080BD00BF0008065080B500AF03F0DAFD5E
:10029800402001210FF0B8FC01200FF0FDFE80BDC9
:1002A80080B584B000AF78600023FB600BE0FB688A
:1002B8009B007A6813441B680648194603F052FBF2
:1002C800FB680133FB60FB68B3F5007FEFDB103799
:1002D800BD4680BDBCC1010880B500AFFFF7D4FFA3
:1002E800044803F03FFB03F089FE034803F090FA4B
:1002F800FEE700BFC0C10108CCC1010880B400AF4F
:10030800BD465DF8047B704780B400AFFEE700BFD0
:1003180080B400AFFEE700BF80B400AFFEE700BFC7
:1003280080B400AFFEE700BF80B400AFBD465DF803
:10033800047B704780B400AFBD465DF8047B70470E
:1003480080B400AFBD465DF8047B704780B400AF51
:10035800BD465DF8047B704780B500AF154B154A64
:10036800D2F8882042F47002C3F88820124B124A4F
:10037800126842F001021A600F4B00229A600E4A7E
:100388000D4B1B6823F0847323F4803313600A4BEE
:100398000A4A5A60084B084A126822F480221A60F6
:1003A800054B0022DA6000F087F8024B4FF000623C
:1003B8009A6080BD00ED00E0003802401030002453
:1003C80080B487B000AF00233B6100237B61022328
:1003D800FB600023BB6002237B60324B9B6803F009
:1003E8000C033B613B69042B07D0082B09D0002B79
:1003F8003FD12D4B2D4A1A603FE02B4B2C4A1A60F7
:100408003BE0284B5B6803F480039B0DBB60254BE6
:100418005B6803F03F037B60BB68002B0DD0244A68
:100428007B68B2FBF3F21F4B596847F6C0730B4069
:100438009B0903FB02F37B610CE01C4A7B68B2FB5F
:10044800F3F2184B596847F6C0730B409B0903FB3E
:1004580002F37B61134B5B6803F440331B0C0133DD
:100468005B00FB607A69FB68B2FBF3F20E4B1A6023
:1004780003E00D4B0D4A1A6000BF0A4B9B6803F05E
:10048800F0031B090B4AD35CDBB23B61064B1A68CD
:100498003B69DA40044B1A601C37BD465DF8047BA3
:1004A800704700BF00380240040000200024F40018
:1004B80000127A000800002080B483B000AF002347
:1004C8007B6000233B60354B344A126842F480322B
:1004D8001A60324B1B6803F400333B607B680133BE
:1004E8007B603B68002B03D17B68B3F5A06FF0D12C
:1004F8002A4B1B6803F40033002B02D001233B6016
:1005080001E000233B603B68012B42D1234B234A87
:10051800126C42F080521A64214B214A126842F44C
:1005280040421A601D4B1D4A92689A601B4B1B4A39
:10053800926842F400429A60184B184A926842F452
:10054800A0529A60154B174A5A60144B134A126806
:1005580042F080721A6000BF104B1B6803F00073F2
:10056800002BF9D0104B40F205721A600B4B0B4A66
:10057800926822F003029A60084B084A926842F097
:1005880002029A6000BF054B9B6803F00C03082B1E
:10059800F9D10C37BD465DF8047B7047003802403E
:1005A8000070004019544007003C024080B500AF7D
:1005B800FFF706FF014B1B68184680BD04000020AA
:1005C80080B582B000AF16F089F803467B607B687F
:1005D80043F000437B607B6818460837BD4680BD02
:1005E80080B485B000AF78600023FB600CE0FB6846
:1005F800C3F11F037A6822FA03F3012B01D1FB68C8
:1006080006E0FB680133FB60FB681F2BEFDD20234E
:1006180018461437BD465DF8047B704780B584B032
:1006280000AF78607B68BB60B9682F4B83FB012300
:100638001A13CB17D21A13465B0013441B03134437
:10064800CA1A002A0DDBB968274B83FB01231A134A
:10065800CB17D21A13465B0013441B031344CA1A60
:100668000FE0B968204B83FB01231A13CB17D21A6A
:1006780013465B0013441B031344CA1A02F5405285
:100688000132FA6004E0FB6803F540530133FB6074
:10069800FB68002BF7DB04E0FB68A3F54053013B44
:1006A800FB60FA6843F201039A42F5DCFB68002B11
:1006B80003DBFB68B3F5405F03DD0C48F96815F010
:1006C80043FDFB68002B03DBFB68B3F5405F05DDEA
:1006D80007483121074A084B15F0E0FCFB6818462B
:1006E8001037BD4680BD00BF438E5355D8C10108A1
:1006F800E4C1010808C20108ECC1010890B587B03F
:1007080000AF7860FFF75CFF03463B6100237B6125
:100718001FE07B69DB0004337A68D41807F1100204
:1007280007F10C031046194600F088FA03462360C7
:100738007B69DB007A68D41807F1100207F10C0313
:100748001046194600F07AFA034623607B690133A4
:100758007B617B69FF2BDCDD1C37BD4690BD00BF8C
:1007680090B587B000AF7860FFF72AFF03463B617A
:1007780000237B6121E07B699B007A68D41807F12C
:10078800100207F10C031046194600F057FA034609
:100798009BB223807B699B0002337A68D41807F1E7
:1007A800100207F10C031046194600F047FA0346F9
:1007B8009BB223807B6901337B617B69FF2BDADD88
:1007C8001C37BD4690BD00BF80B588B000AF7860CB
:1007D8000023BB6100237B61FFF7F2FE0346BB6089
:1007E8000023FB614EE0FF23FB6007F1080207F1DD
:1007F8000C031046194600F021FA03467B82FB6879
:10080800012B09D1BB695B007A6813447A8A1A8084
:10081800BB690133BB610DE07A691346DB079B1A9C
:100828005B0003F2FE337A6813447A8A1A807B6984
:1008380001337B6107F1080207F10C0310461946E2
:1008480000F0FCF903467B82FB68012B09D1BB69E8
:100858005B007A6813447A8A1A80BB690133BB61EA
:100868000DE07A691346DB079B1A5B0003F2FE333F
:100878007A6813447A8A1A807B6901337B61FB6941
:100888000133FB61FB69FF2BADDD2037BD4680BD21
:1008980090B585B000AF7860FFF792FE0346BB6065
:1008A8000023FB6019E0FB68DB0004337A68D41886
:1008B80007F10803184600F017F803462360FB68A1
:1008C800DB007A68D41807F10803184600F00CF822
:1008D80003462360FB680133FB60FB68FF2BE2DD06
:1008E8001437BD4690BD00BF80B58AB000AF7860B0
:1008F8007B681B68DBB2FB607B681B681A0A7B6835
:100908001A60984AFB6813441B78BB61BB6903F003
:100918001003BB60BB68002B2BD17B681B68012BC5
:1009280004D1FFF74DFE02467B681A60BB6903F0ED
:100938000F03BB617B681B6803F00103002B04D025
:10094800BB69C3F540530133BB617B681B685A0818
:100958007B681A607B681B681846FFF741FE0346F0
:10096800172B04D9FFF72CFE02467B681A60BB6977
:100978005FE17B681B681846FFF732FE03461A2BB7
:1009880004D9FFF71DFE02467B681A60BB6903F0B5
:1009980007037B627B681B6803F01F027B6A5B01AD
:1009A8001344FB607B681B685A097B681A607B6884
:1009B8001B68012B04D1FFF703FE02467B681A600F
:1009C800694AFB6813441B78BB61BB6903F02003C9
:1009D800BB60BB68002B22D1BB6903F01F03BB615E
:1009E8007B681B6803F00103002B04D0BB69C3F5C7
:1009F80040530133BB617B681B685A087B681A60E7
:100A08007B681B681846FFF7EBFD0346172B04D9D4
:100A1800FFF7D6FD02467B681A60BB6909E1BB692E
:100A280003F00F037B620023FB6156E07B6A5B00E7
:100A38001A467B681B6803F0010313447B627B68DA
:100A48001B685A087B681A607B681B68012B04D1F5
:100A5800FFF7B6FD02467B681A60444BFA6953F803
:100A680022303B611F233B6231E03B69DB171A46AA
:100A78007B6A13447B623B695B003B617B6AB3F131
:100A8800FF3F21D17B681B6803F00103002B05D0D1
:100A98003B6AC3F540530133BB6101E03B6ABB616C
:100AA8007B681B685A087B681A607B681B68184655
:100AB800FFF796FD0346172B04D9FFF781FD024681
:100AC8007B681A60BB69B4E03B6A013B3B623B6AE6
:100AD800002BCADAFB690133FB61FB696C2BA5DDCE
:100AE8001923FB619FE0224BFA6953F822307B619E
:100AF8001E4BFA6953F822303B617B6A5B001A4649
:100B08007B681B6803F0010313447B627B681B68E6
:100B18005A087B681A607B681B68012B05D115F0A1
:100B2800DDFD03461A467B681A6036233B623BE0CC
:100B38007B69DB171A467B6A13447B627B695B001F
:100B48007B617B6AB3F1FF3F2BD17B681B6803F0A5
:100B58000103002B0ED03B6AC3F540530133BB6140
:100B68000AE000BF5C0000205C010020E86500206E
:100B7800686700203B6ABB617B681B685A087B6812
:100B88001A607B681B681846FFF72AFD0346172B77
:100B980005D915F0A3FD03461A467B681A60BB69A0
:100BA80047E03B6A013B3B623B6A1F2BC0DC1F23CB
:100BB8003B6232E03B69DB171A467B6A13447B626F
:100BC8003B695B003B617B6AB3F1FF3F22D17B68E5
:100BD8001B6803F00103002B05D03B6AC3F54053A3
:100BE8000133BB6101E03B6ABB617B681B685A0843
:100BF8007B681A607B681B681846FFF7F1FC0346A0
:100C0800172B05D915F06AFD03461A467B681A604A
:100C1800BB690EE03B6A013B3B623B6A002BC9DAC9
:100C2800FB690133FB61FB695F2B7FF75CAF4FF01A
:100C3800FF3318462837BD4680BD00BF80B588B051
:100C480000AF786039607B681B68DBB2FB607B684B
:100C58001B681A0A7B681A607E4AFB6813441B7873
:100C68003B613B6903F01003BB60BB68002B2ED1CE
:100C78007B681B68012B04D1FFF7A2FC02467B6846
:100C88001A603B6903F00F033B617B681B6803F044
:100C98000103002B04D03B69C3F5405301333B618A
:100CA8007B681B685A087B681A607B681B68184653
:100CB800FFF796FC0346172B04D9FFF781FC024681
:100CC8007B681A603B6801221A603B69BEE07B685A
:100CD8001B681846FFF784FC03461A2B04D9FFF754
:100CE8006FFC02467B681A603B6903F00703FB61EF
:100CF8007B681B6803F01F02FB695B011344FB6000
:100D08007B681B685A097B681A607B681B68012B23
:100D180004D1FFF755FC02467B681A604E4AFB680F
:100D280013441B783B613B6903F02003BB60BB683D
:100D3800002B25D13B6903F01F033B617B681B68CF
:100D480003F00103002B04D03B69C3F54053013382
:100D58003B617B681B685A087B681A607B681B6864
:100D68001846FFF73DFC0346172B04D9FFF728FC6C
:100D780002467B681A603B6801221A603B6965E09D
:100D88003B6903F00F03FB610D237B6156E0FB69B0
:100D98005B001A467B681B6803F001031344FB6180
:100DA8007B681B685A087B681A607B681B68012B84
:100DB80004D1FFF705FC02467B681A603623BB6145
:100DC80036E0264BBA696D2101FB02F17A690A44C3
:100DD80053F82230FA69D31AFB61FB69002B24DA35
:100DE8007B681B6803F00103002B05D0BB69C3F5C2
:100DF800405301333B6101E0BB693B617B681B6881
:100E08005A087B681A607B681B681846FFF7E8FB7E
:100E18000346172B04D9FFF7D3FB02467B681A60F9
:100E28003B6800221A603B6910E0BB69013BBB616B
:100E3800BB69002BC5DA7B6901337B617B696C2B4D
:100E4800A5DD3B6800221A604FF0FF3318462037B3
:100E5800BD4680BD5C0000205C0100203C020020F3
:100E680090B585B000AF78600023FB601DE015F0F9
:100E780035FC0346BB60FB68DB007A68D418BB68A6
:100E88009BB21846FFF7CAFB03462360FB68DB00EA
:100E980004337A68D418BB681B0C1846FFF7BEFBEE
:100EA80003462360FB680133FB60FB68FF2BDED938
:100EB800786800F0CDF91437BD4690BD80B582B092
:100EC80000AF78607868FFF719FC786800F0C0F91F
:100ED8000837BD4680BD00BF80B588B000AF7860D8
:100EE8000023FB6129E015F0F9FB03467B61002331
:100EF800BB611FE07B6903F001033B617B695B0811
:100F080003F00103FB60FB68012B05D13B69012B52
:100F180002D14FF440533B61FB695A1CFA619B00B4
:100F28007A6813443A691A607B699B087B61BB69DC
:100F38000133BB61BB690F2BDCD9FB69B3F5007FBB
:100F4800D1D3786800F084F92037BD4680BD00BF52
:100F580080B48FB000AF786001237B6374E07B6B53
:100F680003F001033B637B6B5B0803F00103FB6247
:100F78007B6B9B0803F00103BB627B6BDB0803F010
:100F880001037B627B6B1B0903F001033B627B6BF4
:100F98005B0903F00103FB617B6B9B0903F0010311
:100FA800BB617B6BDB0903F001037B613B6B5A0080
:100FB800FB6A13445A00BB6A13445A007B6A134401
:100FC8005A003B6A13445A00FB6913445A00BB6930
:100FD80013445A007B6913443B613A697B6B9A421C
:100FE8002FD97B6BDB007A6813441B68FB607B6B33
:100FF800DB0004337A6813441B68BB607B6BDB003F
:101008007A6813443A69D20079680A4412681A6007
:101018007B6BDB0004337A6813443A69D2000432EC
:1010280079680A4412681A603B69DB007A681344DD
:10103800FA681A603B69DB0004337A681344BA68BB
:101048001A607B6B01337B637B6BFF2B87D93C3743
:10105800BD465DF8047B704780B485B000AF78600A
:1010680039600023FB6010E0FB689B007A6813443A
:101078001A68FB689B0039680B441B689A4201D0C8
:10108800002307E0FB680133FB60FB68B3F5007FD2
:10109800EADB012318461437BD465DF8047B704728
:1010A80080B493B000AF786000233B6400237B6476
:1010B800C4E07B6C03F00103FB637B6C5B0803F00B
:1010C8000103BB637B6C9B0803F001037B637B6CB0
:1010D800DB0803F001033B637B6C1B0903F001038E
:1010E800FB627B6C5B0903F00103BB627B6C9B09B1
:1010F80003F001037B627B6CDB0903F001033B62B5
:101108007B6C1B0A03F00103FB61FB6B5A00BB6B92
:1011180013445A007B6B13445A003B6B13445A0028
:10112800FB6A13445A00BB6A13445A007B6A13448F
:101138005A003B6A13445A00FB691344BB617B6C39
:101148005B087B617B6C03F001033B61BB695B0857
:10115800FB60BB6903F00103BB60BA697B6C9A4210
:1011680069D9BB68002B05D1FB68DB007A6813449A
:101178001B683B64BB68012B06D1FB68DB000433AA
:101188007A6813441B683B64BB68002B0CD13B692D
:10119800002B09D1FB68DB007A6813447A69D20016
:1011A80079680A4412681A60BB68002B0DD13B6944
:1011B800012B0AD1FB68DB007A6813447A69D200F4
:1011C800043279680A4412681A60BB68012B0DD191
:1011D8003B69002B0AD1FB68DB0004337A681344AF
:1011E8007A69D20079680A4412681A60BB68012BD0
:1011F8000ED13B69012B0BD1FB68DB0004337A6805
:1012080013447A69D200043279680A4412681A6071
:101218003B69002B05D17B69DB007A6813443A6C83
:101228001A603B69012B06D17B69DB0004337A68BD
:1012380013443A6C1A607B6C01337B647B6CB3F5A6
:10124800007FFFF436AF4C37BD465DF8047B70472E
:1012580090B58DB000AF78600023FB6202233B623B
:10126800A0E0824BFA6A33F81230BB61FB6A5A1C61
:101278007E4B33F81230FB61FB6A0133FB620023BB
:10128800BB6287E000237B6274E0BA6A7B6A13441E
:101298009B007A6813441B687B61BA6A7B6A1344B3
:1012A80001339B007A6813441B68FA6902FB03F355
:1012B8001846FFF7B3F93861BA6A7B6A1A443B6A81
:1012C80013449B007A6813441B68FB60BA6A7B6A04
:1012D8001A443B6A134401339B007A6813441B6821
:1012E800FA6902FB03F31846FFF798F9B860BA6A7F
:1012F8007B6A13449B007A68D4187A693B69134463
:101308001846FFF78BF903462360BA6A7B6A1344D1
:1013180001339B007A68D418FA68BB6813441846EE
:10132800FFF77CF903462360BA6A7B6A1A443B6A72
:1013380013449B007A68D4187A693B69D31A184613
:10134800FFF76CF903462360BA6A7B6A1A443B6A62
:10135800134401339B007A68D418FA68BB68D31A1F
:101368001846FFF75BF9034623603B6A5B007A6A1D
:1013780013447B627B6AB3F5007F86DBFB69BA693D
:1013880002FB03F3FB61F869FFF748F9F861BB6AF0
:101398000233BB62BA6A3B6A9A42FFF673AF3B6A92
:1013A8005B003B623B6AB3F5807F7FF75AAF41F23F
:1013B800B753BB6141F6BB23FB610023BB624EE020
:1013C800BB6ADB0004337A6813441B68FA6902FBC2
:1013D80003F33B613869FFF721F93861BB6ADB0029
:1013E8007A6813441B687B61BB6ADB007A68134424
:1013F80079693A690A441A60BB6ADB007A68D418CA
:10140800BB6ADB007A6813441B681846FFF706F9C5
:1014180003462360BB6ADB0004337A6813447969A6
:101428003A698A1A1A60BB6ADB0004337A68D418EE
:10143800BB6ADB0004337A6813441B681846FFF75D
:10144800EDF803462360FB69BA6902FB03F3FB610D
:10145800F869FFF7E3F8F861BB6A0133BB62BB6A5E
:10146800FF2BADDD3437BD4690BD00BF38000020EE
:1014780080B48FB000AF7860396000237B6392E05E
:101488007A6B4D4B1340002B03DA013B63F00103E9
:1014980001333B637B6B5A10474B1340002B03DA35
:1014A800013B63F001030133FB627B6B9A10424BF3
:1014B8001340002B03DA013B63F001030133BB62E5
:1014C8007B6BDA103C4B1340002B03DA013B63F0D3
:1014D800010301337B627B6B1A11374B1340002BDE
:1014E80003DA013B63F0010301333B627B6B5A1162
:1014F800314B1340002B03DA013B63F00103013346
:10150800FB617B6B9A112C4B1340002B03DA013BD8
:1015180063F001030133BB613B6B5A00FB6A134460
:101528005A00BB6A13445A007B6A13445A003B6A48
:1015380013445A00FB6913445A00BB6913447B6186
:101548007A697B6B9A422BDD7B6B9B007A6813442C
:101558001B683B617B6B9B003A6813441B68FB600C
:101568007B6B9B007A6813447A69920079680A4415
:1015780012681A607B6B9B003A6813447A69920080
:1015880039680A4412681A607B699B007A681344B8
:101598003A691A607B699B003A681344FA681A60D2
:1015A8007B6B01337B637B6BFF2B7FF769AF3C372A
:1015B800BD465DF8047B70470100008090B58DB092
:1015C80000AF786000233B6202237B622EE17B6AD6
:1015D800102B21D0102B06DC042B15D0082B17D08C
:1015E800022B0DD02CE0402B1ED0402B02DC202BF0
:1015F80016D025E0802B1BD0B3F5807F1CD01FE0D0
:101608004FF440533B621BE042F63A233B6217E03B
:1016180041F6E7333B6213E042F6E8233B620FE012
:1016280040F6D6533B620BE041F2D5233B6207E01C
:1016380040F292433B6203E041F27B633B6200BFAE
:101648000123FB610023FB62E4E00023BB62D1E0DD
:10165800BA6AFB6A1344DB0004337A6813441B68D4
:10166800FA6902FB03F37B617869FEF7D7FF7861BB
:10167800BA6AFB6A1344DB007A6813441B683B614F
:10168800BA6AFB6A1A447B6AD90F0B445B1013448D
:10169800DB0004337A6813441B68FA6902FB03F31E
:1016A800FB60F868FEF7BAFFF860BA6AFB6A1A448A
:1016B8007B6AD90F0B445B101344DB007A68134430
:1016C8001B68BB60BA6AFB6A1344DB007A68134480
:1016D80039697A690A441A60BA6AFB6A1344DB00FA
:1016E8007A68D418BA6AFB6A1344DB007A68134430
:1016F8001B681846FEF792FF03462360BA6AFB6A26
:101708001A447B6AD90F0B445B101344DB007A68D8
:10171800134439697A698A1A1A60BA6AFB6A1A44E0
:101728007B6AD90F0B445B101344DB007A68D4182A
:10173800BA6AFB6A1A447B6AD90F0B445B101344DC
:10174800DB007A6813441B681846FEF767FF0346F8
:101758002360BA6AFB6A1344DB0004337A681344D3
:10176800B968FA680A441A60BA6AFB6A1344DB006B
:1017780004337A68D418BA6AFB6A1344DB0004336A
:101788007A6813441B681846FEF748FF034623602F
:10179800BA6AFB6A1A447B6AD90F0B445B1013447C
:1017A800DB0004337A681344B968FA688A1A1A6045
:1017B800BA6AFB6A1A447B6AD90F0B445B1013445C
:1017C800DB0004337A68D418BA6AFB6A1A447B6A65
:1017D800D90F0B445B101344DB0004337A681344BD
:1017E8001B681846FEF71AFF03462360BA6A7B6A2D
:1017F8001344BB62BB6AFF2B7FF72AAFFB693A6AC7
:1018080002FB03F3FB61F869FEF708FFF861FB6A66
:101818000133FB627B6ADA0F13445B101A46FB6ADA
:101828009A423FF712AF7B6A5B007B627B6AB3F533
:10183800807F7FF7CCAE40F6C2633B620123FB6139
:101848000023FB6256E0FB6A9B007A6813441B681E
:101858003B61FB6A0133FB62FB6A9B007A681344B5
:101868001B68FA6902FB03F37B617869FEF7D6FE11
:101878007861FB6A03F18043013B9B007A6813445B
:1018880039697A690A441A60FB6A03F18043013BAB
:101898009B007A68D418FB6A03F18043013B9B00E4
:1018A8007A6813441B681846FEF7B8FE034623609F
:1018B800FB6A9B007A68134439697A698A1A1A6044
:1018C800FB6A9B007A68D418FB6A9B007A68134409
:1018D8001B681846FEF7A2FE03462360FB6A013325
:1018E800FB62FB693A6A02FB03F3FB61F869FEF7E6
:1018F80095FEF861FB6AB3F5007FA4DB42F63A2354
:10190800BB6142F27F333B620123FB610023FB6230
:1019180085E0FB6A9B007A681344FA6A920079684A
:101928000A441268F96901FB02F21A60FB6A9B001B
:101938007A68D418FB6A9B007A6813441B681846B7
:10194800FEF76CFE03462360FB6A9B007A6813442B
:10195800FA6A920079680A44126842F6E97101FB52
:1019680002F21A60FB6A9B007A68D418FB6A9B0033
:101978007A6813441B681846FEF750FE0346236036
:10198800FB6A0133FB62FB6A9B007A681344FA6ABC
:10199800920079680A441268B96901FB02F21A6078
:1019A800FB6A9B007A68D418FB6A9B007A68134428
:1019B8001B681846FEF732FE03462360FB6A9B004D
:1019C8007A681344FA6A920079680A44126842F6FF
:1019D800E97101FB02F21A60FB6A9B007A68D4186D
:1019E800FB6A9B007A6813441B681846FEF716FECC
:1019F80003462360FB6A0133FB62FB693A6A02FB18
:101A080003F3FB61F869FEF709FEF861BB693A6AFE
:101A180002FB03F3BB61B869FEF700FEB861FB6A1D
:101A2800B3F5007FFFF675AF3437BD4690BD00BFF4
:101A380080B487B000AFF860B9607A6000237B613A
:101A48001EE07B699B007A6813441B689AB27B6925
:101A58009B00F9680B441B689A420CD17B699B0078
:101A68007A6813441B681A0C7B699B00B9680B449D
:101A78001B689A4201D0002306E07B6901337B6131
:101A88007B69FF2BDDDD012318461C37BD465DF859
:101A9800047B704790B587B000AFF860B9607A6092
:101AA8003B6000237B613EE07B699B00FA6813443E
:101AB8007A699200F9680A4411687A69920078682C
:101AC800024412680A441A607B699B00FA68D418B9
:101AD8007B699B00FA6813441B681846FEF79EFD55
:101AE800034623607B699B00BA6813447A699200B5
:101AF800B9680A4411687A69920038680244126821
:101B08000A441A607B699B00BA68D4187B699B00F9
:101B1800BA6813441B681846FEF780FD0346236025
:101B28007B6901337B617B69FF2BBDDD1C37BD46BB
:101B380090BD00BF90B587B000AFF860B9607A601B
:101B48003B6000237B6140E07B699B00FA6813449B
:101B58007A699200F9680A44126879698900786894
:101B68000144096801FB02F21A607B699B00FA686C
:101B7800D4187B699B00FA6813441B681846FEF763
:101B88004DFD034623607B699B00BA6813447A695C
:101B98009200B9680A441268796989003868014472
:101BA800096801FB02F21A607B699B00BA68D418C5
:101BB8007B699B00BA6813441B681846FEF72EFD24
:101BC800034623607B6901337B617B69FF2BBBDDA7
:101BD8001C37BD4690BD00BF90B587B000AFF86018
:101BE800B9607A603B6000237B613EE07B699B00C3
:101BF800FA6813447A699200F9680A4411687A69A4
:101C080092007868024412688A1A1A607B699B00FD
:101C1800FA68D4187B699B00FA6813441B68184655
:101C2800FEF7FCFC034623607B699B00BA681344FB
:101C38007A699200B9680A4411687A69920038682A
:101C4800024412688A1A1A607B699B00BA68D41821
:101C58007B699B00BA6813441B681846FEF7DEFCD4
:101C6800034623607B6901337B617B69FF2BBDDD04
:101C78001C37BD4690BD00BF80B485B000AF78600A
:101C880039600023FB6021E0FB689B007A681344FD
:101C98001B689AB2FB68DB0039680B441B689A42E0
:101CA80001D0002316E0FB689B007A6813441B6888
:101CB8001A0CFB68DB00043339680B441B689A4232
:101CC80001D0002306E0FB680133FB60FB68FF2BB3
:101CD800DADD012318461437BD465DF8047B7047EA
:101CE80090B587B000AFF860B9607A6000237B6177
:101CF80021E07B699B00FA6813447A699200B9680D
:101D08000A4412687969890078680144096801FB06
:101D180002F21A607B699B00FA68D4187B699B0001
:101D2800FA6813441B681846FEF778FC03462360DC
:101D38007B6901337B617B69B3F5007FD9DB1C3795
:101D4800BD4690BD90B587B000AFF860B9607A60C5
:101D580000237B6120E07B699B00FA6813447A6961
:101D68009200B9680A4411687A6992007868024456
:101D780012680A441A607B699B00FA68D4187B6968
:101D88009B00FA6813441B681846FEF747FC034695
:101D980023607B6901337B617B69B3F5007FDADB04
:101DA8001C37BD4690BD00BF90B587B000AFF86046
:101DB800B9607A603B6000237B6131E07B699B00FE
:101DC800FA6813447A699200B9680A441268796912
:101DD800890078680144096801FB02F21A607B698E
:101DE8009B00FA6813447A699200F9680A441168FA
:101DF8007A6992003868024412680A441A607B695A
:101E08009B00FA68D4187B699B00FA6813441B6826
:101E18001846FEF703FC034623607B6901337B61A8
:101E28007B69B3F5007FC9DB1C37BD4690BD00BF99
:101E380090B587B000AFF860B9607A6000237B6125
:101E480020E07B699B00FA6813447A699200B968BC
:101E58000A4411687A6992007868024412688A1AFA
:101E68001A607B699B00FA68D4187B699B00FA6842
:101E780013441B681846FEF7D1FB034623607B69B1
:101E880001337B617B69B3F5007FDADB1C37BD4624
:101E980090BD00BF80B5ADF5016D00AF07F10C0333
:101EA800186007F1080319603B1D1A6007F10C035D
:101EB8001868FEF7D5FF07F108031868FEF7FEFF5C
:101EC8003B1D1868FFF708F807F1100107F10C022D
:101ED8003B1D084611681A68FFF702FF07F1080161
:101EE80007F1080207F11003086811681A46FFF79E
:101EF8009FFF3B1D1868FFF72BF807F50167BD46E4
:101F080080BD00BF90B5ADF5005D87B000AF07F1AB
:101F180018040C3C206007F118001038016007F124
:101F2800180114390A6007F11802183A13600023DF
:101F380007F5005000F11400036025E007F5005292
:101F480002F1140213689A0007F11803183B1B6882
:101F580013441A6813465B001344DB02194607F161
:101F68001803043B07F5005000F11400026843F819
:101F7800221007F5005202F114021368013307F525
:101F8800005000F11400036007F5005202F114023A
:101F98001368B3F5007FD1DB07F5C05303F11403D1
:101FA8001846FEF7ABFB07F5805303F11803043B13
:101FB8001846FEF7A3FB07F61803043B1846FEF77E
:101FC8009DFB07F61801043907F61802043A07F1D1
:101FD8001803043B084611461A46FFF7B3FE07F5F7
:101FE800C05303F114031846FFF732F907F580537D
:101FF80003F11803043B1846FFF72AF907F61803FC
:10200800043B1846FFF724F907F11802103A07F1C4
:1020180018030C3B07F5C05404F114041068196840
:102028002246FFF75DFE07F11801103907F58052C7
:1020380002F11802043A07F11803103B0868114628
:102048001A68FFF77FFE07F11803143B07F5C05223
:1020580002F11402186807F5005303F12803196800
:10206800FFF73EFE07F11801143907F61802043A83
:1020780007F11803143B086811461A68FFF762FE57
:1020880007F11803103B1868FEF762FF07F1180301
:10209800143B1868FEF75CFF07F500571C37BD4670
:1020A80090BD00BF80B584B000AFF860B9607A60B9
:1020B800F868F9687A68FFF713FEF868F968BA688B
:1020C800FFF740FEF868FFF779FA1037BD4680BD84
:1020D80090B585B000AF78600023FB600CE0FB682A
:1020E8009B007A68D418FEF76BFA034603F00103E5
:1020F8002360FB680133FB60FB68B3F5007FEEDB10
:102108001437BD4690BD00BF80B588B000AFF860F9
:10211800B9607A60786814F0D9FA7B68002B26D108
:102128000023FB611FE0FB690133BB61FB690233DC
:102138007B61FB699B00FA681344BA6991B27A69BA
:1021480012040A441A60FB69DB00BA681344BA69CE
:102158001A60FB69DB000433BA6813447A691A60B1
:10216800FB690133FB61FB69FF2BDCD92BE0002302
:10217800FB6125E0FEF724FA0346C3F30C03BB61B9
:10218800FEF71EFA0346C3F30C037B61FB699B0051
:10219800FA681344BA6991B27A6912040A441A6057
:1021A800FB69DB00BA681344BA691A60FB69DB0093
:1021B8000433BA6813447A691A60FB690133FB6116
:1021C800FB69FF2BD6D92037BD4680BD80B485B0CA
:1021D80000AF786039600023FB6018E0FB689B0063
:1021E8003A681344FA68D20079680A4412681A6097
:1021F800FB6801339B003A681344FA680132D20045
:1022080079680A4412681A60FB680233FB60FB684D
:10221800FF2BE3DD0023FB601DE0FB6803F5807303
:102228009B003A681344FA68D200043279680A4479
:1022380012681A60FB6803F201139B003A681344A2
:10224800FA680132D200043279680A4412681A60C6
:10225800FB680233FB60FB68FF2BDEDD1437BD46ED
:102268005DF8047B704700BF80B588B000AFF860A8
:10227800B9607A60F86814F029FAFB68002B27D156
:102288000023FB6120E0FB695B00BB61FB695B002D
:1022980001337B61FB699B00BA681344BA6991B248
:1022A8007A6912040A441A60FB69DB007A681344ED
:1022B800BA691A60FB69DB0004337A6813447A69E7
:1022C8001A60FB690133FB61FB69FF2BDBD92BE04B
:1022D8000023FB6125E0FEF773F90346C3F30D0302
:1022E800BB61FEF76DF90346C3F30D037B61FB6920
:1022F8009B00BA681344BA6991B27A6912040A4415
:102308001A60FB69DB007A681344BA691A60FB69D2
:10231800DB0004337A6813447A691A60FB69013375
:10232800FB61FB69FF2BD6D92037BD4680BD00BFB6
:102338002DE9F05F8346714A714DDFF8C881DFF8F7
:10234800C8914FF0FF310EB514F0C8F940F00040C5
:10235800BDE80E40DFF8B4C1C4B24FEA102001282E
:1023680000F307800EB514F0B9F940F00040BDE85D
:102378000E40135D5C0980F007804008C0F0A5801E
:10238800A5EB030300F0A1B8B0FA80F41A2C40F3CF
:1023980007800EB514F0A2F940F00040BDE80E40E9
:1023A80003F0070600F01F0404EB46144FEA501030
:1023B800012800F307800EB514F090F940F00040B2
:1023C800BDE80E4019F804309C0980F0098003F03C
:1023D8001F034008C0F07980A5EB030300F075B82F
:1023E80003F00F064FF0000400F0010A40080AEB62
:1023F8004606012800F307800EB514F06FF940F087
:102408000040BDE80E4058F824A04FF02003BAFA67
:102418008AF707F101070AFA07FAA3EB0703013E57
:1024280000F14E80BAF1000F7FF4F1AF04F101041E
:10243800192CFFF6D9AFDFF8D89000F0010A4FEA5F
:1024480050000AEB4606012800F307800EB514F089
:1024580045F940F00040BDE80E402E4BA4EB0303C5
:1024680059F823A0BAF1000F00F011804FF037039C
:10247800BAFA8AF707F101070AFA07FAA3EB070382
:10248800013E00F11B80BAF1000F7FF4F1AF4FF06D
:10249800200358F824A0BAFA8AF707F101070AFAC4
:1024A80007FAA3EB0703013E00F10880BAF1000F19
:1024B8007FF4F1AF04F10104FFF7BFBFDFF84890E4
:1024C8004008C0F00280A5EB0303B0FA80F6172E8F
:1024D80040F307800EB514F001F940F00040BDE864
:1024E8000E4003EB0E4E4F0838BF4BF811E001F1D8
:1024F800010161457FF430AFBDE8F09F5C0000202A
:1025080001300000E86500205C010020FF010000A8
:10251800E8680020190000002DE9F05F83467B4A37
:102528007B4DDFF8F081DFF8F0914FF0FF310EB509
:1025380014F0D4F840F00040BDE80E40DFF8DCC1EC
:10254800C4B24FEA1020012800F307800EB514F03A
:10255800C5F840F00040BDE80E40135D5C0980F00E
:1025680007804008C0F0A780A5EB030300F0A3B8DC
:10257800B0FA80F41A2C40F307800EB514F0AEF8C8
:1025880040F00040BDE80E4003F0070600F01F04CD
:1025980004EB46144FEA5010012800F307800EB5EB
:1025A80014F09CF840F00040BDE80E4019F80430E3
:1025B8009C0980F0098003F01F034008C0F07B806D
:1025C800A5EB030300F077B803F00F064FF0000403
:1025D80000F0010A40080AEB4606012800F30780CC
:1025E8000EB514F07BF840F00040BDE80E4058F8F6
:1025F80024A04FF02003BAFA8AF707F101070AFA74
:1026080007FAA3EB0703013E00F14E80BAF1000F71
:102618007FF4F1AF04F10104192CFFF6D9AFDFF80C
:10262800009100F0010A4FEA50000AEB4606012823
:1026380000F307800EB514F051F840F00040BDE8F3
:102648000E40384BA4EB030359F823A0BAF1000F4E
:1026580000F011804FF03703BAFA8AF707F1010743
:102668000AFA07FAA3EB0703013E00F11B80BAF14F
:10267800000F7FF4F1AF4FF0200358F824A0BAFA06
:102688008AF707F101070AFA07FAA3EB0703013EE5
:1026980000F10880BAF1000F7FF4F1AF04F10104F2
:1026A800FFF7BFBFDFF870904008C0F01980A5EBB6
:1026B800030300F015B8B0FA80F6172E40F3078030
:1026C8000EB514F00BF840F00040BDE80E4001F1E3
:1026D80001012BF8113061457FF432AFBDE8F09F5E
:1026E800B0FA80F6172E40F307800EB513F0F6FF08
:1026F80040F00040BDE80E402BF81C30ACF1010C56
:1027080061457FF41DAFBDE8F09F00005C0000202C
:1027180001300000E86500205C010020FF01000096
:10272800E8680020190000000146DFF80C3A83FB36
:102738000103DA0A13019B1A02EB4323C81AF7466E
:10274800DFF8F819B0FBF1F201FB1200F746DFF8E9
:10275800E839014683FB0103DA12B2EBE172130197
:102768009B1A02EB4323C81AF7460028C0F20C80D4
:102778000146DFF8C43983FB0103DA0A13019B1A07
:1027880002EB4323C81AF746DFF8B01990FBF1F2C1
:102798004FF00103A3EB020303FB0100F746DFF848
:1027A8009839014683FB0103DA12B2EBE172130197
:1027B8009B1A02EB4323C81A002980F20380DFF832
:1027C8007C190844F7460028C0F20C800146DFF85F
:1027D800683983FB0103DA0A13019B1A02EB4323CE
:1027E800C81AF746DFF8502982FB0012D212C31725
:1027F800D21ADFF848194FF00103A3EB020303FBD9
:102808000100F7460028C0F20C800146DFF828399D
:1028180083FB0103DA0A13019B1A02EB4323C81A4C
:10282800F746C0F100000146DFF80C3983FB0103CD
:10283800DA0A13019B1A02EB4323C81ADFF8FC18C3
:10284800A1EB0000F746DFF8F4180028BABF4042B1
:102858000B460023B0FBF1F202FB1102A3EB0202CC
:102868001046F746DFF8D4180028BABF40420B4696
:102878000023B0FBF1F202FB1102A3EB0200F746C2
:102888002DE93040DFF8B03881B2A3FB0124E20A19
:102898001401A41A02EB44240D1B1FFAA0F1A3FB98
:1028A8000124E20A1401A41A02EB44240B1B05EBD1
:1028B8000340BDE830802DE9F040DFF880784FF024
:1028C800000351F8234052F8235094FA45F4A6B275
:1028D800BE4258BFF61B4FEA1444BC4258BFE41B23
:1028E80006EB044440F8234003F10103B3F5807F6D
:1028F8007FF4E7AFBDE8F0802DE9F041DFF83C88D0
:102908004FF0000351F8234052F8235014FB35F6DA
:10291800B6FBF8F708FB176614FB05F4B4FBF8F7E9
:1029280008FB174404EB064440F8234003F1010375
:10293800B3F5807F7FF4E6AFBDE8F0812DE9F0477D
:10294800DFF8F8874FF0000A51F82A4052F82A5069
:1029580053F82A9014FB35F606EB1946B6FBF8F740
:1029680008FB176614FB05F41FFA89F94C44B4FBFD
:10297800F8F708FB174404EB064440F82A400AF12C
:10298800010ABAF5807F7FF4DFAFBDE8F0872DE953
:10299800F001DFF8A8874FF0000351F8234052F800
:1029A8002350D4FA05F634B2002CB8BF6442B4FB05
:1029B800F8F707FB1847B8BFA8EB07070FFAA6F503
:1029C800002DB8BF6D42B5FBF8F404FB1854B8BF2E
:1029D800A8EB040407EB044440F8234003F1010387
:1029E800B3F5807F7FF4D9AFBDE8F001F7462DE954
:1029F800F05FDFF84817DFF8483708B44FF00202F5
:102A080008BC1C6803F1020308B44FF001084FF03A
:102A180000064FF0000706EB070950F829301FFAA7
:102A280083FA13FB28FBBBFBF1FC01FB1CBB0AEB85
:102A38000B0C8C4558BFACEB010CBAEB0B0E48BF26
:102A48008E4409EB520950F8293013FB28FB9BB23E
:102A5800BBFBF1FA01FB1ABBB3EB0B0A48BF8A4474
:102A68000EEB0A4A40F829A003EB0B0A8A4558BF27
:102A7800AAEB010A0CEB0A4C06EB070940F829C03F
:102A88001744B7F5807FFFF6C6AF18FB04F8B8FB0C
:102A9800F1F901FB198806F10106B6EB520F3FF573
:102AA800B8AF4FEA4202B2F5807F7FF7A9AFDFF8EF
:102AB80094464FF001084FF0000950F829301FFAEA
:102AC80083FA13FB28FBBBFBF1FC01FB1CBB0AEBE5
:102AD8000B0C8C4558BFACEB010CBAEB0B0E48BF86
:102AE8008E440CEB0E4C40F829C018FB04F8B8FBD8
:102AF800F1F301FB138809F10109B9F5807FFFF6AD
:102B0800DCAFDFF84436DFF84446DFF844764FF0B0
:102B180001084FF0000950F829A01AFB08FBBBFB7D
:102B2800F1FC01FB1CBB1BFB07FBBBFBF1FC01FB26
:102B38001CBB1AFB23FEBEFBF1FC01FB1CEE1EFBBB
:102B480007FEBEFBF1FC01FB1CEE0BEB0E4B40F845
:102B580029B018FB04F8B8FBF1FA01FB1A8813FB3B
:102B680004F3B3FBF1FA01FB1A3309F10109B9F5D2
:102B7800807FFFF6D0AF08BCBDE8F09F2DE9F05F7D
:102B8800DFF8B815DFF8CC3508B44FF0020208BCFE
:102B98001C681FFAA4F8A4B203F1020308B44FF0AA
:102BA80000064FF0000706EB070950F829301FFA16
:102BB80083FA13FB28FBBBFBF1FC01FB1CBB0AEBF4
:102BC8000B0C8C4558BFACEB010CBAEB0B0E48BF95
:102BD8008E4409EB520950F8293013FB28FB9BB2AD
:102BE800BBFBF1FA01FB1ABBB3EB0B0A48BF8A44E3
:102BF8000EEB0A4A40F829A003EB0B0A8A4558BF96
:102C0800AAEB010A0CEB0A4C06EB070940F829C0AD
:102C18001744B7F5807FFFF6C6AF18FB04F8B8FB7A
:102C2800F1F901FB198806F10106B6EB520F3FF5E1
:102C3800B8AF4FEA4202B2F5807F7FF7A8AFDFF85E
:102C48001845DFF818854FF0000950F829301FFAA9
:102C580083FA13FB28FBBBFBF1FC01FB1CBB0AEB53
:102C68000B0C8C4558BFACEB010CBAEB0B0E48BFF4
:102C78008E440CEB0E4C40F829C018FB04F8B8FB46
:102C8800F1F301FB138809F10109B9F5807FFFF61B
:102C9800DCAF08BCBDE8F09F2DE9F05FDFF89C14BD
:102CA800DFF8B03408B44FF0020208BC1C681FFA01
:102CB800A4F8A4B203F1020308B44FF000064FF0E1
:102CC800000706EB070950F829301FFA83FA13FBAF
:102CD80028FBBBFBF1FC01FB1CBB0AEB0B0C8C4576
:102CE80058BFACEB010CBAEB0B0E48BF8E4409EB96
:102CF800520950F8293013FB28FB9BB2BBFBF1FAB1
:102D080001FB1ABBB3EB0B0A48BF8A440EEB0A4A15
:102D180040F829A003EB0B0A8A4558BFAAEB010A21
:102D28000CEB0A4C06EB070940F829C000F5806057
:102D380006EB070950F829301FFA83FA13FB28FB22
:102D4800BBFBF1FC01FB1CBB0AEB0B0C8C4558BF11
:102D5800ACEB010CBAEB0B0E48BF8E4409EB5209E1
:102D680050F8293013FB28FB9BB2BBFBF1FA01FB9F
:102D78001ABBB3EB0B0A48BF8A440EEB0A4A40F869
:102D880029A003EB0B0A8A4558BFAAEB010A0CEBF2
:102D98000A4C06EB070940F829C000F5806006EBED
:102DA800070950F829301FFA83FA13FB28FBBBFBED
:102DB800F1FC01FB1CBB0AEB0B0C8C4558BFACEBC0
:102DC800010CBAEB0B0E48BF8E4409EB520950F8C0
:102DD800293013FB28FB9BB2BBFBF1FA01FB1ABBA2
:102DE800B3EB0B0A48BF8A440EEB0A4A40F829A005
:102DF80003EB0B0A8A4558BFAAEB010A0CEB0A4CF5
:102E080006EB070940F829C0A0F500601744B7F59C
:102E1800807FFFF656AF18FB04F8B8FBF1F901FB09
:102E2800198806F10106B6EB520F3FF548AF4FEA95
:102E38004202B2F5807F7FF738AFC74CDFF81C83BA
:102E48004FF0000950F829301FFA83FA13FB28FBCA
:102E5800BBFBF1FC01FB1CBB0AEB0B0C8C4558BF00
:102E6800ACEB010CBAEB0B0E48BF8E440CEB0E4CCE
:102E780040F829C000F5806050F829301FFA83FA1D
:102E880013FB28FBBBFBF1FC01FB1CBB0AEB0B0C87
:102E98008C4558BFACEB010CBAEB0B0E48BF8E4407
:102EA8000CEB0E4C40F829C000F5806050F8293032
:102EB8001FFA83FA13FB28FBBBFBF1FC01FB1CBBCD
:102EC8000AEB0B0C8C4558BFACEB010CBAEB0B0EA4
:102ED80048BF8E440CEB0E4C40F829C0A0F50060AA
:102EE80018FB04F8B8FBF1F301FB138809F1010999
:102EF800B9F5807FFFF6A6AF08BCBDE8F09F2DE9C5
:102F080010404FF0010191FAA1F24FEA12628A4291
:102F180040F3088050F8213050F8224040F8214012
:102F280040F8223001F10101B1F5807FFFF6EBAFE7
:102F3800BDE810802DE9F040804C07464FF00005B1
:102F48000EB513F0CBFBBDE80E4086B2B6FBF4F12C
:102F580004FB11661FFAA0F0B0FBF4F104FB1100AA
:102F680006EB004647F8256005F10105B5F5807FB9
:102F78007FF4E6AF3846FFF701FEBDE8F0802DE9A3
:102F8800F04104464FF440574FF000090EB513F0D6
:102F9800A5FBBDE80E4000F001068008C0F00280E5
:102FA80006FB07F600F001088008C0F0028008FB65
:102FB80007F806EB084644F8296009F1010900F012
:102FC80001068008C0F0028006FB07F600F0010841
:102FD8008008C0F0028008FB07F806EB084644F8B2
:102FE800296009F1010900F001068008C0F002809B
:102FF80006FB07F600F001088008C0F0028008FB15
:1030080007F806EB084644F8296009F1010900F0C1
:1030180001068008C0F0028006FB07F600F00108F0
:103028008008C0F0028008FB07F806EB084644F861
:10303800296009F1010900F001068008C0F002804A
:1030480006FB07F600F001088008C0F0028008FBC4
:1030580007F806EB084644F8296009F1010900F071
:1030680001068008C0F0028006FB07F600F00108A0
:103078008008C0F0028008FB07F806EB084644F811
:10308800296009F1010900F001068008C0F00280FA
:1030980006FB07F600F001088008C0F0028008FB74
:1030A80007F806EB084644F8296009F1010900F021
:1030B80001068008C0F0028006FB07F600F0010850
:1030C8008008C0F0028008FB07F806EB084644F8C1
:1030D800296009F10109B9F5807F00F00480B9F58C
:1030E800807F7FF453AF2046FFF748FDBDE8F081AD
:1030F800F74630B41A4A4FF0000551F8253013FB53
:1031080002F413FB22F304EB034440F8254005F1D5
:103118000105B5F5807F7FF4F0AF30BCF7462DE9A7
:10312800F0404FF000064FF000070E4D0E49C5FB6A
:10313800C167BDE8F0800000851CA7AA0130000027
:103148004C000020C20E00003A2A00007F23000035
:10315800E92F000038000020B7150000BB1A000056
:1031680000180000020001000400030080B582B0CE
:1031780000AF78607868FFF7DBF87868FFF7FEFC47
:103188000837BD4680BD00BF80B5ADF5826D00AF84
:1031980007F10C03186007F1080319603B1D1A605A
:1031A80007F10C031868FFF7C5FE07F10803186854
:1031B800FFF7DCFF3B1D1868FFF7E1FE07F1100180
:1031C80007F10C023B1D084611681A68FFF794FBCB
:1031D80007F1080107F1080207F1100308681168F0
:1031E8001A46FFF7D4FB3B1D1868FFF788FE07F562
:1031F8008267BD4680BD00BF80B584B000AFF8606F
:10320800B9607A60F868F9687A68BB68FFF796FB76
:10321800F868FFF7ECFB1037BD4680BD90B5ADF2FE
:10322800144D00AF07F10C04206007F1080001609D
:10323800391D0A603A46136007F110023B461046F2
:103248001968FFF756FF1948FFF772F81848FFF793
:103258006FF81848FFF76CF807F11003154815497F
:103268001A46FFF728FB1148FFF716FD07F1080279
:1032780007F10C03106819680C4A0D4BFFF75EFB49
:103288003B1D1868D7F82014084A0A4BFFF756FB6D
:1032980007F108031868FFF732FE3B1D1868FFF7AF
:1032A8002EFE07F21447BD4690BD00BFD87200201D
:1032B800D8760020D87A0020B0B584B000AF786006
:1032C8000023FB6029E0FB689B007A68D41813F0A0
:1032D80005FA0246144B1340002B03DA013B63F056
:1032E800010301332360FB689B007A68D418FB68EC
:1032F8009B007A6813441D6813F0F0F902460A4BE4
:103308001340002B03DA013B63F0010301331B0474
:103318002B442360FB680133FB60FB68FF2BD2DD85
:103328001037BD46B0BD00BF0100008080B485B035
:1033380000AF786039600023FB6018E0FB68DA0FA3
:1033480013445B109B003A681344FA68920079684A
:103358000A44126891B2FA6801329200786802440D
:10336800126812040A441A60FB680233FB60FB68A7
:10337800FF2BE3DD0023FB601AE0FB68DA0F134440
:103388005B1080339B003A681A44FB689B0079689D
:103398000B441B68190CFB6801339B0078680344D5
:1033A8001B681B0C1B040B441360FB680233FB6097
:1033B800FB68FF2BE1DD1437BD465DF8047B7047E1
:1033C80080B483B000AF786039603B689AB27B689C
:1033D8001B681B0C1B041A447B681A600C37BD461B
:1033E8005DF8047B704700BF80B483B000AF78609D
:1033F80039603B681A047B681B689BB21A447B6877
:103408001A600C37BD465DF8047B704780B592B0F2
:1034180000AF786000237B641AE17A6C904B13400C
:10342800002B03DA013B63F001030133FB637B6C80
:103438005A108B4B1340002B03DA013B63F0010356
:103448000133BB637B6C9A10854B1340002B03DA66
:10345800013B63F0010301337B637B6CDA10804B23
:103468001340002B03DA013B63F0010301333B6394
:103478007B6C1A117A4B1340002B03DA013B63F083
:1034880001030133FB627B6C5A11754B1340002B0F
:1034980003DA013B63F001030133BB627B6C9A11D1
:1034A8006F4B1340002B03DA013B63F00103013338
:1034B8007B627B6CDA116A4B1340002B03DA013B09
:1034C80063F0010301333B627B6CDA0F13445B103A
:1034D800FB617A6C624B1340002B03DA013B63F00B
:1034E80001030133BB617B6C1A125D4B1340002B47
:1034F80003DA013B63F0010301337B61FB6B5A0084
:10350800BB6B13445A007B6B13445A003B6B134448
:103518005A00FB6A13445A00BB6A13445A007B6A78
:1035280013445A003B6A13445A007B6913443B61B5
:103538003B69DA0F13445B10FB603A69484B134050
:10354800002B03DA013B63F001030133BB603A69E6
:103558007B6C9A4279DDBB68002B06D1FB689B0027
:103568007A6813441B689BB23B64BB68012B06D185
:10357800FB689B007A6813441B681B0C3B64BB68A0
:10358800002B0FD1BB69002B0CD1FB689B007A681C
:103598001A44FB699B0079680B441B68104619465E
:1035A800FFF70EFFBB68002B10D1BB69012B0DD1B3
:1035B800FB689B007A681A44FB699B0079680B4496
:1035C8001B681B0C10461946FFF7FAFEBB68012B57
:1035D8000FD1BB69002B0CD1FB689B007A681A4499
:1035E800FB699B0079680B441B6810461946FFF776
:1035F800FBFEBB68012B10D1BB69012B0DD1FB6809
:103608009B007A681A44FB699B0079680B441B6825
:103618001B0C10461946FFF7E7FEBB69002B08D1C3
:10362800FB699B007A681A443B6C10461946FFF701
:10363800C7FEBB69012B08D1FB699B007A681A4455
:103648003B6C10461946FFF7CFFE7B6C01337B6459
:103658007B6CB3F5007FFFF6E0AE4837BD4680BD12
:103668000100008080B584B000AFF860B9607A606E
:10367800F868FFF783FAB868FFF780FA7868F9689E
:10368800BA68FFF739F97868FFF739FC7868FFF707
:10369800AEF91037BD4680BD80B485B000AF786004
:1036A800396000237B7204E07B681B685A1C7B68C6
:1036B8001A607B681B681B78FB72FB7A202BF3D09F
:1036C800FB7A2D2B0AD101237B727B681B685A1C5D
:1036D8007B681A607B681B681B78FB72FB7A302B4F
:1036E80039D17B681B685A1C7B681A607B681B6829
:1036F8001B78FB72FB7A202B04D83B6800221A60E7
:1037080001236CE0FB7A782B0BD11023BB727B680A
:103718001B685A1C7B681A607B681B681B78FB72E5
:1037280023E0FB7A622B0BD10223BB727B681B68F8
:103738005A1C7B681A607B681B681B78FB7214E054
:10374800FB7A2F2B05D9FB7A392B02D80823BB72B9
:103758000BE0002343E0FB7A302B02D9FB7A392BAC
:1037680001D900233BE00A23BB720023FB6029E058
:10377800FB7A602B02D9FB7A203BFB72FB7A303B49
:10378800FB72FB7A102B07D9FB7A073BFB72FB7A9B
:10379800092B01D8002322E0FA7ABB7A9A4201D396
:1037A80000231CE0BB7AFA6802FB03F2FB7A13449D
:1037B800FB607B681B685A1C7B681A607B681B6807
:1037C8001B78FB72FB7A202BD2D87B7A002B02D095
:1037D800FB685B42FB60FA683B681A600123184685
:1037E8001437BD465DF8047B704700BF80B582B0D2
:1037F80000AF0346FB71FB790A2B02D10D2000F0C4
:1038080009FBFB79184600F005FB0837BD4680BD6B
:1038180080B582B000AF786006E07B685A1C7A6099
:103828001B781846FFF7E2FF7B681B78002BF4D162
:103838000837BD4680BD00BF80B58CB000AFF860CA
:10384800B9607A60002387F82E30202387F82D305E
:10385800002387F82C30BB68002B0BDABB685B426F
:10386800BB60FB68002B05DAFB685B42FB602D231D
:1038780087F82E30FB68BB62BB6887F827307B6807
:10388800002B05DA7B685B427B60302387F82D309C
:103898007B68142B62DC97F82720BB6AB3FBF2F134
:1038A80002FB01F29B1A87F82F3097F82F30092B6B
:1038B80004D997F82F30073387F82F3097F82F302F
:1038C800303387F82F3097F82C305A1C87F82C2083
:1038D80007F13002134497F82F2003F8202C97F8AB
:1038E8002730BA6AB2FBF3F3BB62BB6A002BD2D1B2
:1038F80097F82E30002B0CD097F82C305A1C87F8EC
:103908002C2007F13002134497F82E2003F8202CBE
:103918000CE00BE097F82C305A1C87F82C2007F1A4
:103928003002134497F82D2003F8202C97F82C2008
:103938007B689A42EEDB97F82C30013B87F82C30F5
:1039480097F82C3007F13002134413F8203C18463E
:10395800FFF74CFF97F82C30002BECD13037BD46E1
:1039680080BD00BF0FB480B586B000AF07F1240357
:103978003B60A2E07B69252B05D07B69DBB218464A
:10398800FFF734FF99E03B6A5A1C3A621B787B6167
:1039980000237B607B68BB60BB683B613B69FB6065
:1039A8007B69302B07D13B6A5A1C3A621B787B61D2
:1039B8000123BB6011E010E0FA6813469B00134432
:1039C8005B001A467B69303B1344FA681344FB607A
:1039D8003B6A5A1C3A621B787B617B692F2B02DD9C
:1039E8007B69392BE8DDBB68002B02D0FB685B42A2
:1039F800FB607B696C2B06D101237B603B6A5A1CF8
:103A08003A621B787B617B69002B00D15EE07B69A1
:103A1800732B07D13B681A1D3A601B681846FFF7DD
:103A2800F7FE4AE07B69632B08D13B681A1D3A60B0
:103A38001B68DBB21846FFF7D9FE3EE07B69752BA1
:103A480001D10A233B617B69642B02D16FF0090322
:103A58003B617B69582B02D07B69782B01D11023FD
:103A68003B617B69622B01D102233B613B69002BDF
:103A780000D12BE07B68002B09D03B681A1D3A6007
:103A88001B6818463969FA68FFF7D6FE15E03B69E6
:103A9800002B09DD3B681A1D3A601B681846396916
:103AA800FA68FFF7C9FE08E03B681A1D3A601B6810
:103AB80018463969FA68FFF7BFFE3B6A5A1C3A6232
:103AC8001B787B617B69002B7FF454AF1837BD46A8
:103AD800BDE8804004B0704780B586B000AFF8609C
:103AE800B9607A601F48B968FFF73CFF0023FB758F
:103AF8000AE0FB7DFA6813441B781B481946FFF758
:103B080031FFFB7D0133FB75FA7D7B689A42F0DB60
:103B18002020FFF76BFE0023FB7519E0FB7DFA6898
:103B280013441B781F2B05D9FB7DFA6813441B78B7
:103B38007E2B03D92E20FFF759FE06E0FB7DFA689D
:103B480013441B781846FFF751FEFB7D0133FB75C4
:103B5800FA7D7B689A42E1DB0A20FFF747FE1837B7
:103B6800BD4680BD0CC2010814C2010880B584B0EE
:103B780000AF786039600023FB6000F043F903462A
:103B8800FB72FB7A0D2B00D128E0FB7A082B10D1B1
:103B9800FB68002B0DD0FB68013BFB60FB7A1846E5
:103BA800FFF724FE2020FFF721FEFB7A1846FFF7D7
:103BB8001DFEFB7A1F2B10D93B685A1EFB689A42E0
:103BC8000BDDFB685A1CFA607A681344FA7A1A709B
:103BD800FB7A1846FFF70AFECFE7CEE7FB687A685C
:103BE800134400221A700A20FFF700FE1037BD4662
:103BF80080BD00BF80B588B000AFF860B9607A605A
:103C08000023FB6100F0F6F80346002B3ED07B68EA
:103C18001B68BB6100F0F6F80346FB75FB7D0D2BB6
:103C28000AD1BB69FA68134400221A700A20FFF708
:103C3800DDFD0123FB6126E0FB7D082B10D1BB696C
:103C4800002B0DD0BB69013BBB61FB7D1846FFF71C
:103C5800CDFD2020FFF7CAFDFB7D1846FFF7C6FD06
:103C6800FB7D1F2B0FD9BB685A1EBB699A420ADD20
:103C7800BB695A1CBA61FA681344FA7D1A70FB7D55
:103C88001846FFF7B3FD7B68BA691A60FB691846E6
:103C98002037BD4680BD00BF80B58AB000AF7860D0
:103CA800102001210CF00AF8022001210BF08EFFF0
:103CB800C0233B62022387F82430022387F825308B
:103CC800002387F82630012387F8273007F12003DF
:103CD8001C48194609F004FF1A48062107220AF071
:103CE8006DF81848072107220AF068F87B683B61DD
:103CF8000023BB820023FB8200233B830023BB837A
:103D08000C237B8307F110030F48194610F06CFA57
:103D18000D4840F22551012210F0A0FD25233B73E8
:103D280000237B730023BB730123FB7307F10C0390
:103D3800184602F06DFB0448012110F06BFB283790
:103D4800BD4680BD000402400010014080B582B02D
:103D580000AF7860396012E000BF7B681B889BB2B7
:103D680003F04003002BF8D03B681B78DBB278687F
:103D7800194610F0CDFB3B685A1C3A601B783B682B
:103D88001B78DBB2002BE7D10837BD4680BD00BFEA
:103D980080B582B000AF144840F2255110F0D2FD32
:103DA8000346002B1DD0104B9B889BB2FB71FB79FF
:103DB8000A2B0FD00D4B1B780B2B0BD80B4B1B78FA
:103DC8000B4AF979D154094B1B780133DAB2074B06
:103DD8001A7006E0054B00221A7003480449FFF7E1
:103DE800B5FF0837BD4680BD00100140F47E0020B5
:103DF8003C7F002080B400AF1846BD465DF8047BC8
:103E0800704700BF80B400AF1846BD465DF8047B1C
:103E1800704700BF80B582B000AF0346FB7100BF9A
:103E2800074B1B889BB203F04003002BF8D0FB79AB
:103E38009BB20348194610F06BFB0837BD4680BD9E
:103E48000010014080B500AF4FF41650FFF724FF73
:103E580080BD00BF80B586B000AFF860B9607A60F9
:103E6800BA68FB68D21A3B6AD31A7B617B687A69A5
:103E7800B2FBF3F33B6103483969FFF773FD183769
:103E8800BD4680BD1CC2010880B5ADF5E04D84B0CB
:103E980000AF214B204AD26842F08072DA601F4B93
:103EA80000225A601D4B1D4A126842F001021A6036
:103EB8001A4B5B6807F5E04101F10C010B60174BE9
:103EC8005B6807F5E04202F10802136007F5E0437A
:103ED80003F108031A6807F5E04101F10C010B68CA
:103EE800D31A1A464FF0000307F5E041C1E9002351
:103EF80007F5E04213680A481946FFF733FD074BF8
:103F08005B6807F5E04101F108010B6007F5E04740
:103F18001037BD4680BD00BFF0ED00E0001000E0A6
:103F280038C2010880B483B000AF786039607B681C
:103F38001A683B681B68D31A18460C37BD465DF8EB
:103F4800047B704780B483B000AF786039607B68C9
:103F58001B881A463B681B88D31A18460C37BD467F
:103F68005DF8047B704700BF80B485B000AF78600F
:103F780039600023FB600DE0FB685B003A6813447E
:103F8800FA68920079680A44126892B21A80FB684B
:103F98000133FB60FB68B3F5007FEDDB1437BD46EA
:103FA8005DF8047B704700BF80B586B000AFF8604D
:103FB800B9607A6000237B6114E07B695B00FA6872
:103FC80013441A887B695B00B9680B441B889A42C2
:103FD80005D009487969FFF7C5FC002307E07B692C
:103FE80001337B617A697B689A42E6DB01231846D4
:103FF8001837BD4680BD00BF4CC2010890B5ADF56D
:104008002C4D8FB002AFC548FFF702FCC448FFF73C
:10401800FFFB002307F52C4000F124000360002378
:1040280007F52C4101F12C010B60B6E007F52C4394
:1040380003F12C031A68BB4B83FB02035911D317F6
:10404800CB1A642101FB03F3D31A002B02D1B64823
:10405800FFF788FC07F52C4101F12C010B6807F5E7
:104068002C4000F12C00026802FB03F3184612F002
:104078002DFB07F5C15303F110032C3B1846FCF741
:10408800A3FB07F52C4101F12C010B6807F52C4027
:1040980000F12C00026802FB03F3184612F016FB2D
:1040A80007F5005303F130032C3B1846FCF758FB87
:1040B80007F52C4101F12C010B6807F52C4000F1A4
:1040C8002C00026802FB03F3184612F0FFFA07F50A
:1040D800205303F130032C3B1846FEF71DFA07F571
:1040E800205202F130022C3A07F5C15303F11003B4
:1040F8002C3B104619464FF40072FFF755FF034654
:10410800012B09D08948FFF783FB012307F52C41D0
:1041180001F124010B6049E007F5C15303F11003D5
:104128002C3B18464FF400710222814B12F020F804
:1041380007F5005303F130032C3B18464FF4007188
:1041480002227B4B12F014F807F5005202F13002FC
:104158002C3A07F5C15303F110032C3B10461946BE
:104168004FF40072FFF720FF0346012B0AD0714875
:10417800FFF74EFB012307F52C4202F124021360DE
:1041880000BF13E007F52C4000F12C000368013351
:1041980007F52C4101F12C010B6007F52C4202F1C7
:1041A8002C021368B3F57A7FFFF640AF07F52C4071
:1041B80000F124000368012B03D15F48FFF728FBB7
:1041C80002E05E48FFF724FB5D48FFF721FB002370
:1041D80007F52C4101F124010B60002307F52C425F
:1041E80002F12C02136072E007F52C4303F12C0353
:1041F8001A684C4B83FB02035911D317CB1A64215D
:1042080001FB03F3D31A002B02D14748FFF7AAFB9F
:1042180007F52C4101F12C010B6807F52C4000F142
:104228002C00026802FB03F3184612F04FFA07F558
:10423800244303F104031846FEF76EF907F52C41F1
:1042480001F12C010B6807F52C4000F12C000268E5
:1042580002FB03F3184612F039FA07F51C4303F181
:1042680010030C3B1846FCF749FA07F51C4202F10B
:1042780010020C3A07F5205303F130032C3B10468B
:104288001946FFF771FE07F5205303F130032C3B65
:1042980007F5244202F10402184611464FF48072D1
:1042A800FFF782FE0346002B06D1012307F52C41B8
:1042B80001F124010B6012E007F52C4202F12C02F7
:1042C8001368013307F52C4000F12C00036007F553
:1042D8002C4101F12C010B68B3F57A7F84DB07F5DB
:1042E8002C4202F124021368012B03D11548FFF771
:1042F8008FFA02E01148FFF78BFA1348FFF732FBF9
:10430800002307F52C4000F124000360002307F583
:104318002C4101F12C010B6074E000BF54C201086C
:1043280060C201081F85EB5178C201087CC20108F0
:104338004D3F000898C20108B0C20108B8C2010880
:10434800C0C20108D8C20108E0C2010807F52C4321
:1043580003F12C031A68484B83FB02035911D31746
:10436800CB1A642101FB03F3D31A002B02D1434873
:10437800FFF7F8FA07F52C4101F12C010B681846F4
:1043880012F0A4F907F5244303F104031846FDF7D6
:10439800CFFF07F52C4202F12C021368184612F0E1
:1043A80095F907F51C4303F110030C3B1846FCF77D
:1043B800A5F907F5244202F1040207F51C4303F1AD
:1043C80010030C3B10461946FDF756FC0346002B1C
:1043D8000DD12B4807F52C4303F12C031968FFF77F
:1043E800C1FA012307F52C4000F12400036007F50A
:1043F8002C4101F12C010B68013307F52C4202F125
:104408002C02136007F52C4000F12C000368B3F56B
:104418007A7F9BDB07F52C4101F124010B68012B06
:1044280008D1184807F52C4202F12C021168FFF751
:1044380099FA02E01448FFF795FA1448FFF7E8F9EB
:10444800002307F52C4000F124000360002307F542
:104458002C4101F12C010B6046E107F52C4202F1D9
:104468002C021368184612F031F9002307F52C4086
:1044780000F128000360DFE01F85EB5178C20108D6
:10448800F0C20108F8C2010804C3010808C3010802
:1044980012F024F90346C3F30D0307F52C4101F18B
:1044A8000C010B6012F01AF90346C3F30D0307F56C
:1044B8002C4202F10802136007F52C4000F1280095
:1044C800036803F6FF7307F52C4101F10C010B603B
:1044D80007F52C4202F12802136803F5805307F50B
:1044E8002C4000F10800036007F52C4101F10C0194
:1044F8000B689AB207F52C4000F1080003681B040A
:10450800D11807F5244303F1040307F52C4000F103
:104518002800026843F8221007F5705303F13003AE
:104528002C3B07F52C4101F128010A6807F52C40BE
:1045380000F10C00016843F8221007F5605303F1FD
:1045480030032C3B07F52C4101F128010A6807F5D7
:104558002C4000F10800016843F8221012F0BEF860
:10456800034607F52C4101F10C010B6012F0B6F877
:10457800034607F52C4202F10802136007F52C40A8
:1045880000F12800036803F6FF7307F52C4101F1D9
:104598000C010B6007F52C4202F12802136803F5A1
:1045A800805307F52C4000F10800036007F52C4103
:1045B80001F10C010B689AB207F52C4000F10800D4
:1045C80003681B04D11807F51C4303F110030C3BC7
:1045D80007F52C4000F12800026843F8221007F57F
:1045E800505303F130032C3B07F52C4101F128010E
:1045F8000A6807F52C4000F10C00016843F8221006
:1046080007F5405303F130032C3B07F52C4101F12A
:1046180028010A6807F52C4000F10800016843F8F2
:10462800221007F52C4101F128010B68013307F529
:104638002C4202F12802136007F52C4000F12800F3
:104648000368FF2B7FF624AF07F5244101F104012D
:1046580007F5244202F1040207F51C4303F1100395
:104668000C3B084611461A46FEF725F907F5705027
:1046780000F130002C3807F5605101F130012C3978
:1046880007F5505202F130022C3A07F5405303F176
:1046980030032C3BFDF7FEF907F5705202F13002AA
:1046A8002C3A07F5605303F130032C3B07F52444FB
:1046B80004F10404104619462246FDF7B9F90346E9
:1046C800002B06D1012307F52C4101F124010B60D1
:1046D8001AE007F52C4202F12C021368013307F5A2
:1046E8002C4000F12C00036007F52C4101F12C014E
:1046F8000B68B3F57A7F07DA07F52C4202F124023A
:104708001368002B3FF4A9AE07F52C4000F12400F4
:104718000368012B08D1BE4807F52C4202F12C0290
:104728001168FFF71FF902E0BA48FFF71BF9BA480A
:10473800FFF718F9002307F52C4000F12400036067
:10474800002307F52C4101F12C010B6086E007F5E9
:104758002C4202F12C021368184611F0B7FF07F536
:104768002C4303F12C031C6807F130022C3A07F59F
:10477800815303F110032C3B104619462246FDF7DE
:10478800C3FC07F52C4000F12C00036801331C46DC
:1047980007F586622C3A07F5C15303F110032C3B49
:1047A800104619462246FDF7AFFC07F52C4101F1EA
:1047B8002C010B6802331C4607F503622C3A07F5F7
:1047C800005303F130032C3B104619462246FDF7EF
:1047D8009BFC07F543602C3807F130012C3907F5AD
:1047E80086622C3A07F503632C3BFEF7A7F807F51A
:1047F800205000F130002C3807F5815101F11001EB
:104808002C3907F5C15202F110022C3A07F5005372
:1048180003F130032C3BFDF7C7FA07F543622C3A46
:1048280007F5205303F130032C3B10461946FDF7DA
:1048380023FA0346002B06D1012307F52C4202F187
:104848002402136013E007F52C4000F12C000368E4
:10485800013307F52C4101F12C010B6007F52C42BF
:1048680002F12C021368B3F57A7FFFF670AF07F5F3
:104878002C4000F124000368012B03D16748FFF79F
:1048880071F802E06648FFF76DF8002307F52C4140
:1048980001F124010B606348FFF764F8002307F572
:1048A8002C4202F12C02136040E007F52C4000F185
:1048B8002C000368184611F009FF07F5244303F19B
:1048C80004031846FEF75BFB07F52C4101F12C01A8
:1048D8000B68184611F0FAFE07F51C4303F11003A4
:1048E8000C3B1846FCF7F8FA07F5244202F10402DB
:1048F80007F51C4303F110030C3B10461946FDF75E
:10490800BBF90346002B06D1012307F52C4202F11F
:104918002402136012E007F52C4000F12C00036814
:10492800013307F52C4101F12C010B6007F52C42EE
:1049380002F12C021368B3F57A7FB6DB07F52C4039
:1049480000F124000368012B03D13748FFF70AF868
:1049580002E03048FFF706F83448FEF759FF002315
:1049680007F52C4101F124010B60002307F52C42C7
:1049780002F12C0213606BE007F52C4303F12C03C2
:104988001A682B4B83FB02035911D317CB1A6421E6
:1049980001FB03F3D31A002B02D12E20FEF726FFCA
:1049A80007F52C4101F12C010A6807F5244101F1B2
:1049B800040107F51C4303F110030C3B0846194694
:1049C800FDF7A2FB07F5244303F104031846FEF79D
:1049D8001DFD07F51C4303F110030C3B1846FCF7BB
:1049E8005FFB07F5244202F1040207F51C4303F1BB
:1049F80010030C3B10461946FDF73EF90346002B01
:104A080018D1012307F52C4202F1240213602EE08D
:104A1800F8C2010804C3010820C30108B0C2010894
:104A2800B8C2010838C3010848C3010850C30108C7
:104A38001F85EB512E20FEF7D9FE07F52C4000F11B
:104A48002C000368013307F52C4101F12C010B60A0
:104A580007F52C4202F12C021368B3F57A7F06DAC7
:104A680007F52C4000F124000368002B84D007F5DB
:104A78002C4101F124010B68012B08D1C44807F52A
:104A88002C4202F12C021168FEF76CFF02E0C148CB
:104A9800FEF768FFC048FEF7BBFE002307F52C4071
:104AA80000F124000360002307F52C4101F12C01DB
:104AB8000B603AE107F52C4202F12C021368184604
:104AC80011F004FE002307F52C4000F128000360D4
:104AD800D3E011F003FE0346C3F30D0307F52C41A1
:104AE80001F10C010B6011F0F9FD0346C3F30D034E
:104AF80007F52C4202F10802136007F52C4000F17B
:104B08002800036803F6FF7307F52C4101F10C0137
:104B18000B6007F52C4202F12802136803F5805355
:104B280007F52C4000F10800036007F52C4101F15E
:104B38000C010B689AB207F52C4000F108000368D5
:104B48001B04D11807F5244303F1040307F52C408F
:104B580000F12800026843F8221007F5705303F1AA
:104B680030032C3B07F52C4101F128010A6807F5B1
:104B78002C4000F10C00016843F8221007F560533F
:104B880003F130032C3B07F52C4101F128010A6899
:104B980007F52C4000F10800016843F8221011F0D5
:104BA8009DFD034607F52C4101F10C010B6011F046
:104BB80095FD034607F52C4202F10802136007F53C
:104BC8002C4000F12800036803F6FF7307F52C4119
:104BD80001F10C010B6007F52C4202F12802136861
:104BE80003F5805307F52C4000F10800036007F532
:104BF8002C4101F10C010B689AB207F52C4000F129
:104C0800080003681B04D11807F51C4303F11003BF
:104C18000C3B07F52C4000F12800026843F82210ED
:104C280007F5505303F130032C3B07F52C4101F1F4
:104C380028010A6807F52C4000F10C00016843F8C8
:104C4800221007F5405303F130032C3B07F52C41A4
:104C580001F128010A6807F52C4000F108000168F5
:104C680043F8221007F52C4101F128010B680133A4
:104C780007F52C4202F12802136007F52C4000F1D9
:104C880028000368FF2B7FF624AF07F5244101F1C4
:104C9800040107F5244202F1040207F51C4303F15D
:104CA80010030C3B084611461A46FDF725FE07F58A
:104CB800705000F130002C3807F5605101F13001D7
:104CC8002C3907F5505202F130022C3A07F54053BF
:104CD80003F130032C3BFCF72DFF07F5705202F16E
:104CE80030022C3A07F5605303F130032C3B07F5EB
:104CF800244404F10404104619462246FCF798FEA1
:104D08000346002B06D1012307F52C4101F12401AC
:104D18000B601AE007F52C4202F12C0213680133EC
:104D280007F52C4000F12C00036007F52C4101F138
:104D38002C010B68B3F57A7F07DA07F52C4202F1EC
:104D480024021368002B3FF4B5AE07F52C4000F1A0
:104D580024000368012B08D10D4807F52C4202F105
:104D68002C021168FEF7FEFD02E00A48FEF7FAFD84
:104D78000A48FEF74DFD002307F52C4000F12400FA
:104D88000360002307F52C4101F12C010B6048E07A
:104D9800F8C2010804C3010860C3010878C3010808
:104DA80007F52C4202F12C021368184611F08EFC0C
:104DB80007F5244303F104031846FEF7BBF807F58B
:104DC8002C4000F12C000368184611F07FFC07F511
:104DD8001C4303F110030C3B1846FCF741F807F598
:104DE800244202F1040207F51C4303F110030C3BB3
:104DF80010461946FCF740FF0346002B06D1012355
:104E080007F52C4101F124010B6019E007F52C424C
:104E180002F12C021368013307F52C4000F12C0035
:104E2800036007F52C4101F12C010B68B3F57A7F7B
:104E380006DA07F52C4202F124021368002BAFD0E2
:104E480007F52C4000F124000368012B08D14F48D6
:104E580007F52C4202F12C021168FEF783FD02E0EF
:104E68004B48FEF77FFD4B48FEF7D2FC002307F5C1
:104E78002C4000F124000360002307F52C4101F1C8
:104E88002C010B6040E007F52C4202F12C0213685C
:104E9800184611F01BFC07F5244303F104031846D8
:104EA800FEF764F907F52C4000F12C00036818465A
:104EB80011F00CFC07F51C4303F110030C3B1846DA
:104EC800FBF7FCFF07F5244202F1040207F51C4337
:104ED80003F110030C3B10461946FCF7CDFE0346C0
:104EE800002B06D1012307F52C4101F124010B60A9
:104EF80019E007F52C4202F12C021368013307F57B
:104F08002C4000F12C00036007F52C4101F12C0125
:104F18000B68B3F57A7F06DA07F52C4202F1240212
:104F28001368002BAFD007F52C4000F1240003686C
:104F3800012B08D1154807F52C4202F12C02116803
:104F4800FEF710FD02E01248FEF70CFD1248FEF7CE
:104F58005FFC002307F52C4000F1240003600023C8
:104F680007F52C4101F12C010B6045E107F52C42B6
:104F780002F12C021368184611F0A8FB002307F56C
:104F88002C4000F128000360DEE000BFF8C20108F1
:104F980004C3010884C3010890C3010811F09EFBF3
:104FA8000346C3F30D0307F52C4101F10C010B6017
:104FB80011F094FB0346C3F30D0307F52C4202F1ED
:104FC8000802136007F52C4000F12800036803F677
:104FD800FF7307F52C4101F10C010B6007F52C421A
:104FE80002F12802136803F5805307F52C4000F1FD
:104FF8000800036007F52C4101F10C010B689AB217
:1050080007F52C4000F1080003681B04D11807F5C8
:10501800244303F1040307F52C4000F1280002683B
:1050280043F8221007F5705303F130032C3B07F5C2
:105038002C4101F128010A6807F52C4000F10C0009
:10504800016843F8221007F5605303F130032C3B45
:1050580007F52C4101F128010A6807F52C4000F1F9
:105068000800016843F8221011F038FB034607F5E1
:105078002C4101F10C010B6011F030FB034607F5E0
:105088002C4202F10802136007F52C4000F12800B9
:1050980003685B0003F6FF7307F52C4101F10C016F
:1050A8000B6007F52C4202F12802136803F5006330
:1050B8005B0007F52C4000F10800036007F52C4160
:1050C80001F10C010B689AB207F52C4000F10800B9
:1050D80003681B04D11807F51C4303F110030C3BAC
:1050E80007F52C4000F12800026843F8221007F564
:1050F800505303F130032C3B07F52C4101F12801F3
:105108000A6807F52C4000F10C00016843F82210EA
:1051180007F5405303F130032C3B07F52C4101F10F
:1051280028010A6807F52C4000F10800016843F8D7
:10513800221007F52C4101F128010B68013307F50E
:105148002C4202F12802136007F52C4000F12800D8
:105158000368FF2B7FF622AF07F5244101F1040114
:1051680007F5244202F1040207F51C4303F110037A
:105178000C3B084611461A46FDF709FC07F5705026
:1051880000F130002C3807F5605101F130012C395D
:1051980007F5505202F130022C3A07F5405303F15B
:1051A80030032C3BFCF718FD07F5705202F1300272
:1051B8002C3A07F5605303F130032C3B07F52444E0
:1051C80004F10404104619462246FCF731FC034654
:1051D800002B06D1012307F52C4101F124010B60B6
:1051E8001AE007F52C4202F12C021368013307F587
:1051F8002C4000F12C00036007F52C4101F12C0133
:105208000B68B3F57A7F07DA07F52C4202F124021E
:105218001368002B3FF4AAAE07F52C4000F12400D8
:105228000368012B08D1C24807F52C4202F12C0271
:105238001168FEF797FB02E0BE48FEF793FBBE48F5
:10524800FEF7E6FA002307F52C4000F1240003607E
:10525800002307F52C4101F12C010B6043E007F511
:105268002C4202F12C02116807F5244202F10402D3
:1052780007F51C4303F110030C3B084611461A4678
:10528800FCF7F2FF07F5244303F104031846FDF782
:1052980036FE07F51C4303F110030C3B1846FBF7D9
:1052A80057FE07F5244202F1040207F51C4303F1F7
:1052B80010030C3B10461946FCF7DEFC0346002B96
:1052C80006D1012307F52C4000F12400036019E002
:1052D80007F52C4101F12C010B68013307F52C422D
:1052E80002F12C02136007F52C4000F12C00036832
:1052F800B3F57A7F06DA07F52C4101F124010B6832
:10530800002BACD007F52C4202F124021368012BC4
:1053180008D1874807F52C4303F12C031968FEF7D9
:1053280021FB02E08348FEF71DFB8448FEF770FA74
:10533800002307F52C4000F124000360002307F543
:105348002C4101F12C010B6086E007F52C4202F19B
:105358002C02136807F5244202F10402784811462A
:105368001A46FCF7D1FE07F52C4303F12C031A6803
:1053780007F51C4303F110030C3B72481946FCF770
:10538800C3FE07F52C4000F12C00026807F5144312
:1053980003F110030C3B6C481946FCF7B5FE68484E
:1053A800FDF77AFC07F5244303F104031846FBF7DD
:1053B8004FFF07F51C4303F110030C3B1846FBF79E
:1053C80047FF07F5144303F110030C3B1846FBF79E
:1053D8003FFF07F5244303F1040359481946FCF736
:1053E8004BFC0346002B06D1012307F52C4101F1A4
:1053F80024010B6040E007F51C4303F110030C3B4C
:1054080050481946FCF738FC0346002B06D1012307
:1054180007F52C4202F1240213602DE007F514432E
:1054280003F110030C3B48481946FCF725FC0346DA
:10543800002B06D1012307F52C4000F1240003605E
:105448001AE007F52C4101F12C010B68013307F52F
:105458002C4202F12C02136007F52C4000F12C00BD
:105468000368B3F57A7F07DA07F52C4101F12401C7
:105478000B68002B3FF469AF07F52C4202F12402B8
:105488001368012B08D12A4807F52C4303F12C0394
:105498001968FEF767FA02E02648FEF763FA2B4818
:1054A800FEF7B6F9002307F52C4000F1240003604D
:1054B800002307F52C4101F12C010B6053E007F59F
:1054C8002C4303F12C031A6807F5244101F1040168
:1054D80007F51C4303F110030C3B08461946FCF77B
:1054E80013FE07F5244303F104031846FDF746FBB2
:1054F80007F51C4303F110030C3B1846FBF7A8FE05
:1055080007F5244202F1040207F51C4303F11003D6
:105518000C3B10461946FCF7AFFB0346002B17D18E
:10552800012307F52C4000F1240003602AE000BFA6
:10553800F8C2010804C30108A8C30108B8C30108D8
:10554800D8720020D8760020D87A0020D0C301086D
:1055580007F52C4101F12C010B68013307F52C42AA
:1055680002F12C02136007F52C4000F12C000368AF
:10557800B3F57A7F06DA07F52C4101F124010B68AF
:10558800002B9CD007F52C4202F124021368012B52
:1055980008D1454807F52C4303F12C031968FEF799
:1055A800E1F902E04148FEF7DDF94148FEF730F93C
:1055B800002307F52C4000F124000360002307F5C1
:1055C8002C4101F12C010B6042E007F52C4303F15B
:1055D8002C031A6807F5244101F1040107F51C435F
:1055E80003F110030C3B08461946FCF78DFD07F53F
:1055F800244303F104031846FDF7F9F907F51C43A2
:1056080003F110030C3B1846FBF7D8FF07F52442BB
:1056180002F1040207F51C4303F110030C3B10468A
:105628001946FCF729FB0346002B06D1012307F591
:105638002C4000F12400036019E007F52C4101F12A
:105648002C010B68013307F52C4202F12C02136080
:1056580007F52C4000F12C000368B3F57A7F06DAD1
:1056680007F52C4101F124010B68002BADD007F59B
:105678002C4202F124021368012B08D10A4807F5CD
:105688002C4303F12C031968FEF76CF902E0074874
:10569800FEF768F90748FEF765F9002307F52C407F
:1056A80000F12C0003602FE1F8C2010804C30108CF
:1056B800E0C30108F0C3010807F52C4101F12C01F2
:1056C8000B68184611F002F807F5E84303F13003B8
:1056D8002C3B1846FCF7FCFC07F52C4202F12C0287
:1056E8001368184610F0F2FF07F5C15101F11001D7
:1056F8002C3907F5005202F130022C3A07F52053F5
:1057080003F130032C3B084611461A46FCF7C2FB4E
:1057180007F52C4000F12C000368184610F0D6FF5E
:1057280007F5C15000F110002C3807F5D04101F100
:1057380030012C3907F5C04202F130022C3A07F546
:10574800E84303F130032C3B07F5005404F130041F
:105758002C3C0094FCF7D6FB07F52C4101F12C01F9
:105768000B68184610F0B2FF07F5E04303F1300369
:105778002C3B1846FDF7A0FD07F52C4202F12C0240
:105788001368184610F0A2FF07F503612C3907F5D6
:1057980043622C3A07F5815303F110032C3B08466A
:1057A80011461A46FDF7F0FC07F52C4000F12C00D5
:1057B8000368184610F08AFF07F503602C3807F5D0
:1057C800B84101F130012C3907F5B04202F130023D
:1057D8002C3A07F5E04303F130032C3B07F543640B
:1057E8002C3C0094FDF71AFD07F5E04202F1300267
:1057F8002C3A07F5E84303F130032C3B10461946D1
:10580800FCF73AFA0346002B08D1D348FEF7AAF86A
:10581800012307F52C4101F124010B6007F5036210
:105828002C3A07F5C15303F110032C3B10461946D7
:10583800FCF722FA0346002B08D1C848FEF792F875
:10584800012307F52C4202F12402136007F5436295
:105858002C3A07F5005303F130032C3B1046194648
:10586800FCF70AFA0346002B08D1BD48FEF77AF880
:10587800012307F52C4000F12400036007F5B84226
:1058880002F130022C3A07F5D04303F130032C3BE8
:1058980010461946FCF7F0F90346002B08D1B14829
:1058A800FEF760F8012307F52C4101F124010B6094
:1058B80007F5B04202F130022C3A07F5C04303F174
:1058C80030032C3B10461946FCF7D6F90346002B4B
:1058D80008D1A548FEF746F8012307F52C4202F146
:1058E8002402136007F52C4000F124000368012B03
:1058F80012D007F52C4101F12C010B68013307F593
:105908002C4202F12C02136007F52C4000F12C0008
:105918000368632B7FF7D0AE07F52C4101F1240112
:105928000B68012B08D1914807F52C4202F12C0293
:105938001168FEF717F802E08D48FEF713F88D4856
:10594800FEF710F8002307F52C4000F12C00036047
:10595800EAE007F52C4101F12C010B68184610F01C
:10596800B5FE07F5E84303F130032C3B1846FCF776
:10597800AFFB07F52C4202F12C021368184610F011
:10598800A5FE07F50C4101F130012C3907F5044259
:1059980002F130022C3A07F5F84303F130032C3BAF
:1059A800084611461A46FCF775FA07F52C4000F12F
:1059B8002C000368184610F089FE07F50C4000F12A
:1059C80030002C3807F5D04101F130012C3907F5AA
:1059D800C04202F130022C3A07F5E84303F13003E4
:1059E8002C3B07F5044404F130042C3C0094FCF7EC
:1059F80089FA07F5D04101F130012C3907F5C04289
:105A080002F130022C3A07F5F84303F130032C3B3E
:105A1800084611461A46FCF745FB07F52C4101F1EB
:105A28002C010B68184610F051FE07F50C4101F1E6
:105A380030012C3907F5044202F130022C3A07F5FF
:105A4800F84303F130032C3B084611461A46FDF78C
:105A58009BFB07F52C4202F12C021368184610F044
:105A680035FE07F5E04303F130032C3B1846FDF7FC
:105A780023FC07F52C4000F12C000368184610F0B1
:105A880025FE07F50C4000F130002C3807F5B84129
:105A980001F130012C3907F5B04202F130022C3AFD
:105AA80007F5E04303F130032C3B07F5044404F108
:105AB80030042C3C0094FDF7B1FB07F5B84101F127
:105AC80030012C3907F5B04202F130022C3A07F5C3
